{
  "_format": "hh-sol-artifact-1",
  "contractName": "MockStETH",
  "sourceName": "contracts/mocks/MockStETH.sol",
  "abi": [
    {
      "inputs": [
        {
          "internalType": "uint256",
          "name": "pooledEthByShares_",
          "type": "uint256"
        }
      ],
      "stateMutability": "nonpayable",
      "type": "constructor"
    },
    {
      "anonymous": false,
      "inputs": [
        {
          "indexed": true,
          "internalType": "address",
          "name": "owner",
          "type": "address"
        },
        {
          "indexed": true,
          "internalType": "address",
          "name": "spender",
          "type": "address"
        },
        {
          "indexed": false,
          "internalType": "uint256",
          "name": "amount",
          "type": "uint256"
        }
      ],
      "name": "Approval",
      "type": "event"
    },
    {
      "anonymous": false,
      "inputs": [
        {
          "indexed": true,
          "internalType": "address",
          "name": "from",
          "type": "address"
        },
        {
          "indexed": true,
          "internalType": "address",
          "name": "to",
          "type": "address"
        },
        {
          "indexed": false,
          "internalType": "uint256",
          "name": "amount",
          "type": "uint256"
        }
      ],
      "name": "Transfer",
      "type": "event"
    },
    {
      "inputs": [],
      "name": "DOMAIN_SEPARATOR",
      "outputs": [
        {
          "internalType": "bytes32",
          "name": "",
          "type": "bytes32"
        }
      ],
      "stateMutability": "view",
      "type": "function"
    },
    {
      "inputs": [
        {
          "internalType": "address",
          "name": "",
          "type": "address"
        },
        {
          "internalType": "address",
          "name": "",
          "type": "address"
        }
      ],
      "name": "allowance",
      "outputs": [
        {
          "internalType": "uint256",
          "name": "",
          "type": "uint256"
        }
      ],
      "stateMutability": "view",
      "type": "function"
    },
    {
      "inputs": [
        {
          "internalType": "address",
          "name": "spender",
          "type": "address"
        },
        {
          "internalType": "uint256",
          "name": "amount",
          "type": "uint256"
        }
      ],
      "name": "approve",
      "outputs": [
        {
          "internalType": "bool",
          "name": "",
          "type": "bool"
        }
      ],
      "stateMutability": "nonpayable",
      "type": "function"
    },
    {
      "inputs": [
        {
          "internalType": "address",
          "name": "",
          "type": "address"
        }
      ],
      "name": "balanceOf",
      "outputs": [
        {
          "internalType": "uint256",
          "name": "",
          "type": "uint256"
        }
      ],
      "stateMutability": "view",
      "type": "function"
    },
    {
      "inputs": [],
      "name": "decimals",
      "outputs": [
        {
          "internalType": "uint8",
          "name": "",
          "type": "uint8"
        }
      ],
      "stateMutability": "view",
      "type": "function"
    },
    {
      "inputs": [
        {
          "internalType": "uint256",
          "name": "",
          "type": "uint256"
        }
      ],
      "name": "getPooledEthByShares",
      "outputs": [
        {
          "internalType": "uint256",
          "name": "",
          "type": "uint256"
        }
      ],
      "stateMutability": "view",
      "type": "function"
    },
    {
      "inputs": [
        {
          "internalType": "address",
          "name": "to",
          "type": "address"
        },
        {
          "internalType": "uint256",
          "name": "value",
          "type": "uint256"
        }
      ],
      "name": "mint",
      "outputs": [],
      "stateMutability": "nonpayable",
      "type": "function"
    },
    {
      "inputs": [],
      "name": "name",
      "outputs": [
        {
          "internalType": "string",
          "name": "",
          "type": "string"
        }
      ],
      "stateMutability": "view",
      "type": "function"
    },
    {
      "inputs": [
        {
          "internalType": "address",
          "name": "",
          "type": "address"
        }
      ],
      "name": "nonces",
      "outputs": [
        {
          "internalType": "uint256",
          "name": "",
          "type": "uint256"
        }
      ],
      "stateMutability": "view",
      "type": "function"
    },
    {
      "inputs": [
        {
          "internalType": "address",
          "name": "owner",
          "type": "address"
        },
        {
          "internalType": "address",
          "name": "spender",
          "type": "address"
        },
        {
          "internalType": "uint256",
          "name": "value",
          "type": "uint256"
        },
        {
          "internalType": "uint256",
          "name": "deadline",
          "type": "uint256"
        },
        {
          "internalType": "uint8",
          "name": "v",
          "type": "uint8"
        },
        {
          "internalType": "bytes32",
          "name": "r",
          "type": "bytes32"
        },
        {
          "internalType": "bytes32",
          "name": "s",
          "type": "bytes32"
        }
      ],
      "name": "permit",
      "outputs": [],
      "stateMutability": "nonpayable",
      "type": "function"
    },
    {
      "inputs": [],
      "name": "pooledEthByShares",
      "outputs": [
        {
          "internalType": "uint256",
          "name": "",
          "type": "uint256"
        }
      ],
      "stateMutability": "view",
      "type": "function"
    },
    {
      "inputs": [
        {
          "internalType": "uint256",
          "name": "pooledEthByShares_",
          "type": "uint256"
        }
      ],
      "name": "setPooledEthByShares",
      "outputs": [],
      "stateMutability": "nonpayable",
      "type": "function"
    },
    {
      "inputs": [],
      "name": "symbol",
      "outputs": [
        {
          "internalType": "string",
          "name": "",
          "type": "string"
        }
      ],
      "stateMutability": "view",
      "type": "function"
    },
    {
      "inputs": [],
      "name": "totalSupply",
      "outputs": [
        {
          "internalType": "uint256",
          "name": "",
          "type": "uint256"
        }
      ],
      "stateMutability": "view",
      "type": "function"
    },
    {
      "inputs": [
        {
          "internalType": "address",
          "name": "to",
          "type": "address"
        },
        {
          "internalType": "uint256",
          "name": "amount",
          "type": "uint256"
        }
      ],
      "name": "transfer",
      "outputs": [
        {
          "internalType": "bool",
          "name": "",
          "type": "bool"
        }
      ],
      "stateMutability": "nonpayable",
      "type": "function"
    },
    {
      "inputs": [
        {
          "internalType": "address",
          "name": "from",
          "type": "address"
        },
        {
          "internalType": "address",
          "name": "to",
          "type": "address"
        },
        {
          "internalType": "uint256",
          "name": "amount",
          "type": "uint256"
        }
      ],
      "name": "transferFrom",
      "outputs": [
        {
          "internalType": "bool",
          "name": "",
          "type": "bool"
        }
      ],
      "stateMutability": "nonpayable",
      "type": "function"
    }
  ],
  "bytecode": "0x60e060405234801561000f575f80fd5b50604051610e23380380610e2383398101604081905261002e91610131565b6040805180820182526005808252640e6e88aa8960db1b60208084018290528451808601909552918452908301529060125f61006a84826101e0565b50600161007783826101e0565b5060ff81166080524660a05261008b610099565b60c052505050600655610311565b5f7f8b73c3c69bb8fe3d512ecc4cf759cc79239f7b179b0ffacaa9a75d522b39400f5f6040516100c9919061029f565b6040805191829003822060208301939093528101919091527fc89efdaa54c0f20c7adf612882df0950f5a951637e0307cdcb4c672f298b8bc660608201524660808201523060a082015260c00160405160208183030381529060405280519060200120905090565b5f60208284031215610141575f80fd5b5051919050565b634e487b7160e01b5f52604160045260245ffd5b600181811c9082168061017057607f821691505b60208210810361018e57634e487b7160e01b5f52602260045260245ffd5b50919050565b601f8211156101db57805f5260205f20601f840160051c810160208510156101b95750805b601f840160051c820191505b818110156101d8575f81556001016101c5565b50505b505050565b81516001600160401b038111156101f9576101f9610148565b61020d81610207845461015c565b84610194565b602080601f831160018114610240575f84156102295750858301515b5f19600386901b1c1916600185901b178555610297565b5f85815260208120601f198616915b8281101561026e5788860151825594840194600190910190840161024f565b508582101561028b57878501515f19600388901b60f8161c191681555b505060018460011b0185555b505050505050565b5f8083546102ac8161015c565b600182811680156102c457600181146102d957610305565b60ff1984168752821515830287019450610305565b875f526020805f205f5b858110156102fc5781548a8201529084019082016102e3565b50505082870194505b50929695505050505050565b60805160a05160c051610ae861033b5f395f6104a301525f61046e01525f61016f0152610ae85ff3fe608060405234801561000f575f80fd5b50600436106100fb575f3560e01c80637a28fb8811610093578063b92a4fee11610063578063b92a4fee1461022e578063be1cd1e614610241578063d505accf1461024a578063dd62ed3e1461025d575f80fd5b80637a28fb88146101df5780637ecebe00146101f457806395d89b4114610213578063a9059cbb1461021b575f80fd5b8063313ce567116100ce578063313ce5671461016a5780633644e515146101a357806340c10f19146101ab57806370a08231146101c0575f80fd5b806306fdde03146100ff578063095ea7b31461011d57806318160ddd1461014057806323b872dd14610157575b5f80fd5b610107610287565b604051610114919061081c565b60405180910390f35b61013061012b36600461086c565b610312565b6040519015158152602001610114565b61014960025481565b604051908152602001610114565b610130610165366004610894565b61037e565b6101917f000000000000000000000000000000000000000000000000000000000000000081565b60405160ff9091168152602001610114565b61014961046b565b6101be6101b936600461086c565b6104c5565b005b6101496101ce3660046108cd565b60036020525f908152604090205481565b6101496101ed3660046108ed565b5060065490565b6101496102023660046108cd565b60056020525f908152604090205481565b6101076104d3565b61013061022936600461086c565b6104e0565b6101be61023c3660046108ed565b600655565b61014960065481565b6101be610258366004610904565b610556565b61014961026b366004610971565b600460209081525f928352604080842090915290825290205481565b5f8054610293906109a2565b80601f01602080910402602001604051908101604052809291908181526020018280546102bf906109a2565b801561030a5780601f106102e15761010080835404028352916020019161030a565b820191905f5260205f20905b8154815290600101906020018083116102ed57829003601f168201915b505050505081565b335f8181526004602090815260408083206001600160a01b038716808552925280832085905551919290917f8c5be1e5ebec7d5bd14f71427d1e84f3dd0314c0f7b2291e5b200ac8c7c3b9259061036c9086815260200190565b60405180910390a35060015b92915050565b6001600160a01b0383165f9081526004602090815260408083203384529091528120545f1981146103d7576103b383826109ee565b6001600160a01b0386165f9081526004602090815260408083203384529091529020555b6001600160a01b0385165f90815260036020526040812080548592906103fe9084906109ee565b90915550506001600160a01b038085165f81815260036020526040908190208054870190555190918716907fddf252ad1be2c89b69c2b068fc378daa952ba7f163c4a11628f55a4df523b3ef906104589087815260200190565b60405180910390a3506001949350505050565b5f7f000000000000000000000000000000000000000000000000000000000000000046146104a05761049b61071b565b905090565b507f000000000000000000000000000000000000000000000000000000000000000090565b6104cf82826107b3565b5050565b60018054610293906109a2565b335f908152600360205260408120805483919083906105009084906109ee565b90915550506001600160a01b0383165f81815260036020526040908190208054850190555133907fddf252ad1be2c89b69c2b068fc378daa952ba7f163c4a11628f55a4df523b3ef9061036c9086815260200190565b42841015610562575f80fd5b5f600161056d61046b565b6001600160a01b038a81165f8181526005602090815260409182902080546001810190915582517f6e71edae12b1b97f4d1f60370fef10105fa2faae0126114a169c64845d6126c98184015280840194909452938d166060840152608083018c905260a083019390935260c08083018b90528151808403909101815260e08301909152805192019190912061190160f01b6101008301526101028201929092526101228101919091526101420160408051601f1981840301815282825280516020918201205f84529083018083525260ff871690820152606081018590526080810184905260a0016020604051602081039080840390855afa158015610675573d5f803e3d5ffd5b5050604051601f1901519150506001600160a01b038116158015906106ab5750876001600160a01b0316816001600160a01b0316145b6106b3575f80fd5b6001600160a01b039081165f9081526004602090815260408083208a8516808552908352928190208990555188815291928a16917f8c5be1e5ebec7d5bd14f71427d1e84f3dd0314c0f7b2291e5b200ac8c7c3b925910160405180910390a350505050505050565b5f7f8b73c3c69bb8fe3d512ecc4cf759cc79239f7b179b0ffacaa9a75d522b39400f5f60405161074b9190610a01565b6040805191829003822060208301939093528101919091527fc89efdaa54c0f20c7adf612882df0950f5a951637e0307cdcb4c672f298b8bc660608201524660808201523060a082015260c00160405160208183030381529060405280519060200120905090565b8060025f8282546107c49190610a9f565b90915550506001600160a01b0382165f818152600360209081526040808320805486019055518481527fddf252ad1be2c89b69c2b068fc378daa952ba7f163c4a11628f55a4df523b3ef910160405180910390a35050565b602081525f82518060208401528060208501604085015e5f604082850101526040601f19601f83011684010191505092915050565b80356001600160a01b0381168114610867575f80fd5b919050565b5f806040838503121561087d575f80fd5b61088683610851565b946020939093013593505050565b5f805f606084860312156108a6575f80fd5b6108af84610851565b92506108bd60208501610851565b9150604084013590509250925092565b5f602082840312156108dd575f80fd5b6108e682610851565b9392505050565b5f602082840312156108fd575f80fd5b5035919050565b5f805f805f805f60e0888a03121561091a575f80fd5b61092388610851565b965061093160208901610851565b95506040880135945060608801359350608088013560ff81168114610954575f80fd5b9699959850939692959460a0840135945060c09093013592915050565b5f8060408385031215610982575f80fd5b61098b83610851565b915061099960208401610851565b90509250929050565b600181811c908216806109b657607f821691505b6020821081036109d457634e487b7160e01b5f52602260045260245ffd5b50919050565b634e487b7160e01b5f52601160045260245ffd5b81810381811115610378576103786109da565b5f8083545f60018260011c91506001831680610a1e57607f831692505b60208084108203610a3d57634e487b7160e01b5f52602260045260245ffd5b818015610a515760018114610a6657610a91565b60ff1986168952841515850289019650610a91565b5f8a8152602090205f5b86811015610a895781548b820152908501908301610a70565b505084890196505b509498975050505050505050565b80820180821115610378576103786109da56fea2646970667358221220d6689c62a7176918f871aca76565eed3b1c53507344258a6c743267deb8f184064736f6c63430008190033",
  "linkReferences": {},
  "deployedLinkReferences": {}
}