{"abi":[{"type":"constructor","inputs":[{"name":"rate_","type":"uint256","internalType":"uint256"}],"stateMutability":"nonpayable"},{"type":"function","name":"fixedBorrowRate","inputs":[{"name":"maturity","type":"uint256","internalType":"uint256"},{"name":"","type":"uint256","internalType":"uint256"},{"name":"","type":"uint256","internalType":"uint256"},{"name":"","type":"uint256","internalType":"uint256"},{"name":"","type":"uint256","internalType":"uint256"}],"outputs":[{"name":"","type":"uint256","internalType":"uint256"}],"stateMutability":"view"},{"type":"function","name":"fixedRate","inputs":[{"name":"","type":"uint256","internalType":"uint256"},{"name":"","type":"uint256","internalType":"uint256"},{"name":"","type":"uint256","internalType":"uint256"},{"name":"","type":"uint256","internalType":"uint256"},{"name":"","type":"uint256","internalType":"uint256"}],"outputs":[{"name":"","type":"uint256","internalType":"uint256"}],"stateMutability":"view"},{"type":"function","name":"floatingRate","inputs":[{"name":"","type":"uint256","internalType":"uint256"},{"name":"","type":"uint256","internalType":"uint256"}],"outputs":[{"name":"","type":"uint256","internalType":"uint256"}],"stateMutability":"view"},{"type":"function","name":"floatingRate","inputs":[{"name":"","type":"uint256","internalType":"uint256"}],"outputs":[{"name":"","type":"uint256","internalType":"uint256"}],"stateMutability":"view"},{"type":"function","name":"rate","inputs":[],"outputs":[{"name":"","type":"uint256","internalType":"uint256"}],"stateMutability":"view"},{"type":"function","name":"setRate","inputs":[{"name":"newRate","type":"uint256","internalType":"uint256"}],"outputs":[],"stateMutability":"nonpayable"}],"bytecode":{"object":"0x6080604052348015600e575f80fd5b50604051610273380380610273833981016040819052602b916031565b5f556047565b5f602082840312156040575f80fd5b5051919050565b61021f806100545f395ff3fe608060405234801561000f575f80fd5b5060043610610060575f3560e01c80632c4e722e1461006457806334fcf4371461007e5780637c21fb1d1461009257806384a87466146100a5578063d9d9048d146100b9578063df635f3d146100d2575b5f80fd5b61006c5f5481565b60405190815260200160405180910390f35b61009061008c36600461011e565b5f55565b005b61006c6100a0366004610135565b6100e5565b61006c6100b336600461011e565b505f5490565b61006c6100c7366004610155565b5f5495945050505050565b61006c6100e0366004610155565b6100ee565b5f545b92915050565b5f6301e133806100fe42886101a0565b5f5461010a91906101b3565b61011491906101ca565b9695505050505050565b5f6020828403121561012e575f80fd5b5035919050565b5f8060408385031215610146575f80fd5b50508035926020909101359150565b5f805f805f60a08688031215610169575f80fd5b505083359560208501359550604085013594606081013594506080013592509050565b634e487b7160e01b5f52601160045260245ffd5b818103818111156100e8576100e861018c565b80820281158282048414176100e8576100e861018c565b5f826101e457634e487b7160e01b5f52601260045260245ffd5b50049056fea264697066735822122079fd9a4f7bd555e918d4f0ad8c411304458ac3dc302bbcc790912dc202f71ec764736f6c63430008190033","linkReferences":{}},"methodIdentifiers":{"fixedBorrowRate(uint256,uint256,uint256,uint256,uint256)":"df635f3d","fixedRate(uint256,uint256,uint256,uint256,uint256)":"d9d9048d","floatingRate(uint256)":"84a87466","floatingRate(uint256,uint256)":"7c21fb1d","rate()":"2c4e722e","setRate(uint256)":"34fcf437"},"id":9}