{"abi":[{"type":"constructor","inputs":[],"stateMutability":"nonpayable"},{"type":"function","name":"DEFAULT_ADMIN_ROLE","inputs":[],"outputs":[{"name":"","type":"bytes32","internalType":"bytes32"}],"stateMutability":"view"},{"type":"function","name":"DOMAIN_SEPARATOR","inputs":[],"outputs":[{"name":"","type":"bytes32","internalType":"bytes32"}],"stateMutability":"view"},{"type":"function","name":"UTILIZATION_CAP","inputs":[],"outputs":[{"name":"","type":"uint256","internalType":"uint256"}],"stateMutability":"view"},{"type":"function","name":"accountOperation","inputs":[{"name":"account","type":"address","internalType":"address"},{"name":"market","type":"address","internalType":"contract Market"},{"name":"operation","type":"bool","internalType":"bool"},{"name":"reward","type":"address","internalType":"contract ERC20"}],"outputs":[{"name":"","type":"uint256","internalType":"uint256"},{"name":"","type":"uint256","internalType":"uint256"}],"stateMutability":"view"},{"type":"function","name":"allClaimable","inputs":[{"name":"account","type":"address","internalType":"address"},{"name":"reward","type":"address","internalType":"contract ERC20"}],"outputs":[{"name":"unclaimedRewards","type":"uint256","internalType":"uint256"}],"stateMutability":"view"},{"type":"function","name":"allMarketsOperations","inputs":[],"outputs":[{"name":"marketOps","type":"tuple[]","internalType":"struct RewardsController.MarketOperation[]","components":[{"name":"market","type":"address","internalType":"contract Market"},{"name":"operations","type":"bool[]","internalType":"bool[]"}]}],"stateMutability":"view"},{"type":"function","name":"allRewards","inputs":[],"outputs":[{"name":"","type":"address[]","internalType":"contract ERC20[]"}],"stateMutability":"view"},{"type":"function","name":"availableRewardsCount","inputs":[{"name":"market","type":"address","internalType":"contract Market"}],"outputs":[{"name":"","type":"uint256","internalType":"uint256"}],"stateMutability":"view"},{"type":"function","name":"claim","inputs":[{"name":"marketOps","type":"tuple[]","internalType":"struct RewardsController.MarketOperation[]","components":[{"name":"market","type":"address","internalType":"contract Market"},{"name":"operations","type":"bool[]","internalType":"bool[]"}]},{"name":"permit","type":"tuple","internalType":"struct ClaimPermit","components":[{"name":"owner","type":"address","internalType":"address"},{"name":"assets","type":"address[]","internalType":"contract ERC20[]"},{"name":"deadline","type":"uint256","internalType":"uint256"},{"name":"v","type":"uint8","internalType":"uint8"},{"name":"r","type":"bytes32","internalType":"bytes32"},{"name":"s","type":"bytes32","internalType":"bytes32"}]}],"outputs":[{"name":"","type":"address[]","internalType":"contract ERC20[]"},{"name":"claimedAmounts","type":"uint256[]","internalType":"uint256[]"}],"stateMutability":"nonpayable"},{"type":"function","name":"claim","inputs":[{"name":"marketOps","type":"tuple[]","internalType":"struct RewardsController.MarketOperation[]","components":[{"name":"market","type":"address","internalType":"contract Market"},{"name":"operations","type":"bool[]","internalType":"bool[]"}]},{"name":"to","type":"address","internalType":"address"},{"name":"rewardsList","type":"address[]","internalType":"contract ERC20[]"}],"outputs":[{"name":"","type":"address[]","internalType":"contract ERC20[]"},{"name":"claimedAmounts","type":"uint256[]","internalType":"uint256[]"}],"stateMutability":"nonpayable"},{"type":"function","name":"claimAll","inputs":[{"name":"to","type":"address","internalType":"address"}],"outputs":[{"name":"rewardsList","type":"address[]","internalType":"contract ERC20[]"},{"name":"claimedAmounts","type":"uint256[]","internalType":"uint256[]"}],"stateMutability":"nonpayable"},{"type":"function","name":"claimable","inputs":[{"name":"marketOps","type":"tuple[]","internalType":"struct RewardsController.MarketOperation[]","components":[{"name":"market","type":"address","internalType":"contract Market"},{"name":"operations","type":"bool[]","internalType":"bool[]"}]},{"name":"account","type":"address","internalType":"address"},{"name":"reward","type":"address","internalType":"contract ERC20"}],"outputs":[{"name":"unclaimedRewards","type":"uint256","internalType":"uint256"}],"stateMutability":"view"},{"type":"function","name":"config","inputs":[{"name":"configs","type":"tuple[]","internalType":"struct RewardsController.Config[]","components":[{"name":"market","type":"address","internalType":"contract Market"},{"name":"reward","type":"address","internalType":"contract ERC20"},{"name":"priceFeed","type":"address","internalType":"contract IPriceFeed"},{"name":"start","type":"uint32","internalType":"uint32"},{"name":"distributionPeriod","type":"uint256","internalType":"uint256"},{"name":"targetDebt","type":"uint256","internalType":"uint256"},{"name":"totalDistribution","type":"uint256","internalType":"uint256"},{"name":"undistributedFactor","type":"uint256","internalType":"uint256"},{"name":"flipSpeed","type":"int128","internalType":"int128"},{"name":"compensationFactor","type":"uint64","internalType":"uint64"},{"name":"transitionFactor","type":"uint64","internalType":"uint64"},{"name":"borrowAllocationWeightFactor","type":"uint64","internalType":"uint64"},{"name":"depositAllocationWeightAddend","type":"uint64","internalType":"uint64"},{"name":"depositAllocationWeightFactor","type":"uint64","internalType":"uint64"}]}],"outputs":[],"stateMutability":"nonpayable"},{"type":"function","name":"distribution","inputs":[{"name":"","type":"address","internalType":"contract Market"}],"outputs":[{"name":"availableRewardsCount","type":"uint8","internalType":"uint8"},{"name":"baseUnit","type":"uint256","internalType":"uint256"}],"stateMutability":"view"},{"type":"function","name":"distributionTime","inputs":[{"name":"market","type":"address","internalType":"contract Market"},{"name":"reward","type":"address","internalType":"contract ERC20"}],"outputs":[{"name":"","type":"uint32","internalType":"uint32"},{"name":"","type":"uint32","internalType":"uint32"},{"name":"","type":"uint32","internalType":"uint32"}],"stateMutability":"view"},{"type":"function","name":"getRoleAdmin","inputs":[{"name":"role","type":"bytes32","internalType":"bytes32"}],"outputs":[{"name":"","type":"bytes32","internalType":"bytes32"}],"stateMutability":"view"},{"type":"function","name":"grantRole","inputs":[{"name":"role","type":"bytes32","internalType":"bytes32"},{"name":"account","type":"address","internalType":"address"}],"outputs":[],"stateMutability":"nonpayable"},{"type":"function","name":"handleBorrow","inputs":[{"name":"account","type":"address","internalType":"address"}],"outputs":[],"stateMutability":"nonpayable"},{"type":"function","name":"handleDeposit","inputs":[{"name":"account","type":"address","internalType":"address"}],"outputs":[],"stateMutability":"nonpayable"},{"type":"function","name":"hasRole","inputs":[{"name":"role","type":"bytes32","internalType":"bytes32"},{"name":"account","type":"address","internalType":"address"}],"outputs":[{"name":"","type":"bool","internalType":"bool"}],"stateMutability":"view"},{"type":"function","name":"initialize","inputs":[],"outputs":[],"stateMutability":"nonpayable"},{"type":"function","name":"marketList","inputs":[{"name":"","type":"uint256","internalType":"uint256"}],"outputs":[{"name":"","type":"address","internalType":"contract Market"}],"stateMutability":"view"},{"type":"function","name":"nonces","inputs":[{"name":"","type":"address","internalType":"address"}],"outputs":[{"name":"","type":"uint256","internalType":"uint256"}],"stateMutability":"view"},{"type":"function","name":"previewAllocation","inputs":[{"name":"market","type":"address","internalType":"contract Market"},{"name":"reward","type":"address","internalType":"contract ERC20"},{"name":"deltaTime","type":"uint256","internalType":"uint256"}],"outputs":[{"name":"borrowIndex","type":"uint256","internalType":"uint256"},{"name":"depositIndex","type":"uint256","internalType":"uint256"},{"name":"newUndistributed","type":"uint256","internalType":"uint256"}],"stateMutability":"view"},{"type":"function","name":"renounceRole","inputs":[{"name":"role","type":"bytes32","internalType":"bytes32"},{"name":"account","type":"address","internalType":"address"}],"outputs":[],"stateMutability":"nonpayable"},{"type":"function","name":"revokeRole","inputs":[{"name":"role","type":"bytes32","internalType":"bytes32"},{"name":"account","type":"address","internalType":"address"}],"outputs":[],"stateMutability":"nonpayable"},{"type":"function","name":"rewardConfig","inputs":[{"name":"market","type":"address","internalType":"contract Market"},{"name":"reward","type":"address","internalType":"contract ERC20"}],"outputs":[{"name":"","type":"tuple","internalType":"struct RewardsController.Config","components":[{"name":"market","type":"address","internalType":"contract Market"},{"name":"reward","type":"address","internalType":"contract ERC20"},{"name":"priceFeed","type":"address","internalType":"contract IPriceFeed"},{"name":"start","type":"uint32","internalType":"uint32"},{"name":"distributionPeriod","type":"uint256","internalType":"uint256"},{"name":"targetDebt","type":"uint256","internalType":"uint256"},{"name":"totalDistribution","type":"uint256","internalType":"uint256"},{"name":"undistributedFactor","type":"uint256","internalType":"uint256"},{"name":"flipSpeed","type":"int128","internalType":"int128"},{"name":"compensationFactor","type":"uint64","internalType":"uint64"},{"name":"transitionFactor","type":"uint64","internalType":"uint64"},{"name":"borrowAllocationWeightFactor","type":"uint64","internalType":"uint64"},{"name":"depositAllocationWeightAddend","type":"uint64","internalType":"uint64"},{"name":"depositAllocationWeightFactor","type":"uint64","internalType":"uint64"}]}],"stateMutability":"view"},{"type":"function","name":"rewardEnabled","inputs":[{"name":"","type":"address","internalType":"contract ERC20"}],"outputs":[{"name":"","type":"bool","internalType":"bool"}],"stateMutability":"view"},{"type":"function","name":"rewardIndexes","inputs":[{"name":"market","type":"address","internalType":"contract Market"},{"name":"reward","type":"address","internalType":"contract ERC20"}],"outputs":[{"name":"","type":"uint256","internalType":"uint256"},{"name":"","type":"uint256","internalType":"uint256"},{"name":"","type":"uint256","internalType":"uint256"}],"stateMutability":"view"},{"type":"function","name":"rewardList","inputs":[{"name":"","type":"uint256","internalType":"uint256"}],"outputs":[{"name":"","type":"address","internalType":"contract ERC20"}],"stateMutability":"view"},{"type":"function","name":"supportsInterface","inputs":[{"name":"interfaceId","type":"bytes4","internalType":"bytes4"}],"outputs":[{"name":"","type":"bool","internalType":"bool"}],"stateMutability":"view"},{"type":"function","name":"withdraw","inputs":[{"name":"asset","type":"address","internalType":"contract ERC20"},{"name":"to","type":"address","internalType":"address"}],"outputs":[],"stateMutability":"nonpayable"},{"type":"event","name":"Accrue","inputs":[{"name":"market","type":"address","indexed":true,"internalType":"contract Market"},{"name":"reward","type":"address","indexed":true,"internalType":"contract ERC20"},{"name":"account","type":"address","indexed":true,"internalType":"address"},{"name":"operation","type":"bool","indexed":false,"internalType":"bool"},{"name":"accountIndex","type":"uint256","indexed":false,"internalType":"uint256"},{"name":"operationIndex","type":"uint256","indexed":false,"internalType":"uint256"},{"name":"rewardsAccrued","type":"uint256","indexed":false,"internalType":"uint256"}],"anonymous":false},{"type":"event","name":"Claim","inputs":[{"name":"account","type":"address","indexed":true,"internalType":"address"},{"name":"reward","type":"address","indexed":true,"internalType":"contract ERC20"},{"name":"to","type":"address","indexed":true,"internalType":"address"},{"name":"amount","type":"uint256","indexed":false,"internalType":"uint256"}],"anonymous":false},{"type":"event","name":"DistributionSet","inputs":[{"name":"market","type":"address","indexed":true,"internalType":"contract Market"},{"name":"reward","type":"address","indexed":true,"internalType":"contract ERC20"},{"name":"config","type":"tuple","indexed":false,"internalType":"struct RewardsController.Config","components":[{"name":"market","type":"address","internalType":"contract Market"},{"name":"reward","type":"address","internalType":"contract ERC20"},{"name":"priceFeed","type":"address","internalType":"contract IPriceFeed"},{"name":"start","type":"uint32","internalType":"uint32"},{"name":"distributionPeriod","type":"uint256","internalType":"uint256"},{"name":"targetDebt","type":"uint256","internalType":"uint256"},{"name":"totalDistribution","type":"uint256","internalType":"uint256"},{"name":"undistributedFactor","type":"uint256","internalType":"uint256"},{"name":"flipSpeed","type":"int128","internalType":"int128"},{"name":"compensationFactor","type":"uint64","internalType":"uint64"},{"name":"transitionFactor","type":"uint64","internalType":"uint64"},{"name":"borrowAllocationWeightFactor","type":"uint64","internalType":"uint64"},{"name":"depositAllocationWeightAddend","type":"uint64","internalType":"uint64"},{"name":"depositAllocationWeightFactor","type":"uint64","internalType":"uint64"}]}],"anonymous":false},{"type":"event","name":"IndexUpdate","inputs":[{"name":"market","type":"address","indexed":true,"internalType":"contract Market"},{"name":"reward","type":"address","indexed":true,"internalType":"contract ERC20"},{"name":"borrowIndex","type":"uint256","indexed":false,"internalType":"uint256"},{"name":"depositIndex","type":"uint256","indexed":false,"internalType":"uint256"},{"name":"newUndistributed","type":"uint256","indexed":false,"internalType":"uint256"},{"name":"lastUpdate","type":"uint256","indexed":false,"internalType":"uint256"}],"anonymous":false},{"type":"event","name":"Initialized","inputs":[{"name":"version","type":"uint8","indexed":false,"internalType":"uint8"}],"anonymous":false},{"type":"event","name":"RoleAdminChanged","inputs":[{"name":"role","type":"bytes32","indexed":true,"internalType":"bytes32"},{"name":"previousAdminRole","type":"bytes32","indexed":true,"internalType":"bytes32"},{"name":"newAdminRole","type":"bytes32","indexed":true,"internalType":"bytes32"}],"anonymous":false},{"type":"event","name":"RoleGranted","inputs":[{"name":"role","type":"bytes32","indexed":true,"internalType":"bytes32"},{"name":"account","type":"address","indexed":true,"internalType":"address"},{"name":"sender","type":"address","indexed":true,"internalType":"address"}],"anonymous":false},{"type":"event","name":"RoleRevoked","inputs":[{"name":"role","type":"bytes32","indexed":true,"internalType":"bytes32"},{"name":"account","type":"address","indexed":true,"internalType":"address"},{"name":"sender","type":"address","indexed":true,"internalType":"address"}],"anonymous":false},{"type":"error","name":"IndexOverflow","inputs":[]},{"type":"error","name":"InvalidConfig","inputs":[]}],"bytecode":{"object":"0x6080604052348015600e575f80fd5b5060156019565b607b565b5f54610100900460ff1615602b575f80fd5b5f5460ff908116146079575f805460ff191660ff9081179091556040519081527f7f26b83ff96e1f2b6a682f133852f6798a09c465da95921460cefb38474024989060200160405180910390a15b565b614c14806100885f395ff3fe608060405234801561000f575f80fd5b50600436106101e7575f3560e01c80638129fc1c11610109578063d219f3951161009e578063e9c50ff71161006e578063e9c50ff7146105c6578063f2426f9a146105e8578063f940e38514610608578063fc1960681461061b575f80fd5b8063d219f3951461057e578063d547741f14610591578063d681afb5146105a4578063de7ea7c6146105b3575f80fd5b8063a361654a116100d9578063a361654a146104de578063b658e673146104f3578063b7eec41314610521578063c2db09c114610536575f80fd5b80638129fc1c146104a95780638acbf3de146104b157806391d14854146104c4578063a217fddf146104d7575f80fd5b806336568abe1161017f5780635dadb2dc1161014f5780635dadb2dc146104435780636c912dad1461046457806377329f35146104775780637ecebe001461048a575f80fd5b806336568abe1461032b578063382e85ad1461033e57806344e250f8146103515780635684aa46146103c3575f80fd5b8063248a9ca3116101ba578063248a9ca314610266578063249e6d9c146102965780632f2ff15d146103105780633644e51514610323575f80fd5b80630149e46f146101eb57806301ffc9a71461020057806310d6667714610228578063232b956c14610253575b5f80fd5b6101fe6101f9366004613e7c565b61062e565b005b61021361020e366004613e97565b610786565b60405190151581526020015b60405180910390f35b61023b610236366004613ebe565b6107bc565b6040516001600160a01b03909116815260200161021f565b61023b610261366004613ebe565b6107e4565b610288610274366004613ebe565b5f9081526065602052604090206001015490565b60405190815260200161021f565b6102fb6102a4366004613ef4565b6001600160a01b039283165f9081526097602090815260408083209386168352928152828220959094168152600b9094018352808420911515845291529020546001600160801b03600160801b8204811692911690565b6040805192835260208301919091520161021f565b6101fe61031e366004613f4b565b6107f3565b61028861081c565b6101fe610339366004613f4b565b6108c0565b61028861034c366004614155565b6108e2565b6103a861035f3660046141b4565b6001600160a01b039182165f908152609760209081526040808320939094168252919091522060078101546004909101546001600160801b0380831693600160801b9093041691565b6040805193845260208401929092529082015260600161021f565b61041c6103d13660046141b4565b6001600160a01b039182165f90815260976020908152604080832093909416825291909152206008015463ffffffff808216926401000000008304821692600160401b900490911690565b6040805163ffffffff9485168152928416602084015292169181019190915260600161021f565b6104566104513660046141e0565b610a78565b60405161021f92919061427d565b6101fe610472366004613e7c565b610ce0565b610456610485366004613e7c565b610e62565b610288610498366004613e7c565b609b6020525f908152604090205481565b6101fe610ed8565b6102886104bf3660046141b4565b610f92565b6102136104d2366004613f4b565b610fac565b6102885f81565b6104e6610fd6565b60405161021f91906142c5565b610288610501366004613e7c565b6001600160a01b03165f9081526097602052604090206002015460ff1690565b61052961116e565b60405161021f919061436e565b610565610544366004613e7c565b60976020525f90815260409020600281015460039091015460ff9091169082565b6040805160ff909316835260208301919091520161021f565b61045661058c366004614380565b6111ce565b6101fe61059f366004613f4b565b61158e565b610288670de0b6b3a763ffff81565b6101fe6105c1366004614488565b6115b2565b6102136105d4366004613e7c565b60986020525f908152604090205460ff1681565b6105fb6105f63660046141b4565b6120c5565b60405161021f91906145f9565b6101fe6106163660046141b4565b612233565b6103a86106293660046146eb565b6122ba565b60408051600180825281830190925233915f9190816020015b604080518082019091525f8082526020820152815260200190600190039081610647579050506040805180820182525f815290516370a0823160e01b81526001600160a01b03868116600483015292935090916020830191908516906370a0823190602401602060405180830381865afa1580156106c7573d5f803e3d5ffd5b505050506040513d601f19601f820116820180604052508101906106eb9190614729565b815250815f8151811061070057610700614740565b6020908102919091018101919091526001600160a01b0383165f9081526097909152604081206002810154909160ff909116905b81816001600160801b0316101561077e576001600160801b0381165f90815260018401602052604090205461077690879087906001600160a01b0316876122ff565b600101610734565b505050505050565b5f6001600160e01b03198216637965db0b60e01b14806107b657506301ffc9a760e01b6001600160e01b03198316145b92915050565b609981815481106107cb575f80fd5b5f918252602090912001546001600160a01b0316905081565b609a81815481106107cb575f80fd5b5f8281526065602052604090206001015461080d816125fe565b6108178383612608565b505050565b604080517f8b73c3c69bb8fe3d512ecc4cf759cc79239f7b179b0ffacaa9a75d522b39400f60208201527f2c55a9465497be0b743b67bd2d3ee61e8212e4c4aa51feb7beee992dcf383117918101919091527fc89efdaa54c0f20c7adf612882df0950f5a951637e0307cdcb4c672f298b8bc660608201524660808201523060a08201525f9060c00160405160208183030381529060405280519060200120905090565b6001600160a01b03811633146108d4575f80fd5b6108de828261268d565b5050565b5f805b8451811015610a70575f85828151811061090157610901614740565b60209081029190910181015180516001600160a01b039081165f90815260978452604080822092891682529382905292832060028201549294509092909160ff169003610956578360010193505050506108e5565b8251602084015160088301545f926109779290918b9063ffffffff166126f3565b90505f805b8251811015610a21576001600160a01b038a165f908152600b85016020526040812084519091908590849081106109b5576109b5614740565b60209081029190910181015151151582528101919091526040015f20546109ec90600160801b90046001600160801b031689614768565b9750828181518110610a0057610a00614740565b60200260200101516020015182610a179190614768565b915060010161097c565b508015610a6057610a5389896040518060400160405280895f01516001600160a01b03168152602001868152506128e8565b610a5d9088614768565b96505b85600101955050505050506108e5565b509392505050565b609c54606090819083906001600160a01b031615610a9857610a9861477b565b4281604001351015610aac57610aac61477b565b5f6001610ab761081c565b7f8b66e7894ecc5180298853ab3de30e198ac84d63bc1587efdff2eaa728ec269e610ae56020860186613e7c565b33610af3602088018861478f565b609b5f610b0360208c018c613e7c565b6001600160a01b0316815260208082019290925260409081015f208054600181019091558151610b3e98979695949391928d013591016147db565b60405160208183030381529060405280519060200120604051602001610b7b92919061190160f01b81526002810192909252602282015260420190565b60408051601f198184030181529190528051602090910120610ba36080850160608601614862565b604080515f8152602081018083529390935260ff90911690820152608080850135606083015260a08086013591830191909152016020604051602081039080840390855afa158015610bf7573d5f803e3d5ffd5b5050604051601f1901519150506001600160a01b03811615801590610c395750610c246020830183613e7c565b6001600160a01b0316816001600160a01b0316145b610c4557610c4561477b565b610c526020830183613e7c565b609c80546001600160a01b0319166001600160a01b039290921691909117905550610cbb8533610c85602088018861478f565b808060200260200160405190810160405280939291908181526020018383602002808284375f920191909152506111ce92505050565b92509250609c546001600160a01b031615610cd857610cd861477b565b509250929050565b60408051600180825281830190925233915f9190816020015b604080518082019091525f8082526020820152815260200190600190039081610cf957905050604051632f2e037160e11b81526001600160a01b0385811660048301529192505f91841690635e5c06e290602401606060405180830381865afa158015610d68573d5f803e3d5ffd5b505050506040513d601f19601f82011682018060405250810190610d8c919061487d565b6001600160a01b0386165f9081526097602052604081206002810154929550935060ff90911691505b81816001600160801b03161015610e59576001600160801b0381165f90815260018085016020908152604080842054815180830183529384526001600160a01b031680855287835293206008015490820190610e1a908a908c9063ffffffff16612a45565b610e249088614768565b815250865f81518110610e3957610e39614740565b6020026020010181905250610e50883383896122ff565b50600101610db5565b50505050505050565b606080610ecf610e70610fd6565b846099805480602002602001604051908101604052809291908181526020018280548015610ec557602002820191905f5260205f20905b81546001600160a01b03168152600190910190602001808311610ea7575b50505050506111ce565b91509150915091565b5f54610100900460ff1615808015610ef657505f54600160ff909116105b80610f0f5750303b158015610f0f57505f5460ff166001145b610f17575f80fd5b5f805460ff191660011790558015610f38575f805461ff0019166101001790555b610f40612c11565b610f4a5f33612608565b8015610f8f575f805461ff0019169055604051600181527f7f26b83ff96e1f2b6a682f133852f6798a09c465da95921460cefb38474024989060200160405180910390a15b50565b5f610fa5610f9e610fd6565b84846108e2565b9392505050565b5f9182526065602090815260408084206001600160a01b0393909316845291905290205460ff1690565b60605f609a80548060200260200160405190810160405280929190818152602001828054801561102d57602002820191905f5260205f20905b81546001600160a01b0316815260019091019060200180831161100f575b5050505050905080516001600160401b0381111561104d5761104d613f79565b60405190808252806020026020018201604052801561109257816020015b604080518082019091525f81526060602082015281526020019060019003908161106b5790505b5091505f5b8151811015611169576040805160028082526060820183525f926020830190803683370190505090506001815f815181106110d4576110d4614740565b6020026020010190151590811515815250505f816001815181106110fa576110fa614740565b602002602001019015159081151581525050604051806040016040528084848151811061112957611129614740565b60200260200101516001600160a01b031681526020018281525084838151811061115557611155614740565b602090810291909101015250600101611097565b505090565b606060998054806020026020016040519081016040528092919081815260200182805480156111c457602002820191905f5260205f20905b81546001600160a01b031681526001909101906020018083116111a6575b5050505050905090565b609c5460609081906001600160a01b03166111f657609c80546001600160a01b031916331790555b8251806001600160401b0381111561121057611210613f79565b604051908082528060200260200182016040528015611239578160200160208202803683370190505b50609c549092506001600160a01b03165f5b875181101561148e575f88828151811061126757611267614740565b60209081029190910181015180516001600160a01b03165f90815260979092526040822060028101549193509160ff909116905b81816001600160801b031610156113155783516001600160801b0382165f9081526001850160209081526040808320548851838a01516001600160a01b0390921680865293899052919093206008015461130d948b9490939261130892909190869063ffffffff166126f3565b6122ff565b60010161129b565b505f5b8681101561147f575f835f015f8c848151811061133757611337614740565b60200260200101516001600160a01b03166001600160a01b031681526020019081526020015f2090505f5b856020015151811015611475576001600160a01b0388165f908152600b8301602090815260408220908801518051839190859081106113a3576113a3614740565b602090810291909101810151151582528101919091526040015f2054600160801b90046001600160801b03169050801561146c57808b85815181106113ea576113ea614740565b602002602001018181516113fe9190614768565b9052506001600160a01b0389165f908152600b84016020908152604082209089015180518391908690811061143557611435614740565b602090810291909101810151151582528101919091526040015f2080546001600160801b03928316600160801b0292169190911790555b50600101611362565b5050600101611318565b5083600101935050505061124b565b505f5b8551811015611570575f8482815181106114ad576114ad614740565b602002602001015190505f811115611567576114f688828985815181106114d6576114d6614740565b60200260200101516001600160a01b0316612c259092919063ffffffff16565b876001600160a01b031687838151811061151257611512614740565b60200260200101516001600160a01b0316846001600160a01b03167fc1405953cccdad6b442e266c84d66ad671e2534c6584f8e6ef92802f7ad294d58460405161155e91815260200190565b60405180910390a45b50600101611491565b5050609c80546001600160a01b031916905550919491935090915050565b5f828152606560205260409020600101546115a8816125fe565b610817838361268d565b5f6115bc816125fe565b5f5b825181101561081757670de0b6b3a76400008382815181106115e2576115e2614740565b602002602001015161014001516001600160401b031610611616576040516306b7c75960e31b815260040160405180910390fd5b82818151811061162857611628614740565b60200260200101516101a001516001600160401b03165f0361165d576040516306b7c75960e31b815260040160405180910390fd5b5f60975f85848151811061167357611673614740565b60200260200101515f01516001600160a01b03166001600160a01b031681526020019081526020015f2090505f815f015f8685815181106116b6576116b6614740565b6020026020010151602001516001600160a01b03166001600160a01b031681526020019081526020015f20905081600301545f0361173e57609a85848151811061170257611702614740565b6020908102919091018101515182546001810184555f938452919092200180546001600160a01b0319166001600160a01b039092169190911790555b60985f86858151811061175357611753614740565b6020908102919091018101518101516001600160a01b031682528101919091526040015f205460ff1661182a57600160985f87868151811061179757611797614740565b6020026020010151602001516001600160a01b03166001600160a01b031681526020019081526020015f205f6101000a81548160ff02191690831515021790555060998584815181106117ec576117ec614740565b60209081029190910181015181015182546001810184555f938452919092200180546001600160a01b0319166001600160a01b039092169190911790555b6008810154600160401b900463ffffffff165f03611a2e5784838151811061185457611854614740565b602090810291909101810151015160028301805460018501915f9160ff16908261187d836148a8565b91906101000a81548160ff021916908360ff16021790555060ff166001600160801b031681526020019081526020015f205f6101000a8154816001600160a01b0302191690836001600160a01b031602179055508483815181106118e3576118e3614740565b60200260200101515f01516001600160a01b031663313ce5676040518163ffffffff1660e01b8152600401602060405180830381865afa158015611929573d5f803e3d5ffd5b505050506040513d601f19601f8201168201806040525081019061194d91906148c6565b61195890600a6149b9565b6003830155845185908490811061197157611971614740565b602002602001015160600151816008015f6101000a81548163ffffffff021916908363ffffffff1602179055508483815181106119b0576119b0614740565b6020026020010151606001518160080160086101000a81548163ffffffff021916908363ffffffff1602179055508483815181106119f0576119f0614740565b602002602001015160800151858481518110611a0e57611a0e614740565b602002602001015160c00151611a2491906149db565b6001820155611d43565b600881015460408051600180825281830190925263ffffffff80841693640100000000900416915f9190602080830190803683370190505090506001815f81518110611a7c57611a7c614740565b602002602001019015159081151581525050611af55f898881518110611aa457611aa4614740565b60200260200101515f01518a8981518110611ac157611ac1614740565b6020026020010151602001516113088c8b81518110611ae257611ae2614740565b60200260200101515f0151865f8a6126f3565b8163ffffffff16421015611c39575f808463ffffffff16421115611bd0576008860154611b2f90600160601b900463ffffffff16426149ee565b8660010154611b3e9190614a01565b8660090154611b4d9190614768565b9150611b5f63ffffffff8616426149ee565b9050818a8981518110611b7457611b74614740565b602002602001015160c00151111580611baa5750808a8981518110611b9b57611b9b614740565b60200260200101516080015111155b15611bc8576040516306b7c75960e31b815260040160405180910390fd5b600986018290555b808a8981518110611be357611be3614740565b602002602001015160800151611bf991906149ee565b828b8a81518110611c0c57611c0c614740565b602002602001015160c00151611c2291906149ee565b611c2c91906149db565b600187015550611d3f9050565b878681518110611c4b57611c4b614740565b602090810291909101015160600151600885015463ffffffff908116911614611d3f57878681518110611c8057611c80614740565b602002602001015160600151846008015f6101000a81548163ffffffff021916908363ffffffff160217905550878681518110611cbf57611cbf614740565b6020026020010151606001518460080160086101000a81548163ffffffff021916908363ffffffff160217905550878681518110611cff57611cff614740565b602002602001015160800151888781518110611d1d57611d1d614740565b602002602001015160c00151611d3391906149db565b60018501555f60098501555b5050505b60088101805463ffffffff60601b1916600160601b4263ffffffff16021790558451859084908110611d7757611d77614740565b6020908102919091010151608001516008820154611d9b919063ffffffff16614a18565b8160080160046101000a81548163ffffffff021916908363ffffffff160217905550848381518110611dcf57611dcf614740565b60200260200101516040015181600a015f6101000a8154816001600160a01b0302191690836001600160a01b03160217905550848381518110611e1457611e14614740565b602002602001015160c001518160020181905550848381518110611e3a57611e3a614740565b602002602001015160a00151815f0181905550848381518110611e5f57611e5f614740565b602002602001015160e001518160030181905550848381518110611e8557611e85614740565b60200260200101516101000151816005015f6101000a8154816001600160801b030219169083600f0b6001600160801b03160217905550848381518110611ece57611ece614740565b602002602001015161012001518160050160106101000a8154816001600160401b0302191690836001600160401b03160217905550848381518110611f1557611f15614740565b60200260200101516101600151816006015f6101000a8154816001600160401b0302191690836001600160401b03160217905550848381518110611f5b57611f5b614740565b602002602001015161018001518160060160086101000a8154816001600160401b0302191690836001600160401b03160217905550848381518110611fa257611fa2614740565b602002602001015161014001518160050160186101000a8154816001600160401b0302191690836001600160401b03160217905550848381518110611fe957611fe9614740565b60200260200101516101a001518160060160106101000a8154816001600160401b0302191690836001600160401b0316021790555084838151811061203057612030614740565b6020026020010151602001516001600160a01b031685848151811061205757612057614740565b60200260200101515f01516001600160a01b03167fbb1f0f9f2e246d18022362060458bdfde9ab9b4e4eb514b800b155df7ea8ecac87868151811061209e5761209e614740565b60200260200101516040516120b391906145f9565b60405180910390a350506001016115be565b604080516101c0810182525f80825260208201819052918101829052606081018290526080810182905260a0810182905260c0810182905260e08101829052610100810182905261012081018290526101408101829052610160810182905261018081018290526101a08101919091526001600160a01b038084165f8181526097602090815260408083208786168085529083529281902081516101c08101835294855291840192909252600a81015490931690820152600882015463ffffffff8082166060840181905260808401926121a89264010000000090910416614a3c565b63ffffffff1681528254602082015260028301546040820152600383015460608201526005830154600f81900b60808301526001600160401b03600160801b808304821660a0850152600160c01b909204811660c084015260069094015480851660e0840152600160401b810485166101008401520490921661012090920191909152905092915050565b5f61223d816125fe565b6040516370a0823160e01b81523060048201526108179083906001600160a01b038616906370a0823190602401602060405180830381865afa158015612285573d5f803e3d5ffd5b505050506040513d601f19601f820116820180604052508101906122a99190614729565b6001600160a01b0386169190612c25565b6001600160a01b038084165f9081526097602090815260408083209386168352929052908120819081906122ef908786612c6d565b9250925092505b93509350939050565b6001600160a01b038381165f9081526097602090815260408083206003810154948716845290915290206008810154600160401b900463ffffffff1642811015612445575f808061235a858a61235587426149ee565b612c6d565b919450925090506001600160801b0383118061237c57506001600160801b0382115b1561239a57604051637decd25760e01b815260040160405180910390fd5b6001600160801b03828116600160801b0290841617600786015560088501805463ffffffff42908116600160401b026bffffffff0000000000000000199092169190911790915560048601829055604080518581526020810185905290810183905260608101919091526001600160a01b0389811691908b16907f1be815035b13056fba0f0dcbaec5d30add5d95e5f1b6990581607fbccdc930509060800160405180910390a35050505b506001600160a01b0386165f908152600b820160205260408120905b84518110156125f4575f85828151811061247d5761247d614740565b602090810291909101810151805115155f90815291859052604082208054825192945090926001600160801b0390911691156124c7575060078601546001600160801b03166124de565b506007860154600160801b90046001600160801b03165b8082146125e55782546fffffffffffffffffffffffffffffffff19166001600160801b0382161783556020840151156125e5575f612522856020015183858c61387f565b845490915081908590601090612549908490600160801b90046001600160801b0316614a59565b92506101000a8154816001600160801b0302191690836001600160801b031602179055508c6001600160a01b03168b6001600160a01b03168d6001600160a01b03167fc4278cd1497fedb2697092108a0141a0cbecdd1472913b6e803010998aa63537885f01518787876040516125db9493929190931515845260208401929092526040830152606082015260800190565b60405180910390a4505b84600101945050505050612461565b5050505050505050565b610f8f813361389e565b6126128282610fac565b6108de575f8281526065602090815260408083206001600160a01b03851684529091529020805460ff191660011790556126493390565b6001600160a01b0316816001600160a01b0316837f2f8788117e7eff1d82e926ec794901d17c78024a50270940304540a733656f0d60405160405180910390a45050565b6126978282610fac565b156108de575f8281526065602090815260408083206001600160a01b0385168085529252808320805460ff1916905551339285917ff6391f5c32d9c69d2a47ea670b442974b53935d1edc7fd64eb21e047a839171b9190a45050565b606083516001600160401b0381111561270e5761270e613f79565b60405190808252806020026020018201604052801561275257816020015b604080518082019091525f808252602082015281526020019060019003908161272c5790505b5090505f5b84518110156128df5784818151811061277257612772614740565b60200260200101511561283d57604051632f2e037160e11b81526001600160a01b0385811660048301525f9190881690635e5c06e290602401606060405180830381865afa1580156127c6573d5f803e3d5ffd5b505050506040513d601f19601f820116820180604052508101906127ea919061487d565b92505050604051806040016040528060011515815260200161280d898888612a45565b6128179084614768565b81525083838151811061282c5761282c614740565b6020026020010181905250506128d7565b6040805180820182525f815290516370a0823160e01b81526001600160a01b0386811660048301526020830191908916906370a0823190602401602060405180830381865afa158015612892573d5f803e3d5ffd5b505050506040513d601f19601f820116820180604052508101906128b69190614729565b8152508282815181106128cb576128cb614740565b60200260200101819052505b600101612757565b50949350505050565b80516001600160a01b039081165f908152609760208181526040808420878616855282528084208651909516845291905281206003015460088301548451929392600160401b90910463ffffffff16908490819061295990869042861061294f575f612c6d565b61235586426149ee565b506001600160a01b038b165f908152600b8801602052604081209294509092505b886020015151811015612a37575f8960200151828151811061299e5761299e614740565b60200260200101515f0151156129b55750836129b8565b50825b612a228a6020015183815181106129d1576129d1614740565b60200260200101516020015182855f8e6020015187815181106129f6576129f6614740565b60209081029190910181015151151582528101919091526040015f20546001600160801b03168a61387f565b612a2c908a614768565b98505060010161297a565b505050505050509392505050565b5f806224ea00612a5b8163ffffffff8616614a79565b612a6b9063ffffffff86166149ee565b612a759190614768565b90505f856001600160a01b0316630e52dbec6040518163ffffffff1660e01b8152600401602060405180830381865afa158015612ab4573d5f803e3d5ffd5b505050506040513d601f19601f82011682018060405250810190612ad891906148c6565b612ae89060ff166224ea00614a01565b612af56224ea0042614a79565b612aff90426149ee565b612b099190614768565b9050815b818111612b9f5760405163d2681a0b60e01b8152600481018290526001600160a01b0387811660248301525f919089169063d2681a0b906044016040805180830381865afa158015612b61573d5f803e3d5ffd5b505050506040513d601f19601f82011682018060405250810190612b859190614a8c565b509050612b928186614768565b9450506224ea0001612b0d565b50604051635fb9165160e11b8152600481018490526001600160a01b0387169063bf722ca290602401602060405180830381865afa158015612be3573d5f803e3d5ffd5b505050506040513d601f19601f82011682018060405250810190612c079190614729565b9695505050505050565b5f54610100900460ff16612c23575f80fd5b565b5f60405163a9059cbb60e01b5f52836004528260245260205f60445f80895af13d15601f3d1160015f511416171691505f606052806040525080612c67575f80fd5b50505050565b5f805f612c9760405180608001604052805f81526020015f81526020015f81526020015f81525090565b856001600160a01b0316631a90f1866040518163ffffffff1660e01b8152600401602060405180830381865afa158015612cd3573d5f803e3d5ffd5b505050506040513d601f19601f82011682018060405250810190612cf79190614729565b816040018181525050856001600160a01b0316632e0af0086040518163ffffffff1660e01b8152600401602060405180830381865afa158015612d3c573d5f803e3d5ffd5b505050506040513d601f19601f82011682018060405250810190612d609190614729565b6060828101919091526040805191820181525f908201819052600889015463ffffffff8082168085526401000000009092041660208401526224ea0090612da8908290614a79565b8351612db491906149ee565b612dbe9190614768565b90505f886001600160a01b0316630e52dbec6040518163ffffffff1660e01b8152600401602060405180830381865afa158015612dfd573d5f803e3d5ffd5b505050506040513d601f19601f82011682018060405250810190612e2191906148c6565b612e319060ff166224ea00614a01565b612e3e6224ea0042614a79565b612e4890426149ee565b612e529190614768565b90505f825b828111612ee057604051630156d37d60e31b8152600481018290525f906001600160a01b038d1690630ab69be8906024016040805180830381865afa158015612ea2573d5f803e3d5ffd5b505050506040513d601f19601f82011682018060405250810190612ec69190614a8c565b509050612ed38184614768565b9250506224ea0001612e57565b50808560400151612ef19190614768565b8552604051635fb9165160e11b8152600481018290526001600160a01b038b169063bf722ca290602401602060405180830381865afa158015612f36573d5f803e3d5ffd5b505050506040513d601f19601f82011682018060405250810190612f5a9190614729565b60208601525050885483515f92508111612f7c57670de0b6b3a7640000612f88565b8351612f8890826138e4565b60018b015460048c0154855160208701519395505f945091929091612fac916149ee565b604086018190525f90612fbf575f612fef565b612fef858760400151670de0b6b3a7640000612fdb9190614a01565b8f600301546138f49092919063ffffffff16565b9050856020015142116130cd578015613074575f61301e6130108d84614a01565b61301990614aae565b613912565b905061305861303582670de0b6b3a76400006149ee565b61305261304a89670de0b6b3a76400006149ee565b8790866138f4565b90613a85565b6130628483613a99565b61306c9190614768565b9850506130a8565b8a61309161308a87670de0b6b3a76400006149ee565b8590613a99565b61309b9190614a01565b6130a59083614768565b97505b6130b28289614ac8565b6130bc8c85614a01565b6130c69190614ac8565b935061323a565b602086015160088e0154600160401b900463ffffffff161115613132576131136130fa6130108d84614a01565b61310c90670de0b6b3a76400006149ee565b8390613a85565b61311d90836149ee565b97506131298289614ac8565b6130c690614aae565b60088d015460208701515f9161315691600160401b90910463ffffffff16906149ee565b9b50811561319d5761316b6130108d84614a01565b905061318261303582670de0b6b3a76400006149ee565b61318c8483613a99565b6131969190614768565b98506131d1565b8b6131ba6131b388670de0b6b3a76400006149ee565b8690613a99565b6131c49190614a01565b6131ce9084614768565b98505b6131ee8760200151426131e491906149ee565b6130109084614a01565b905061320c61320582670de0b6b3a76400006149ee565b8a90613a85565b613216908a6149ee565b9850613222838a614ac8565b61322c8d86614a01565b6132369190614ac8565b9450505b835f0361326b5750505060078a01546001600160801b038082169850600160801b9091041695506122f69350505050565b5050506132b46040518061012001604052805f81526020015f81526020015f81526020015f81526020015f81526020015f81526020015f81526020015f81526020015f81525090565b61337485606001515f036132c8575f613366565b61335486606001518c6001600160a01b0316638c3cba5a6040518163ffffffff1660e01b8152600401602060405180830381865afa15801561330c573d5f803e3d5ffd5b505050506040513d601f19601f820116820180604052508101906133309190614729565b8860400151896060015161334491906149ee565b61334e91906149ee565b906138e4565b61336690670de0b6b3a76400006149ee565b670de0b6b3a763ffff613aad565b80825260058c01546001600160401b03600160c01b8204811660c0850152600f9190910b60e084015260068d0154166101008301526133b3575f613461565b613461613440670de0b6b3a76400006133f06133eb8560c00151670de0b6b3a76400006133e091906149ee565b60c0870151906138e4565b613ac2565b8451613414906133eb9061340c90670de0b6b3a76400006149ee565b8751906138e4565b61341e9190614ac8565b8460e0015161342d9190614ae7565b61343690614aae565b6130199190614b16565b61345290670de0b6b3a7640000614768565b670de0b6b3a7640000906138e4565b6020820181905261363b9061347e90670de0b6b3a76400006149ee565b6136108361010001516136166135078f6001600160a01b031663666010326040518163ffffffff1660e01b8152600401602060405180830381865afa1580156134c9573d5f803e3d5ffd5b505050506040513d601f19601f820116820180604052508101906134ed9190614729565b6134ff90670de0b6b3a76400006149ee565b875190613a85565b61351990670de0b6b3a76400006149ee565b8f6001600160a01b031663f3fdb15a6040518163ffffffff1660e01b8152600401602060405180830381865afa158015613555573d5f803e3d5ffd5b505050506040513d601f19601f820116820180604052508101906135799190614b42565b6001600160a01b0316637c21fb1d8c606001515f03613598575f6135ab565b60608d015160408e01516135ab916138e4565b895160405160e084901b6001600160e01b031916815260048101929092526024820152604401602060405180830381865afa1580156135ec573d5f803e3d5ffd5b505050506040513d601f19601f820116820180604052508101906136109190614729565b90613a99565b6136209190614768565b60058f0154600160801b90046001600160401b031690613a99565b6040820152602081015160068c015461366591600160801b9091046001600160401b031690613a99565b61369b8260200151670de0b6b3a764000061368091906149ee565b60068e0154600160401b90046001600160401b031690613a99565b6136a59190614768565b6060820181905260408201516136c9916136be91614768565b6040830151906138e4565b608082018190526136e290670de0b6b3a76400006149ee565b8160a00181815250505f8a6001600160a01b03166318160ddd6040518163ffffffff1660e01b8152600401602060405180830381865afa158015613728573d5f803e3d5ffd5b505050506040513d601f19601f8201168201806040525081019061374c9190614729565b90505f86602001518c6001600160a01b0316638d0e5f026040518163ffffffff1660e01b8152600401602060405180830381865afa158015613790573d5f803e3d5ffd5b505050506040513d601f19601f820116820180604052508101906137b49190614729565b6137be9190614768565b6001600160a01b038d165f90815260976020526040902060030154909150816137e7575f61380a565b61380a8183613803876080015189613a9990919063ffffffff16565b91906138f4565b60078f015461382291906001600160801b0316614768565b9a505f8311613831575f61384d565b61384d81846138038760a0015189613a9990919063ffffffff16565b60078f015461386c9190600160801b90046001600160801b0316614768565b9950505050505050505093509350939050565b5f61389561388d84866149ee565b8690846138f4565b95945050505050565b6138a88282610fac565b6108de576138b581613c6b565b6138c0836020613c7d565b6040516020016138d1929190614b74565b6040516020818303038152906040525f80fd5b5f610fa583670de0b6b3a7640000845b82820281151584158583048514171661390b575f80fd5b0492915050565b5f680248ce36a70cb26b3e19821361392b57505f919050565b680755bf798b4a1bf1e5821261393f575f80fd5b6503782dace9d9604e83901b0591505f60606bb17217f7d1cf79abc9e3b39884821b056001605f1b01901d6bb17217f7d1cf79abc9e3b39881029093036c240c330e9fb2d9cbaf0fd5aafb1981018102606090811d6d0277594991cfc85f6e2461837cd9018202811d6d1a521255e34f6a5061b25ef1c9c319018202811d6db1bbb201f443cf962f1a1d3db4a5018202811d6e02c72388d9f74f51a9331fed693f1419018202811d6e05180bb14799ab47a8a8cb2a527d57016d02d16720577bd19bf614176fe9ea6c10fe68e7fd37d0007b713f765084018402831d9081019084016d01d3967ed30fc4f89c02bab5708119010290911d6e0587f503bb6ea29d25fcb740196450019091026d360d7aeea093263ecc6e0ecb291760621b010574029d9dc38563c32e5c2f6dc192ee70ef65f9978af30260c3939093039290921c92915050565b5f610fa58383670de0b6b3a7640000613dce565b5f610fa58383670de0b6b3a76400006138f4565b5f818310613abb5781610fa5565b5090919050565b5f808213613ace575f80fd5b5f6060613ada84613dfb565b03609f8181039490941b90931c6c465772b2bbbb5f824b15207a3081018102606090811d6d0388eaa27412d5aca026815d636e018202811d6d0df99ac502031bf953eff472fdcc018202811d6d13cdffb29d51d99322bdff5f2211018202811d6d0a0f742023def783a307a986912e018202811d6d01920d8043ca89b5239253284e42018202811d6c0b7a86d7375468fac667a0a527016c29508e458543d8aa4df2abee7883018302821d6d0139601a2efabe717e604cbb4894018302821d6d02247f7a7b6594320649aa03aba1018302821d6c8c3f38e95a6b1ff2ab1c3b343619018302821d6d02384773bdf1ac5676facced60901901830290911d6cb9a025d814b29c212b8b1a07cd1901909102780a09507084cc699bb0e71ea869ffffffffffffffffffffffff190105711340daa0d5f769dba1915cef59f0815a5506027d0267a36c0c95b3975ab3ee5b203a7614a3f75373f047d803ae7b6687f2b393909302929092017d57115e47018c7177eebf7cd370a3356a1b7863008a5ae8028c72b88642840160ae1d92915050565b60606107b66001600160a01b03831660145b60605f613c8b836002614a01565b613c96906002614768565b6001600160401b03811115613cad57613cad613f79565b6040519080825280601f01601f191660200182016040528015613cd7576020820181803683370190505b509050600360fc1b815f81518110613cf157613cf1614740565b60200101906001600160f81b03191690815f1a905350600f60fb1b81600181518110613d1f57613d1f614740565b60200101906001600160f81b03191690815f1a9053505f613d41846002614a01565b613d4c906001614768565b90505b6001811115613dc3576f181899199a1a9b1b9c1cb0b131b232b360811b85600f1660108110613d8057613d80614740565b1a60f81b828281518110613d9657613d96614740565b60200101906001600160f81b03191690815f1a90535060049490941c93613dbc81614bc9565b9050613d4f565b508315610fa5575f80fd5b828202811515841585830485141716613de5575f80fd5b6001826001830304018115150290509392505050565b5f808211613e07575f80fd5b5060016001600160801b03821160071b82811c6001600160401b031060061b1782811c63ffffffff1060051b1782811c61ffff1060041b1782811c60ff10600390811b90911783811c600f1060021b1783811c909110821b1791821c111790565b6001600160a01b0381168114610f8f575f80fd5b5f60208284031215613e8c575f80fd5b8135610fa581613e68565b5f60208284031215613ea7575f80fd5b81356001600160e01b031981168114610fa5575f80fd5b5f60208284031215613ece575f80fd5b5035919050565b8035613ee081613e68565b919050565b80358015158114613ee0575f80fd5b5f805f8060808587031215613f07575f80fd5b8435613f1281613e68565b93506020850135613f2281613e68565b9250613f3060408601613ee5565b91506060850135613f4081613e68565b939692955090935050565b5f8060408385031215613f5c575f80fd5b823591506020830135613f6e81613e68565b809150509250929050565b634e487b7160e01b5f52604160045260245ffd5b604080519081016001600160401b0381118282101715613faf57613faf613f79565b60405290565b6040516101c081016001600160401b0381118282101715613faf57613faf613f79565b604051601f8201601f191681016001600160401b038111828210171561400057614000613f79565b604052919050565b5f6001600160401b0382111561402057614020613f79565b5060051b60200190565b5f82601f830112614039575f80fd5b8135602061404e61404983614008565b613fd8565b828152600592831b850182019282820191908785111561406c575f80fd5b8387015b858110156141485780356001600160401b038082111561408e575f80fd5b908901906040828c03601f19018113156140a6575f80fd5b6140ae613f8d565b888401356140bb81613e68565b815283820135838111156140cd575f80fd5b8085019450508c603f8501126140e1575f80fd5b8884013592506140f361404984614008565b83815292861b8401820192898101908e85111561410e575f80fd5b948301945b848610156141335761412486613ee5565b8252948a0194908a0190614113565b828b0152508752505050928401928401614070565b5090979650505050505050565b5f805f60608486031215614167575f80fd5b83356001600160401b0381111561417c575f80fd5b6141888682870161402a565b935050602084013561419981613e68565b915060408401356141a981613e68565b809150509250925092565b5f80604083850312156141c5575f80fd5b82356141d081613e68565b91506020830135613f6e81613e68565b5f80604083850312156141f1575f80fd5b82356001600160401b0380821115614207575f80fd5b6142138683870161402a565b93506020850135915080821115614228575f80fd5b50830160c08186031215613f6e575f80fd5b5f815180845260208085019450602084015f5b838110156142725781516001600160a01b03168752958201959082019060010161424d565b509495945050505050565b604081525f61428f604083018561423a565b8281036020848101919091528451808352858201928201905f5b81811015614148578451835293830193918301916001016142a9565b5f60208083018184528085518083526040925060408601915060408160051b8701018488015f5b8381101561436057888303603f19018552815180516001600160a01b031684528701518784018790528051878501819052908801905f9060608601905b8083101561434b57835115158252928a019260019290920191908a0190614329565b509689019694505050908601906001016142ec565b509098975050505050505050565b602081525f610fa5602083018461423a565b5f805f60608486031215614392575f80fd5b83356001600160401b03808211156143a8575f80fd5b6143b48783880161402a565b945060209150818601356143c781613e68565b93506040860135818111156143da575f80fd5b86019050601f810187136143ec575f80fd5b80356143fa61404982614008565b81815260059190911b82018301908381019089831115614418575f80fd5b928401925b8284101561443f57833561443081613e68565b8252928401929084019061441d565b80955050505050509250925092565b803563ffffffff81168114613ee0575f80fd5b8035600f81900b8114613ee0575f80fd5b80356001600160401b0381168114613ee0575f80fd5b5f6020808385031215614499575f80fd5b82356001600160401b038111156144ae575f80fd5b8301601f810185136144be575f80fd5b80356144cc61404982614008565b8181526101c091820283018401918482019190888411156144eb575f80fd5b938501935b838510156145ed5780858a031215614506575f80fd5b61450e613fb5565b61451786613ed5565b8152614524878701613ed5565b878201526040614535818801613ed5565b90820152606061454687820161444e565b908201526080868101359082015260a0808701359082015260c0808701359082015260e08087013590820152610100614580818801614461565b90820152610120614592878201614472565b908201526101406145a4878201614472565b908201526101606145b6878201614472565b908201526101806145c8878201614472565b908201526101a06145da878201614472565b90820152835293840193918501916144f0565b50979650505050505050565b81516001600160a01b031681526101c08101602083015161462560208401826001600160a01b03169052565b50604083015161464060408401826001600160a01b03169052565b506060830151614658606084018263ffffffff169052565b506080830151608083015260a083015160a083015260c083015160c083015260e083015160e08301526101008084015161469682850182600f0b9052565b5050610120838101516001600160401b03908116918401919091526101408085015182169084015261016080850151821690840152610180808501518216908401526101a09384015116929091019190915290565b5f805f606084860312156146fd575f80fd5b833561470881613e68565b9250602084013561471881613e68565b929592945050506040919091013590565b5f60208284031215614739575f80fd5b5051919050565b634e487b7160e01b5f52603260045260245ffd5b634e487b7160e01b5f52601160045260245ffd5b808201808211156107b6576107b6614754565b634e487b7160e01b5f52600160045260245ffd5b5f808335601e198436030181126147a4575f80fd5b8301803591506001600160401b038211156147bd575f80fd5b6020019150600581901b36038213156147d4575f80fd5b9250929050565b8781526001600160a01b03878116602080840191909152878216604084015260c06060840181905283018690525f9187919060e08501845b8981101561483a57843561482681613e68565b831682529383019390830190600101614813565b5060808601979097525050505060a0015295945050505050565b60ff81168114610f8f575f80fd5b5f60208284031215614872575f80fd5b8135610fa581614854565b5f805f6060848603121561488f575f80fd5b8351925060208401519150604084015190509250925092565b5f60ff821660ff81036148bd576148bd614754565b60010192915050565b5f602082840312156148d6575f80fd5b8151610fa581614854565b600181815b80851115610cd857815f190482111561490157614901614754565b8085161561490e57918102915b93841c93908002906148e6565b5f82614929575060016107b6565b8161493557505f6107b6565b816001811461494b576002811461495557614971565b60019150506107b6565b60ff84111561496657614966614754565b50506001821b6107b6565b5060208310610133831016604e8410600b8410161715614994575081810a6107b6565b61499e83836148e1565b805f19048211156149b1576149b1614754565b029392505050565b5f610fa560ff84168361491b565b634e487b7160e01b5f52601260045260245ffd5b5f826149e9576149e96149c7565b500490565b818103818111156107b6576107b6614754565b80820281158282048414176107b6576107b6614754565b63ffffffff818116838216019080821115614a3557614a35614754565b5092915050565b63ffffffff828116828216039080821115614a3557614a35614754565b6001600160801b03818116838216019080821115614a3557614a35614754565b5f82614a8757614a876149c7565b500690565b5f8060408385031215614a9d575f80fd5b505080516020909101519092909150565b5f600160ff1b8201614ac257614ac2614754565b505f0390565b8181035f831280158383131683831282161715614a3557614a35614754565b8082025f8212600160ff1b84141615614b0257614b02614754565b81810583148215176107b6576107b6614754565b5f82614b2457614b246149c7565b600160ff1b82145f1984141615614b3d57614b3d614754565b500590565b5f60208284031215614b52575f80fd5b8151610fa581613e68565b5f81518060208401855e5f93019283525090919050565b7f416363657373436f6e74726f6c3a206163636f756e742000000000000000000081525f614ba56017830185614b5d565b7001034b99036b4b9b9b4b733903937b6329607d1b81526138956011820185614b5d565b5f81614bd757614bd7614754565b505f19019056fea26469706673582212204087e673402c353aab13f8446718332400f63eedf85afaf731736f1044a65f4964736f6c63430008190033","linkReferences":{}},"methodIdentifiers":{"DEFAULT_ADMIN_ROLE()":"a217fddf","DOMAIN_SEPARATOR()":"3644e515","UTILIZATION_CAP()":"d681afb5","accountOperation(address,address,bool,address)":"249e6d9c","allClaimable(address,address)":"8acbf3de","allMarketsOperations()":"a361654a","allRewards()":"b7eec413","availableRewardsCount(address)":"b658e673","claim((address,bool[])[],(address,address[],uint256,uint8,bytes32,bytes32))":"5dadb2dc","claim((address,bool[])[],address,address[])":"d219f395","claimAll(address)":"77329f35","claimable((address,bool[])[],address,address)":"382e85ad","config((address,address,address,uint32,uint256,uint256,uint256,uint256,int128,uint64,uint64,uint64,uint64,uint64)[])":"de7ea7c6","distribution(address)":"c2db09c1","distributionTime(address,address)":"5684aa46","getRoleAdmin(bytes32)":"248a9ca3","grantRole(bytes32,address)":"2f2ff15d","handleBorrow(address)":"6c912dad","handleDeposit(address)":"0149e46f","hasRole(bytes32,address)":"91d14854","initialize()":"8129fc1c","marketList(uint256)":"232b956c","nonces(address)":"7ecebe00","previewAllocation(address,address,uint256)":"fc196068","renounceRole(bytes32,address)":"36568abe","revokeRole(bytes32,address)":"d547741f","rewardConfig(address,address)":"f2426f9a","rewardEnabled(address)":"e9c50ff7","rewardIndexes(address,address)":"44e250f8","rewardList(uint256)":"10d66677","supportsInterface(bytes4)":"01ffc9a7","withdraw(address,address)":"f940e385"},"id":6}