{"abi":[{"type":"constructor","inputs":[{"name":"pool_","type":"address","internalType":"contract IPool"},{"name":"basePriceFeed_","type":"address","internalType":"contract IPriceFeed"},{"name":"token1Based_","type":"bool","internalType":"bool"}],"stateMutability":"nonpayable"},{"type":"function","name":"basePriceFeed","inputs":[],"outputs":[{"name":"","type":"address","internalType":"contract IPriceFeed"}],"stateMutability":"view"},{"type":"function","name":"baseUnit0","inputs":[],"outputs":[{"name":"","type":"uint256","internalType":"uint256"}],"stateMutability":"view"},{"type":"function","name":"baseUnit1","inputs":[],"outputs":[{"name":"","type":"uint256","internalType":"uint256"}],"stateMutability":"view"},{"type":"function","name":"decimals","inputs":[],"outputs":[{"name":"","type":"uint8","internalType":"uint8"}],"stateMutability":"view"},{"type":"function","name":"latestAnswer","inputs":[],"outputs":[{"name":"","type":"int256","internalType":"int256"}],"stateMutability":"view"},{"type":"function","name":"pool","inputs":[],"outputs":[{"name":"","type":"address","internalType":"contract IPool"}],"stateMutability":"view"},{"type":"function","name":"token1Based","inputs":[],"outputs":[{"name":"","type":"bool","internalType":"bool"}],"stateMutability":"view"}],"bytecode":{"object":"0x610140604052348015610010575f80fd5b5060405161091638038061091683398101604081905261002f91610274565b6001600160a01b038084166101205281151561010052821660808190526040805163313ce56760e01b8152905163313ce567916004808201926020929091908290030181865afa158015610085573d5f803e3d5ffd5b505050506040513d601f19601f820116820180604052508101906100a991906102c2565b60ff1660e08160ff1681525050826001600160a01b0316630dfe16816040518163ffffffff1660e01b8152600401602060405180830381865afa1580156100f2573d5f803e3d5ffd5b505050506040513d601f19601f8201168201806040525081019061011691906102e9565b6001600160a01b031663313ce5676040518163ffffffff1660e01b8152600401602060405180830381865afa158015610151573d5f803e3d5ffd5b505050506040513d601f19601f8201168201806040525081019061017591906102c2565b61018090600a6103fa565b60a08181525050826001600160a01b031663d21220a76040518163ffffffff1660e01b8152600401602060405180830381865afa1580156101c3573d5f803e3d5ffd5b505050506040513d601f19601f820116820180604052508101906101e791906102e9565b6001600160a01b031663313ce5676040518163ffffffff1660e01b8152600401602060405180830381865afa158015610222573d5f803e3d5ffd5b505050506040513d601f19601f8201168201806040525081019061024691906102c2565b61025190600a6103fa565b60c05250610408915050565b6001600160a01b0381168114610271575f80fd5b50565b5f805f60608486031215610286575f80fd5b83516102918161025d565b60208501519093506102a28161025d565b604085015190925080151581146102b7575f80fd5b809150509250925092565b5f602082840312156102d2575f80fd5b815160ff811681146102e2575f80fd5b9392505050565b5f602082840312156102f9575f80fd5b81516102e28161025d565b634e487b7160e01b5f52601160045260245ffd5b600181815b8085111561035257815f190482111561033857610338610304565b8085161561034557918102915b93841c939080029061031d565b509250929050565b5f82610368575060016103f4565b8161037457505f6103f4565b816001811461038a5760028114610394576103b0565b60019150506103f4565b60ff8411156103a5576103a5610304565b50506001821b6103f4565b5060208310610133831016604e8410600b84101617156103d3575081810a6103f4565b6103dd8383610318565b805f19048211156103f0576103f0610304565b0290505b92915050565b5f6102e260ff84168361035a565b60805160a05160c05160e051610100516101205161049861047e5f395f81816083015261024501525f818161016401526102ca01525f60c701525f818161013d015281816102f6015261038e01525f818161011601528181610329015261035b01525f818161019b01526101c101526104985ff3fe608060405234801561000f575f80fd5b506004361061007a575f3560e01c806399b85f5d1161005857806399b85f5d14610111578063d8f9c10c14610138578063dedb52cc1461015f578063e41e751214610196575f80fd5b806316f0115b1461007e578063313ce567146100c257806350d25bcd146100fb575b5f80fd5b6100a57f000000000000000000000000000000000000000000000000000000000000000081565b6040516001600160a01b0390911681526020015b60405180910390f35b6100e97f000000000000000000000000000000000000000000000000000000000000000081565b60405160ff90911681526020016100b9565b6101036101bd565b6040519081526020016100b9565b6101037f000000000000000000000000000000000000000000000000000000000000000081565b6101037f000000000000000000000000000000000000000000000000000000000000000081565b6101867f000000000000000000000000000000000000000000000000000000000000000081565b60405190151581526020016100b9565b6100a57f000000000000000000000000000000000000000000000000000000000000000081565b5f807f00000000000000000000000000000000000000000000000000000000000000006001600160a01b03166350d25bcd6040518163ffffffff1660e01b8152600401602060405180830381865afa15801561021b573d5f803e3d5ffd5b505050506040513d601f19601f8201168201806040525081019061023f91906103d8565b90505f807f00000000000000000000000000000000000000000000000000000000000000006001600160a01b0316630902f1ac6040518163ffffffff1660e01b8152600401606060405180830381865afa15801561029f573d5f803e3d5ffd5b505050506040513d601f19601f820116820180604052508101906102c391906103ef565b50915091507f00000000000000000000000000000000000000000000000000000000000000006103525761034d8161031b7f00000000000000000000000000000000000000000000000000000000000000008561041a565b6103259190610443565b84907f00000000000000000000000000000000000000000000000000000000000000006103ba565b6103b2565b6103b2826103807f00000000000000000000000000000000000000000000000000000000000000008461041a565b61038a9190610443565b84907f00000000000000000000000000000000000000000000000000000000000000006103ba565b935050505090565b8282028115158415858304851417166103d1575f80fd5b0492915050565b5f602082840312156103e8575f80fd5b5051919050565b5f805f60608486031215610401575f80fd5b8351925060208401519150604084015190509250925092565b808202811582820484141761043d57634e487b7160e01b5f52601160045260245ffd5b92915050565b5f8261045d57634e487b7160e01b5f52601260045260245ffd5b50049056fea264697066735822122098e257e54dd0e3befb1aba4d3ac8e2438e37faa0f85ac3e48a620c097930cd0b64736f6c63430008190033","linkReferences":{}},"methodIdentifiers":{"basePriceFeed()":"e41e7512","baseUnit0()":"99b85f5d","baseUnit1()":"d8f9c10c","decimals()":"313ce567","latestAnswer()":"50d25bcd","pool()":"16f0115b","token1Based()":"dedb52cc"},"id":4}