{"abi":[{"type":"constructor","inputs":[{"name":"decimals_","type":"uint8","internalType":"uint8"},{"name":"price_","type":"int256","internalType":"int256"}],"stateMutability":"nonpayable"},{"type":"function","name":"decimals","inputs":[],"outputs":[{"name":"","type":"uint8","internalType":"uint8"}],"stateMutability":"view"},{"type":"function","name":"latestAnswer","inputs":[],"outputs":[{"name":"","type":"int256","internalType":"int256"}],"stateMutability":"view"},{"type":"function","name":"price","inputs":[],"outputs":[{"name":"","type":"int256","internalType":"int256"}],"stateMutability":"view"},{"type":"function","name":"setPrice","inputs":[{"name":"price_","type":"int256","internalType":"int256"}],"outputs":[],"stateMutability":"nonpayable"},{"type":"event","name":"AnswerUpdated","inputs":[{"name":"current","type":"int256","indexed":true,"internalType":"int256"},{"name":"roundId","type":"uint256","indexed":true,"internalType":"uint256"},{"name":"timestamp","type":"uint256","indexed":false,"internalType":"uint256"}],"anonymous":false}],"bytecode":{"object":"0x60a0604052348015600e575f80fd5b50604051610204380380610204833981016040819052602b91607b565b60ff8216608052603981603f565b505060aa565b5f81815560405142815282907f0559884fd3a460db3073b7fc896cc77986f16e378210ded43186175bf646fc5f9060200160405180910390a350565b5f8060408385031215608b575f80fd5b825160ff81168114609a575f80fd5b6020939093015192949293505050565b6080516101436100c15f395f605301526101435ff3fe608060405234801561000f575f80fd5b506004361061004a575f3560e01c8063313ce5671461004e57806350d25bcd1461008c578063a035b1fe1461009d578063f7a30806146100a5575b5f80fd5b6100757f000000000000000000000000000000000000000000000000000000000000000081565b60405160ff90911681526020015b60405180910390f35b5f545b604051908152602001610083565b61008f5f5481565b6100b86100b33660046100f6565b6100ba565b005b5f81815560405142815282907f0559884fd3a460db3073b7fc896cc77986f16e378210ded43186175bf646fc5f9060200160405180910390a350565b5f60208284031215610106575f80fd5b503591905056fea2646970667358221220676e714f1aea9b114511275b2499286a1c33709245cb206a8a86e6db930706db64736f6c63430008190033","linkReferences":{}},"methodIdentifiers":{"decimals()":"313ce567","latestAnswer()":"50d25bcd","price()":"a035b1fe","setPrice(int256)":"f7a30806"},"id":10}