{"abi":[{"type":"constructor","inputs":[{"name":"exa_","type":"address","internalType":"contract EXA"},{"name":"sablier_","type":"address","internalType":"contract ISablierV2LockupLinear"}],"stateMutability":"nonpayable"},{"type":"function","name":"CLOCK_MODE","inputs":[],"outputs":[{"name":"","type":"string","internalType":"string"}],"stateMutability":"view"},{"type":"function","name":"DEFAULT_ADMIN_ROLE","inputs":[],"outputs":[{"name":"","type":"bytes32","internalType":"bytes32"}],"stateMutability":"view"},{"type":"function","name":"DOMAIN_SEPARATOR","inputs":[],"outputs":[{"name":"","type":"bytes32","internalType":"bytes32"}],"stateMutability":"view"},{"type":"function","name":"REDEEMER_ROLE","inputs":[],"outputs":[{"name":"","type":"bytes32","internalType":"bytes32"}],"stateMutability":"view"},{"type":"function","name":"TRANSFERRER_ROLE","inputs":[],"outputs":[{"name":"","type":"bytes32","internalType":"bytes32"}],"stateMutability":"view"},{"type":"function","name":"allowance","inputs":[{"name":"owner","type":"address","internalType":"address"},{"name":"spender","type":"address","internalType":"address"}],"outputs":[{"name":"","type":"uint256","internalType":"uint256"}],"stateMutability":"view"},{"type":"function","name":"approve","inputs":[{"name":"spender","type":"address","internalType":"address"},{"name":"amount","type":"uint256","internalType":"uint256"}],"outputs":[{"name":"","type":"bool","internalType":"bool"}],"stateMutability":"nonpayable"},{"type":"function","name":"balanceOf","inputs":[{"name":"account","type":"address","internalType":"address"}],"outputs":[{"name":"","type":"uint256","internalType":"uint256"}],"stateMutability":"view"},{"type":"function","name":"cancel","inputs":[{"name":"streamIds","type":"uint256[]","internalType":"uint256[]"}],"outputs":[{"name":"streamsReserves","type":"uint256","internalType":"uint256"}],"stateMutability":"nonpayable"},{"type":"function","name":"checkpoints","inputs":[{"name":"account","type":"address","internalType":"address"},{"name":"pos","type":"uint32","internalType":"uint32"}],"outputs":[{"name":"","type":"tuple","internalType":"struct ERC20VotesUpgradeable.Checkpoint","components":[{"name":"fromBlock","type":"uint32","internalType":"uint32"},{"name":"votes","type":"uint224","internalType":"uint224"}]}],"stateMutability":"view"},{"type":"function","name":"clock","inputs":[],"outputs":[{"name":"","type":"uint48","internalType":"uint48"}],"stateMutability":"view"},{"type":"function","name":"decimals","inputs":[],"outputs":[{"name":"","type":"uint8","internalType":"uint8"}],"stateMutability":"view"},{"type":"function","name":"decreaseAllowance","inputs":[{"name":"spender","type":"address","internalType":"address"},{"name":"subtractedValue","type":"uint256","internalType":"uint256"}],"outputs":[{"name":"","type":"bool","internalType":"bool"}],"stateMutability":"nonpayable"},{"type":"function","name":"delegate","inputs":[{"name":"delegatee","type":"address","internalType":"address"}],"outputs":[],"stateMutability":"nonpayable"},{"type":"function","name":"delegateBySig","inputs":[{"name":"delegatee","type":"address","internalType":"address"},{"name":"nonce","type":"uint256","internalType":"uint256"},{"name":"expiry","type":"uint256","internalType":"uint256"},{"name":"v","type":"uint8","internalType":"uint8"},{"name":"r","type":"bytes32","internalType":"bytes32"},{"name":"s","type":"bytes32","internalType":"bytes32"}],"outputs":[],"stateMutability":"nonpayable"},{"type":"function","name":"delegates","inputs":[{"name":"account","type":"address","internalType":"address"}],"outputs":[{"name":"","type":"address","internalType":"address"}],"stateMutability":"view"},{"type":"function","name":"eip712Domain","inputs":[],"outputs":[{"name":"fields","type":"bytes1","internalType":"bytes1"},{"name":"name","type":"string","internalType":"string"},{"name":"version","type":"string","internalType":"string"},{"name":"chainId","type":"uint256","internalType":"uint256"},{"name":"verifyingContract","type":"address","internalType":"address"},{"name":"salt","type":"bytes32","internalType":"bytes32"},{"name":"extensions","type":"uint256[]","internalType":"uint256[]"}],"stateMutability":"view"},{"type":"function","name":"exa","inputs":[],"outputs":[{"name":"","type":"address","internalType":"contract EXA"}],"stateMutability":"view"},{"type":"function","name":"getPastTotalSupply","inputs":[{"name":"timepoint","type":"uint256","internalType":"uint256"}],"outputs":[{"name":"","type":"uint256","internalType":"uint256"}],"stateMutability":"view"},{"type":"function","name":"getPastVotes","inputs":[{"name":"account","type":"address","internalType":"address"},{"name":"timepoint","type":"uint256","internalType":"uint256"}],"outputs":[{"name":"","type":"uint256","internalType":"uint256"}],"stateMutability":"view"},{"type":"function","name":"getRoleAdmin","inputs":[{"name":"role","type":"bytes32","internalType":"bytes32"}],"outputs":[{"name":"","type":"bytes32","internalType":"bytes32"}],"stateMutability":"view"},{"type":"function","name":"getVotes","inputs":[{"name":"account","type":"address","internalType":"address"}],"outputs":[{"name":"","type":"uint256","internalType":"uint256"}],"stateMutability":"view"},{"type":"function","name":"grantRole","inputs":[{"name":"role","type":"bytes32","internalType":"bytes32"},{"name":"account","type":"address","internalType":"address"}],"outputs":[],"stateMutability":"nonpayable"},{"type":"function","name":"hasRole","inputs":[{"name":"role","type":"bytes32","internalType":"bytes32"},{"name":"account","type":"address","internalType":"address"}],"outputs":[{"name":"","type":"bool","internalType":"bool"}],"stateMutability":"view"},{"type":"function","name":"increaseAllowance","inputs":[{"name":"spender","type":"address","internalType":"address"},{"name":"addedValue","type":"uint256","internalType":"uint256"}],"outputs":[{"name":"","type":"bool","internalType":"bool"}],"stateMutability":"nonpayable"},{"type":"function","name":"initialize","inputs":[{"name":"vestingPeriod_","type":"uint40","internalType":"uint40"},{"name":"reserveRatio_","type":"uint256","internalType":"uint256"}],"outputs":[],"stateMutability":"nonpayable"},{"type":"function","name":"mint","inputs":[{"name":"amount","type":"uint256","internalType":"uint256"},{"name":"to","type":"address","internalType":"address"}],"outputs":[],"stateMutability":"nonpayable"},{"type":"function","name":"name","inputs":[],"outputs":[{"name":"","type":"string","internalType":"string"}],"stateMutability":"view"},{"type":"function","name":"nonces","inputs":[{"name":"owner","type":"address","internalType":"address"}],"outputs":[{"name":"","type":"uint256","internalType":"uint256"}],"stateMutability":"view"},{"type":"function","name":"numCheckpoints","inputs":[{"name":"account","type":"address","internalType":"address"}],"outputs":[{"name":"","type":"uint32","internalType":"uint32"}],"stateMutability":"view"},{"type":"function","name":"onStreamCanceled","inputs":[{"name":"streamId","type":"uint256","internalType":"uint256"},{"name":"recipient","type":"address","internalType":"address"},{"name":"senderAmount","type":"uint128","internalType":"uint128"},{"name":"","type":"uint128","internalType":"uint128"}],"outputs":[],"stateMutability":"nonpayable"},{"type":"function","name":"permit","inputs":[{"name":"owner","type":"address","internalType":"address"},{"name":"spender","type":"address","internalType":"address"},{"name":"value","type":"uint256","internalType":"uint256"},{"name":"deadline","type":"uint256","internalType":"uint256"},{"name":"v","type":"uint8","internalType":"uint8"},{"name":"r","type":"bytes32","internalType":"bytes32"},{"name":"s","type":"bytes32","internalType":"bytes32"}],"outputs":[],"stateMutability":"nonpayable"},{"type":"function","name":"redeem","inputs":[{"name":"amount","type":"uint256","internalType":"uint256"},{"name":"to","type":"address","internalType":"address"}],"outputs":[],"stateMutability":"nonpayable"},{"type":"function","name":"renounceRole","inputs":[{"name":"role","type":"bytes32","internalType":"bytes32"},{"name":"account","type":"address","internalType":"address"}],"outputs":[],"stateMutability":"nonpayable"},{"type":"function","name":"reserveRatio","inputs":[],"outputs":[{"name":"","type":"uint256","internalType":"uint256"}],"stateMutability":"view"},{"type":"function","name":"reserves","inputs":[{"name":"","type":"uint256","internalType":"uint256"}],"outputs":[{"name":"","type":"uint256","internalType":"uint256"}],"stateMutability":"view"},{"type":"function","name":"revokeRole","inputs":[{"name":"role","type":"bytes32","internalType":"bytes32"},{"name":"account","type":"address","internalType":"address"}],"outputs":[],"stateMutability":"nonpayable"},{"type":"function","name":"sablier","inputs":[],"outputs":[{"name":"","type":"address","internalType":"contract ISablierV2LockupLinear"}],"stateMutability":"view"},{"type":"function","name":"setReserveRatio","inputs":[{"name":"reserveRatio_","type":"uint256","internalType":"uint256"}],"outputs":[],"stateMutability":"nonpayable"},{"type":"function","name":"setVestingPeriod","inputs":[{"name":"vestingPeriod_","type":"uint40","internalType":"uint40"}],"outputs":[],"stateMutability":"nonpayable"},{"type":"function","name":"supportsInterface","inputs":[{"name":"interfaceId","type":"bytes4","internalType":"bytes4"}],"outputs":[{"name":"","type":"bool","internalType":"bool"}],"stateMutability":"view"},{"type":"function","name":"symbol","inputs":[],"outputs":[{"name":"","type":"string","internalType":"string"}],"stateMutability":"view"},{"type":"function","name":"totalSupply","inputs":[],"outputs":[{"name":"","type":"uint256","internalType":"uint256"}],"stateMutability":"view"},{"type":"function","name":"transfer","inputs":[{"name":"to","type":"address","internalType":"address"},{"name":"amount","type":"uint256","internalType":"uint256"}],"outputs":[{"name":"","type":"bool","internalType":"bool"}],"stateMutability":"nonpayable"},{"type":"function","name":"transferFrom","inputs":[{"name":"from","type":"address","internalType":"address"},{"name":"to","type":"address","internalType":"address"},{"name":"amount","type":"uint256","internalType":"uint256"}],"outputs":[{"name":"","type":"bool","internalType":"bool"}],"stateMutability":"nonpayable"},{"type":"function","name":"vest","inputs":[{"name":"amount","type":"uint128","internalType":"uint128"},{"name":"to","type":"address","internalType":"address"},{"name":"maxRatio","type":"uint256","internalType":"uint256"},{"name":"maxPeriod","type":"uint256","internalType":"uint256"},{"name":"p","type":"tuple","internalType":"struct Permit","components":[{"name":"value","type":"uint256","internalType":"uint256"},{"name":"deadline","type":"uint256","internalType":"uint256"},{"name":"v","type":"uint8","internalType":"uint8"},{"name":"r","type":"bytes32","internalType":"bytes32"},{"name":"s","type":"bytes32","internalType":"bytes32"}]}],"outputs":[{"name":"streamId","type":"uint256","internalType":"uint256"}],"stateMutability":"nonpayable"},{"type":"function","name":"vest","inputs":[{"name":"amount","type":"uint128","internalType":"uint128"},{"name":"to","type":"address","internalType":"address"},{"name":"maxRatio","type":"uint256","internalType":"uint256"},{"name":"maxPeriod","type":"uint256","internalType":"uint256"}],"outputs":[{"name":"streamId","type":"uint256","internalType":"uint256"}],"stateMutability":"nonpayable"},{"type":"function","name":"vestingPeriod","inputs":[],"outputs":[{"name":"","type":"uint40","internalType":"uint40"}],"stateMutability":"view"},{"type":"function","name":"withdrawMax","inputs":[{"name":"streamIds","type":"uint256[]","internalType":"uint256[]"}],"outputs":[],"stateMutability":"nonpayable"},{"type":"event","name":"Approval","inputs":[{"name":"owner","type":"address","indexed":true,"internalType":"address"},{"name":"spender","type":"address","indexed":true,"internalType":"address"},{"name":"value","type":"uint256","indexed":false,"internalType":"uint256"}],"anonymous":false},{"type":"event","name":"Cancel","inputs":[{"name":"account","type":"address","indexed":true,"internalType":"address"},{"name":"streamIds","type":"uint256[]","indexed":false,"internalType":"uint256[]"}],"anonymous":false},{"type":"event","name":"DelegateChanged","inputs":[{"name":"delegator","type":"address","indexed":true,"internalType":"address"},{"name":"fromDelegate","type":"address","indexed":true,"internalType":"address"},{"name":"toDelegate","type":"address","indexed":true,"internalType":"address"}],"anonymous":false},{"type":"event","name":"DelegateVotesChanged","inputs":[{"name":"delegate","type":"address","indexed":true,"internalType":"address"},{"name":"previousBalance","type":"uint256","indexed":false,"internalType":"uint256"},{"name":"newBalance","type":"uint256","indexed":false,"internalType":"uint256"}],"anonymous":false},{"type":"event","name":"EIP712DomainChanged","inputs":[],"anonymous":false},{"type":"event","name":"Initialized","inputs":[{"name":"version","type":"uint8","indexed":false,"internalType":"uint8"}],"anonymous":false},{"type":"event","name":"ReserveRatioSet","inputs":[{"name":"reserveRatio","type":"uint256","indexed":false,"internalType":"uint256"}],"anonymous":false},{"type":"event","name":"RoleAdminChanged","inputs":[{"name":"role","type":"bytes32","indexed":true,"internalType":"bytes32"},{"name":"previousAdminRole","type":"bytes32","indexed":true,"internalType":"bytes32"},{"name":"newAdminRole","type":"bytes32","indexed":true,"internalType":"bytes32"}],"anonymous":false},{"type":"event","name":"RoleGranted","inputs":[{"name":"role","type":"bytes32","indexed":true,"internalType":"bytes32"},{"name":"account","type":"address","indexed":true,"internalType":"address"},{"name":"sender","type":"address","indexed":true,"internalType":"address"}],"anonymous":false},{"type":"event","name":"RoleRevoked","inputs":[{"name":"role","type":"bytes32","indexed":true,"internalType":"bytes32"},{"name":"account","type":"address","indexed":true,"internalType":"address"},{"name":"sender","type":"address","indexed":true,"internalType":"address"}],"anonymous":false},{"type":"event","name":"Transfer","inputs":[{"name":"from","type":"address","indexed":true,"internalType":"address"},{"name":"to","type":"address","indexed":true,"internalType":"address"},{"name":"value","type":"uint256","indexed":false,"internalType":"uint256"}],"anonymous":false},{"type":"event","name":"Vest","inputs":[{"name":"caller","type":"address","indexed":true,"internalType":"address"},{"name":"account","type":"address","indexed":true,"internalType":"address"},{"name":"streamId","type":"uint256","indexed":true,"internalType":"uint256"},{"name":"amount","type":"uint256","indexed":false,"internalType":"uint256"}],"anonymous":false},{"type":"event","name":"VestingPeriodSet","inputs":[{"name":"vestingPeriod","type":"uint256","indexed":false,"internalType":"uint256"}],"anonymous":false},{"type":"error","name":"Disagreement","inputs":[]},{"type":"error","name":"InvalidStream","inputs":[]},{"type":"error","name":"Untransferable","inputs":[]}],"bytecode":{"object":"0x60c060405234801561000f575f80fd5b506040516139fe3803806139fe83398101604081905261002e916100cb565b6001600160a01b03808316608052811660a052610049610050565b5050610103565b5f54610100900460ff1615610063575f80fd5b5f5460ff908116146100b2575f805460ff191660ff9081179091556040519081527f7f26b83ff96e1f2b6a682f133852f6798a09c465da95921460cefb38474024989060200160405180910390a15b565b6001600160a01b03811681146100c8575f80fd5b50565b5f80604083850312156100dc575f80fd5b82516100e7816100b4565b60208401519092506100f8816100b4565b809150509250929050565b60805160a05161384e6101b05f395f81816103eb0152818161088a0152818161095e015281816109fa01528181610ce001528181610e83015281816112b70152818161156b015281816119ad01528181611a480152611abe01525f818161053501528181610ac701528181610b7501528181610c2701528181610e6101528181610f9f015281816110e30152818161117d0152818161149a015281816114f40152611fce015261384e5ff3fe608060405234801561000f575f80fd5b50600436106102b1575f3560e01c806374005c001161017b57806394bf804d116100e4578063aeef49621161009e578063d505accf11610079578063d505accf146106cb578063d547741f146106de578063dd62ed3e146106f1578063f1127ed814610704575f80fd5b8063aeef496214610692578063c3cda520146106a5578063cfbb6182146106b8575f80fd5b806394bf804d1461063757806395d89b411461064a5780639ab24eb014610652578063a217fddf14610665578063a457c2d71461066c578063a9059cbb1461067f575f80fd5b80638334278d116101355780638334278d146105a457806384b0196e146105c45780638b4f3b2c146105df5780638e539e8c146105f257806391d148541461060557806391ddadf414610618575f80fd5b806374005c001461050a578063772f87821461051d5780637965b636146105305780637bde82f2146105575780637ecebe001461056a5780637fa46ab41461057d575f80fd5b80633704b0c81161021d5780635c19a95c116101d75780635c19a95c1461045857806363ac5d971461046b5780636fcfff451461047f57806370a08231146104a757806372eba203146104cf5780637313ee5a146104e2575f80fd5b80633704b0c8146103ad57806339509351146103c05780633a46b1a8146103d3578063482879aa146103e65780634bf5d7e914610425578063587cde1e1461042d575f80fd5b8063248a9ca31161026e578063248a9ca3146103385780632e3408231461035b5780632f2ff15d1461036e578063313ce567146103835780633644e5151461039257806336568abe1461039a575f80fd5b806301ffc9a7146102b557806306fdde03146102dd578063095ea7b3146102f25780630c7d5cd81461030557806318160ddd1461031d57806323b872dd14610325575b5f80fd5b6102c86102c3366004612de7565b610741565b60405190151581526020015b60405180910390f35b6102e5610777565b6040516102d49190612e3c565b6102c8610300366004612e62565b610807565b61030f6101625481565b6040519081526020016102d4565b60355461030f565b6102c8610333366004612e8c565b61081e565b61030f610346366004612eca565b5f908152610130602052604090206001015490565b61030f610369366004612f26565b610841565b61038161037c366004612fc7565b610af4565b005b604051601281526020016102d4565b61030f610b1e565b6103816103a8366004612fc7565b610b2c565b61030f6103bb366004613009565b610b4e565b6102c86103ce366004612e62565b610bbf565b61030f6103e1366004612e62565b610be0565b61040d7f000000000000000000000000000000000000000000000000000000000000000081565b6040516001600160a01b0390911681526020016102d4565b6102e5610c23565b61040d61043b36600461306c565b6001600160a01b039081165f90815260cc60205260409020541690565b61038161046636600461306c565b610ca7565b61030f5f805160206137f983398151915281565b61049261048d36600461306c565b610cb4565b60405163ffffffff90911681526020016102d4565b61030f6104b536600461306c565b6001600160a01b03165f9081526033602052604090205490565b6103816104dd366004613087565b610cd5565b610163546104f49064ffffffffff1681565b60405164ffffffffff90911681526020016102d4565b6103816105183660046130f0565b610d39565b61038161052b36600461310a565b610ef2565b61040d7f000000000000000000000000000000000000000000000000000000000000000081565b610381610565366004612fc7565b610f4f565b61030f61057836600461306c565b610fc6565b61030f7f44ac9762eec3a11893fefb11d028bb3102560094137c3ed4518712475b2577cc81565b61030f6105b2366004612eca565b6101646020525f908152604090205481565b6105cc610fe3565b6040516102d4979695949392919061315d565b6103816105ed366004612eca565b611040565b61030f610600366004612eca565b61108f565b6102c8610613366004612fc7565b6110b5565b6106206110e0565b60405165ffffffffffff90911681526020016102d4565b610381610645366004612fc7565b611161565b6102e56111af565b61030f61066036600461306c565b6111be565b61030f5f81565b6102c861067a366004612e62565b61123b565b6102c861068d366004612e62565b611263565b6103816106a0366004612f26565b611270565b6103816106b33660046131dc565b61135a565b61030f6106c6366004613232565b611407565b6103816106d9366004613275565b611649565b6103816106ec366004612fc7565b611722565b61030f6106ff3660046132de565b611747565b61071761071236600461330a565b611771565b60408051825163ffffffff1681526020928301516001600160e01b031692810192909252016102d4565b5f6001600160e01b03198216637965db0b60e01b148061077157506301ffc9a760e01b6001600160e01b03198316145b92915050565b6060603680546107869061333e565b80601f01602080910402602001604051908101604052809291908181526020018280546107b29061333e565b80156107fd5780601f106107d4576101008083540402835291602001916107fd565b820191905f5260205f20905b8154815290600101906020018083116107e057829003601f168201915b5050505050905090565b5f336108148185856117f2565b5060019392505050565b5f3361082b858285611876565b6108368585856118a4565b506001949350505050565b5f805f5b8351811015610a65575f84828151811061086157610861613370565b6020026020010151905061087481611969565b604051636d0cee7560e01b8152600481018290527f00000000000000000000000000000000000000000000000000000000000000006001600160a01b031690636d0cee7590602401602060405180830381865afa1580156108d7573d5f803e3d5ffd5b505050506040513d601f19601f820116820180604052508101906108fb9190613384565b6001600160a01b0316336001600160a01b03161461091b5761091b61339f565b5f818152610164602052604090205461093490856133c7565b5f828152610164602052604080822091909155516305003b3b60e21b8152600481018390529094507f00000000000000000000000000000000000000000000000000000000000000006001600160a01b031690631400ecec90602401602060405180830381865afa1580156109ab573d5f803e3d5ffd5b505050506040513d601f19601f820116820180604052508101906109cf91906133da565b6109d990846133f5565b92506109e481611997565b6040516340e58ee560e01b8152600481018290527f00000000000000000000000000000000000000000000000000000000000000006001600160a01b0316906340e58ee5906024015f604051808303815f87803b158015610a43575f80fd5b505af1158015610a55573d5f803e3d5ffd5b5050505050806001019050610845565b50336001600160a01b03167f964d277204a99dbd6ae9401153b4afb6d6682befec2f65401afb8839cb0623cd84604051610a9f919061341c565b60405180910390a2610aba33826001600160801b0316611b3e565b610aee6001600160a01b037f0000000000000000000000000000000000000000000000000000000000000000163384611b6b565b50919050565b5f8281526101306020526040902060010154610b0f81611bce565b610b198383611bd8565b505050565b5f610b27611c5e565b905090565b6001600160a01b0381163314610b40575f80fd5b610b4a8282611c67565b5050565b5f610ba9333084356020860135610b6b606088016040890161342e565b6001600160a01b037f0000000000000000000000000000000000000000000000000000000000000000169493929190606089013560808a0135611cce565b610bb586868686611407565b9695505050505050565b5f33610814818585610bd18383611747565b610bdb91906133c7565b6117f2565b5f610be96110e0565b65ffffffffffff168210610bfb575f80fd5b6001600160a01b0383165f90815260cd60205260409020610c1c9083611e3f565b9392505050565b60607f00000000000000000000000000000000000000000000000000000000000000006001600160a01b0316634bf5d7e96040518163ffffffff1660e01b81526004015f60405180830381865afa158015610c80573d5f803e3d5ffd5b505050506040513d5f823e601f3d908101601f19168201604052610b279190810190613447565b610cb13382611f20565b50565b6001600160a01b0381165f90815260cd602052604081205461077190611f99565b336001600160a01b037f00000000000000000000000000000000000000000000000000000000000000001614610d0d57610d0d61339f565b610d1684611969565b610d2983836001600160801b0316611b3e565b610d338484611fae565b50505050565b5f54610100900460ff1615808015610d5757505f54600160ff909116105b80610d705750303b158015610d7057505f5460ff166001145b610d78575f80fd5b5f805460ff191660011790558015610d99575f805461ff0019166101001790555b610de46040518060400160405280600c81526020016b657363726f7765642045584160a01b81525060405180604001604052806005815260200164657345584160d81b815250611ff5565b610e116040518060400160405280600c81526020016b657363726f7765642045584160a01b815250612011565b610e19612046565b610e21612046565b610e2b5f33611bd8565b610e425f805160206137f98339815191525f611bd8565b610e4b83610ef2565b610e5482611040565b610ea96001600160a01b037f0000000000000000000000000000000000000000000000000000000000000000167f00000000000000000000000000000000000000000000000000000000000000005f1961205a565b8015610b19575f805461ff0019169055604051600181527f7f26b83ff96e1f2b6a682f133852f6798a09c465da95921460cefb38474024989060200160405180910390a1505050565b5f610efc81611bce565b610163805464ffffffffff191664ffffffffff84169081179091556040519081527fa32a160b75cd889deb50070e9f625fd66171dedaa088787a37faa0ec56a99236906020015b60405180910390a15050565b7f44ac9762eec3a11893fefb11d028bb3102560094137c3ed4518712475b2577cc610f7981611bce565b825f03610f8857610f8861339f565b610f92338461210a565b610b196001600160a01b037f0000000000000000000000000000000000000000000000000000000000000000168385611b6b565b6001600160a01b0381165f90815260996020526040812054610771565b5f6060805f805f60606065545f801b148015610fff5750606654155b611007575f80fd5b61100f612122565b611017612131565b604080515f80825260208201909252600f60f81b9b939a50919850469750309650945092509050565b5f61104a81611bce565b815f036110595761105961339f565b6101628290556040518281527f9ef03f0d13f9c31ff0f3068e73c02a4333fa05b02bf58d3801e00fe286191c5490602001610f43565b5f6110986110e0565b65ffffffffffff1682106110aa575f80fd5b61077160ce83611e3f565b5f918252610130602090815260408084206001600160a01b0393909316845291905290205460ff1690565b5f7f00000000000000000000000000000000000000000000000000000000000000006001600160a01b03166391ddadf46040518163ffffffff1660e01b8152600401602060405180830381865afa15801561113d573d5f803e3d5ffd5b505050506040513d601f19601f82011682018060405250810190610b2791906134d6565b815f036111705761117061339f565b6111a56001600160a01b037f000000000000000000000000000000000000000000000000000000000000000016333085612140565b610b4a8183611b3e565b6060603780546107869061333e565b6001600160a01b0381165f90815260cd60205260408120548015611229576001600160a01b0383165f90815260cd6020526040902080545f19830190811061120857611208613370565b5f9182526020909120015464010000000090046001600160e01b031661122b565b5f5b6001600160e01b03169392505050565b5f33816112488286611747565b905083811015611256575f80fd5b61083682868684036117f2565b5f336108148185856118a4565b5f5b8151811015610b4a575f82828151811061128e5761128e613370565b602002602001015190506112a181611969565b604051636d0cee7560e01b8152600481018290527f00000000000000000000000000000000000000000000000000000000000000006001600160a01b031690636d0cee7590602401602060405180830381865afa158015611304573d5f803e3d5ffd5b505050506040513d601f19601f820116820180604052508101906113289190613384565b6001600160a01b0316336001600160a01b0316146113485761134861339f565b61135181611997565b50600101611272565b83421115611366575f80fd5b604080517fe48329057bfd03d55e49b547132e39cffd9c1820ad7b9d4c5307691425d15adf60208201526001600160a01b0388169181019190915260608101869052608081018590525f906113df906113d79060a00160405160208183030381529060405280519060200120612178565b8585856121a4565b90506113ea816121cc565b86146113f4575f80fd5b6113fe8188611f20565b50505050505050565b5f846001600160801b03165f036114205761142061339f565b8261016254118061143a57506101635464ffffffffff1682105b1561145857604051632c1b6b4160e21b815260040160405180910390fd5b61146b33866001600160801b031661210a565b5f61148b61016254876001600160801b03166121f190919063ffffffff16565b90506114c26001600160a01b037f000000000000000000000000000000000000000000000000000000000000000016333084612140565b60408051610100810182523081526001600160a01b038781166020808401919091526001600160801b038a16838501527f00000000000000000000000000000000000000000000000000000000000000008216606084015260016080840181905260a0840152835180850185525f8082526101635464ffffffffff168284015260c0850191909152845180860186528181529182015260e08301529151632ac59f3360e21b81527f00000000000000000000000000000000000000000000000000000000000000009092169163ab167ccc916115a0916004016134fb565b6020604051808303815f875af11580156115bc573d5f803e3d5ffd5b505050506040513d601f19601f820116820180604052508101906115e091906135b1565b5f818152610164602090815260409182902084905590516001600160801b038916815291935083916001600160a01b0388169133917fd9c1851563fe01face9bb04f31b9adad0fb3db6ed6f78845f9c04eadedb494d2910160405180910390a450949350505050565b83421115611655575f80fd5b5f7f6e71edae12b1b97f4d1f60370fef10105fa2faae0126114a169c64845d6126c98888886116838c6121cc565b6040805160208101969096526001600160a01b0394851690860152929091166060840152608083015260a082015260c0810186905260e0016040516020818303038152906040528051906020012090505f6116dd82612178565b90505f6116ec828787876121a4565b9050896001600160a01b0316816001600160a01b03161461170b575f80fd5b6117168a8a8a6117f2565b50505050505050505050565b5f828152610130602052604090206001015461173d81611bce565b610b198383611c67565b6001600160a01b039182165f90815260346020908152604080832093909416825291909152205490565b604080518082019091525f80825260208201526001600160a01b0383165f90815260cd60205260409020805463ffffffff84169081106117b3576117b3613370565b5f9182526020918290206040805180820190915291015463ffffffff8116825264010000000090046001600160e01b0316918101919091529392505050565b6001600160a01b038316611804575f80fd5b6001600160a01b038216611816575f80fd5b6001600160a01b038381165f8181526034602090815260408083209487168084529482529182902085905590518481527f8c5be1e5ebec7d5bd14f71427d1e84f3dd0314c0f7b2291e5b200ac8c7c3b925910160405180910390a3505050565b5f6118818484611747565b90505f198114610d335781811015611897575f80fd5b610d3384848484036117f2565b6001600160a01b0383166118b6575f80fd5b6001600160a01b0382166118c8575f80fd5b6118d3838383612205565b6001600160a01b0383165f90815260336020526040902054818110156118f7575f80fd5b6001600160a01b038085165f8181526033602052604080822086860390559286168082529083902080548601905591517fddf252ad1be2c89b69c2b068fc378daa952ba7f163c4a11628f55a4df523b3ef906119569086815260200190565b60405180910390a3610d3384848461225b565b5f81815261016460205260408120549003610cb15760405163a0f87d3360e01b815260040160405180910390fd5b60405163d975dfed60e01b8152600481018290527f00000000000000000000000000000000000000000000000000000000000000006001600160a01b03169063d975dfed90602401602060405180830381865afa1580156119fa573d5f803e3d5ffd5b505050506040513d601f19601f82011682018060405250810190611a1e91906133da565b6001600160801b031615611aa85760405163ea5ead1960e01b8152600481018290523360248201527f00000000000000000000000000000000000000000000000000000000000000006001600160a01b03169063ea5ead19906044015f604051808303815f87803b158015611a91575f80fd5b505af1158015611aa3573d5f803e3d5ffd5b505050505b60405163425d30dd60e01b8152600481018290527f00000000000000000000000000000000000000000000000000000000000000006001600160a01b03169063425d30dd90602401602060405180830381865afa158015611b0b573d5f803e3d5ffd5b505050506040513d601f19601f82011682018060405250810190611b2f91906135c8565b15610cb157610cb18133611fae565b611b48828261228c565b6035546001600160e01b031015611b5d575f80fd5b610d3360ce61231983612324565b6040516001600160a01b038316602482015260448101829052610b1990849063a9059cbb60e01b906064015b60408051601f198184030181529190526020810180516001600160e01b03166001600160e01b031990931692909217909152612490565b610cb1813361250c565b611be282826110b5565b610b4a575f828152610130602090815260408083206001600160a01b03851684529091529020805460ff19166001179055611c1a3390565b6001600160a01b0316816001600160a01b0316837f2f8788117e7eff1d82e926ec794901d17c78024a50270940304540a733656f0d60405160405180910390a45050565b5f610b27612552565b611c7182826110b5565b15610b4a575f828152610130602090815260408083206001600160a01b0385168085529252808320805460ff1916905551339285917ff6391f5c32d9c69d2a47ea670b442974b53935d1edc7fd64eb21e047a839171b9190a45050565b604051623f675f60e91b81526001600160a01b0388811660048301525f91908a1690637ecebe0090602401602060405180830381865afa158015611d14573d5f803e3d5ffd5b505050506040513d601f19601f82011682018060405250810190611d3891906135b1565b60405163d505accf60e01b81526001600160a01b038a811660048301528981166024830152604482018990526064820188905260ff8716608483015260a4820186905260c48201859052919250908a169063d505accf9060e4015f604051808303815f87803b158015611da9575f80fd5b505af1158015611dbb573d5f803e3d5ffd5b5050604051623f675f60e91b81526001600160a01b038b811660048301525f93508c169150637ecebe0090602401602060405180830381865afa158015611e04573d5f803e3d5ffd5b505050506040513d601f19601f82011682018060405250810190611e2891906135b1565b9050611e358260016133c7565b8114611716575f80fd5b81545f9081816005811115611e96575f611e58846125c5565b611e6290856135e7565b5f88815260209020909150869082015463ffffffff161115611e8657809150611e94565b611e918160016133c7565b92505b505b80821015611ee1575f611ea983836126a9565b5f88815260209020909150869082015463ffffffff161115611ecd57809150611edb565b611ed88160016133c7565b92505b50611e96565b8015611f0b575f8681526020902081015f19015464010000000090046001600160e01b0316611f0d565b5f5b6001600160e01b03169695505050505050565b6001600160a01b038281165f81815260cc6020818152604080842080546033845282862054949093528787166001600160a01b03198416811790915590519190951694919391928592917f3134e8a2e6d97e929a7e54011ea5485d7d196dd5f0ba4d4ef95803e8e3fc257f9190a4610d338284836126c3565b5f63ffffffff821115611faa575f80fd5b5090565b5f828152610164602052604081208054919055610b196001600160a01b037f0000000000000000000000000000000000000000000000000000000000000000168383611b6b565b5f54610100900460ff16612007575f80fd5b610b4a82826127fd565b5f54610100900460ff16612023575f80fd5b610cb181604051806040016040528060018152602001603160f81b815250612828565b5f54610100900460ff16612058575f80fd5b565b8015806120d25750604051636eb1769f60e11b81523060048201526001600160a01b03838116602483015284169063dd62ed3e90604401602060405180830381865afa1580156120ac573d5f803e3d5ffd5b505050506040513d601f19601f820116820180604052508101906120d091906135b1565b155b6120da575f80fd5b6040516001600160a01b038316602482015260448101829052610b1990849063095ea7b360e01b90606401611b97565b6121148282612861565b610d3360ce61290783612324565b6060606780546107869061333e565b6060606880546107869061333e565b6040516001600160a01b0380851660248301528316604482015260648101829052610d339085906323b872dd60e01b90608401611b97565b5f610771612184611c5e565b8360405161190160f01b8152600281019290925260228201526042902090565b5f805f6121b387878787612912565b915091506121c0816129cf565b5090505b949350505050565b6001600160a01b0381165f908152609960205260409020805460018101825590610aee565b5f610c1c8383670de0b6b3a7640000612a41565b61221c5f805160206137f9833981519152846110b5565b15801561223d575061223b5f805160206137f9833981519152836110b5565b155b15610b195760405163072b78c760e01b815260040160405180910390fd5b6001600160a01b038381165f90815260cc6020526040808220548584168352912054610b19929182169116836126c3565b6001600160a01b03821661229e575f80fd5b6122a95f8383612205565b8060355f8282546122ba91906133c7565b90915550506001600160a01b0382165f818152603360209081526040808320805486019055518481527fddf252ad1be2c89b69c2b068fc378daa952ba7f163c4a11628f55a4df523b3ef910160405180910390a3610b4a5f838361225b565b5f610c1c82846133c7565b82545f90819081811561236e575f8781526020902082015f190160408051808201909152905463ffffffff8116825264010000000090046001600160e01b03166020820152612382565b604080518082019091525f80825260208201525b905080602001516001600160e01b031693506123a284868863ffffffff16565b92505f821180156123ca57506123b66110e0565b65ffffffffffff16815f015163ffffffff16145b1561240d576123d883612a6e565b5f8881526020902083015f190180546001600160e01b03929092166401000000000263ffffffff909216919091179055612486565b8660405180604001604052806124316124246110e0565b65ffffffffffff16611f99565b63ffffffff16815260200161244586612a6e565b6001600160e01b0390811690915282546001810184555f938452602093849020835194909301519091166401000000000263ffffffff909316929092179101555b5050935093915050565b5f6124e4826040518060400160405280602081526020017f5361666545524332303a206c6f772d6c6576656c2063616c6c206661696c6564815250856001600160a01b0316612a829092919063ffffffff16565b905080515f148061250457508080602001905181019061250491906135c8565b610b19575f80fd5b61251682826110b5565b610b4a5761252381612a90565b61252e836020612aa2565b60405160200161253f929190613611565b6040516020818303038152906040525f80fd5b5f7f8b73c3c69bb8fe3d512ecc4cf759cc79239f7b179b0ffacaa9a75d522b39400f61257c612bf4565b612584612c4c565b60408051602081019490945283019190915260608201524660808201523060a082015260c00160405160208183030381529060405280519060200120905090565b5f815f036125d457505f919050565b5f60016125e084612c7c565b901c6001901b905060018184816125f9576125f961366f565b048201901c905060018184816126115761261161366f565b048201901c905060018184816126295761262961366f565b048201901c905060018184816126415761264161366f565b048201901c905060018184816126595761265961366f565b048201901c905060018184816126715761267161366f565b048201901c905060018184816126895761268961366f565b048201901c9050610c1c818285816126a3576126a361366f565b04612d0f565b5f6126b76002848418613683565b610c1c908484166133c7565b816001600160a01b0316836001600160a01b0316141580156126e457505f81115b15610b19576001600160a01b03831615612771576001600160a01b0383165f90815260cd60205260408120819061271e9061290785612324565b91509150846001600160a01b03167fdec2bacdd2f05b59de34da9b523dff8be42e5e38e818c82fdb0bae774387a7248383604051612766929190918252602082015260400190565b60405180910390a250505b6001600160a01b03821615610b19576001600160a01b0382165f90815260cd6020526040812081906127a69061231985612324565b91509150836001600160a01b03167fdec2bacdd2f05b59de34da9b523dff8be42e5e38e818c82fdb0bae774387a72483836040516127ee929190918252602082015260400190565b60405180910390a25050505050565b5f54610100900460ff1661280f575f80fd5b603661281b83826136ed565b506037610b1982826136ed565b5f54610100900460ff1661283a575f80fd5b606761284683826136ed565b50606861285382826136ed565b50505f606581905560665550565b6001600160a01b038216612873575f80fd5b61287e825f83612205565b6001600160a01b0382165f90815260336020526040902054818110156128a2575f80fd5b6001600160a01b0383165f8181526033602090815260408083208686039055603580548790039055518581529192917fddf252ad1be2c89b69c2b068fc378daa952ba7f163c4a11628f55a4df523b3ef910160405180910390a3610b19835f8461225b565b5f610c1c82846135e7565b5f807f7fffffffffffffffffffffffffffffff5d576e7357a4501ddfe92f46681b20a083111561294757505f905060036129c6565b604080515f8082526020820180845289905260ff881692820192909252606081018690526080810185905260019060a0016020604051602081039080840390855afa158015612998573d5f803e3d5ffd5b5050604051601f1901519150506001600160a01b0381166129c0575f600192509250506129c6565b91505f90505b94509492505050565b5f8160048111156129e2576129e26137ad565b036129ea5750565b60018160048111156129fe576129fe6137ad565b03612a07575f80fd5b6002816004811115612a1b57612a1b6137ad565b03612a24575f80fd5b6003816004811115612a3857612a386137ad565b03610cb1575f80fd5b828202811515841585830485141716612a58575f80fd5b6001826001830304018115150290509392505050565b5f6001600160e01b03821115611faa575f80fd5b60606121c484845f85612d24565b60606107716001600160a01b03831660145b60605f612ab08360026137c1565b612abb9060026133c7565b67ffffffffffffffff811115612ad357612ad3612ee1565b6040519080825280601f01601f191660200182016040528015612afd576020820181803683370190505b509050600360fc1b815f81518110612b1757612b17613370565b60200101906001600160f81b03191690815f1a905350600f60fb1b81600181518110612b4557612b45613370565b60200101906001600160f81b03191690815f1a9053505f612b678460026137c1565b612b729060016133c7565b90505b6001811115612be9576f181899199a1a9b1b9c1cb0b131b232b360811b85600f1660108110612ba657612ba6613370565b1a60f81b828281518110612bbc57612bbc613370565b60200101906001600160f81b03191690815f1a90535060049490941c93612be2816137d8565b9050612b75565b508315610c1c575f80fd5b5f80612bfe612122565b805190915015612c15578051602090910120919050565b6065548015612c245792915050565b7fc5d2460186f7233c927e7db2dcc703c0e500b653ca82273b7bfad8045d85a4709250505090565b5f80612c56612131565b805190915015612c6d578051602090910120919050565b6066548015612c245792915050565b5f80608083901c15612c9057608092831c92015b604083901c15612ca257604092831c92015b602083901c15612cb457602092831c92015b601083901c15612cc657601092831c92015b600883901c15612cd857600892831c92015b600483901c15612cea57600492831c92015b600283901c15612cfc57600292831c92015b600183901c156107715760010192915050565b5f818310612d1d5781610c1c565b5090919050565b606082471015612d32575f80fd5b5f80866001600160a01b03168587604051612d4d91906137ed565b5f6040518083038185875af1925050503d805f8114612d87576040519150601f19603f3d011682016040523d82523d5f602084013e612d8c565b606091505b5091509150612d9d87838387612da8565b979650505050505050565b60608315612dd25782515f03612dcb576001600160a01b0385163b612dcb575f80fd5b50816121c4565b6121c483838151156102b15781518083602001fd5b5f60208284031215612df7575f80fd5b81356001600160e01b031981168114610c1c575f80fd5b5f81518084528060208401602086015e5f602082860101526020601f19601f83011685010191505092915050565b602081525f610c1c6020830184612e0e565b6001600160a01b0381168114610cb1575f80fd5b5f8060408385031215612e73575f80fd5b8235612e7e81612e4e565b946020939093013593505050565b5f805f60608486031215612e9e575f80fd5b8335612ea981612e4e565b92506020840135612eb981612e4e565b929592945050506040919091013590565b5f60208284031215612eda575f80fd5b5035919050565b634e487b7160e01b5f52604160045260245ffd5b604051601f8201601f1916810167ffffffffffffffff81118282101715612f1e57612f1e612ee1565b604052919050565b5f6020808385031215612f37575f80fd5b823567ffffffffffffffff80821115612f4e575f80fd5b818501915085601f830112612f61575f80fd5b813581811115612f7357612f73612ee1565b8060051b9150612f84848301612ef5565b8181529183018401918481019088841115612f9d575f80fd5b938501935b83851015612fbb57843582529385019390850190612fa2565b98975050505050505050565b5f8060408385031215612fd8575f80fd5b823591506020830135612fea81612e4e565b809150509250929050565b6001600160801b0381168114610cb1575f80fd5b5f805f805f85870361012081121561301f575f80fd5b863561302a81612ff5565b9550602087013561303a81612e4e565b9450604087013593506060870135925060a0607f198201121561305b575f80fd5b506080860190509295509295909350565b5f6020828403121561307c575f80fd5b8135610c1c81612e4e565b5f805f806080858703121561309a575f80fd5b8435935060208501356130ac81612e4e565b925060408501356130bc81612ff5565b915060608501356130cc81612ff5565b939692955090935050565b803564ffffffffff811681146130eb575f80fd5b919050565b5f8060408385031215613101575f80fd5b612e7e836130d7565b5f6020828403121561311a575f80fd5b610c1c826130d7565b5f815180845260208085019450602084015f5b8381101561315257815187529582019590820190600101613136565b509495945050505050565b60ff60f81b8816815260e060208201525f61317b60e0830189612e0e565b828103604084015261318d8189612e0e565b606084018890526001600160a01b038716608085015260a0840186905283810360c085015290506131be8185613123565b9a9950505050505050505050565b803560ff811681146130eb575f80fd5b5f805f805f8060c087890312156131f1575f80fd5b86356131fc81612e4e565b95506020870135945060408701359350613218606088016131cc565b92506080870135915060a087013590509295509295509295565b5f805f8060808587031215613245575f80fd5b843561325081612ff5565b9350602085013561326081612e4e565b93969395505050506040820135916060013590565b5f805f805f805f60e0888a03121561328b575f80fd5b873561329681612e4e565b965060208801356132a681612e4e565b955060408801359450606088013593506132c2608089016131cc565b925060a0880135915060c0880135905092959891949750929550565b5f80604083850312156132ef575f80fd5b82356132fa81612e4e565b91506020830135612fea81612e4e565b5f806040838503121561331b575f80fd5b823561332681612e4e565b9150602083013563ffffffff81168114612fea575f80fd5b600181811c9082168061335257607f821691505b602082108103610aee57634e487b7160e01b5f52602260045260245ffd5b634e487b7160e01b5f52603260045260245ffd5b5f60208284031215613394575f80fd5b8151610c1c81612e4e565b634e487b7160e01b5f52600160045260245ffd5b634e487b7160e01b5f52601160045260245ffd5b80820180821115610771576107716133b3565b5f602082840312156133ea575f80fd5b8151610c1c81612ff5565b6001600160801b03818116838216019080821115613415576134156133b3565b5092915050565b602081525f610c1c6020830184613123565b5f6020828403121561343e575f80fd5b610c1c826131cc565b5f6020808385031215613458575f80fd5b825167ffffffffffffffff8082111561346f575f80fd5b818501915085601f830112613482575f80fd5b81518181111561349457613494612ee1565b6134a6601f8201601f19168501612ef5565b915080825286848285010111156134bb575f80fd5b808484018584015e5f90820190930192909252509392505050565b5f602082840312156134e6575f80fd5b815165ffffffffffff81168114610c1c575f80fd5b81516001600160a01b0390811682526020808401518216908301526040808401516001600160801b0316908301526060808401519091169082015260808083015161014083019161354f9084018215159052565b5060a083015161356360a084018215159052565b5060c083015161358a60c0840182805164ffffffffff908116835260209182015116910152565b5060e083015180516001600160a01b03166101008401526020810151610120840152613415565b5f602082840312156135c1575f80fd5b5051919050565b5f602082840312156135d8575f80fd5b81518015158114610c1c575f80fd5b81810381811115610771576107716133b3565b5f81518060208401855e5f93019283525090919050565b7f416363657373436f6e74726f6c3a206163636f756e742000000000000000000081525f61364260178301856135fa565b7001034b99036b4b9b9b4b733903937b6329607d1b815261366660118201856135fa565b95945050505050565b634e487b7160e01b5f52601260045260245ffd5b5f8261369d57634e487b7160e01b5f52601260045260245ffd5b500490565b601f821115610b1957805f5260205f20601f840160051c810160208510156136c75750805b601f840160051c820191505b818110156136e6575f81556001016136d3565b5050505050565b815167ffffffffffffffff81111561370757613707612ee1565b61371b81613715845461333e565b846136a2565b602080601f83116001811461374e575f84156137375750858301515b5f19600386901b1c1916600185901b1785556137a5565b5f85815260208120601f198616915b8281101561377c5788860151825594840194600190910190840161375d565b508582101561379957878501515f19600388901b60f8161c191681555b505060018460011b0185555b505050505050565b634e487b7160e01b5f52602160045260245ffd5b8082028115828204841417610771576107716133b3565b5f816137e6576137e66133b3565b505f190190565b5f610c1c82846135fa56fe9c0b3a9882e11a6bfb8283b46d1e79513afb8024ee864cd3a5b3a9050c42a7d7a2646970667358221220d39bd98bdc3c3223eed6212028c6d3587156e3113dfaf20daa884949ceaf1c5464736f6c63430008190033","linkReferences":{}},"methodIdentifiers":{"CLOCK_MODE()":"4bf5d7e9","DEFAULT_ADMIN_ROLE()":"a217fddf","DOMAIN_SEPARATOR()":"3644e515","REDEEMER_ROLE()":"7fa46ab4","TRANSFERRER_ROLE()":"63ac5d97","allowance(address,address)":"dd62ed3e","approve(address,uint256)":"095ea7b3","balanceOf(address)":"70a08231","cancel(uint256[])":"2e340823","checkpoints(address,uint32)":"f1127ed8","clock()":"91ddadf4","decimals()":"313ce567","decreaseAllowance(address,uint256)":"a457c2d7","delegate(address)":"5c19a95c","delegateBySig(address,uint256,uint256,uint8,bytes32,bytes32)":"c3cda520","delegates(address)":"587cde1e","eip712Domain()":"84b0196e","exa()":"7965b636","getPastTotalSupply(uint256)":"8e539e8c","getPastVotes(address,uint256)":"3a46b1a8","getRoleAdmin(bytes32)":"248a9ca3","getVotes(address)":"9ab24eb0","grantRole(bytes32,address)":"2f2ff15d","hasRole(bytes32,address)":"91d14854","increaseAllowance(address,uint256)":"39509351","initialize(uint40,uint256)":"74005c00","mint(uint256,address)":"94bf804d","name()":"06fdde03","nonces(address)":"7ecebe00","numCheckpoints(address)":"6fcfff45","onStreamCanceled(uint256,address,uint128,uint128)":"72eba203","permit(address,address,uint256,uint256,uint8,bytes32,bytes32)":"d505accf","redeem(uint256,address)":"7bde82f2","renounceRole(bytes32,address)":"36568abe","reserveRatio()":"0c7d5cd8","reserves(uint256)":"8334278d","revokeRole(bytes32,address)":"d547741f","sablier()":"482879aa","setReserveRatio(uint256)":"8b4f3b2c","setVestingPeriod(uint40)":"772f8782","supportsInterface(bytes4)":"01ffc9a7","symbol()":"95d89b41","totalSupply()":"18160ddd","transfer(address,uint256)":"a9059cbb","transferFrom(address,address,uint256)":"23b872dd","vest(uint128,address,uint256,uint256)":"cfbb6182","vest(uint128,address,uint256,uint256,(uint256,uint256,uint8,bytes32,bytes32))":"3704b0c8","vestingPeriod()":"7313ee5a","withdrawMax(uint256[])":"aeef4962"},"id":16}