{
  "_format": "hh-sol-artifact-1",
  "contractName": "MockWETH",
  "sourceName": "contracts/mocks/MockWETH.sol",
  "abi": [
    {
      "anonymous": false,
      "inputs": [
        {
          "indexed": true,
          "internalType": "address",
          "name": "owner",
          "type": "address"
        },
        {
          "indexed": true,
          "internalType": "address",
          "name": "spender",
          "type": "address"
        },
        {
          "indexed": false,
          "internalType": "uint256",
          "name": "amount",
          "type": "uint256"
        }
      ],
      "name": "Approval",
      "type": "event"
    },
    {
      "anonymous": false,
      "inputs": [
        {
          "indexed": true,
          "internalType": "address",
          "name": "from",
          "type": "address"
        },
        {
          "indexed": false,
          "internalType": "uint256",
          "name": "amount",
          "type": "uint256"
        }
      ],
      "name": "Deposit",
      "type": "event"
    },
    {
      "anonymous": false,
      "inputs": [
        {
          "indexed": true,
          "internalType": "address",
          "name": "from",
          "type": "address"
        },
        {
          "indexed": true,
          "internalType": "address",
          "name": "to",
          "type": "address"
        },
        {
          "indexed": false,
          "internalType": "uint256",
          "name": "amount",
          "type": "uint256"
        }
      ],
      "name": "Transfer",
      "type": "event"
    },
    {
      "anonymous": false,
      "inputs": [
        {
          "indexed": true,
          "internalType": "address",
          "name": "to",
          "type": "address"
        },
        {
          "indexed": false,
          "internalType": "uint256",
          "name": "amount",
          "type": "uint256"
        }
      ],
      "name": "Withdrawal",
      "type": "event"
    },
    {
      "inputs": [],
      "name": "DOMAIN_SEPARATOR",
      "outputs": [
        {
          "internalType": "bytes32",
          "name": "",
          "type": "bytes32"
        }
      ],
      "stateMutability": "view",
      "type": "function"
    },
    {
      "inputs": [
        {
          "internalType": "address",
          "name": "",
          "type": "address"
        },
        {
          "internalType": "address",
          "name": "",
          "type": "address"
        }
      ],
      "name": "allowance",
      "outputs": [
        {
          "internalType": "uint256",
          "name": "",
          "type": "uint256"
        }
      ],
      "stateMutability": "view",
      "type": "function"
    },
    {
      "inputs": [
        {
          "internalType": "address",
          "name": "spender",
          "type": "address"
        },
        {
          "internalType": "uint256",
          "name": "amount",
          "type": "uint256"
        }
      ],
      "name": "approve",
      "outputs": [
        {
          "internalType": "bool",
          "name": "",
          "type": "bool"
        }
      ],
      "stateMutability": "nonpayable",
      "type": "function"
    },
    {
      "inputs": [
        {
          "internalType": "address",
          "name": "",
          "type": "address"
        }
      ],
      "name": "balanceOf",
      "outputs": [
        {
          "internalType": "uint256",
          "name": "",
          "type": "uint256"
        }
      ],
      "stateMutability": "view",
      "type": "function"
    },
    {
      "inputs": [
        {
          "internalType": "address",
          "name": "from",
          "type": "address"
        },
        {
          "internalType": "uint256",
          "name": "value",
          "type": "uint256"
        }
      ],
      "name": "burn",
      "outputs": [],
      "stateMutability": "nonpayable",
      "type": "function"
    },
    {
      "inputs": [],
      "name": "decimals",
      "outputs": [
        {
          "internalType": "uint8",
          "name": "",
          "type": "uint8"
        }
      ],
      "stateMutability": "view",
      "type": "function"
    },
    {
      "inputs": [],
      "name": "deposit",
      "outputs": [],
      "stateMutability": "payable",
      "type": "function"
    },
    {
      "inputs": [
        {
          "internalType": "address",
          "name": "to",
          "type": "address"
        },
        {
          "internalType": "uint256",
          "name": "value",
          "type": "uint256"
        }
      ],
      "name": "mint",
      "outputs": [],
      "stateMutability": "nonpayable",
      "type": "function"
    },
    {
      "inputs": [],
      "name": "name",
      "outputs": [
        {
          "internalType": "string",
          "name": "",
          "type": "string"
        }
      ],
      "stateMutability": "view",
      "type": "function"
    },
    {
      "inputs": [
        {
          "internalType": "address",
          "name": "",
          "type": "address"
        }
      ],
      "name": "nonces",
      "outputs": [
        {
          "internalType": "uint256",
          "name": "",
          "type": "uint256"
        }
      ],
      "stateMutability": "view",
      "type": "function"
    },
    {
      "inputs": [
        {
          "internalType": "address",
          "name": "owner",
          "type": "address"
        },
        {
          "internalType": "address",
          "name": "spender",
          "type": "address"
        },
        {
          "internalType": "uint256",
          "name": "value",
          "type": "uint256"
        },
        {
          "internalType": "uint256",
          "name": "deadline",
          "type": "uint256"
        },
        {
          "internalType": "uint8",
          "name": "v",
          "type": "uint8"
        },
        {
          "internalType": "bytes32",
          "name": "r",
          "type": "bytes32"
        },
        {
          "internalType": "bytes32",
          "name": "s",
          "type": "bytes32"
        }
      ],
      "name": "permit",
      "outputs": [],
      "stateMutability": "nonpayable",
      "type": "function"
    },
    {
      "inputs": [],
      "name": "symbol",
      "outputs": [
        {
          "internalType": "string",
          "name": "",
          "type": "string"
        }
      ],
      "stateMutability": "view",
      "type": "function"
    },
    {
      "inputs": [],
      "name": "totalSupply",
      "outputs": [
        {
          "internalType": "uint256",
          "name": "",
          "type": "uint256"
        }
      ],
      "stateMutability": "view",
      "type": "function"
    },
    {
      "inputs": [
        {
          "internalType": "address",
          "name": "to",
          "type": "address"
        },
        {
          "internalType": "uint256",
          "name": "amount",
          "type": "uint256"
        }
      ],
      "name": "transfer",
      "outputs": [
        {
          "internalType": "bool",
          "name": "",
          "type": "bool"
        }
      ],
      "stateMutability": "nonpayable",
      "type": "function"
    },
    {
      "inputs": [
        {
          "internalType": "address",
          "name": "from",
          "type": "address"
        },
        {
          "internalType": "address",
          "name": "to",
          "type": "address"
        },
        {
          "internalType": "uint256",
          "name": "amount",
          "type": "uint256"
        }
      ],
      "name": "transferFrom",
      "outputs": [
        {
          "internalType": "bool",
          "name": "",
          "type": "bool"
        }
      ],
      "stateMutability": "nonpayable",
      "type": "function"
    },
    {
      "inputs": [
        {
          "internalType": "uint256",
          "name": "amount",
          "type": "uint256"
        }
      ],
      "name": "withdraw",
      "outputs": [],
      "stateMutability": "nonpayable",
      "type": "function"
    },
    {
      "stateMutability": "payable",
      "type": "receive"
    }
  ],
  "bytecode": "0x60e060405234801561000f575f80fd5b506040518060400160405280600d81526020016c2bb930b83832b21022ba3432b960991b815250604051806040016040528060048152602001630ae8aa8960e31b8152506012825f908161006391906101c0565b50600161007083826101c0565b5060ff81166080524660a052610084610090565b60c052506102f1915050565b5f7f8b73c3c69bb8fe3d512ecc4cf759cc79239f7b179b0ffacaa9a75d522b39400f5f6040516100c0919061027f565b6040805191829003822060208301939093528101919091527fc89efdaa54c0f20c7adf612882df0950f5a951637e0307cdcb4c672f298b8bc660608201524660808201523060a082015260c00160405160208183030381529060405280519060200120905090565b634e487b7160e01b5f52604160045260245ffd5b600181811c9082168061015057607f821691505b60208210810361016e57634e487b7160e01b5f52602260045260245ffd5b50919050565b601f8211156101bb57805f5260205f20601f840160051c810160208510156101995750805b601f840160051c820191505b818110156101b8575f81556001016101a5565b50505b505050565b81516001600160401b038111156101d9576101d9610128565b6101ed816101e7845461013c565b84610174565b602080601f831160018114610220575f84156102095750858301515b5f19600386901b1c1916600185901b178555610277565b5f85815260208120601f198616915b8281101561024e5788860151825594840194600190910190840161022f565b508582101561026b57878501515f19600388901b60f8161c191681555b505060018460011b0185555b505050505050565b5f80835461028c8161013c565b600182811680156102a457600181146102b9576102e5565b60ff19841687528215158302870194506102e5565b875f526020805f205f5b858110156102dc5781548a8201529084019082016102c3565b50505082870194505b50929695505050505050565b60805160a05160c051610c9461031b5f395f6105d201525f61059d01525f6101d00152610c945ff3fe6080604052600436106100f2575f3560e01c806370a0823111610087578063a9059cbb11610057578063a9059cbb146102c0578063d0e30db0146102df578063d505accf146102e7578063dd62ed3e14610306575f80fd5b806370a08231146102375780637ecebe001461026257806395d89b411461028d5780639dc29fac146102a1575f80fd5b80632e1a7d4d116100c25780632e1a7d4d146101a0578063313ce567146101bf5780633644e5151461020457806340c10f1914610218575f80fd5b806306fdde0314610105578063095ea7b31461012f57806318160ddd1461015e57806323b872dd14610181575f80fd5b36610101576100ff61033c565b005b5f80fd5b348015610110575f80fd5b5061011961037d565b60405161012691906109a8565b60405180910390f35b34801561013a575f80fd5b5061014e6101493660046109f8565b610408565b6040519015158152602001610126565b348015610169575f80fd5b5061017360025481565b604051908152602001610126565b34801561018c575f80fd5b5061014e61019b366004610a20565b610474565b3480156101ab575f80fd5b506100ff6101ba366004610a59565b61054e565b3480156101ca575f80fd5b506101f27f000000000000000000000000000000000000000000000000000000000000000081565b60405160ff9091168152602001610126565b34801561020f575f80fd5b5061017361059a565b348015610223575f80fd5b506100ff6102323660046109f8565b6105f4565b348015610242575f80fd5b50610173610251366004610a70565b60036020525f908152604090205481565b34801561026d575f80fd5b5061017361027c366004610a70565b60056020525f908152604090205481565b348015610298575f80fd5b50610119610602565b3480156102ac575f80fd5b506100ff6102bb3660046109f8565b61060f565b3480156102cb575f80fd5b5061014e6102da3660046109f8565b610619565b6100ff61033c565b3480156102f2575f80fd5b506100ff610301366004610a90565b61067c565b348015610311575f80fd5b50610173610320366004610afd565b600460209081525f928352604080842090915290825290205481565b6103463334610841565b60405134815233907fe1fffcc4923d04b559f4d29a8bfc6cda04eb5b0d3c460751c2402c5c5cc9109c9060200160405180910390a2565b5f805461038990610b2e565b80601f01602080910402602001604051908101604052809291908181526020018280546103b590610b2e565b80156104005780601f106103d757610100808354040283529160200191610400565b820191905f5260205f20905b8154815290600101906020018083116103e357829003601f168201915b505050505081565b335f8181526004602090815260408083206001600160a01b038716808552925280832085905551919290917f8c5be1e5ebec7d5bd14f71427d1e84f3dd0314c0f7b2291e5b200ac8c7c3b925906104629086815260200190565b60405180910390a35060015b92915050565b6001600160a01b0383165f9081526004602090815260408083203384529091528120545f1981146104cd576104a98382610b7a565b6001600160a01b0386165f9081526004602090815260408083203384529091529020555b6001600160a01b0385165f90815260036020526040812080548592906104f4908490610b7a565b90915550506001600160a01b038085165f81815260036020526040908190208054870190555190918716905f80516020610c3f8339815191529061053b9087815260200190565b60405180910390a3506001949350505050565b6105583382610898565b60405181815233907f7fcf532c15f0a6db0bd6d0e038bea71d30d808c7d98cb3bf7268a95bf5081b659060200160405180910390a261059733826108f7565b50565b5f7f000000000000000000000000000000000000000000000000000000000000000046146105cf576105ca610910565b905090565b507f000000000000000000000000000000000000000000000000000000000000000090565b6105fe8282610841565b5050565b6001805461038990610b2e565b6105fe8282610898565b335f90815260036020526040812080548391908390610639908490610b7a565b90915550506001600160a01b0383165f81815260036020526040908190208054850190555133905f80516020610c3f833981519152906104629086815260200190565b42841015610688575f80fd5b5f600161069361059a565b6001600160a01b038a81165f8181526005602090815260409182902080546001810190915582517f6e71edae12b1b97f4d1f60370fef10105fa2faae0126114a169c64845d6126c98184015280840194909452938d166060840152608083018c905260a083019390935260c08083018b90528151808403909101815260e08301909152805192019190912061190160f01b6101008301526101028201929092526101228101919091526101420160408051601f1981840301815282825280516020918201205f84529083018083525260ff871690820152606081018590526080810184905260a0016020604051602081039080840390855afa15801561079b573d5f803e3d5ffd5b5050604051601f1901519150506001600160a01b038116158015906107d15750876001600160a01b0316816001600160a01b0316145b6107d9575f80fd5b6001600160a01b039081165f9081526004602090815260408083208a8516808552908352928190208990555188815291928a16917f8c5be1e5ebec7d5bd14f71427d1e84f3dd0314c0f7b2291e5b200ac8c7c3b925910160405180910390a350505050505050565b8060025f8282546108529190610b8d565b90915550506001600160a01b0382165f818152600360209081526040808320805486019055518481525f80516020610c3f83398151915291015b60405180910390a35050565b6001600160a01b0382165f90815260036020526040812080548392906108bf908490610b7a565b90915550506002805482900390556040518181525f906001600160a01b038416905f80516020610c3f8339815191529060200161088c565b5f805f805f85875af190508061090b575f80fd5b505050565b5f7f8b73c3c69bb8fe3d512ecc4cf759cc79239f7b179b0ffacaa9a75d522b39400f5f6040516109409190610ba0565b6040805191829003822060208301939093528101919091527fc89efdaa54c0f20c7adf612882df0950f5a951637e0307cdcb4c672f298b8bc660608201524660808201523060a082015260c00160405160208183030381529060405280519060200120905090565b602081525f82518060208401528060208501604085015e5f604082850101526040601f19601f83011684010191505092915050565b80356001600160a01b03811681146109f3575f80fd5b919050565b5f8060408385031215610a09575f80fd5b610a12836109dd565b946020939093013593505050565b5f805f60608486031215610a32575f80fd5b610a3b846109dd565b9250610a49602085016109dd565b9150604084013590509250925092565b5f60208284031215610a69575f80fd5b5035919050565b5f60208284031215610a80575f80fd5b610a89826109dd565b9392505050565b5f805f805f805f60e0888a031215610aa6575f80fd5b610aaf886109dd565b9650610abd602089016109dd565b95506040880135945060608801359350608088013560ff81168114610ae0575f80fd5b9699959850939692959460a0840135945060c09093013592915050565b5f8060408385031215610b0e575f80fd5b610b17836109dd565b9150610b25602084016109dd565b90509250929050565b600181811c90821680610b4257607f821691505b602082108103610b6057634e487b7160e01b5f52602260045260245ffd5b50919050565b634e487b7160e01b5f52601160045260245ffd5b8181038181111561046e5761046e610b66565b8082018082111561046e5761046e610b66565b5f8083545f60018260011c91506001831680610bbd57607f831692505b60208084108203610bdc57634e487b7160e01b5f52602260045260245ffd5b818015610bf05760018114610c0557610c30565b60ff1986168952841515850289019650610c30565b5f8a8152602090205f5b86811015610c285781548b820152908501908301610c0f565b505084890196505b50949897505050505050505056feddf252ad1be2c89b69c2b068fc378daa952ba7f163c4a11628f55a4df523b3efa2646970667358221220e6e39312b0dc2fb7f4e74e95f2530c7cd39c891ca70097e0500656f71bf69bad64736f6c63430008190033",
  "linkReferences": {},
  "deployedLinkReferences": {}
}