{"abi":[{"type":"constructor","inputs":[{"name":"asset_","type":"address","internalType":"contract ERC20"},{"name":"auditor_","type":"address","internalType":"contract Auditor"}],"stateMutability":"nonpayable"},{"type":"function","name":"DEFAULT_ADMIN_ROLE","inputs":[],"outputs":[{"name":"","type":"bytes32","internalType":"bytes32"}],"stateMutability":"view"},{"type":"function","name":"DOMAIN_SEPARATOR","inputs":[],"outputs":[{"name":"","type":"bytes32","internalType":"bytes32"}],"stateMutability":"view"},{"type":"function","name":"EMERGENCY_ADMIN_ROLE","inputs":[],"outputs":[{"name":"","type":"bytes32","internalType":"bytes32"}],"stateMutability":"view"},{"type":"function","name":"PAUSER_ROLE","inputs":[],"outputs":[{"name":"","type":"bytes32","internalType":"bytes32"}],"stateMutability":"view"},{"type":"function","name":"accountSnapshot","inputs":[{"name":"account","type":"address","internalType":"address"}],"outputs":[{"name":"","type":"uint256","internalType":"uint256"},{"name":"","type":"uint256","internalType":"uint256"}],"stateMutability":"view"},{"type":"function","name":"accounts","inputs":[{"name":"","type":"address","internalType":"address"}],"outputs":[{"name":"fixedDeposits","type":"uint256","internalType":"uint256"},{"name":"fixedBorrows","type":"uint256","internalType":"uint256"},{"name":"floatingBorrowShares","type":"uint256","internalType":"uint256"}],"stateMutability":"view"},{"type":"function","name":"allowance","inputs":[{"name":"","type":"address","internalType":"address"},{"name":"","type":"address","internalType":"address"}],"outputs":[{"name":"","type":"uint256","internalType":"uint256"}],"stateMutability":"view"},{"type":"function","name":"approve","inputs":[{"name":"spender","type":"address","internalType":"address"},{"name":"amount","type":"uint256","internalType":"uint256"}],"outputs":[{"name":"","type":"bool","internalType":"bool"}],"stateMutability":"nonpayable"},{"type":"function","name":"asset","inputs":[],"outputs":[{"name":"","type":"address","internalType":"contract ERC20"}],"stateMutability":"view"},{"type":"function","name":"auditor","inputs":[],"outputs":[{"name":"","type":"address","internalType":"contract Auditor"}],"stateMutability":"view"},{"type":"function","name":"backupFeeRate","inputs":[],"outputs":[{"name":"","type":"uint256","internalType":"uint256"}],"stateMutability":"view"},{"type":"function","name":"balanceOf","inputs":[{"name":"","type":"address","internalType":"address"}],"outputs":[{"name":"","type":"uint256","internalType":"uint256"}],"stateMutability":"view"},{"type":"function","name":"borrow","inputs":[{"name":"assets","type":"uint256","internalType":"uint256"},{"name":"receiver","type":"address","internalType":"address"},{"name":"borrower","type":"address","internalType":"address"}],"outputs":[{"name":"borrowShares","type":"uint256","internalType":"uint256"}],"stateMutability":"nonpayable"},{"type":"function","name":"borrowAtMaturity","inputs":[{"name":"maturity","type":"uint256","internalType":"uint256"},{"name":"assets","type":"uint256","internalType":"uint256"},{"name":"maxAssets","type":"uint256","internalType":"uint256"},{"name":"receiver","type":"address","internalType":"address"},{"name":"borrower","type":"address","internalType":"address"}],"outputs":[{"name":"assetsOwed","type":"uint256","internalType":"uint256"}],"stateMutability":"nonpayable"},{"type":"function","name":"clearBadDebt","inputs":[{"name":"borrower","type":"address","internalType":"address"}],"outputs":[],"stateMutability":"nonpayable"},{"type":"function","name":"convertToAssets","inputs":[{"name":"shares","type":"uint256","internalType":"uint256"}],"outputs":[{"name":"","type":"uint256","internalType":"uint256"}],"stateMutability":"view"},{"type":"function","name":"convertToShares","inputs":[{"name":"assets","type":"uint256","internalType":"uint256"}],"outputs":[{"name":"","type":"uint256","internalType":"uint256"}],"stateMutability":"view"},{"type":"function","name":"dampSpeedDown","inputs":[],"outputs":[{"name":"","type":"uint256","internalType":"uint256"}],"stateMutability":"view"},{"type":"function","name":"dampSpeedUp","inputs":[],"outputs":[{"name":"","type":"uint256","internalType":"uint256"}],"stateMutability":"view"},{"type":"function","name":"decimals","inputs":[],"outputs":[{"name":"","type":"uint8","internalType":"uint8"}],"stateMutability":"view"},{"type":"function","name":"deposit","inputs":[{"name":"assets","type":"uint256","internalType":"uint256"},{"name":"receiver","type":"address","internalType":"address"}],"outputs":[{"name":"shares","type":"uint256","internalType":"uint256"}],"stateMutability":"nonpayable"},{"type":"function","name":"depositAtMaturity","inputs":[{"name":"maturity","type":"uint256","internalType":"uint256"},{"name":"assets","type":"uint256","internalType":"uint256"},{"name":"minAssetsRequired","type":"uint256","internalType":"uint256"},{"name":"receiver","type":"address","internalType":"address"}],"outputs":[{"name":"positionAssets","type":"uint256","internalType":"uint256"}],"stateMutability":"nonpayable"},{"type":"function","name":"earningsAccumulator","inputs":[],"outputs":[{"name":"","type":"uint256","internalType":"uint256"}],"stateMutability":"view"},{"type":"function","name":"earningsAccumulatorSmoothFactor","inputs":[],"outputs":[{"name":"","type":"uint128","internalType":"uint128"}],"stateMutability":"view"},{"type":"function","name":"fixedBorrowPositions","inputs":[{"name":"","type":"uint256","internalType":"uint256"},{"name":"","type":"address","internalType":"address"}],"outputs":[{"name":"principal","type":"uint256","internalType":"uint256"},{"name":"fee","type":"uint256","internalType":"uint256"}],"stateMutability":"view"},{"type":"function","name":"fixedDepositPositions","inputs":[{"name":"","type":"uint256","internalType":"uint256"},{"name":"","type":"address","internalType":"address"}],"outputs":[{"name":"principal","type":"uint256","internalType":"uint256"},{"name":"fee","type":"uint256","internalType":"uint256"}],"stateMutability":"view"},{"type":"function","name":"fixedPoolBalance","inputs":[{"name":"maturity","type":"uint256","internalType":"uint256"}],"outputs":[{"name":"","type":"uint256","internalType":"uint256"},{"name":"","type":"uint256","internalType":"uint256"}],"stateMutability":"view"},{"type":"function","name":"fixedPoolBorrowed","inputs":[{"name":"maturity","type":"uint256","internalType":"uint256"}],"outputs":[{"name":"","type":"uint256","internalType":"uint256"}],"stateMutability":"view"},{"type":"function","name":"fixedPools","inputs":[{"name":"","type":"uint256","internalType":"uint256"}],"outputs":[{"name":"borrowed","type":"uint256","internalType":"uint256"},{"name":"supplied","type":"uint256","internalType":"uint256"},{"name":"unassignedEarnings","type":"uint256","internalType":"uint256"},{"name":"lastAccrual","type":"uint256","internalType":"uint256"}],"stateMutability":"view"},{"type":"function","name":"floatingAssets","inputs":[],"outputs":[{"name":"","type":"uint256","internalType":"uint256"}],"stateMutability":"view"},{"type":"function","name":"floatingAssetsAverage","inputs":[],"outputs":[{"name":"","type":"uint256","internalType":"uint256"}],"stateMutability":"view"},{"type":"function","name":"floatingBackupBorrowed","inputs":[],"outputs":[{"name":"","type":"uint256","internalType":"uint256"}],"stateMutability":"view"},{"type":"function","name":"floatingDebt","inputs":[],"outputs":[{"name":"","type":"uint256","internalType":"uint256"}],"stateMutability":"view"},{"type":"function","name":"getRoleAdmin","inputs":[{"name":"role","type":"bytes32","internalType":"bytes32"}],"outputs":[{"name":"","type":"bytes32","internalType":"bytes32"}],"stateMutability":"view"},{"type":"function","name":"grantRole","inputs":[{"name":"role","type":"bytes32","internalType":"bytes32"},{"name":"account","type":"address","internalType":"address"}],"outputs":[],"stateMutability":"nonpayable"},{"type":"function","name":"hasRole","inputs":[{"name":"role","type":"bytes32","internalType":"bytes32"},{"name":"account","type":"address","internalType":"address"}],"outputs":[{"name":"","type":"bool","internalType":"bool"}],"stateMutability":"view"},{"type":"function","name":"initialize","inputs":[{"name":"assetSymbol","type":"string","internalType":"string"},{"name":"maxFuturePools_","type":"uint8","internalType":"uint8"},{"name":"earningsAccumulatorSmoothFactor_","type":"uint128","internalType":"uint128"},{"name":"interestRateModel_","type":"address","internalType":"contract InterestRateModel"},{"name":"penaltyRate_","type":"uint256","internalType":"uint256"},{"name":"backupFeeRate_","type":"uint256","internalType":"uint256"},{"name":"reserveFactor_","type":"uint128","internalType":"uint128"},{"name":"dampSpeedUp_","type":"uint256","internalType":"uint256"},{"name":"dampSpeedDown_","type":"uint256","internalType":"uint256"}],"outputs":[],"stateMutability":"nonpayable"},{"type":"function","name":"interestRateModel","inputs":[],"outputs":[{"name":"","type":"address","internalType":"contract InterestRateModel"}],"stateMutability":"view"},{"type":"function","name":"isFrozen","inputs":[],"outputs":[{"name":"","type":"bool","internalType":"bool"}],"stateMutability":"view"},{"type":"function","name":"lastAccumulatorAccrual","inputs":[],"outputs":[{"name":"","type":"uint32","internalType":"uint32"}],"stateMutability":"view"},{"type":"function","name":"lastAverageUpdate","inputs":[],"outputs":[{"name":"","type":"uint32","internalType":"uint32"}],"stateMutability":"view"},{"type":"function","name":"lastFloatingDebtUpdate","inputs":[],"outputs":[{"name":"","type":"uint32","internalType":"uint32"}],"stateMutability":"view"},{"type":"function","name":"liquidate","inputs":[{"name":"borrower","type":"address","internalType":"address"},{"name":"maxAssets","type":"uint256","internalType":"uint256"},{"name":"seizeMarket","type":"address","internalType":"contract Market"}],"outputs":[{"name":"repaidAssets","type":"uint256","internalType":"uint256"}],"stateMutability":"nonpayable"},{"type":"function","name":"maxDeposit","inputs":[{"name":"","type":"address","internalType":"address"}],"outputs":[{"name":"","type":"uint256","internalType":"uint256"}],"stateMutability":"view"},{"type":"function","name":"maxFuturePools","inputs":[],"outputs":[{"name":"","type":"uint8","internalType":"uint8"}],"stateMutability":"view"},{"type":"function","name":"maxMint","inputs":[{"name":"","type":"address","internalType":"address"}],"outputs":[{"name":"","type":"uint256","internalType":"uint256"}],"stateMutability":"view"},{"type":"function","name":"maxRedeem","inputs":[{"name":"owner","type":"address","internalType":"address"}],"outputs":[{"name":"","type":"uint256","internalType":"uint256"}],"stateMutability":"view"},{"type":"function","name":"maxWithdraw","inputs":[{"name":"owner","type":"address","internalType":"address"}],"outputs":[{"name":"","type":"uint256","internalType":"uint256"}],"stateMutability":"view"},{"type":"function","name":"mint","inputs":[{"name":"shares","type":"uint256","internalType":"uint256"},{"name":"receiver","type":"address","internalType":"address"}],"outputs":[{"name":"assets","type":"uint256","internalType":"uint256"}],"stateMutability":"nonpayable"},{"type":"function","name":"name","inputs":[],"outputs":[{"name":"","type":"string","internalType":"string"}],"stateMutability":"view"},{"type":"function","name":"nonces","inputs":[{"name":"","type":"address","internalType":"address"}],"outputs":[{"name":"","type":"uint256","internalType":"uint256"}],"stateMutability":"view"},{"type":"function","name":"pause","inputs":[],"outputs":[],"stateMutability":"nonpayable"},{"type":"function","name":"paused","inputs":[],"outputs":[{"name":"","type":"bool","internalType":"bool"}],"stateMutability":"view"},{"type":"function","name":"penaltyRate","inputs":[],"outputs":[{"name":"","type":"uint256","internalType":"uint256"}],"stateMutability":"view"},{"type":"function","name":"permit","inputs":[{"name":"owner","type":"address","internalType":"address"},{"name":"spender","type":"address","internalType":"address"},{"name":"value","type":"uint256","internalType":"uint256"},{"name":"deadline","type":"uint256","internalType":"uint256"},{"name":"v","type":"uint8","internalType":"uint8"},{"name":"r","type":"bytes32","internalType":"bytes32"},{"name":"s","type":"bytes32","internalType":"bytes32"}],"outputs":[],"stateMutability":"nonpayable"},{"type":"function","name":"previewBorrow","inputs":[{"name":"assets","type":"uint256","internalType":"uint256"}],"outputs":[{"name":"","type":"uint256","internalType":"uint256"}],"stateMutability":"view"},{"type":"function","name":"previewDebt","inputs":[{"name":"borrower","type":"address","internalType":"address"}],"outputs":[{"name":"debt","type":"uint256","internalType":"uint256"}],"stateMutability":"view"},{"type":"function","name":"previewDeposit","inputs":[{"name":"assets","type":"uint256","internalType":"uint256"}],"outputs":[{"name":"","type":"uint256","internalType":"uint256"}],"stateMutability":"view"},{"type":"function","name":"previewFloatingAssetsAverage","inputs":[],"outputs":[{"name":"","type":"uint256","internalType":"uint256"}],"stateMutability":"view"},{"type":"function","name":"previewMint","inputs":[{"name":"shares","type":"uint256","internalType":"uint256"}],"outputs":[{"name":"","type":"uint256","internalType":"uint256"}],"stateMutability":"view"},{"type":"function","name":"previewRedeem","inputs":[{"name":"shares","type":"uint256","internalType":"uint256"}],"outputs":[{"name":"","type":"uint256","internalType":"uint256"}],"stateMutability":"view"},{"type":"function","name":"previewRefund","inputs":[{"name":"shares","type":"uint256","internalType":"uint256"}],"outputs":[{"name":"","type":"uint256","internalType":"uint256"}],"stateMutability":"view"},{"type":"function","name":"previewRepay","inputs":[{"name":"assets","type":"uint256","internalType":"uint256"}],"outputs":[{"name":"","type":"uint256","internalType":"uint256"}],"stateMutability":"view"},{"type":"function","name":"previewWithdraw","inputs":[{"name":"assets","type":"uint256","internalType":"uint256"}],"outputs":[{"name":"","type":"uint256","internalType":"uint256"}],"stateMutability":"view"},{"type":"function","name":"redeem","inputs":[{"name":"shares","type":"uint256","internalType":"uint256"},{"name":"receiver","type":"address","internalType":"address"},{"name":"owner","type":"address","internalType":"address"}],"outputs":[{"name":"assets","type":"uint256","internalType":"uint256"}],"stateMutability":"nonpayable"},{"type":"function","name":"refund","inputs":[{"name":"borrowShares","type":"uint256","internalType":"uint256"},{"name":"borrower","type":"address","internalType":"address"}],"outputs":[{"name":"assets","type":"uint256","internalType":"uint256"},{"name":"actualShares","type":"uint256","internalType":"uint256"}],"stateMutability":"nonpayable"},{"type":"function","name":"renounceRole","inputs":[{"name":"role","type":"bytes32","internalType":"bytes32"},{"name":"account","type":"address","internalType":"address"}],"outputs":[],"stateMutability":"nonpayable"},{"type":"function","name":"repay","inputs":[{"name":"assets","type":"uint256","internalType":"uint256"},{"name":"borrower","type":"address","internalType":"address"}],"outputs":[{"name":"actualRepay","type":"uint256","internalType":"uint256"},{"name":"borrowShares","type":"uint256","internalType":"uint256"}],"stateMutability":"nonpayable"},{"type":"function","name":"repayAtMaturity","inputs":[{"name":"maturity","type":"uint256","internalType":"uint256"},{"name":"positionAssets","type":"uint256","internalType":"uint256"},{"name":"maxAssets","type":"uint256","internalType":"uint256"},{"name":"borrower","type":"address","internalType":"address"}],"outputs":[{"name":"actualRepayAssets","type":"uint256","internalType":"uint256"}],"stateMutability":"nonpayable"},{"type":"function","name":"reserveFactor","inputs":[],"outputs":[{"name":"","type":"uint128","internalType":"uint128"}],"stateMutability":"view"},{"type":"function","name":"revokeRole","inputs":[{"name":"role","type":"bytes32","internalType":"bytes32"},{"name":"account","type":"address","internalType":"address"}],"outputs":[],"stateMutability":"nonpayable"},{"type":"function","name":"rewardsController","inputs":[],"outputs":[{"name":"","type":"address","internalType":"contract RewardsController"}],"stateMutability":"view"},{"type":"function","name":"seize","inputs":[{"name":"liquidator","type":"address","internalType":"address"},{"name":"borrower","type":"address","internalType":"address"},{"name":"assets","type":"uint256","internalType":"uint256"}],"outputs":[],"stateMutability":"nonpayable"},{"type":"function","name":"setAssetSymbol","inputs":[{"name":"assetSymbol","type":"string","internalType":"string"}],"outputs":[],"stateMutability":"nonpayable"},{"type":"function","name":"setBackupFeeRate","inputs":[{"name":"backupFeeRate_","type":"uint256","internalType":"uint256"}],"outputs":[],"stateMutability":"nonpayable"},{"type":"function","name":"setDampSpeed","inputs":[{"name":"up","type":"uint256","internalType":"uint256"},{"name":"down","type":"uint256","internalType":"uint256"}],"outputs":[],"stateMutability":"nonpayable"},{"type":"function","name":"setEarningsAccumulatorSmoothFactor","inputs":[{"name":"earningsAccumulatorSmoothFactor_","type":"uint128","internalType":"uint128"}],"outputs":[],"stateMutability":"nonpayable"},{"type":"function","name":"setFrozen","inputs":[{"name":"isFrozen_","type":"bool","internalType":"bool"}],"outputs":[],"stateMutability":"nonpayable"},{"type":"function","name":"setInterestRateModel","inputs":[{"name":"interestRateModel_","type":"address","internalType":"contract InterestRateModel"}],"outputs":[],"stateMutability":"nonpayable"},{"type":"function","name":"setMaxFuturePools","inputs":[{"name":"futurePools","type":"uint8","internalType":"uint8"}],"outputs":[],"stateMutability":"nonpayable"},{"type":"function","name":"setPenaltyRate","inputs":[{"name":"penaltyRate_","type":"uint256","internalType":"uint256"}],"outputs":[],"stateMutability":"nonpayable"},{"type":"function","name":"setReserveFactor","inputs":[{"name":"reserveFactor_","type":"uint128","internalType":"uint128"}],"outputs":[],"stateMutability":"nonpayable"},{"type":"function","name":"setRewardsController","inputs":[{"name":"rewardsController_","type":"address","internalType":"contract RewardsController"}],"outputs":[],"stateMutability":"nonpayable"},{"type":"function","name":"setTreasury","inputs":[{"name":"treasury_","type":"address","internalType":"address"},{"name":"treasuryFeeRate_","type":"uint256","internalType":"uint256"}],"outputs":[],"stateMutability":"nonpayable"},{"type":"function","name":"supportsInterface","inputs":[{"name":"interfaceId","type":"bytes4","internalType":"bytes4"}],"outputs":[{"name":"","type":"bool","internalType":"bool"}],"stateMutability":"view"},{"type":"function","name":"symbol","inputs":[],"outputs":[{"name":"","type":"string","internalType":"string"}],"stateMutability":"view"},{"type":"function","name":"totalAssets","inputs":[],"outputs":[{"name":"","type":"uint256","internalType":"uint256"}],"stateMutability":"view"},{"type":"function","name":"totalFloatingBorrowAssets","inputs":[],"outputs":[{"name":"","type":"uint256","internalType":"uint256"}],"stateMutability":"view"},{"type":"function","name":"totalFloatingBorrowShares","inputs":[],"outputs":[{"name":"","type":"uint256","internalType":"uint256"}],"stateMutability":"view"},{"type":"function","name":"totalSupply","inputs":[],"outputs":[{"name":"","type":"uint256","internalType":"uint256"}],"stateMutability":"view"},{"type":"function","name":"transfer","inputs":[{"name":"to","type":"address","internalType":"address"},{"name":"shares","type":"uint256","internalType":"uint256"}],"outputs":[{"name":"","type":"bool","internalType":"bool"}],"stateMutability":"nonpayable"},{"type":"function","name":"transferFrom","inputs":[{"name":"from","type":"address","internalType":"address"},{"name":"to","type":"address","internalType":"address"},{"name":"shares","type":"uint256","internalType":"uint256"}],"outputs":[{"name":"","type":"bool","internalType":"bool"}],"stateMutability":"nonpayable"},{"type":"function","name":"treasury","inputs":[],"outputs":[{"name":"","type":"address","internalType":"address"}],"stateMutability":"view"},{"type":"function","name":"treasuryFeeRate","inputs":[],"outputs":[{"name":"","type":"uint256","internalType":"uint256"}],"stateMutability":"view"},{"type":"function","name":"unpause","inputs":[],"outputs":[],"stateMutability":"nonpayable"},{"type":"function","name":"withdraw","inputs":[{"name":"assets","type":"uint256","internalType":"uint256"},{"name":"receiver","type":"address","internalType":"address"},{"name":"owner","type":"address","internalType":"address"}],"outputs":[{"name":"shares","type":"uint256","internalType":"uint256"}],"stateMutability":"nonpayable"},{"type":"function","name":"withdrawAtMaturity","inputs":[{"name":"maturity","type":"uint256","internalType":"uint256"},{"name":"positionAssets","type":"uint256","internalType":"uint256"},{"name":"minAssetsRequired","type":"uint256","internalType":"uint256"},{"name":"receiver","type":"address","internalType":"address"},{"name":"owner","type":"address","internalType":"address"}],"outputs":[{"name":"assetsDiscounted","type":"uint256","internalType":"uint256"}],"stateMutability":"nonpayable"},{"type":"event","name":"AccumulatorAccrual","inputs":[{"name":"timestamp","type":"uint256","indexed":false,"internalType":"uint256"}],"anonymous":false},{"type":"event","name":"Approval","inputs":[{"name":"owner","type":"address","indexed":true,"internalType":"address"},{"name":"spender","type":"address","indexed":true,"internalType":"address"},{"name":"amount","type":"uint256","indexed":false,"internalType":"uint256"}],"anonymous":false},{"type":"event","name":"BackupFeeRateSet","inputs":[{"name":"backupFeeRate","type":"uint256","indexed":false,"internalType":"uint256"}],"anonymous":false},{"type":"event","name":"Borrow","inputs":[{"name":"caller","type":"address","indexed":true,"internalType":"address"},{"name":"receiver","type":"address","indexed":true,"internalType":"address"},{"name":"borrower","type":"address","indexed":true,"internalType":"address"},{"name":"assets","type":"uint256","indexed":false,"internalType":"uint256"},{"name":"shares","type":"uint256","indexed":false,"internalType":"uint256"}],"anonymous":false},{"type":"event","name":"BorrowAtMaturity","inputs":[{"name":"maturity","type":"uint256","indexed":true,"internalType":"uint256"},{"name":"caller","type":"address","indexed":false,"internalType":"address"},{"name":"receiver","type":"address","indexed":true,"internalType":"address"},{"name":"borrower","type":"address","indexed":true,"internalType":"address"},{"name":"assets","type":"uint256","indexed":false,"internalType":"uint256"},{"name":"fee","type":"uint256","indexed":false,"internalType":"uint256"}],"anonymous":false},{"type":"event","name":"DampSpeedSet","inputs":[{"name":"dampSpeedUp","type":"uint256","indexed":false,"internalType":"uint256"},{"name":"dampSpeedDown","type":"uint256","indexed":false,"internalType":"uint256"}],"anonymous":false},{"type":"event","name":"Deposit","inputs":[{"name":"caller","type":"address","indexed":true,"internalType":"address"},{"name":"owner","type":"address","indexed":true,"internalType":"address"},{"name":"assets","type":"uint256","indexed":false,"internalType":"uint256"},{"name":"shares","type":"uint256","indexed":false,"internalType":"uint256"}],"anonymous":false},{"type":"event","name":"DepositAtMaturity","inputs":[{"name":"maturity","type":"uint256","indexed":true,"internalType":"uint256"},{"name":"caller","type":"address","indexed":true,"internalType":"address"},{"name":"owner","type":"address","indexed":true,"internalType":"address"},{"name":"assets","type":"uint256","indexed":false,"internalType":"uint256"},{"name":"fee","type":"uint256","indexed":false,"internalType":"uint256"}],"anonymous":false},{"type":"event","name":"EarningsAccumulatorSmoothFactorSet","inputs":[{"name":"earningsAccumulatorSmoothFactor","type":"uint256","indexed":false,"internalType":"uint256"}],"anonymous":false},{"type":"event","name":"FixedEarningsUpdate","inputs":[{"name":"timestamp","type":"uint256","indexed":false,"internalType":"uint256"},{"name":"maturity","type":"uint256","indexed":true,"internalType":"uint256"},{"name":"unassignedEarnings","type":"uint256","indexed":false,"internalType":"uint256"}],"anonymous":false},{"type":"event","name":"FloatingDebtUpdate","inputs":[{"name":"timestamp","type":"uint256","indexed":false,"internalType":"uint256"},{"name":"utilization","type":"uint256","indexed":false,"internalType":"uint256"}],"anonymous":false},{"type":"event","name":"Frozen","inputs":[{"name":"account","type":"address","indexed":true,"internalType":"address"},{"name":"isFrozen","type":"bool","indexed":false,"internalType":"bool"}],"anonymous":false},{"type":"event","name":"Initialized","inputs":[{"name":"version","type":"uint8","indexed":false,"internalType":"uint8"}],"anonymous":false},{"type":"event","name":"InterestRateModelSet","inputs":[{"name":"interestRateModel","type":"address","indexed":true,"internalType":"contract InterestRateModel"}],"anonymous":false},{"type":"event","name":"Liquidate","inputs":[{"name":"receiver","type":"address","indexed":true,"internalType":"address"},{"name":"borrower","type":"address","indexed":true,"internalType":"address"},{"name":"assets","type":"uint256","indexed":false,"internalType":"uint256"},{"name":"lendersAssets","type":"uint256","indexed":false,"internalType":"uint256"},{"name":"seizeMarket","type":"address","indexed":true,"internalType":"contract Market"},{"name":"seizedAssets","type":"uint256","indexed":false,"internalType":"uint256"}],"anonymous":false},{"type":"event","name":"MarketUpdate","inputs":[{"name":"timestamp","type":"uint256","indexed":false,"internalType":"uint256"},{"name":"floatingDepositShares","type":"uint256","indexed":false,"internalType":"uint256"},{"name":"floatingAssets","type":"uint256","indexed":false,"internalType":"uint256"},{"name":"floatingBorrowShares","type":"uint256","indexed":false,"internalType":"uint256"},{"name":"floatingDebt","type":"uint256","indexed":false,"internalType":"uint256"},{"name":"earningsAccumulator","type":"uint256","indexed":false,"internalType":"uint256"}],"anonymous":false},{"type":"event","name":"MaxFuturePoolsSet","inputs":[{"name":"maxFuturePools","type":"uint256","indexed":false,"internalType":"uint256"}],"anonymous":false},{"type":"event","name":"Paused","inputs":[{"name":"account","type":"address","indexed":false,"internalType":"address"}],"anonymous":false},{"type":"event","name":"PenaltyRateSet","inputs":[{"name":"penaltyRate","type":"uint256","indexed":false,"internalType":"uint256"}],"anonymous":false},{"type":"event","name":"Repay","inputs":[{"name":"caller","type":"address","indexed":true,"internalType":"address"},{"name":"borrower","type":"address","indexed":true,"internalType":"address"},{"name":"assets","type":"uint256","indexed":false,"internalType":"uint256"},{"name":"shares","type":"uint256","indexed":false,"internalType":"uint256"}],"anonymous":false},{"type":"event","name":"RepayAtMaturity","inputs":[{"name":"maturity","type":"uint256","indexed":true,"internalType":"uint256"},{"name":"caller","type":"address","indexed":true,"internalType":"address"},{"name":"borrower","type":"address","indexed":true,"internalType":"address"},{"name":"assets","type":"uint256","indexed":false,"internalType":"uint256"},{"name":"positionAssets","type":"uint256","indexed":false,"internalType":"uint256"}],"anonymous":false},{"type":"event","name":"ReserveFactorSet","inputs":[{"name":"reserveFactor","type":"uint256","indexed":false,"internalType":"uint256"}],"anonymous":false},{"type":"event","name":"RewardsControllerSet","inputs":[{"name":"rewardsController","type":"address","indexed":true,"internalType":"contract RewardsController"}],"anonymous":false},{"type":"event","name":"RoleAdminChanged","inputs":[{"name":"role","type":"bytes32","indexed":true,"internalType":"bytes32"},{"name":"previousAdminRole","type":"bytes32","indexed":true,"internalType":"bytes32"},{"name":"newAdminRole","type":"bytes32","indexed":true,"internalType":"bytes32"}],"anonymous":false},{"type":"event","name":"RoleGranted","inputs":[{"name":"role","type":"bytes32","indexed":true,"internalType":"bytes32"},{"name":"account","type":"address","indexed":true,"internalType":"address"},{"name":"sender","type":"address","indexed":true,"internalType":"address"}],"anonymous":false},{"type":"event","name":"RoleRevoked","inputs":[{"name":"role","type":"bytes32","indexed":true,"internalType":"bytes32"},{"name":"account","type":"address","indexed":true,"internalType":"address"},{"name":"sender","type":"address","indexed":true,"internalType":"address"}],"anonymous":false},{"type":"event","name":"Seize","inputs":[{"name":"liquidator","type":"address","indexed":true,"internalType":"address"},{"name":"borrower","type":"address","indexed":true,"internalType":"address"},{"name":"assets","type":"uint256","indexed":false,"internalType":"uint256"}],"anonymous":false},{"type":"event","name":"SpreadBadDebt","inputs":[{"name":"borrower","type":"address","indexed":true,"internalType":"address"},{"name":"assets","type":"uint256","indexed":false,"internalType":"uint256"}],"anonymous":false},{"type":"event","name":"Transfer","inputs":[{"name":"from","type":"address","indexed":true,"internalType":"address"},{"name":"to","type":"address","indexed":true,"internalType":"address"},{"name":"amount","type":"uint256","indexed":false,"internalType":"uint256"}],"anonymous":false},{"type":"event","name":"TreasurySet","inputs":[{"name":"treasury","type":"address","indexed":true,"internalType":"address"},{"name":"treasuryFeeRate","type":"uint256","indexed":false,"internalType":"uint256"}],"anonymous":false},{"type":"event","name":"Unpaused","inputs":[{"name":"account","type":"address","indexed":false,"internalType":"address"}],"anonymous":false},{"type":"event","name":"Withdraw","inputs":[{"name":"caller","type":"address","indexed":true,"internalType":"address"},{"name":"receiver","type":"address","indexed":true,"internalType":"address"},{"name":"owner","type":"address","indexed":true,"internalType":"address"},{"name":"assets","type":"uint256","indexed":false,"internalType":"uint256"},{"name":"shares","type":"uint256","indexed":false,"internalType":"uint256"}],"anonymous":false},{"type":"event","name":"WithdrawAtMaturity","inputs":[{"name":"maturity","type":"uint256","indexed":true,"internalType":"uint256"},{"name":"caller","type":"address","indexed":false,"internalType":"address"},{"name":"receiver","type":"address","indexed":true,"internalType":"address"},{"name":"owner","type":"address","indexed":true,"internalType":"address"},{"name":"positionAssets","type":"uint256","indexed":false,"internalType":"uint256"},{"name":"assets","type":"uint256","indexed":false,"internalType":"uint256"}],"anonymous":false},{"type":"error","name":"Disagreement","inputs":[]},{"type":"error","name":"InsufficientProtocolLiquidity","inputs":[]},{"type":"error","name":"MarketFrozen","inputs":[]},{"type":"error","name":"MaturityOverflow","inputs":[]},{"type":"error","name":"NotAuditor","inputs":[]},{"type":"error","name":"NotPausingRole","inputs":[]},{"type":"error","name":"SelfLiquidation","inputs":[]},{"type":"error","name":"UnmatchedPoolState","inputs":[{"name":"state","type":"uint8","internalType":"uint8"},{"name":"requiredState","type":"uint8","internalType":"uint8"}]},{"type":"error","name":"UnmatchedPoolStates","inputs":[{"name":"state","type":"uint8","internalType":"uint8"},{"name":"requiredState","type":"uint8","internalType":"uint8"},{"name":"alternativeState","type":"uint8","internalType":"uint8"}]},{"type":"error","name":"ZeroBorrow","inputs":[]},{"type":"error","name":"ZeroDeposit","inputs":[]},{"type":"error","name":"ZeroRepay","inputs":[]},{"type":"error","name":"ZeroWithdraw","inputs":[]}],"bytecode":{"object":"0x610120604052348015610010575f80fd5b5060405161644938038061644983398101604081905261002f9161021c565b8160405180602001604052805f81525060405180602001604052805f8152508181846001600160a01b031663313ce5676040518163ffffffff1660e01b8152600401602060405180830381865afa15801561008c573d5f803e3d5ffd5b505050506040513d601f19601f820116820180604052508101906100b09190610254565b60c96100bc8482610313565b5060ca6100c98382610313565b5060ff81166080524660a0526100dd610108565b60c0525050506001600160a01b0392831660e05250508116610100526101016101a1565b5050610444565b5f7f8b73c3c69bb8fe3d512ecc4cf759cc79239f7b179b0ffacaa9a75d522b39400f60c960405161013991906103d2565b6040805191829003822060208301939093528101919091527fc89efdaa54c0f20c7adf612882df0950f5a951637e0307cdcb4c672f298b8bc660608201524660808201523060a082015260c00160405160208183030381529060405280519060200120905090565b5f54610100900460ff16156101b4575f80fd5b5f5460ff90811614610203575f805460ff191660ff9081179091556040519081527f7f26b83ff96e1f2b6a682f133852f6798a09c465da95921460cefb38474024989060200160405180910390a15b565b6001600160a01b0381168114610219575f80fd5b50565b5f806040838503121561022d575f80fd5b825161023881610205565b602084015190925061024981610205565b809150509250929050565b5f60208284031215610264575f80fd5b815160ff81168114610274575f80fd5b9392505050565b634e487b7160e01b5f52604160045260245ffd5b600181811c908216806102a357607f821691505b6020821081036102c157634e487b7160e01b5f52602260045260245ffd5b50919050565b601f82111561030e57805f5260205f20601f840160051c810160208510156102ec5750805b601f840160051c820191505b8181101561030b575f81556001016102f8565b50505b505050565b81516001600160401b0381111561032c5761032c61027b565b6103408161033a845461028f565b846102c7565b602080601f831160018114610373575f841561035c5750858301515b5f19600386901b1c1916600185901b1785556103ca565b5f85815260208120601f198616915b828110156103a157888601518255948401946001909101908401610382565b50858210156103be57878501515f19600388901b60f8161c191681555b505060018460011b0185555b505050505050565b5f8083546103df8161028f565b600182811680156103f7576001811461040c57610438565b60ff1984168752821515830287019450610438565b875f526020805f205f5b8581101561042f5781548a820152908401908201610416565b50505082870194505b50929695505050505050565b60805160a05160c05160e05161010051615f276105225f395f81816108070152818161161c015281816117c001528181611e3e015281816120910152818161220b0152818161257101528181612ed7015281816130800152818161316f015281816136990152614b0501525f81816107ac0152818161168001528181611c2201528181611d160152818161227d01528181612337015281816123fe0152818161286501528181612e59015281816136fd01528181614c92015281816151c001526152d501525f611c8f01525f611c5a01525f6107430152615f275ff3fe608060405234801561000f575f80fd5b5060043610610539575f3560e01c80636e76fc8f116102bf578063b2a02ff111610186578063d5164184116100ef578063e63ab1e9116100a9578063ef8b30f711610084578063ef8b30f714610d5e578063f3fdb15a14610d71578063fb0fc4c314610d84578063fea45d9414610d9b575f80fd5b8063e63ab1e914610d26578063e94b3c2114610d4d578063eee8c9e014610d56575f80fd5b8063d516418414610c92578063d547741f14610ca5578063d6b7494f14610cb8578063d905777e14610cc1578063dd62ed3e14610ce9578063e00b262514610d13575f80fd5b8063c63d75b611610140578063c63d75b614610831578063c6e6f59214610bf7578063ccfd8b1114610c0a578063ce96cb7714610c3b578063d2681a0b14610c4e578063d505accf14610c7f575f80fd5b8063b2a02ff114610b85578063b3d7f6b914610b98578063b460af9414610bab578063ba08765214610bbe578063bee36bb314610bd1578063bf722ca214610be4575f80fd5b806391d1485411610228578063a16a8850116101e2578063a16a885014610b27578063a1bab44714610b3c578063a1e8f02b14610b4f578063a217fddf14610b58578063a9059cbb14610b5f578063acb7081514610b72575f80fd5b806391d1485414610ac0578063926bb63314610ad357806394bf804d14610ae657806395d89b4114610af957806397bce8d014610b01578063a05a091a14610b14575f80fd5b80637ecebe00116102795780637ecebe0014610a6b5780638456cb5914610a8a5780638a1baa4614610a925780638bcd401614610a9b5780638c3cba5a14610aae5780638d0e5f0214610ab7575f80fd5b80636e76fc8f146109c05780636eb9ffeb146109e757806370a0823114610a1357806378007e2314610a325780637ad226dc14610a455780637e932d3214610a58575f80fd5b8063313ce567116104035780634322b7141161036c5780635cc2ef83116103265780635cc2ef83146109225780635e5c06e21461093557806361d027b31461097e57806366601032146109915780636bb65f531461099a5780636e553f65146109ad575f80fd5b80634322b7141461085857806347dffde01461088a5780634914c0081461089d5780634cdad506146108b05780634e7c5059146108c35780635c975abb14610917575f80fd5b80633aa18d6f116103bd5780633aa18d6f146107e65780633c6f317f146107ef5780633ec045a6146108025780633f4ba83a14610829578063402d267d1461083157806342da42bf14610845575f80fd5b8063313ce5671461073e57806333eeb1471461076557806334f7d1f2146107795780633644e5151461078c57806336568abe1461079457806338d52e0f146107a7575f80fd5b806313700101116104a5578063248a9ca31161045f578063248a9ca3146106bb57806325fc07a9146106dd57806328acf2cf146106fc5780632c5dcc771461070f5780632e0af008146107225780632f2ff15d1461072b575f80fd5b8063137001011461065d57806318160ddd146106705780631a5b9e62146106795780631a90f1861461068c5780631d43b30b1461069557806323b872dd146106a8575f80fd5b806307a2d13a116104f657806307a2d13a146105d6578063095ea7b3146105e95780630a28a477146105fc5780630ab69be81461060f5780630e52dbec146106365780630f2b75aa14610655575f80fd5b8063014a296f1461053d57806301e1d1141461056a57806301ffc9a714610580578063022d8af5146105a35780630539fa8c146105b857806306fdde03146105c1575b5f80fd5b61055061054b36600461566a565b610dae565b604080519283526020830191909152015b60405180910390f35b610572610de3565b604051908152602001610561565b61059361058e366004615685565b610e8f565b6040519015158152602001610561565b6105b66105b13660046156c7565b610ec5565b005b61057260d85481565b6105c9610f54565b60405161056191906156e0565b6105726105e4366004615715565b610fe0565b6105936105f736600461572c565b61100c565b61057261060a366004615715565b611077565b61055061061d366004615715565b5f90815260d16020526040902080546001909101549091565b60da546106439060ff1681565b60405160ff9091168152602001610561565b610572611096565b6105b661066b366004615794565b61113b565b61057260cb5481565b6105726106873660046157d3565b6111ac565b61057260d45481565b6105726106a336600461566a565b6116b5565b6105936106b6366004615825565b6117b5565b6105726106c9366004615715565b5f9081526065602052604090206001015490565b6105726106eb366004615715565b5f90815260d1602052604090205490565b6105b661070a366004615873565b611916565b6105b661071d36600461572c565b611962565b61057260dd5481565b6105b661073936600461588c565b6119d2565b6106437f000000000000000000000000000000000000000000000000000000000000000081565b60e35461059390600160a01b900460ff1681565b6105726107873660046158ba565b6119fb565b610572611c57565b6105b66107a236600461588c565b611cb1565b6107ce7f000000000000000000000000000000000000000000000000000000000000000081565b6040516001600160a01b039091168152602001610561565b61057260d95481565b6105726107fd3660046158ba565b611cd3565b6107ce7f000000000000000000000000000000000000000000000000000000000000000081565b6105b6611d46565b61057261083f36600461566a565b505f1990565b6105b6610853366004615715565b611d7b565b60dc5461087290600160801b90046001600160801b031681565b6040516001600160801b039091168152602001610561565b610572610898366004615715565b611dba565b6105726108ab3660046158f8565b611dd8565b6105726108be366004615715565b6122af565b6108f76108d1366004615715565b60d16020525f908152604090208054600182015460028301546003909301549192909184565b604080519485526020850193909352918301526060820152608001610561565b60975460ff16610593565b6105b6610930366004615937565b6122b9565b61096361094336600461566a565b60d26020525f908152604090208054600182015460029092015490919083565b60408051938452602084019290925290820152606001610561565b60e1546107ce906001600160a01b031681565b61057260e25481565b60e3546107ce906001600160a01b031681565b6105726109bb36600461588c565b612313565b6105727f5358bcfd81d1ef3da152b1755e1c3c6739686fa7e83dbcad0071568cc4b73a6381565b60da546109fe90600160281b900463ffffffff1681565b60405163ffffffff9091168152602001610561565b610572610a2136600461566a565b60cc6020525f908152604090205481565b610572610a40366004615715565b6123b9565b610550610a5336600461588c565b6123d0565b6105b6610a66366004615957565b61242d565b610572610a7936600461566a565b60ce6020525f908152604090205481565b6105b66124aa565b61057260d55481565b6105b6610aa936600461566a565b6124bc565b61057260d35481565b61057260df5481565b610593610ace36600461588c565b61253c565b6105b6610ae136600461566a565b612566565b610572610af436600461588c565b61284c565b6105c96128e7565b6105b6610b0f366004615976565b6128f4565b610572610b223660046157d3565b612a55565b60da546109fe90610100900463ffffffff1681565b6105b6610b4a366004615715565b612e8d565b61057260d75481565b6105725f81565b610593610b6d36600461572c565b612ecc565b610550610b8036600461588c565b613021565b6105b6610b93366004615825565b61303d565b610572610ba6366004615715565b613051565b610572610bb9366004615a1f565b613067565b610572610bcc366004615a1f565b61316c565b6105b6610bdf36600461566a565b613266565b610572610bf2366004615715565b6132ba565b610572610c05366004615715565b6132d9565b610550610c1836600461588c565b60cf60209081525f92835260408084209091529082529020805460019091015482565b610572610c4936600461566a565b6132f0565b610550610c5c36600461588c565b60d060209081525f92835260408084209091529082529020805460019091015482565b6105b6610c8d366004615a53565b613311565b610572610ca0366004615a1f565b6134d6565b6105b6610cb336600461588c565b61372f565b61057260d65481565b610572610ccf36600461566a565b6001600160a01b03165f90815260cc602052604090205490565b610572610cf7366004615abc565b60cd60209081525f928352604080842090915290825290205481565b6105b6610d213660046156c7565b613753565b6105727f65d7a28e3265b37a6474929f336521b332c1681b933f6cb9f3376673440d862a81565b61057260de5481565b6105726137ab565b610572610d6c366004615715565b61388c565b60db546107ce906001600160a01b031681565b60da546109fe90600160481b900463ffffffff1681565b60dc54610872906001600160801b031681565b6001600160a01b0381165f90815260cc60205260408120548190610dd190610fe0565b610dda846116b5565b91509150915091565b60da545f9081906224ea004281810690039160ff16028101815b818111610e55575f81815260d160205260409020600381015480831115610e4957824210610e2f578160020154610e44565b6002820154610e449042839003838603613896565b860195505b50506224ea0001610dfd565b50610e7860e254670de0b6b3a76400000360d454610e716137ab565b03906138b4565b610e806138c8565b8460dd54010101935050505090565b5f6001600160e01b03198216637965db0b60e01b1480610ebf57506301ffc9a760e01b6001600160e01b03198316145b92915050565b5f610ecf8161393e565b610ed7613948565b60dd5f828254610ee79190615b10565b90915550610ef590506139c1565b60dc80546fffffffffffffffffffffffffffffffff19166001600160801b0384169081179091556040519081527f5499a947330efc8c6d458d51fd04d56d7e44dc1469558b2300e359963cef317e906020015b60405180910390a15050565b60c98054610f6190615b23565b80601f0160208091040260200160405190810160405280929190818152602001828054610f8d90615b23565b8015610fd85780601f10610faf57610100808354040283529160200191610fd8565b820191905f5260205f20905b815481529060010190602001808311610fbb57829003601f168201915b505050505081565b60cb545f90801561100357610ffe610ff6610de3565b849083613896565b611005565b825b9392505050565b335f81815260cd602090815260408083206001600160a01b038716808552925280832085905551919290917f8c5be1e5ebec7d5bd14f71427d1e84f3dd0314c0f7b2291e5b200ac8c7c3b925906110669086815260200190565b60405180910390a350600192915050565b60cb545f90801561100357610ffe8161108e610de3565b859190613a27565b60dd5460de545f9190828183106110af5760d8546110b3565b60d9545b60da549091505f906110ee906110d690600160481b900463ffffffff1642615b5b565b6110e09084615b6e565b6110e990615b85565b613a54565b61110090670de0b6b3a7640000615b9f565b905061110c81856138b4565b61112861112183670de0b6b3a7640000615b5b565b85906138b4565b6111329190615b10565b94505050505090565b5f6111458161393e565b8282604051602001611158929190615bbe565b60405160208183030381529060405260c990816111759190615c39565b508282604051602001611189929190615cf5565b60405160208183030381529060405260ca90816111a69190615c39565b50505050565b5f6111b5613bc7565b6111bd613bd6565b845f036111dd5760405163774257f760e01b815260040160405180910390fd5b60da546111f190879060ff1660035f613c01565b5f86815260d1602052604090206112088188613d9b565b60dd5f8282546112189190615b10565b909155505060e3546001600160a01b0316801561128657604051636c912dad60e01b81526001600160a01b038581166004830152821690636c912dad906024015f604051808303815f87803b15801561126f575f80fd5b505af1158015611281573d5f803e3d5ffd5b505050505b5f6112918389613e19565b90508015611324575f8160d3546112a89190615b10565b90506112ba6112b5613e55565b613f65565b60dc546112f5906112e390600160801b90046001600160801b0316670de0b6b3a7640000615d13565b60dd54906001600160801b03166138b4565b60d4546113029083615b10565b111561132057604051622d41ad60e31b815260040160405180910390fd5b60d3555b505f8061132f611096565b90505f60d45490505f60db5f9054906101000a90046001600160a01b03166001600160a01b031663d9d9048d8d60da5f9054906101000a900460ff1661137d8a600101548b5f015489613fa2565b6113878888613fcf565b611394898960d354613fe7565b6040516001600160e01b031960e088901b168152600481019590955260ff909316602485015260448401919091526064830152608482015260a401602060405180830381865afa1580156113ea573d5f803e3d5ffd5b505050506040513d601f19601f8201168201806040525081019061140e9190615d33565b905061143361142c611420428f615b5b565b83906301e13380613896565b8c906138b4565b935050505080886114449190615b10565b93508684111561146757604051632c1b6b4160e21b815260040160405180910390fd5b6114718585614003565b5f89815260d0602090815260408083206001600160a01b0389168452909152812080549091036114c8576001600160a01b0386165f90815260d26020526040902060018101546114c1908c614079565b6001909101555b5f8061150b6114d685614164565b604080516080810182528954815260018a0154602082015260028a01549181019190915260038901546060820152908d614190565b91509150815f1461152f5781866002015f8282546115299190615b10565b90915550505b611538816141dc565b60405180604001604052808c855f01546115529190615b10565b81526020018585600101546115679190615b10565b90525f8d815260d0602090815260408083206001600160a01b038d811680865291845293829020855181559483015160019095019490945580513381529182018f905281018790529194508a1692508c91507f66866b472f27d55d69496091bbd651907b2fb1041b3eeaca6e565ae5b5af40139060600160405180910390a46115ee6139c1565b6115f789614208565b604051637b9d893160e01b81523060048201526001600160a01b0386811660248301527f00000000000000000000000000000000000000000000000000000000000000001690637b9d8931906044015f604051808303815f87803b15801561165d575f80fd5b505af115801561166f573d5f803e3d5ffd5b506116a99250506001600160a01b037f0000000000000000000000000000000000000000000000000000000000000000169050878a614256565b50505095945050505050565b6001600160a01b0381165f90815260d260209081526040822060d6546001820154919290919081901c9063ffffffff165b811561178a57600182161561176f575f81815260d0602090815260408083206001600160a01b038a16845290915281206001810154815491929161172a9190615b10565b90506117368188615b10565b96508242111561176c5761175f8561174e8542615b5b565b6117589190615b6e565b82906138b4565b6117699088615b10565b96505b50505b60019190911c906117836224ea0082615b10565b90506116e6565b600284015480156117ab5761179e81611dba565b6117a89087615b10565b95505b5050505050919050565b5f6117be613bc7565b7f00000000000000000000000000000000000000000000000000000000000000006001600160a01b031663a3883db530866117f8866122af565b6040518463ffffffff1660e01b815260040161181693929190615d4a565b5f6040518083038186803b15801561182c575f80fd5b505afa15801561183e573d5f803e3d5ffd5b505060e3546001600160a01b0316915050801561190257604051630149e46f60e01b81526001600160a01b038681166004830152821690630149e46f906024015f604051808303815f87803b158015611895575f80fd5b505af11580156118a7573d5f803e3d5ffd5b5050604051630149e46f60e01b81526001600160a01b03878116600483015284169250630149e46f91506024015f604051808303815f87803b1580156118eb575f80fd5b505af11580156118fd573d5f803e3d5ffd5b505050505b61190d858585614298565b95945050505050565b5f6119208161393e565b60da805460ff191660ff84169081179091556040519081527f23c0170203096819aed8a13739fe91ce445ec92a7e2aa228081b5e45ee582c8090602001610f48565b5f61196c8161393e565b6119776112b5613e55565b60e180546001600160a01b0319166001600160a01b03851690811790915560e28390556040518381527fd471a80a3a5fd21dfce2b1b7c88bbea4684ab90254a4e47345ac344d566788729060200160405180910390a2505050565b5f828152606560205260409020600101546119ec8161393e565b6119f68383614372565b505050565b5f611a04613bc7565b611a0c613bd6565b835f03611a2c576040516356316e8760e01b815260040160405180910390fd5b60da54611a4090869060ff1660035f613c01565b5f85815260d16020526040812090611a588288613d9b565b90508060dd5f828254611a6b9190615b10565b909155505060d754604080516080810182528454815260018501546020820152600285015491810191909152600384015460608201525f918291611ab0918a906143f7565b9092509050611abf8289615b10565b945086851015611ae257604051632c1b6b4160e21b815260040160405180910390fd5b611aec8489614448565b60d35f828254611afc9190615b5b565b90915550611b0c90508183615b10565b846002015f828254611b1e9190615b5b565b925050819055508060d55f828254611b369190615b10565b90915550505f89815260cf602090815260408083206001600160a01b038a16845290915281208054909103611b8b576001600160a01b0387165f90815260d2602052604090208054611b88908c614079565b90555b88815f015f828254611b9d9190615b10565b9250508190555082816001015f828254611bb79190615b10565b9091555050604080518a8152602081018590526001600160a01b0389169133918d917fd9900507c64720c1a5e11858a42769b599616268b832495aa6afe8b9dc566e76910160405180910390a4611c0c6139c1565b611c158a614208565b611c4a6001600160a01b037f00000000000000000000000000000000000000000000000000000000000000001633308c614478565b5050505050949350505050565b5f7f00000000000000000000000000000000000000000000000000000000000000004614611c8c57611c876144be565b905090565b507f000000000000000000000000000000000000000000000000000000000000000090565b6001600160a01b0381163314611cc5575f80fd5b611ccf8282614557565b5050565b5f611cdc613bc7565b60da54611cf190869060ff1660036002613c01565b611cff8585858560016145bd565b9050611d096139c1565b611d3e6001600160a01b037f000000000000000000000000000000000000000000000000000000000000000016333084614478565b949350505050565b7f65d7a28e3265b37a6474929f336521b332c1681b933f6cb9f3376673440d862a611d708161393e565b611d78614919565b50565b5f611d858161393e565b60d78290556040518281527f08b437f29bc93f50025290193a680338033c3fccb93cf0ef95788eba3f003e2690602001610f48565b60df545f90801561100357610ffe611dd06137ab565b849083613a27565b5f611de1613bc7565b6001600160a01b0384163303611e0a576040516344511af160e01b815260040160405180910390fd5b60405163042dcf6b60e31b81523060048201526001600160a01b0383811660248301528581166044830152606482018590527f0000000000000000000000000000000000000000000000000000000000000000169063216e7b5890608401602060405180830381865afa158015611e83573d5f803e3d5ffd5b505050506040513d601f19601f82011682018060405250810190611ea79190615d33565b9250825f03611ec95760405163685e923560e01b815260040160405180910390fd5b6001600160a01b0384165f90815260d2602090815260409091206001810154909181901c9063ffffffff165b8115801590611f0357508515155b15612010576001821615611ff5575f81421015611f3a57611f278288898b5f6145bd565b9050611f338188615b5b565b9650611fe7565b5f82815260d0602090815260408083206001600160a01b038c168452909152812060018101548154611f6c9190615b10565b9150505f611f9360d6548542611f829190615b5b565b611f8c9190615b6e565b83906138b4565b611f9d9083615b10565b9050888111611fac5788611fb7565b611fb7898383613896565b9250825f03611fc8575f9850611fe4565b611fd584848b8d5f6145bd565b9250611fe1838a615b5b565b98505b50505b611ff18186615b10565b9450505b60019190911c906120096224ea0082615b10565b9050611ef5565b505083158015906120245750600281015415155b15612059575f612033856132ba565b90508015612057575f6120468288614966565b5090506120538185615b10565b9350505b505b604051636e1b003160e01b81523060048201526001600160a01b0384811660248301528681166044830152606482018490525f9182917f00000000000000000000000000000000000000000000000000000000000000001690636e1b0031906084016040805180830381865afa1580156120d5573d5f803e3d5ffd5b505050506040513d601f19601f820116820180604052508101906120f99190615d6e565b915091508160d55f82825461210e9190615b10565b9091555050306001600160a01b038616036121345761212f30338984614ac0565b612199565b60405163b2a02ff160e01b81526001600160a01b0386169063b2a02ff1906121649033908b908690600401615d4a565b5f604051808303815f87803b15801561217b575f80fd5b505af115801561218d573d5f803e3d5ffd5b505050506121996139c1565b60408051858152602081018490529081018290526001600160a01b03808716919089169033907f67bb48f97d82192848c24158abf58ec614777328e19655e0a219652b773fd1db9060600160405180910390a46040516311fd52e160e01b81526001600160a01b0388811660048301527f000000000000000000000000000000000000000000000000000000000000000016906311fd52e1906024015f604051808303815f87803b15801561224c575f80fd5b505af115801561225e573d5f803e3d5ffd5b505050506122a5333084876122739190615b10565b6001600160a01b037f000000000000000000000000000000000000000000000000000000000000000016929190614478565b5050509392505050565b5f610ebf82610fe0565b5f6122c38161393e565b6122cb614cb9565b60d883905560d982905560408051848152602081018490527fd09fee08a2915f9ac9a77197b21a3e275d34ec9542f569eb15b95ce8f7fe2808910160405180910390a1505050565b5f61231d8361388c565b9050805f0361232a575f80fd5b61235f6001600160a01b037f000000000000000000000000000000000000000000000000000000000000000016333086614478565b6123698282614ce4565b60408051848152602081018390526001600160a01b0384169133917fdcbc1c05240f31ff3ad067ef1ee35ce4997762752e3a095284754544f4c709d7910160405180910390a3610ebf8382614d57565b60df545f90801561100357610ffe8161108e6137ab565b5f806123da613bc7565b6123e48484614966565b90925090506123f16139c1565b6124266001600160a01b037f000000000000000000000000000000000000000000000000000000000000000016333085614478565b9250929050565b5f6124378161393e565b60e35460ff600160a01b90910416151582151514611ccf5760e38054831515600160a01b0260ff60a01b1990911617905560405133907f713eb400302cebac61f82eb8de5051d38458517ffac43ae45f4a9fd5d09ee6989061249e90851515815260200190565b60405180910390a25050565b6124b2614db6565b6124ba614e32565b565b5f6124c68161393e565b60db546001600160a01b0316156124e2576124e26112b5613e55565b60db80546001600160a01b0319166001600160a01b0384161790556125056139c1565b6040516001600160a01b038316907f7902cd1307c545e3f5782172612372bf997a93698917ced12b2f83d86e347d0c905f90a25050565b5f9182526065602090815260408084206001600160a01b0393909316845291905290205460ff1690565b336001600160a01b037f000000000000000000000000000000000000000000000000000000000000000016146125af576040516317568c8f60e21b815260040160405180910390fd5b6125b7613948565b60dd5f8282546125c79190615b10565b90915550506001600160a01b0381165f90815260d260209081526040822060d55460018201549193909290919081901c9063ffffffff165b81156127a3576001821615612788575f81815260d0602090815260408083206001600160a01b038a1684529091528120600181015481549192916126439190615b10565b90508086106127855760e3546001600160a01b031680156126b557604051636c912dad60e01b81526001600160a01b038a81166004830152821690636c912dad906024015f604051808303815f87803b15801561269e575f80fd5b505af11580156126b0573d5f803e3d5ffd5b505050505b6126bf8288615b5b565b96506126cb8287615b10565b83545f86815260d1602052604090209197506126e79190614e6f565b60d35f8282546126f79190615b5b565b90915550505f84815260d0602090815260408083206001600160a01b038d16845290915281208181556001908101919091558801546127369085614e92565b600189015560408051838152602081018490526001600160a01b038b1691339187917ff17fce321dd9fb005136a80c0bfb3789e455b7a70be9eb8922f1ad20a80d1a33910160405180910390a4505b50505b60019190911c9061279c6224ea0082615b10565b90506125ff565b6002850154158015906127c057506127ba846132ba565b93508315155b156127e1575f6127d08588614966565b5090506127dd8185615b10565b9350505b821561283c578260d55f8282546127f89190615b5b565b90915550506040518381526001600160a01b038716907fde0e3a281fa92ee953a13c5bd96dcaf07b10c6b9f42c65d0e3752c855caa6e7c9060200160405180910390a25b6128446139c1565b505050505050565b5f61285683613051565b905061288d6001600160a01b037f000000000000000000000000000000000000000000000000000000000000000016333084614478565b6128978284614ce4565b60408051828152602081018590526001600160a01b0384169133917fdcbc1c05240f31ff3ad067ef1ee35ce4997762752e3a095284754544f4c709d7910160405180910390a3610ebf8184614d57565b60ca8054610f6190615b23565b5f54610100900460ff161580801561291257505f54600160ff909116105b8061292b5750303b15801561292b57505f5460ff166001145b612933575f80fd5b5f805460ff191660011790558015612954575f805461ff0019166101001790555b61295c614f52565b612964614f64565b60da805468ffffffffffffffff0019166101004263ffffffff1690810268ffffffff0000000000191691909117600160281b82021763ffffffff60481b1916600160481b919091021790556129b95f33614372565b6129c38b8b61113b565b6129cc89611916565b6129d588610ec5565b6129de876124bc565b6129e786612e8d565b6129f085611d7b565b6129f984613753565b612a0383836122b9565b8015612a48575f805461ff0019169055604051600181527f7f26b83ff96e1f2b6a682f133852f6798a09c465da95921460cefb38474024989060200160405180910390a15b5050505050505050505050565b5f612a5e613bc7565b845f03612a7e5760405163b8cb621960e01b815260040160405180910390fd5b60da54612a9390879060ff1660036002613c01565b5f86815260d160205260409020612aaa8188613d9b565b60dd5f828254612aba9190615b10565b90915550505f87815260cf602090815260408083206001600160a01b038716845282529182902082518084019093528054808452600190910154918301829052612b049190615b10565b871115612b1f5760208101518151612b1c9190615b10565b96505b6040805180820190915281518152602080830151908201525f90612b4f90612b47908a614f7e565b518490614fc4565b60d354612b5c9190615b10565b905060dd5460d45482612b6f9190615b10565b1115612b8d57604051622d41ad60e31b815260040160405180910390fd5b60d35542881115612cba575f612ba1611096565b90505f60d45490505f60d35490505f60db5f9054906101000a90046001600160a01b03166001600160a01b031663d9d9048d8d60da5f9054906101000a900460ff16612bf58a600101548b5f01548a613fa2565b612bff8989613fcf565b612c0a8a8a8a613fe7565b6040516001600160e01b031960e088901b168152600481019590955260ff909316602485015260448401919091526064830152608482015260a401602060405180830381865afa158015612c60573d5f803e3d5ffd5b505050506040513d601f19601f82011682018060405250810190612c849190615d33565b9050612caf612c96611420428f615b5b565b612ca890670de0b6b3a7640000615b10565b8c90615008565b965050505050612cbe565b8692505b85831015612cdf57604051632c1b6b4160e21b815260040160405180910390fd5b612ce98484614003565b5f80612d35612d00612cfb878c615b5b565b614164565b604080516080810182528754815260018801546020820152600288015491810191909152600387015460608201529087614190565b9150915081846002015f828254612d4c9190615b10565b90915550612d5b9050816141dc565b612d65838a61501c565b5060208301518351175f03612db8575f8a815260cf602090815260408083206001600160a01b038a168452825280832083815560010183905560d290915290208054612db1908c614e92565b9055612de8565b5f8a815260cf602090815260408083206001600160a01b038a168452825290912084518155908401516001909101555b60408051338152602081018b90529081018690526001600160a01b0380881691908916908c907fe57dbac0e7c42ad5f3b0fadb9c065565377cf771054fca70d35c96e01f9ec53c9060600160405180910390a4612e436139c1565b612e4c8a614208565b612e806001600160a01b037f0000000000000000000000000000000000000000000000000000000000000000168887614256565b5050505095945050505050565b5f612e978161393e565b60d68290556040518281527fdb0ebfb2503f7c16b45577ebbf6c7d6b99b6e8aaf6652b156e36d5d6654a3a5e90602001610f48565b5f612ed5613bc7565b7f00000000000000000000000000000000000000000000000000000000000000006001600160a01b031663a3883db53033612f0f866122af565b6040518463ffffffff1660e01b8152600401612f2d93929190615d4a565b5f6040518083038186803b158015612f43575f80fd5b505afa158015612f55573d5f803e3d5ffd5b505060e3546001600160a01b0316915050801561301757604051630149e46f60e01b81523360048201526001600160a01b03821690630149e46f906024015f604051808303815f87803b158015612faa575f80fd5b505af1158015612fbc573d5f803e3d5ffd5b5050604051630149e46f60e01b81526001600160a01b03878116600483015284169250630149e46f91506024015f604051808303815f87803b158015613000575f80fd5b505af1158015613012573d5f803e3d5ffd5b505050505b611d3e848461507a565b5f8061302b613bc7565b6123e4613037856132ba565b84614966565b613045613bc7565b6119f633848484614ac0565b60cb545f90801561100357610ffe611dd0610de3565b60405163a3883db560e01b81525f906001600160a01b037f0000000000000000000000000000000000000000000000000000000000000000169063a3883db5906130b990309086908990600401615d4a565b5f6040518083038186803b1580156130cf575f80fd5b505afa1580156130e1573d5f803e3d5ffd5b505060e3546001600160a01b0316915050801561314f57604051630149e46f60e01b81526001600160a01b038481166004830152821690630149e46f906024015f604051808303815f87803b158015613138575f80fd5b505af115801561314a573d5f803e3d5ffd5b505050505b61315a8585856150dd565b91506131646139c1565b509392505050565b5f7f00000000000000000000000000000000000000000000000000000000000000006001600160a01b031663a3883db530846131a7886122af565b6040518463ffffffff1660e01b81526004016131c593929190615d4a565b5f6040518083038186803b1580156131db575f80fd5b505afa1580156131ed573d5f803e3d5ffd5b505060e3546001600160a01b0316915050801561325b57604051630149e46f60e01b81526001600160a01b038481166004830152821690630149e46f906024015f604051808303815f87803b158015613244575f80fd5b505af1158015613256573d5f803e3d5ffd5b505050505b61315a8585856151e7565b5f6132708161393e565b60e380546001600160a01b0319166001600160a01b0384169081179091556040517fbe945f1688d0c44e4727dde3ee4f1f52c5263e6213e3d6321cf7804cbe33be3c905f90a25050565b60df545f90801561100357610ffe816132d16137ab565b859190613896565b60cb545f90801561100357610ffe816132d1610de3565b6001600160a01b0381165f90815260cc6020526040812054610ebf90610fe0565b4284101561331d575f80fd5b5f6001613328611c57565b6001600160a01b038a81165f81815260ce602090815260409182902080546001810190915582517f6e71edae12b1b97f4d1f60370fef10105fa2faae0126114a169c64845d6126c98184015280840194909452938d166060840152608083018c905260a083019390935260c08083018b90528151808403909101815260e08301909152805192019190912061190160f01b6101008301526101028201929092526101228101919091526101420160408051601f1981840301815282825280516020918201205f84529083018083525260ff871690820152606081018590526080810184905260a0016020604051602081039080840390855afa158015613430573d5f803e3d5ffd5b5050604051601f1901519150506001600160a01b038116158015906134665750876001600160a01b0316816001600160a01b0316145b61346e575f80fd5b6001600160a01b039081165f90815260cd602090815260408083208a8516808552908352928190208990555188815291928a16917f8c5be1e5ebec7d5bd14f71427d1e84f3dd0314c0f7b2291e5b200ac8c7c3b925910160405180910390a350505050505050565b5f6134df613bc7565b6134e7613bd6565b6134f18285614003565b60e3546001600160a01b0316801561355a57604051636c912dad60e01b81526001600160a01b038481166004830152821690636c912dad906024015f604051808303815f87803b158015613543575f80fd5b505af1158015613555573d5f803e3d5ffd5b505050505b6135656112b5613e55565b61356e856123b9565b91505f8560d45461357f9190615b10565b60d481905560dc549091506135b0906112e390600160801b90046001600160801b0316670de0b6b3a7640000615d13565b8160d3546135be9190615b10565b11156135dc57604051622d41ad60e31b815260040160405180910390fd5b8260df5f8282546135ed9190615b10565b90915550506001600160a01b0384165f90815260d260205260408120600201805485929061361c908490615b10565b909155505060408051878152602081018590526001600160a01b03808716929088169133917f96558a334f4759f0e7c423d68c84721860bd8fbf94ddc4e55158ecb125ad04b5910160405180910390a46136746139c1565b604051637b9d893160e01b81523060048201526001600160a01b0385811660248301527f00000000000000000000000000000000000000000000000000000000000000001690637b9d8931906044015f604051808303815f87803b1580156136da575f80fd5b505af11580156136ec573d5f803e3d5ffd5b506137269250506001600160a01b037f00000000000000000000000000000000000000000000000000000000000000001690508688614256565b50509392505050565b5f828152606560205260409020600101546137498161393e565b6119f68383614557565b5f61375d8161393e565b60dc80546001600160801b03908116600160801b918516918202179091556040519081527fc197c4ec4c97f824717acfad017c2a16643adc8874798a0899da42c6b5ebf9bf90602001610f48565b60d45460dd5460da545f929190839061387890613871906137d990600160281b900463ffffffff1642615b5b565b60db546301e13380906001600160a01b0316637c21fb1d6137fa888a613fcf565b613807898b60d354613fe7565b6040516001600160e01b031960e085901b16815260048101929092526024820152604401602060405180830381865afa158015613846573d5f803e3d5ffd5b505050506040513d601f19601f8201168201806040525081019061386a9190615d33565b9190613896565b84906138b4565b90506138848184615b10565b935050505090565b5f610ebf826132d9565b8282028115158415858304851417166138ad575f80fd5b0492915050565b5f6110058383670de0b6b3a7640000613896565b60da545f9081906138e490610100900463ffffffff1642615b5b565b9050805f036138f4575f91505090565b60da5461393890829061392490613912906224ea009060ff16615b6e565b60dc546001600160801b0316906138b4565b61392e9084615b10565b60d5549190613896565b91505090565b611d7881336152fc565b5f6139516138c8565b90508060d55f8282546139649190615b5b565b909155505060da805464ffffffff0019166101004263ffffffff811691909102919091179091556040519081527fe24d78f24f27ad7740c08c83f439e4c144df201bfd8f5c4c93e3e0898248b1bb9060200160405180910390a190565b60cb5460dd5460df5460d45460d5546040805142815260208101969096528501939093526060840191909152608083015260a08201527f7a71b92e3ef471c5ad18359e076f3df1c563d92e9ea1e33aa4761dbbc9b7ae409060c0015b60405180910390a1565b828202811515841585830485141716613a3e575f80fd5b6001826001830304018115150290509392505050565b5f680248ce36a70cb26b3e198213613a6d57505f919050565b680755bf798b4a1bf1e58212613a81575f80fd5b6503782dace9d9604e83901b0591505f60606bb17217f7d1cf79abc9e3b39884821b056001605f1b01901d6bb17217f7d1cf79abc9e3b39881029093036c240c330e9fb2d9cbaf0fd5aafb1981018102606090811d6d0277594991cfc85f6e2461837cd9018202811d6d1a521255e34f6a5061b25ef1c9c319018202811d6db1bbb201f443cf962f1a1d3db4a5018202811d6e02c72388d9f74f51a9331fed693f1419018202811d6e05180bb14799ab47a8a8cb2a527d57016d02d16720577bd19bf614176fe9ea6c10fe68e7fd37d0007b713f765084018402831d9081019084016d01d3967ed30fc4f89c02bab5708119010290911d6e0587f503bb6ea29d25fcb740196450019091026d360d7aeea093263ecc6e0ecb291760621b010574029d9dc38563c32e5c2f6dc192ee70ef65f9978af30260c3939093039290921c92915050565b60975460ff16156124ba575f80fd5b60e354600160a01b900460ff16156124ba5760405163b2ce2a9360e01b815260040160405180910390fd5b5f613c0f6224ea0086615d90565b15613c1c57506001613c6f565b428511613c2b57506002613c6f565b613c3b60ff85166224ea00615b6e565b613c486224ea0042615d90565b613c529042615b5b565b613c5c9190615b10565b851115613c6b57506004613c6f565b5060035b826004811115613c8157613c81615da3565b816004811115613c9357613c93615da3565b14158015613cc35750816004811115613cae57613cae615da3565b816004811115613cc057613cc0615da3565b14155b15613d94575f826004811115613cdb57613cdb615da3565b03613d2f57806004811115613cf257613cf2615da3565b836004811115613d0457613d04615da3565b604051631a71301d60e11b815260ff9283166004820152911660248201526044015b60405180910390fd5b806004811115613d4157613d41615da3565b836004811115613d5357613d53615da3565b836004811115613d6557613d65615da3565b604051637f2cef9960e01b815260ff938416600482015291831660248301529091166044820152606401613d26565b5050505050565b60038201545f9042831115613def5760028401544260038601819055613dd890613dc6908490615b5b565b613dd08487615b5b565b839190613896565b9250613de48382615b5b565b600286015550613e12565b828103613dfe575f9150613e12565b600384018390556002840180545f90915591505b5092915050565b81545f9081613e288483615b10565b9050613e41613e3b838760010154615342565b82615357565b613e4b9082615b5b565b9455509192915050565b60d45460dd545f919082613e698284613fcf565b60da549091505f90613ebb9061112190613e9090600160281b900463ffffffff1642615b5b565b60db5460d3546301e13380916001600160a01b031690637c21fb1d908890613807908b908d90613fe7565b9050613ec78185615b10565b9350613ede60e254826138b490919063ffffffff16565b945084613eeb8285615b10565b613ef59190615b5b565b60dd5560d484905560da805468ffffffff00000000001916600160281b4263ffffffff8116919091029190911790915560408051918252602082018490527f582b129106eba35020853cdae92ceb413a0227befcce433b67b23a630219b35f910160405180910390a15050505090565b8015611d785760e154613f89906001600160a01b0316613f848361388c565b614ce4565b8060dd5f828254613f9a9190615b10565b909155505050565b5f8115801590613fb157508383115b613fbb575f611d3e565b611d3e82613fc98686615b5b565b90615365565b5f825f03613fdd575f611005565b6110058284615365565b5f835f03613ff5575f611d3e565b611d3e84613fc98486615b10565b336001600160a01b03831614611ccf576001600160a01b0382165f90815260cd602090815260408083203384529091529020545f1981146119f65761404782611077565b6140519082615b5b565b6001600160a01b0384165f90815260cd60209081526040808320338452909152902055505050565b5f825f0361408f57506401000000008117610ebf565b63ffffffff83168083101561410d575f6224ea006140ad8584615b5b565b6140b79190615db7565b90506140c581610100615b5b565b85901c156140e65760405163293cc41f60e21b815260040160405180910390fd5b6140f1816020615b10565b602086901c901b94508484176401000000001792505050610ebf565b5f6224ea0061411c8386615b5b565b6141269190615db7565b905060df81111561414a5760405163293cc41f60e21b815260040160405180910390fd5b614155816020615b10565b6001901b851792505050610ebf565b5f8061417b60e254846138b490919063ffffffff16565b905061418681613f65565b6110058184615b5b565b5f8082156141c4576141bf6141ad6141a787615379565b85615357565b6141b79085615b5b565b859085613896565b6141c6565b5f5b90506141d28185615b5b565b9150935093915050565b805f036141e65750565b60e254156141f757611d7881613f65565b8060d55f828254613f9a9190615b10565b5f81815260d160209081526040918290206002015482514281529182015282917fa2e6044136bec58e0605f40ac11a7bf87f1a8bdf3e2588b11b2cfae5acd9109f910160405180910390a250565b5f60405163a9059cbb60e01b5f52836004528260245260205f60445f80895af13d15601f3d1160015f511416171691505f6060528060405250806111a6575f80fd5b6001600160a01b0383165f90815260cd602090815260408083203384529091528120545f1981146142f1576142cd8382615b5b565b6001600160a01b0386165f90815260cd602090815260408083203384529091529020555b6001600160a01b0385165f90815260cc602052604081208054859290614318908490615b5b565b90915550506001600160a01b038085165f81815260cc6020526040908190208054870190555190918716905f80516020615ed28339815191529061435f9087815260200190565b60405180910390a3506001949350505050565b61437c828261253c565b611ccf575f8281526065602090815260408083206001600160a01b03851684529091529020805460ff191660011790556143b33390565b6001600160a01b0316816001600160a01b0316837f2f8788117e7eff1d82e926ec794901d17c78024a50270940304540a733656f0d60405160405180910390a45050565b5f805f61440386615379565b9050801561443f576144246144188683615357565b60408801519083613896565b925061443083856138b4565b915061443c8284615b5b565b92505b50935093915050565b815460018301545f919061445c8482615b10565b600186015561190d61446e8383615357565b6141a79084615b5b565b5f6040516323b872dd60e01b5f5284600452836024528260445260205f60645f808a5af13d15601f3d1160015f511416171691505f606052806040525080613d94575f80fd5b5f7f8b73c3c69bb8fe3d512ecc4cf759cc79239f7b179b0ffacaa9a75d522b39400f60c96040516144ef9190615dca565b6040805191829003822060208301939093528101919091527fc89efdaa54c0f20c7adf612882df0950f5a951637e0307cdcb4c672f298b8bc660608201524660808201523060a082015260c00160405160208183030381529060405280519060200120905090565b614561828261253c565b15611ccf575f8281526065602090815260408083206001600160a01b0385168085529252808320805460ff1916905551339285917ff6391f5c32d9c69d2a47ea670b442974b53935d1edc7fd64eb21e047a839171b9190a45050565b5f845f036145de5760405163685e923560e01b815260040160405180910390fd5b5f86815260d160205260408120906145f68289613d9b565b90508060dd5f8282546146099190615b10565b90915550505f88815260d0602090815260408083206001600160a01b038916845282528083208151808301909252805480835260019091015492820183905290929161465f918b9161465a91615b10565b615357565b6040805180820190915283518152602080850151908201529091505f906146869083614f7e565b5160e3549091506001600160a01b031680156146f357604051636c912dad60e01b81526001600160a01b038a81166004830152821690636c912dad906024015f604051808303815f87803b1580156146dc575f80fd5b505af11580156146ee573d5f803e3d5ffd5b505050505b8b42101561479b5787156147935760d754604080516080810182528854815260018901546020820152600289015491810191909152600388015460608201525f9182916147419186906143f7565b90925090506147508183615b10565b886002015f8282546147629190615b5b565b925050819055508060d55f82825461477a9190615b10565b9091555061478a90508286615b5b565b985050506147e2565b8296506147e2565b60d6546147b6906147ac8e42615b5b565b6138719190615b6e565b6147c09084615b10565b96506147cc8388615b5b565b60d55f8282546147dc9190615b10565b90915550505b8987111561480357604051632c1b6b4160e21b815260040160405180910390fd5b61480d8683614e6f565b60d35f82825461481d9190615b5b565b9091555061482d9050848461501c565b5060208401518451175f03614889575f8c815260d0602090815260408083206001600160a01b038d1684528252808320838155600190810184905560d29092529091209081015461487e908e614e92565b6001909101556148b9565b5f8c815260d0602090815260408083206001600160a01b038d168452825290912085518155908501516001909101555b60408051888152602081018590526001600160a01b038b169133918f917ff17fce321dd9fb005136a80c0bfb3789e455b7a70be9eb8922f1ad20a80d1a33910160405180910390a461490a8c614208565b50505050505095945050505050565b614921615397565b6097805460ff191690557f5db9ee0a495bf2e6ff9c91a7834c1ba4fdd244a5e8aa4e537bd38aeae4b073aa335b6040516001600160a01b039091168152602001613a1d565b60e3545f9081906001600160a01b031680156149d357604051636c912dad60e01b81526001600160a01b038581166004830152821690636c912dad906024015f604051808303815f87803b1580156149bc575f80fd5b505af11580156149ce573d5f803e3d5ffd5b505050505b6149de6112b5613e55565b6001600160a01b0384165f90815260d2602052604090206002810154614a048782615357565b9350614a0f84611dba565b9450845f03614a315760405163685e923560e01b815260040160405180910390fd5b8460d45f828254614a429190615b5b565b90915550614a5290508482615b5b565b82600201819055508360df5f828254614a6b9190615b5b565b909155505060408051868152602081018690526001600160a01b0388169133917fe4a1ae657f49cb1fb1c7d3a94ae6093565c4c8c0e03de488f79c377c3c3a24e0910160405180910390a35050509250929050565b805f03614ae05760405163b8cb621960e01b815260040160405180910390fd5b60405163070b773960e51b81526001600160a01b0385811660048301523060248301527f0000000000000000000000000000000000000000000000000000000000000000169063e16ee720906044015f6040518083038186803b158015614b45575f80fd5b505afa158015614b57573d5f803e3d5ffd5b505060e3546001600160a01b03169150508015614bc557604051630149e46f60e01b81526001600160a01b038481166004830152821690630149e46f906024015f604051808303815f87803b158015614bae575f80fd5b505af1158015614bc0573d5f803e3d5ffd5b505050505b5f614bcf83611077565b9050614bdb83826153a5565b614be5848261541e565b60408051848152602081018390526001600160a01b03808716929088169133917ffbde797d201c681b91056529119e0b02407c7bb96a4a2c75c01fc9667232c8db910160405180910390a4836001600160a01b0316856001600160a01b03167f9e2db63c5a9dc5d08222447d76570029e4f2f3074c8aa4f1c511fa658506c71085604051614c7591815260200190565b60405180910390a3614c856139c1565b6128446001600160a01b037f0000000000000000000000000000000000000000000000000000000000000000168685614256565b614cc1611096565b60de5560da805463ffffffff60481b1916600160481b4263ffffffff1602179055565b60e3546001600160a01b03168015614d4d57604051630149e46f60e01b81526001600160a01b038481166004830152821690630149e46f906024015f604051808303815f87803b158015614d36575f80fd5b505af1158015614d48573d5f803e3d5ffd5b505050505b6119f68383615485565b614d5f613bc7565b614d67613bd6565b614d6f614cb9565b5f614d78613e55565b90505f614d83613948565b9050614d8f8482615b10565b60dd5f828254614d9f9190615b10565b90915550614dae905082613f65565b6111a66139c1565b614de07f5358bcfd81d1ef3da152b1755e1c3c6739686fa7e83dbcad0071568cc4b73a633361253c565b158015614e145750614e127f65d7a28e3265b37a6474929f336521b332c1681b933f6cb9f3376673440d862a3361253c565b155b156124ba57604051631d006fdb60e31b815260040160405180910390fd5b614e3a613bc7565b6097805460ff191660011790557f62e78cea01bee320cd4e420270b5ea74000d11b0c9f74754ebdbfc544b05a25861494e3390565b815460018301545f9190614e838483615b5b565b855561190d61446e8383615357565b5f821580614ea65750816401000000001783145b15614eb257505f610ebf565b63ffffffff8316808303614f2057602184901c60015b60018216158015614ed857508115155b15614ee957600191821c9101614ec8565b6020614ef58282615b10565b9690961c90951b9485614f0b6224ea0083615b6e565b614f159087615b10565b179350505050610ebf565b6224ea00614f2e8285615b5b565b614f389190615db7565b614f43906020615b10565b6001901b198416915050610ebf565b5f54610100900460ff166124ba575f80fd5b5f54610100900460ff16614f76575f80fd5b6124ba6154d4565b604080518082019091525f8082526020820152825160208401515f91614fa8916132d19082615b10565b8085529050614fb78184615b5b565b6020850152509192915050565b815460018301545f919082614fd98583615b5b565b9050614fe58184615357565b614fef8385615357565b614ff99190615b5b565b60019096015550929392505050565b5f61100583670de0b6b3a764000084613896565b604080518082019091525f8082526020820152602083015183515f9161504191615b10565b90505f61504e8483615b5b565b855190915061505f90829084613896565b80865261506c9082615b5b565b602086015250929392505050565b335f90815260cc602052604081208054839190839061509a908490615b5b565b90915550506001600160a01b0383165f81815260cc6020526040908190208054850190555133905f80516020615ed2833981519152906110669086815260200190565b5f6150e784611077565b9050336001600160a01b03831614615154576001600160a01b0382165f90815260cd602090815260408083203384529091529020545f1981146151525761512e8282615b5b565b6001600160a01b0384165f90815260cd602090815260408083203384529091529020555b505b61515e84826153a5565b615168828261541e565b60408051858152602081018390526001600160a01b03808516929086169133917ffbde797d201c681b91056529119e0b02407c7bb96a4a2c75c01fc9667232c8db910160405180910390a46110056001600160a01b037f0000000000000000000000000000000000000000000000000000000000000000168486614256565b5f336001600160a01b03831614615253576001600160a01b0382165f90815260cd602090815260408083203384529091529020545f1981146152515761522d8582615b5b565b6001600160a01b0384165f90815260cd602090815260408083203384529091529020555b505b61525c846122af565b9050805f03615269575f80fd5b61527381856153a5565b61527d828561541e565b60408051828152602081018690526001600160a01b03808516929086169133917ffbde797d201c681b91056529119e0b02407c7bb96a4a2c75c01fc9667232c8db910160405180910390a46110056001600160a01b037f0000000000000000000000000000000000000000000000000000000000000000168483614256565b615306828261253c565b611ccf57615313816154f2565b61531e836020615504565b60405160200161532f929190615e53565b6040516020818303038152906040525f80fd5b5f8183116153505781611005565b5090919050565b5f8183106153505781611005565b5f61100583670de0b6b3a764000084613a27565b805160208201515f919061538d8282615357565b611d3e9083615b5b565b60975460ff166124ba575f80fd5b6153ad613bc7565b6153b5614cb9565b6153c06112b5613e55565b5f6153c9613948565b90505f838260dd546153db9190615b10565b6153e59190615b5b565b90508060d45460d3546153f89190615b10565b111561541657604051622d41ad60e31b815260040160405180910390fd5b60dd55505050565b6001600160a01b0382165f90815260cc602052604081208054839290615445908490615b5b565b909155505060cb805482900390556040518181525f906001600160a01b038416905f80516020615ed2833981519152906020015b60405180910390a35050565b8060cb5f8282546154969190615b10565b90915550506001600160a01b0382165f81815260cc60209081526040808320805486019055518481525f80516020615ed28339815191529101615479565b5f54610100900460ff166154e6575f80fd5b6097805460ff19169055565b6060610ebf6001600160a01b03831660145b60605f615512836002615b6e565b61551d906002615b10565b67ffffffffffffffff81111561553557615535615be1565b6040519080825280601f01601f19166020018201604052801561555f576020820181803683370190505b509050600360fc1b815f8151811061557957615579615ea8565b60200101906001600160f81b03191690815f1a905350600f60fb1b816001815181106155a7576155a7615ea8565b60200101906001600160f81b03191690815f1a9053505f6155c9846002615b6e565b6155d4906001615b10565b90505b600181111561564b576f181899199a1a9b1b9c1cb0b131b232b360811b85600f166010811061560857615608615ea8565b1a60f81b82828151811061561e5761561e615ea8565b60200101906001600160f81b03191690815f1a90535060049490941c9361564481615ebc565b90506155d7565b508315611005575f80fd5b6001600160a01b0381168114611d78575f80fd5b5f6020828403121561567a575f80fd5b813561100581615656565b5f60208284031215615695575f80fd5b81356001600160e01b031981168114611005575f80fd5b80356001600160801b03811681146156c2575f80fd5b919050565b5f602082840312156156d7575f80fd5b611005826156ac565b602081525f82518060208401528060208501604085015e5f604082850101526040601f19601f83011684010191505092915050565b5f60208284031215615725575f80fd5b5035919050565b5f806040838503121561573d575f80fd5b823561574881615656565b946020939093013593505050565b5f8083601f840112615766575f80fd5b50813567ffffffffffffffff81111561577d575f80fd5b602083019150836020828501011115612426575f80fd5b5f80602083850312156157a5575f80fd5b823567ffffffffffffffff8111156157bb575f80fd5b6157c785828601615756565b90969095509350505050565b5f805f805f60a086880312156157e7575f80fd5b853594506020860135935060408601359250606086013561580781615656565b9150608086013561581781615656565b809150509295509295909350565b5f805f60608486031215615837575f80fd5b833561584281615656565b9250602084013561585281615656565b929592945050506040919091013590565b803560ff811681146156c2575f80fd5b5f60208284031215615883575f80fd5b61100582615863565b5f806040838503121561589d575f80fd5b8235915060208301356158af81615656565b809150509250929050565b5f805f80608085870312156158cd575f80fd5b84359350602085013592506040850135915060608501356158ed81615656565b939692955090935050565b5f805f6060848603121561590a575f80fd5b833561591581615656565b925060208401359150604084013561592c81615656565b809150509250925092565b5f8060408385031215615948575f80fd5b50508035926020909101359150565b5f60208284031215615967575f80fd5b81358015158114611005575f80fd5b5f805f805f805f805f806101208b8d031215615990575f80fd5b8a3567ffffffffffffffff8111156159a6575f80fd5b6159b28d828e01615756565b909b5099506159c5905060208c01615863565b97506159d360408c016156ac565b965060608b01356159e381615656565b955060808b0135945060a08b013593506159ff60c08c016156ac565b925060e08b013591506101008b013590509295989b9194979a5092959850565b5f805f60608486031215615a31575f80fd5b833592506020840135615a4381615656565b9150604084013561592c81615656565b5f805f805f805f60e0888a031215615a69575f80fd5b8735615a7481615656565b96506020880135615a8481615656565b95506040880135945060608801359350615aa060808901615863565b925060a0880135915060c0880135905092959891949750929550565b5f8060408385031215615acd575f80fd5b8235615ad881615656565b915060208301356158af81615656565b634e487b7160e01b5f52601260045260245ffd5b634e487b7160e01b5f52601160045260245ffd5b80820180821115610ebf57610ebf615afc565b600181811c90821680615b3757607f821691505b602082108103615b5557634e487b7160e01b5f52602260045260245ffd5b50919050565b81810381811115610ebf57610ebf615afc565b8082028115828204841417610ebf57610ebf615afc565b5f600160ff1b8201615b9957615b99615afc565b505f0390565b8181035f831280158383131683831282161715613e1257613e12615afc565b67032bc30b1ba363c960c51b8152818360088301375f9101600801908152919050565b634e487b7160e01b5f52604160045260245ffd5b601f8211156119f657805f5260205f20601f840160051c81016020851015615c1a5750805b601f840160051c820191505b81811015613d94575f8155600101615c26565b815167ffffffffffffffff811115615c5357615c53615be1565b615c6781615c618454615b23565b84615bf5565b602080601f831160018114615c9a575f8415615c835750858301515b5f19600386901b1c1916600185901b178555612844565b5f85815260208120601f198616915b82811015615cc857888601518255948401946001909101908401615ca9565b5085821015615ce557878501515f19600388901b60f8161c191681555b5050505050600190811b01905550565b6265786160e81b8152818360038301375f9101600301908152919050565b6001600160801b03828116828216039080821115613e1257613e12615afc565b5f60208284031215615d43575f80fd5b5051919050565b6001600160a01b039384168152919092166020820152604081019190915260600190565b5f8060408385031215615d7f575f80fd5b505080516020909101519092909150565b5f82615d9e57615d9e615ae8565b500690565b634e487b7160e01b5f52602160045260245ffd5b5f82615dc557615dc5615ae8565b500490565b5f808354615dd781615b23565b60018281168015615def5760018114615e0457615e30565b60ff1984168752821515830287019450615e30565b875f526020805f205f5b85811015615e275781548a820152908401908201615e0e565b50505082870194505b50929695505050505050565b5f81518060208401855e5f93019283525090919050565b7f416363657373436f6e74726f6c3a206163636f756e742000000000000000000081525f615e846017830185615e3c565b7001034b99036b4b9b9b4b733903937b6329607d1b815261190d6011820185615e3c565b634e487b7160e01b5f52603260045260245ffd5b5f81615eca57615eca615afc565b505f19019056feddf252ad1be2c89b69c2b068fc378daa952ba7f163c4a11628f55a4df523b3efa264697066735822122013c74424a4be3f92c7511551afae0f50c868cda921c75c980165790ce820fd5964736f6c63430008190033","linkReferences":{}},"methodIdentifiers":{"DEFAULT_ADMIN_ROLE()":"a217fddf","DOMAIN_SEPARATOR()":"3644e515","EMERGENCY_ADMIN_ROLE()":"6e76fc8f","PAUSER_ROLE()":"e63ab1e9","accountSnapshot(address)":"014a296f","accounts(address)":"5e5c06e2","allowance(address,address)":"dd62ed3e","approve(address,uint256)":"095ea7b3","asset()":"38d52e0f","auditor()":"3ec045a6","backupFeeRate()":"a1e8f02b","balanceOf(address)":"70a08231","borrow(uint256,address,address)":"d5164184","borrowAtMaturity(uint256,uint256,uint256,address,address)":"1a5b9e62","clearBadDebt(address)":"926bb633","convertToAssets(uint256)":"07a2d13a","convertToShares(uint256)":"c6e6f592","dampSpeedDown()":"3aa18d6f","dampSpeedUp()":"0539fa8c","decimals()":"313ce567","deposit(uint256,address)":"6e553f65","depositAtMaturity(uint256,uint256,uint256,address)":"34f7d1f2","earningsAccumulator()":"8a1baa46","earningsAccumulatorSmoothFactor()":"fea45d94","fixedBorrowPositions(uint256,address)":"d2681a0b","fixedDepositPositions(uint256,address)":"ccfd8b11","fixedPoolBalance(uint256)":"0ab69be8","fixedPoolBorrowed(uint256)":"25fc07a9","fixedPools(uint256)":"4e7c5059","floatingAssets()":"2e0af008","floatingAssetsAverage()":"e94b3c21","floatingBackupBorrowed()":"8c3cba5a","floatingDebt()":"1a90f186","getRoleAdmin(bytes32)":"248a9ca3","grantRole(bytes32,address)":"2f2ff15d","hasRole(bytes32,address)":"91d14854","initialize(string,uint8,uint128,address,uint256,uint256,uint128,uint256,uint256)":"97bce8d0","interestRateModel()":"f3fdb15a","isFrozen()":"33eeb147","lastAccumulatorAccrual()":"a16a8850","lastAverageUpdate()":"fb0fc4c3","lastFloatingDebtUpdate()":"6eb9ffeb","liquidate(address,uint256,address)":"4914c008","maxDeposit(address)":"402d267d","maxFuturePools()":"0e52dbec","maxMint(address)":"c63d75b6","maxRedeem(address)":"d905777e","maxWithdraw(address)":"ce96cb77","mint(uint256,address)":"94bf804d","name()":"06fdde03","nonces(address)":"7ecebe00","pause()":"8456cb59","paused()":"5c975abb","penaltyRate()":"d6b7494f","permit(address,address,uint256,uint256,uint8,bytes32,bytes32)":"d505accf","previewBorrow(uint256)":"78007e23","previewDebt(address)":"1d43b30b","previewDeposit(uint256)":"ef8b30f7","previewFloatingAssetsAverage()":"0f2b75aa","previewMint(uint256)":"b3d7f6b9","previewRedeem(uint256)":"4cdad506","previewRefund(uint256)":"47dffde0","previewRepay(uint256)":"bf722ca2","previewWithdraw(uint256)":"0a28a477","redeem(uint256,address,address)":"ba087652","refund(uint256,address)":"7ad226dc","renounceRole(bytes32,address)":"36568abe","repay(uint256,address)":"acb70815","repayAtMaturity(uint256,uint256,uint256,address)":"3c6f317f","reserveFactor()":"4322b714","revokeRole(bytes32,address)":"d547741f","rewardsController()":"6bb65f53","seize(address,address,uint256)":"b2a02ff1","setAssetSymbol(string)":"13700101","setBackupFeeRate(uint256)":"42da42bf","setDampSpeed(uint256,uint256)":"5cc2ef83","setEarningsAccumulatorSmoothFactor(uint128)":"022d8af5","setFrozen(bool)":"7e932d32","setInterestRateModel(address)":"8bcd4016","setMaxFuturePools(uint8)":"28acf2cf","setPenaltyRate(uint256)":"a1bab447","setReserveFactor(uint128)":"e00b2625","setRewardsController(address)":"bee36bb3","setTreasury(address,uint256)":"2c5dcc77","supportsInterface(bytes4)":"01ffc9a7","symbol()":"95d89b41","totalAssets()":"01e1d114","totalFloatingBorrowAssets()":"eee8c9e0","totalFloatingBorrowShares()":"8d0e5f02","totalSupply()":"18160ddd","transfer(address,uint256)":"a9059cbb","transferFrom(address,address,uint256)":"23b872dd","treasury()":"61d027b3","treasuryFeeRate()":"66601032","unpause()":"3f4ba83a","withdraw(uint256,address,address)":"b460af94","withdrawAtMaturity(uint256,uint256,uint256,address,address)":"a05a091a"},"id":2}