{"abi":[{"type":"constructor","inputs":[{"name":"mainPriceFeed_","type":"address","internalType":"contract IPriceFeed"},{"name":"wrapper_","type":"address","internalType":"address"},{"name":"conversionSelector_","type":"bytes4","internalType":"bytes4"},{"name":"baseUnit_","type":"uint256","internalType":"uint256"}],"stateMutability":"nonpayable"},{"type":"function","name":"baseUnit","inputs":[],"outputs":[{"name":"","type":"uint256","internalType":"uint256"}],"stateMutability":"view"},{"type":"function","name":"conversionSelector","inputs":[],"outputs":[{"name":"","type":"bytes4","internalType":"bytes4"}],"stateMutability":"view"},{"type":"function","name":"decimals","inputs":[],"outputs":[{"name":"","type":"uint8","internalType":"uint8"}],"stateMutability":"view"},{"type":"function","name":"latestAnswer","inputs":[],"outputs":[{"name":"","type":"int256","internalType":"int256"}],"stateMutability":"view"},{"type":"function","name":"mainPriceFeed","inputs":[],"outputs":[{"name":"","type":"address","internalType":"contract IPriceFeed"}],"stateMutability":"view"},{"type":"function","name":"wrapper","inputs":[],"outputs":[{"name":"","type":"address","internalType":"address"}],"stateMutability":"view"}],"bytecode":{"object":"0x610120604052348015610010575f80fd5b5060405161058f38038061058f83398101604081905261002f916100dd565b6001600160a01b03841660808190526040805163313ce56760e01b8152905163313ce567916004808201926020929091908290030181865afa158015610077573d5f803e3d5ffd5b505050506040513d601f19601f8201168201806040525081019061009b9190610139565b60ff1660a0526001600160a01b0390921660c0526001600160e01b03191660e0526101005250610160565b6001600160a01b03811681146100da575f80fd5b50565b5f805f80608085870312156100f0575f80fd5b84516100fb816100c6565b602086015190945061010c816100c6565b60408601519093506001600160e01b031981168114610129575f80fd5b6060959095015193969295505050565b5f60208284031215610149575f80fd5b815160ff81168114610159575f80fd5b9392505050565b60805160a05160c05160e051610100516103d26101bd5f395f818161016301528181610257015261032501525f8181610123015261023601525f818160fc015261020c01525f606901525f818160bd015261018901526103d25ff3fe608060405234801561000f575f80fd5b5060043610610060575f3560e01c8063313ce5671461006457806350d25bcd146100a2578063a066c607146100b8578063ac210cc7146100f7578063b082ff351461011e578063c2930f911461015e575b5f80fd5b61008b7f000000000000000000000000000000000000000000000000000000000000000081565b60405160ff90911681526020015b60405180910390f35b6100aa610185565b604051908152602001610099565b6100df7f000000000000000000000000000000000000000000000000000000000000000081565b6040516001600160a01b039091168152602001610099565b6100df7f000000000000000000000000000000000000000000000000000000000000000081565b6101457f000000000000000000000000000000000000000000000000000000000000000081565b6040516001600160e01b03199091168152602001610099565b6100aa7f000000000000000000000000000000000000000000000000000000000000000081565b5f807f00000000000000000000000000000000000000000000000000000000000000006001600160a01b03166350d25bcd6040518163ffffffff1660e01b8152600401602060405180830381865afa1580156101e3573d5f803e3d5ffd5b505050506040513d601f19601f82011682018060405250810190610207919061036f565b90505f7f00000000000000000000000000000000000000000000000000000000000000006001600160a01b03167f00000000000000000000000000000000000000000000000000000000000000007f000000000000000000000000000000000000000000000000000000000000000060405160240161028891815260200190565b60408051601f198184030181529181526020820180516001600160e01b03166001600160e01b03199094169390931790925290516102c69190610386565b5f60405180830381855afa9150503d805f81146102fe576040519150601f19603f3d011682016040523d82523d5f602084013e610303565b606091505b509150505f8180602001905181019061031c919061036f565b905061034983827f0000000000000000000000000000000000000000000000000000000000000000610351565b935050505090565b828202811515841585830485141716610368575f80fd5b0492915050565b5f6020828403121561037f575f80fd5b5051919050565b5f82518060208501845e5f92019182525091905056fea26469706673582212200d839bf5a0c06802caca6c6dedf17c1184602be3acc7b275b46fafb5773f5d6864736f6c63430008190033","linkReferences":{}},"methodIdentifiers":{"baseUnit()":"c2930f91","conversionSelector()":"b082ff35","decimals()":"313ce567","latestAnswer()":"50d25bcd","mainPriceFeed()":"a066c607","wrapper()":"ac210cc7"},"id":5}