{"abi":[{"type":"constructor","inputs":[{"name":"market_","type":"address","internalType":"contract Market"}],"stateMutability":"nonpayable"},{"type":"receive","stateMutability":"payable"},{"type":"function","name":"borrow","inputs":[{"name":"assets","type":"uint256","internalType":"uint256"}],"outputs":[{"name":"borrowShares","type":"uint256","internalType":"uint256"}],"stateMutability":"nonpayable"},{"type":"function","name":"borrowAtMaturity","inputs":[{"name":"maturity","type":"uint256","internalType":"uint256"},{"name":"assets","type":"uint256","internalType":"uint256"},{"name":"maxAssetsAllowed","type":"uint256","internalType":"uint256"}],"outputs":[{"name":"assetsOwed","type":"uint256","internalType":"uint256"}],"stateMutability":"nonpayable"},{"type":"function","name":"deposit","inputs":[],"outputs":[{"name":"shares","type":"uint256","internalType":"uint256"}],"stateMutability":"payable"},{"type":"function","name":"depositAtMaturity","inputs":[{"name":"maturity","type":"uint256","internalType":"uint256"},{"name":"minAssetsRequired","type":"uint256","internalType":"uint256"}],"outputs":[{"name":"maturityAssets","type":"uint256","internalType":"uint256"}],"stateMutability":"payable"},{"type":"function","name":"initialize","inputs":[],"outputs":[],"stateMutability":"nonpayable"},{"type":"function","name":"market","inputs":[],"outputs":[{"name":"","type":"address","internalType":"contract Market"}],"stateMutability":"view"},{"type":"function","name":"redeem","inputs":[{"name":"shares","type":"uint256","internalType":"uint256"}],"outputs":[{"name":"assets","type":"uint256","internalType":"uint256"}],"stateMutability":"nonpayable"},{"type":"function","name":"refund","inputs":[{"name":"borrowShares","type":"uint256","internalType":"uint256"}],"outputs":[{"name":"repaidAssets","type":"uint256","internalType":"uint256"},{"name":"actualShares","type":"uint256","internalType":"uint256"}],"stateMutability":"payable"},{"type":"function","name":"repay","inputs":[{"name":"assets","type":"uint256","internalType":"uint256"}],"outputs":[{"name":"repaidAssets","type":"uint256","internalType":"uint256"},{"name":"borrowShares","type":"uint256","internalType":"uint256"}],"stateMutability":"payable"},{"type":"function","name":"repayAtMaturity","inputs":[{"name":"maturity","type":"uint256","internalType":"uint256"},{"name":"assets","type":"uint256","internalType":"uint256"}],"outputs":[{"name":"repaidAssets","type":"uint256","internalType":"uint256"}],"stateMutability":"payable"},{"type":"function","name":"weth","inputs":[],"outputs":[{"name":"","type":"address","internalType":"contract WETH"}],"stateMutability":"view"},{"type":"function","name":"withdraw","inputs":[{"name":"assets","type":"uint256","internalType":"uint256"}],"outputs":[{"name":"shares","type":"uint256","internalType":"uint256"}],"stateMutability":"nonpayable"},{"type":"function","name":"withdrawAtMaturity","inputs":[{"name":"maturity","type":"uint256","internalType":"uint256"},{"name":"assets","type":"uint256","internalType":"uint256"},{"name":"minAssetsRequired","type":"uint256","internalType":"uint256"}],"outputs":[{"name":"actualAssets","type":"uint256","internalType":"uint256"}],"stateMutability":"nonpayable"},{"type":"event","name":"Initialized","inputs":[{"name":"version","type":"uint8","indexed":false,"internalType":"uint8"}],"anonymous":false},{"type":"error","name":"NotFromWETH","inputs":[]}],"bytecode":{"object":"0x60c060405234801561000f575f80fd5b50604051610fc8380380610fc883398101604081905261002e9161012f565b6001600160a01b0381166080819052604080516338d52e0f60e01b815290516338d52e0f916004808201926020929091908290030181865afa158015610076573d5f803e3d5ffd5b505050506040513d601f19601f8201168201806040525081019061009a919061012f565b6001600160a01b031660a0526100ae6100b4565b50610151565b5f54610100900460ff16156100c7575f80fd5b5f5460ff90811614610116575f805460ff191660ff9081179091556040519081527f7f26b83ff96e1f2b6a682f133852f6798a09c465da95921460cefb38474024989060200160405180910390a15b565b6001600160a01b038116811461012c575f80fd5b50565b5f6020828403121561013f575f80fd5b815161014a81610118565b9392505050565b60805160a051610dd26101f65f395f818160d2015281816101a7015281816102c301528181610491015281816105a8015281816106d70152818161087d015281816109a10152610c1701525f81816101f20152818161034a01528181610412015281816105250152818161062f015281816106f9015281816107990152818161084b0152818161091101528181610a2701528181610ac60152610b840152610dd25ff3fe6080604052600436106100c2575f3560e01c80638129fc1c1161007c578063c7dca12f11610057578063c7dca12f14610266578063d0e30db014610279578063db006a7514610281578063f7a283d5146102a0575f80fd5b80638129fc1c14610214578063990595f514610228578063c5ebeaec14610247575f80fd5b8063278ecde1146101165780632e1a7d4d1461014357806335958d4a14610170578063371fd8e6146101835780633fc8cef31461019657806380f55605146101e1575f80fd5b3661011257336001600160a01b037f00000000000000000000000000000000000000000000000000000000000000001614610110576040516361e790f960e01b815260040160405180910390fd5b005b5f80fd5b610129610124366004610ce4565b6102bf565b604080519283526020830191909152015b60405180910390f35b34801561014e575f80fd5b5061016261015d366004610ce4565b6103e4565b60405190815260200161013a565b61016261017e366004610cfb565b61048e565b610129610191366004610ce4565b6105a4565b3480156101a1575f80fd5b506101c97f000000000000000000000000000000000000000000000000000000000000000081565b6040516001600160a01b03909116815260200161013a565b3480156101ec575f80fd5b506101c97f000000000000000000000000000000000000000000000000000000000000000081565b34801561021f575f80fd5b5061011061066a565b348015610233575f80fd5b50610162610242366004610d1b565b610767565b348015610252575f80fd5b50610162610261366004610ce4565b61081d565b610162610274366004610cfb565b61087a565b61016261099e565b34801561028c575f80fd5b5061016261029b366004610ce4565b610aa2565b3480156102ab575f80fd5b506101626102ba366004610d1b565b610b48565b5f807f00000000000000000000000000000000000000000000000000000000000000006001600160a01b031663d0e30db0346040518263ffffffff1660e01b81526004015f604051808303818588803b15801561031a575f80fd5b505af115801561032c573d5f803e3d5ffd5b5050604051631eb489b760e21b8152600481018790523360248201527f00000000000000000000000000000000000000000000000000000000000000006001600160a01b03169350637ad226dc925060440190505b60408051808303815f875af115801561039c573d5f803e3d5ffd5b505050506040513d601f19601f820116820180604052508101906103c09190610d44565b9092509050348210156103df576103df6103da8334610d66565b610c01565b915091565b604051632d182be560e21b8152600481018290523060248201523360448201525f9082906001600160a01b037f0000000000000000000000000000000000000000000000000000000000000000169063b460af94906064015b6020604051808303815f875af1158015610459573d5f803e3d5ffd5b505050506040513d601f19601f8201168201806040525081019061047d9190610d85565b915061048881610c01565b50919050565b5f7f00000000000000000000000000000000000000000000000000000000000000006001600160a01b031663d0e30db0346040518263ffffffff1660e01b81526004015f604051808303818588803b1580156104e8575f80fd5b505af11580156104fa573d5f803e3d5ffd5b5050604051631a7be8f960e11b815260048101879052346024820152604481018690523360648201527f00000000000000000000000000000000000000000000000000000000000000006001600160a01b031693506334f7d1f2925060840190506020604051808303815f875af1158015610577573d5f803e3d5ffd5b505050506040513d601f19601f8201168201806040525081019061059b9190610d85565b90505b92915050565b5f807f00000000000000000000000000000000000000000000000000000000000000006001600160a01b031663d0e30db0346040518263ffffffff1660e01b81526004015f604051808303818588803b1580156105ff575f80fd5b505af1158015610611573d5f803e3d5ffd5b505060405163acb7081560e01b8152600481018790523360248201527f00000000000000000000000000000000000000000000000000000000000000006001600160a01b0316935063acb7081592506044019050610381565b5f54610100900460ff161580801561068857505f54600160ff909116105b806106a15750303b1580156106a157505f5460ff166001145b6106a9575f80fd5b5f805460ff1916600117905580156106ca575f805461ff0019166101001790555b61071f6001600160a01b037f0000000000000000000000000000000000000000000000000000000000000000167f00000000000000000000000000000000000000000000000000000000000000005f19610c83565b8015610764575f805461ff0019169055604051600181527f7f26b83ff96e1f2b6a682f133852f6798a09c465da95921460cefb38474024989060200160405180910390a15b50565b60405163502d048d60e11b81526004810184905260248101839052604481018290523060648201523360848201525f907f00000000000000000000000000000000000000000000000000000000000000006001600160a01b03169063a05a091a9060a4016020604051808303815f875af11580156107e7573d5f803e3d5ffd5b505050506040513d601f19601f8201168201806040525081019061080b9190610d85565b905061081681610c01565b9392505050565b604051633545906160e21b8152600481018290523060248201523360448201525f9082906001600160a01b037f0000000000000000000000000000000000000000000000000000000000000000169063d51641849060640161043d565b5f7f00000000000000000000000000000000000000000000000000000000000000006001600160a01b031663d0e30db0346040518263ffffffff1660e01b81526004015f604051808303818588803b1580156108d4575f80fd5b505af11580156108e6573d5f803e3d5ffd5b5050604051633c6f317f60e01b815260048101879052602481018690523460448201523360648201527f00000000000000000000000000000000000000000000000000000000000000006001600160a01b03169350633c6f317f925060840190506020604051808303815f875af1158015610963573d5f803e3d5ffd5b505050506040513d601f19601f820116820180604052508101906109879190610d85565b90508034111561059e5761059e6103da8234610d66565b5f7f00000000000000000000000000000000000000000000000000000000000000006001600160a01b031663d0e30db0346040518263ffffffff1660e01b81526004015f604051808303818588803b1580156109f8575f80fd5b505af1158015610a0a573d5f803e3d5ffd5b5050604051636e553f6560e01b81523460048201523360248201527f00000000000000000000000000000000000000000000000000000000000000006001600160a01b03169350636e553f65925060440190506020604051808303815f875af1158015610a79573d5f803e3d5ffd5b505050506040513d601f19601f82011682018060405250810190610a9d9190610d85565b905090565b604051635d043b2960e11b8152600481018290523060248201523360448201525f907f00000000000000000000000000000000000000000000000000000000000000006001600160a01b03169063ba087652906064016020604051808303815f875af1158015610b14573d5f803e3d5ffd5b505050506040513d601f19601f82011682018060405250810190610b389190610d85565b9050610b4381610c01565b919050565b604051630d2dcf3160e11b81526004810184905260248101839052604481018290523060648201523360848201525f9083906001600160a01b037f00000000000000000000000000000000000000000000000000000000000000001690631a5b9e629060a4016020604051808303815f875af1158015610bca573d5f803e3d5ffd5b505050506040513d601f19601f82011682018060405250810190610bee9190610d85565b9150610bf981610c01565b509392505050565b604051632e1a7d4d60e01b8152600481018290527f00000000000000000000000000000000000000000000000000000000000000006001600160a01b031690632e1a7d4d906024015f604051808303815f87803b158015610c60575f80fd5b505af1158015610c72573d5f803e3d5ffd5b506107649250339150839050610ccb565b5f60405163095ea7b360e01b5f52836004528260245260205f60445f80895af13d15601f3d1160015f511416171691505f606052806040525080610cc5575f80fd5b50505050565b5f805f805f85875af1905080610cdf575f80fd5b505050565b5f60208284031215610cf4575f80fd5b5035919050565b5f8060408385031215610d0c575f80fd5b50508035926020909101359150565b5f805f60608486031215610d2d575f80fd5b505081359360208301359350604090920135919050565b5f8060408385031215610d55575f80fd5b505080516020909101519092909150565b8181038181111561059e57634e487b7160e01b5f52601160045260245ffd5b5f60208284031215610d95575f80fd5b505191905056fea264697066735822122090960d926519a239be490ffcb6e21d1ea89fc7bcf8352289634d7d65941cd48a64736f6c63430008190033","linkReferences":{}},"methodIdentifiers":{"borrow(uint256)":"c5ebeaec","borrowAtMaturity(uint256,uint256,uint256)":"f7a283d5","deposit()":"d0e30db0","depositAtMaturity(uint256,uint256)":"35958d4a","initialize()":"8129fc1c","market()":"80f55605","redeem(uint256)":"db006a75","refund(uint256)":"278ecde1","repay(uint256)":"371fd8e6","repayAtMaturity(uint256,uint256)":"c7dca12f","weth()":"3fc8cef3","withdraw(uint256)":"2e1a7d4d","withdrawAtMaturity(uint256,uint256,uint256)":"990595f5"},"id":3}