{"abi":[{"type":"constructor","inputs":[{"name":"auditor_","type":"address","internalType":"contract Auditor"},{"name":"marketWETH_","type":"address","internalType":"contract Market"}],"stateMutability":"nonpayable"},{"type":"receive","stateMutability":"payable"},{"type":"function","name":"auditor","inputs":[],"outputs":[{"name":"","type":"address","internalType":"contract Auditor"}],"stateMutability":"view"},{"type":"function","name":"borrow","inputs":[{"name":"market","type":"address","internalType":"contract Market"},{"name":"firstMaturity","type":"uint256","internalType":"uint256"},{"name":"amounts","type":"uint256[]","internalType":"uint256[]"},{"name":"maxRepay","type":"uint256","internalType":"uint256"}],"outputs":[{"name":"assetsOwed","type":"uint256[]","internalType":"uint256[]"}],"stateMutability":"nonpayable"},{"type":"function","name":"borrow","inputs":[{"name":"market","type":"address","internalType":"contract Market"},{"name":"firstMaturity","type":"uint256","internalType":"uint256"},{"name":"amounts","type":"uint256[]","internalType":"uint256[]"},{"name":"maxRepay","type":"uint256","internalType":"uint256"},{"name":"marketPermit","type":"tuple","internalType":"struct Permit","components":[{"name":"value","type":"uint256","internalType":"uint256"},{"name":"deadline","type":"uint256","internalType":"uint256"},{"name":"v","type":"uint8","internalType":"uint8"},{"name":"r","type":"bytes32","internalType":"bytes32"},{"name":"s","type":"bytes32","internalType":"bytes32"}]}],"outputs":[{"name":"assetsOwed","type":"uint256[]","internalType":"uint256[]"}],"stateMutability":"nonpayable"},{"type":"function","name":"borrowETH","inputs":[{"name":"maturity","type":"uint256","internalType":"uint256"},{"name":"amounts","type":"uint256[]","internalType":"uint256[]"},{"name":"maxRepay","type":"uint256","internalType":"uint256"}],"outputs":[{"name":"assetsOwed","type":"uint256[]","internalType":"uint256[]"}],"stateMutability":"nonpayable"},{"type":"function","name":"borrowETH","inputs":[{"name":"maturity","type":"uint256","internalType":"uint256"},{"name":"amounts","type":"uint256[]","internalType":"uint256[]"},{"name":"maxRepay","type":"uint256","internalType":"uint256"},{"name":"marketPermit","type":"tuple","internalType":"struct Permit","components":[{"name":"value","type":"uint256","internalType":"uint256"},{"name":"deadline","type":"uint256","internalType":"uint256"},{"name":"v","type":"uint8","internalType":"uint8"},{"name":"r","type":"bytes32","internalType":"bytes32"},{"name":"s","type":"bytes32","internalType":"bytes32"}]}],"outputs":[{"name":"assetsOwed","type":"uint256[]","internalType":"uint256[]"}],"stateMutability":"nonpayable"},{"type":"function","name":"marketWETH","inputs":[],"outputs":[{"name":"","type":"address","internalType":"contract Market"}],"stateMutability":"view"},{"type":"function","name":"weth","inputs":[],"outputs":[{"name":"","type":"address","internalType":"contract WETH"}],"stateMutability":"view"},{"type":"error","name":"Disagreement","inputs":[]},{"type":"error","name":"MarketNotListed","inputs":[]},{"type":"error","name":"NotFromWETH","inputs":[]}],"bytecode":{"object":"0x60e060405234801561000f575f80fd5b50604051610d11380380610d1183398101604081905261002e916100d8565b6001600160a01b03808316608052811660a081905261004d575f6100ad565b806001600160a01b03166338d52e0f6040518163ffffffff1660e01b8152600401602060405180830381865afa158015610089573d5f803e3d5ffd5b505050506040513d601f19601f820116820180604052508101906100ad9190610110565b6001600160a01b031660c052506101329050565b6001600160a01b03811681146100d5575f80fd5b50565b5f80604083850312156100e9575f80fd5b82516100f4816100c1565b6020840151909250610105816100c1565b809150509250929050565b5f60208284031215610120575f80fd5b815161012b816100c1565b9392505050565b60805160a05160c051610b8661018b5f395f81816081015281816101590152818161033b01526104d001525f818160d6015281816102c0015281816103b4015261045501525f8181610126015261070c0152610b865ff3fe608060405260043610610071575f3560e01c8063541de5ce1161004c578063541de5ce1461017b57806373cd27c6146101a757806390143050146101c6578063fcab4e7a146101e5575f80fd5b806307d6b410146100c55780633ec045a6146101155780633fc8cef314610148575f80fd5b366100c157336001600160a01b037f000000000000000000000000000000000000000000000000000000000000000016146100bf576040516361e790f960e01b815260040160405180910390fd5b005b5f80fd5b3480156100d0575f80fd5b506100f87f000000000000000000000000000000000000000000000000000000000000000081565b6040516001600160a01b0390911681526020015b60405180910390f35b348015610120575f80fd5b506100f87f000000000000000000000000000000000000000000000000000000000000000081565b348015610153575f80fd5b506100f87f000000000000000000000000000000000000000000000000000000000000000081565b348015610186575f80fd5b5061019a6101953660046107fe565b610204565b60405161010c919061085d565b3480156101b2575f80fd5b5061019a6101c13660046108b6565b61021e565b3480156101d1575f80fd5b5061019a6101e036600461092b565b6102b9565b3480156101f0575f80fd5b5061019a6101ff36600461097a565b6103b0565b6060610214868686868633610548565b9695505050505050565b606086826001600160a01b03821663d505accf333084356020860135610249878a01604089016109ec565b876060013588608001356040518863ffffffff1660e01b81526004016102759796959493929190610a0e565b5f604051808303815f87803b15801561028c575f80fd5b505af192505050801561029d575060015b506102ac898989898933610548565b9998505050505050505050565b60606102e97f00000000000000000000000000000000000000000000000000000000000000008686868630610548565b90505f805b848110156103245785858281811061030857610308610a4f565b905060200201358261031a9190610a63565b91506001016102ee565b50604051632e1a7d4d60e01b8152600481018290527f00000000000000000000000000000000000000000000000000000000000000006001600160a01b031690632e1a7d4d906024015f604051808303815f87803b158015610384575f80fd5b505af1158015610396573d5f803e3d5ffd5b506103a792503391508390506106d2565b50949350505050565b60607f0000000000000000000000000000000000000000000000000000000000000000826001600160a01b03821663d505accf3330843560208601356103fb878a01604089016109ec565b876060013588608001356040518863ffffffff1660e01b81526004016104279796959493929190610a0e565b5f604051808303815f87803b15801561043e575f80fd5b505af192505050801561044f575060015b5061047e7f00000000000000000000000000000000000000000000000000000000000000008989898930610548565b92505f805b878110156104b95788888281811061049d5761049d610a4f565b90506020020135826104af9190610a63565b9150600101610483565b50604051632e1a7d4d60e01b8152600481018290527f00000000000000000000000000000000000000000000000000000000000000006001600160a01b031690632e1a7d4d906024015f604051808303815f87803b158015610519575f80fd5b505af115801561052b573d5f803e3d5ffd5b5061053c92503391508390506106d2565b50505095945050505050565b60606001841161055a5761055a610a88565b610563876106eb565b8367ffffffffffffffff81111561057c5761057c610a9c565b6040519080825280602002602001820160405280156105a5578160200160208202803683370190505b5090505f86815b868110156106c5575f8a6001600160a01b0316631a5b9e62848b8b868181106105d7576105d7610a4f565b6040516001600160e01b031960e087901b168152600481019490945260200291909101356024830152505f1960448201526001600160a01b038916606482015233608482015260a4016020604051808303815f875af115801561063c573d5f803e3d5ffd5b505050506040513d601f19601f820116820180604052508101906106609190610ab0565b905061066f6224ea0084610a63565b92508085838151811061068457610684610a4f565b60209081029190910101526106998185610a63565b9350868411156106bc57604051632c1b6b4160e21b815260040160405180910390fd5b506001016105ac565b5050509695505050505050565b5f805f805f85875af19050806106e6575f80fd5b505050565b604051638e8f294b60e01b81526001600160a01b0382811660048301525f917f000000000000000000000000000000000000000000000000000000000000000090911690638e8f294b9060240160a060405180830381865afa158015610753573d5f803e3d5ffd5b505050506040513d601f19601f820116820180604052508101906107779190610ac7565b5093505050508061079b576040516334b04fe360e11b815260040160405180910390fd5b5050565b6001600160a01b03811681146107b3575f80fd5b50565b5f8083601f8401126107c6575f80fd5b50813567ffffffffffffffff8111156107dd575f80fd5b6020830191508360208260051b85010111156107f7575f80fd5b9250929050565b5f805f805f60808688031215610812575f80fd5b853561081d8161079f565b945060208601359350604086013567ffffffffffffffff81111561083f575f80fd5b61084b888289016107b6565b96999598509660600135949350505050565b602080825282518282018190525f9190848201906040850190845b8181101561089457835183529284019291840191600101610878565b50909695505050505050565b5f60a082840312156108b0575f80fd5b50919050565b5f805f805f8061012087890312156108cc575f80fd5b86356108d78161079f565b955060208701359450604087013567ffffffffffffffff8111156108f9575f80fd5b61090589828a016107b6565b9095509350506060870135915061091f88608089016108a0565b90509295509295509295565b5f805f806060858703121561093e575f80fd5b84359350602085013567ffffffffffffffff81111561095b575f80fd5b610967878288016107b6565b9598909750949560400135949350505050565b5f805f805f610100868803121561098f575f80fd5b85359450602086013567ffffffffffffffff8111156109ac575f80fd5b6109b8888289016107b6565b909550935050604086013591506109d287606088016108a0565b90509295509295909350565b60ff811681146107b3575f80fd5b5f602082840312156109fc575f80fd5b8135610a07816109de565b9392505050565b6001600160a01b0397881681529590961660208601526040850193909352606084019190915260ff16608083015260a082015260c081019190915260e00190565b634e487b7160e01b5f52603260045260245ffd5b80820180821115610a8257634e487b7160e01b5f52601160045260245ffd5b92915050565b634e487b7160e01b5f52600160045260245ffd5b634e487b7160e01b5f52604160045260245ffd5b5f60208284031215610ac0575f80fd5b5051919050565b5f805f805f60a08688031215610adb575f80fd5b85516fffffffffffffffffffffffffffffffff81168114610afa575f80fd5b6020870151909550610b0b816109de565b6040870151909450610b1c816109de565b60608701519093508015158114610b31575f80fd5b6080870151909250610b428161079f565b80915050929550929590935056fea2646970667358221220281c1810aa373442c30e219d8afa50cb93087809ff432e7895dd707bbc15275364736f6c63430008190033","linkReferences":{}},"methodIdentifiers":{"auditor()":"3ec045a6","borrow(address,uint256,uint256[],uint256)":"541de5ce","borrow(address,uint256,uint256[],uint256,(uint256,uint256,uint8,bytes32,bytes32))":"73cd27c6","borrowETH(uint256,uint256[],uint256)":"90143050","borrowETH(uint256,uint256[],uint256,(uint256,uint256,uint8,bytes32,bytes32))":"fcab4e7a","marketWETH()":"07d6b410","weth()":"3fc8cef3"},"id":17}