{"abi":[{"type":"constructor","inputs":[{"name":"auditor_","type":"address","internalType":"contract Auditor"},{"name":"basePriceFeed_","type":"address","internalType":"contract IPriceFeed"}],"stateMutability":"nonpayable"},{"type":"function","name":"auditor","inputs":[],"outputs":[{"name":"","type":"address","internalType":"contract Auditor"}],"stateMutability":"view"},{"type":"function","name":"basePriceFeed","inputs":[],"outputs":[{"name":"","type":"address","internalType":"contract IPriceFeed"}],"stateMutability":"view"},{"type":"function","name":"exactly","inputs":[{"name":"account","type":"address","internalType":"address"}],"outputs":[{"name":"data","type":"tuple[]","internalType":"struct Previewer.MarketAccount[]","components":[{"name":"market","type":"address","internalType":"contract Market"},{"name":"symbol","type":"string","internalType":"string"},{"name":"decimals","type":"uint8","internalType":"uint8"},{"name":"asset","type":"address","internalType":"address"},{"name":"assetName","type":"string","internalType":"string"},{"name":"assetSymbol","type":"string","internalType":"string"},{"name":"interestRateModel","type":"tuple","internalType":"struct Previewer.InterestRateModel","components":[{"name":"id","type":"address","internalType":"address"},{"name":"parameters","type":"tuple","internalType":"struct Parameters","components":[{"name":"minRate","type":"uint256","internalType":"uint256"},{"name":"naturalRate","type":"uint256","internalType":"uint256"},{"name":"maxUtilization","type":"uint256","internalType":"uint256"},{"name":"naturalUtilization","type":"uint256","internalType":"uint256"},{"name":"growthSpeed","type":"uint256","internalType":"uint256"},{"name":"sigmoidSpeed","type":"uint256","internalType":"uint256"},{"name":"spreadFactor","type":"uint256","internalType":"uint256"},{"name":"maturitySpeed","type":"uint256","internalType":"uint256"},{"name":"timePreference","type":"int256","internalType":"int256"},{"name":"fixedAllocation","type":"uint256","internalType":"uint256"},{"name":"maxRate","type":"uint256","internalType":"uint256"}]}]},{"name":"usdPrice","type":"uint256","internalType":"uint256"},{"name":"penaltyRate","type":"uint256","internalType":"uint256"},{"name":"adjustFactor","type":"uint256","internalType":"uint256"},{"name":"maxFuturePools","type":"uint8","internalType":"uint8"},{"name":"reserveFactor","type":"uint256","internalType":"uint256"},{"name":"fixedPools","type":"tuple[]","internalType":"struct Previewer.FixedPool[]","components":[{"name":"maturity","type":"uint256","internalType":"uint256"},{"name":"borrowed","type":"uint256","internalType":"uint256"},{"name":"supplied","type":"uint256","internalType":"uint256"},{"name":"available","type":"uint256","internalType":"uint256"},{"name":"utilization","type":"uint256","internalType":"uint256"},{"name":"depositRate","type":"uint256","internalType":"uint256"},{"name":"minBorrowRate","type":"uint256","internalType":"uint256"},{"name":"optimalDeposit","type":"uint256","internalType":"uint256"}]},{"name":"rewardRates","type":"tuple[]","internalType":"struct Previewer.RewardRate[]","components":[{"name":"asset","type":"address","internalType":"contract ERC20"},{"name":"assetName","type":"string","internalType":"string"},{"name":"assetSymbol","type":"string","internalType":"string"},{"name":"usdPrice","type":"uint256","internalType":"uint256"},{"name":"borrow","type":"uint256","internalType":"uint256"},{"name":"floatingDeposit","type":"uint256","internalType":"uint256"},{"name":"maturities","type":"uint256[]","internalType":"uint256[]"}]},{"name":"floatingBorrowRate","type":"uint256","internalType":"uint256"},{"name":"floatingUtilization","type":"uint256","internalType":"uint256"},{"name":"floatingAssets","type":"uint256","internalType":"uint256"},{"name":"floatingDebt","type":"uint256","internalType":"uint256"},{"name":"floatingBackupBorrowed","type":"uint256","internalType":"uint256"},{"name":"floatingAvailableAssets","type":"uint256","internalType":"uint256"},{"name":"totalFloatingBorrowAssets","type":"uint256","internalType":"uint256"},{"name":"totalFloatingDepositAssets","type":"uint256","internalType":"uint256"},{"name":"totalFloatingBorrowShares","type":"uint256","internalType":"uint256"},{"name":"totalFloatingDepositShares","type":"uint256","internalType":"uint256"},{"name":"isCollateral","type":"bool","internalType":"bool"},{"name":"maxBorrowAssets","type":"uint256","internalType":"uint256"},{"name":"floatingBorrowShares","type":"uint256","internalType":"uint256"},{"name":"floatingBorrowAssets","type":"uint256","internalType":"uint256"},{"name":"floatingDepositShares","type":"uint256","internalType":"uint256"},{"name":"floatingDepositAssets","type":"uint256","internalType":"uint256"},{"name":"fixedDepositPositions","type":"tuple[]","internalType":"struct Previewer.FixedPosition[]","components":[{"name":"maturity","type":"uint256","internalType":"uint256"},{"name":"previewValue","type":"uint256","internalType":"uint256"},{"name":"position","type":"tuple","internalType":"struct FixedLib.Position","components":[{"name":"principal","type":"uint256","internalType":"uint256"},{"name":"fee","type":"uint256","internalType":"uint256"}]}]},{"name":"fixedBorrowPositions","type":"tuple[]","internalType":"struct Previewer.FixedPosition[]","components":[{"name":"maturity","type":"uint256","internalType":"uint256"},{"name":"previewValue","type":"uint256","internalType":"uint256"},{"name":"position","type":"tuple","internalType":"struct FixedLib.Position","components":[{"name":"principal","type":"uint256","internalType":"uint256"},{"name":"fee","type":"uint256","internalType":"uint256"}]}]},{"name":"claimableRewards","type":"tuple[]","internalType":"struct Previewer.ClaimableReward[]","components":[{"name":"asset","type":"address","internalType":"address"},{"name":"assetName","type":"string","internalType":"string"},{"name":"assetSymbol","type":"string","internalType":"string"},{"name":"amount","type":"uint256","internalType":"uint256"}]}]}],"stateMutability":"view"},{"type":"function","name":"previewBorrowAtAllMaturities","inputs":[{"name":"market","type":"address","internalType":"contract Market"},{"name":"assets","type":"uint256","internalType":"uint256"}],"outputs":[{"name":"previews","type":"tuple[]","internalType":"struct Previewer.FixedPreview[]","components":[{"name":"maturity","type":"uint256","internalType":"uint256"},{"name":"assets","type":"uint256","internalType":"uint256"},{"name":"utilization","type":"uint256","internalType":"uint256"}]}],"stateMutability":"view"},{"type":"function","name":"previewBorrowAtMaturity","inputs":[{"name":"market","type":"address","internalType":"contract Market"},{"name":"maturity","type":"uint256","internalType":"uint256"},{"name":"assets","type":"uint256","internalType":"uint256"}],"outputs":[{"name":"","type":"tuple","internalType":"struct Previewer.FixedPreview","components":[{"name":"maturity","type":"uint256","internalType":"uint256"},{"name":"assets","type":"uint256","internalType":"uint256"},{"name":"utilization","type":"uint256","internalType":"uint256"}]}],"stateMutability":"view"},{"type":"function","name":"previewDepositAtAllMaturities","inputs":[{"name":"market","type":"address","internalType":"contract Market"},{"name":"assets","type":"uint256","internalType":"uint256"}],"outputs":[{"name":"previews","type":"tuple[]","internalType":"struct Previewer.FixedPreview[]","components":[{"name":"maturity","type":"uint256","internalType":"uint256"},{"name":"assets","type":"uint256","internalType":"uint256"},{"name":"utilization","type":"uint256","internalType":"uint256"}]}],"stateMutability":"view"},{"type":"function","name":"previewDepositAtMaturity","inputs":[{"name":"market","type":"address","internalType":"contract Market"},{"name":"maturity","type":"uint256","internalType":"uint256"},{"name":"assets","type":"uint256","internalType":"uint256"}],"outputs":[{"name":"","type":"tuple","internalType":"struct Previewer.FixedPreview","components":[{"name":"maturity","type":"uint256","internalType":"uint256"},{"name":"assets","type":"uint256","internalType":"uint256"},{"name":"utilization","type":"uint256","internalType":"uint256"}]}],"stateMutability":"view"},{"type":"function","name":"previewRepayAtMaturity","inputs":[{"name":"market","type":"address","internalType":"contract Market"},{"name":"maturity","type":"uint256","internalType":"uint256"},{"name":"positionAssets","type":"uint256","internalType":"uint256"},{"name":"borrower","type":"address","internalType":"address"}],"outputs":[{"name":"","type":"tuple","internalType":"struct Previewer.FixedPreview","components":[{"name":"maturity","type":"uint256","internalType":"uint256"},{"name":"assets","type":"uint256","internalType":"uint256"},{"name":"utilization","type":"uint256","internalType":"uint256"}]}],"stateMutability":"view"},{"type":"function","name":"previewWithdrawAtMaturity","inputs":[{"name":"market","type":"address","internalType":"contract Market"},{"name":"maturity","type":"uint256","internalType":"uint256"},{"name":"positionAssets","type":"uint256","internalType":"uint256"},{"name":"owner","type":"address","internalType":"address"}],"outputs":[{"name":"","type":"tuple","internalType":"struct Previewer.FixedPreview","components":[{"name":"maturity","type":"uint256","internalType":"uint256"},{"name":"assets","type":"uint256","internalType":"uint256"},{"name":"utilization","type":"uint256","internalType":"uint256"}]}],"stateMutability":"view"},{"type":"error","name":"AlreadyMatured","inputs":[]}],"bytecode":{"object":"0x60c060405234801561000f575f80fd5b50604051615e4e380380615e4e83398101604081905261002e9161005c565b6001600160a01b039182166080521660a052610094565b6001600160a01b0381168114610059575f80fd5b50565b5f806040838503121561006d575f80fd5b825161007881610045565b602084015190925061008981610045565b809150509250929050565b60805160a051615d386101165f395f818161018d015281816105c501528181610601015261069701525f818160f5015281816104310152818161049f0152818161055301528181610797015281816108ea01528181610d040152818161140b01528181612c1a0152818161306f015281816136d7015261393f0152615d385ff3fe608060405234801561000f575f80fd5b5060043610610090575f3560e01c80637e789958116100635780637e7899581461012f5780638eab0a2a14610142578063b15a3f6114610155578063b18ba94514610175578063e41e751214610188575f80fd5b8063109c46ce14610094578063157c9e0e146100bd578063221e81f6146100dd5780633ec045a6146100f0575b5f80fd5b6100a76100a2366004614cd1565b6101af565b6040516100b49190614d03565b60405180910390f35b6100d06100cb366004614d24565b61040a565b6040516100b49190614fc3565b6100a76100eb3660046152f1565b611634565b6101177f000000000000000000000000000000000000000000000000000000000000000081565b6040516001600160a01b0390911681526020016100b4565b6100a761013d3660046152f1565b6118c4565b6100a7610150366004614cd1565b611b99565b610168610163366004615338565b611d05565b6040516100b49190615362565b610168610183366004615338565b611e51565b6101177f000000000000000000000000000000000000000000000000000000000000000081565b6101d060405180606001604052805f81526020015f81526020015f81525090565b6101f760405180608001604052805f81526020015f81526020015f81526020015f81525090565b604051634e7c505960e01b8152600481018590526001600160a01b03861690634e7c505990602401608060405180830381865afa15801561023a573d5f803e3d5ffd5b505050506040513d601f19601f8201168201806040525081019061025e91906153c3565b60608501819052604085019190915260208401919091529082525f906102ae9087906102a99061028e904261540a565b606086015161029d908a61540a565b6040870151919061203d565b61205b565b90505f6103a6876001600160a01b031663f3fdb15a6040518163ffffffff1660e01b8152600401602060405180830381865afa1580156102f0573d5f803e3d5ffd5b505050506040513d601f19601f82011682018060405250810190610314919061541d565b8451602086015160405163df635f3d60e01b8152600481018b9052602481018a905260448101929092526064820152608481018590526001600160a01b03919091169063df635f3d9060a401602060405180830381865afa15801561037b573d5f803e3d5ffd5b505050506040513d601f19601f8201168201806040525081019061039f9190615438565b86906122d5565b9050604051806060016040528087815260200182876103c5919061544f565b81526020015f84116103d7575f6103fd565b6103fd8486602001516103ea919061544f565b86516103f7908a9061544f565b906122f0565b9052979650505050505050565b60405160016263e28d60e11b031981526001600160a01b0382811660048301526060915f917f0000000000000000000000000000000000000000000000000000000000000000169063ff383ae690602401602060405180830381865afa158015610476573d5f803e3d5ffd5b505050506040513d601f19601f8201168201806040525081019061049a9190615438565b90505f7f00000000000000000000000000000000000000000000000000000000000000006001600160a01b031663375a7cba6040518163ffffffff1660e01b81526004015f60405180830381865afa1580156104f8573d5f803e3d5ffd5b505050506040513d5f823e601f3d908101601f1916820160405261051f9190810190615524565b51604051639e9d796760e01b81526001600160a01b0386811660048301525f602483018190526044830181905292935082917f000000000000000000000000000000000000000000000000000000000000000090911690639e9d7967906064016040805180830381865afa158015610599573d5f803e3d5ffd5b505050506040513d601f19601f820116820180604052508101906105bd91906155bd565b90925090505f7f00000000000000000000000000000000000000000000000000000000000000006001600160a01b03166105ff57670de0b6b3a764000061071f565b7f00000000000000000000000000000000000000000000000000000000000000006001600160a01b031663313ce5676040518163ffffffff1660e01b8152600401602060405180830381865afa15801561065b573d5f803e3d5ffd5b505050506040513d601f19601f8201168201806040525081019061067f91906155ef565b61068a906012615608565b61069590600a615701565b7f00000000000000000000000000000000000000000000000000000000000000006001600160a01b03166350d25bcd6040518163ffffffff1660e01b8152600401602060405180830381865afa1580156106f1573d5f803e3d5ffd5b505050506040513d601f19601f820116820180604052508101906107159190615438565b61071f919061570f565b9050836001600160401b0381111561073957610739615462565b60405190808252806020026020018201604052801561077257816020015b61075f61498c565b8152602001906001900390816107575790505b5095505f5b84811015611629576040516308cae55b60e21b8152600481018290525f907f00000000000000000000000000000000000000000000000000000000000000006001600160a01b03169063232b956c90602401602060405180830381865afa1580156107e4573d5f803e3d5ffd5b505050506040513d601f19601f82011682018060405250810190610808919061541d565b905061082b60405180606001604052805f81526020015f81526020015f81525090565b6040805160a0810182525f808252602082018190528183018190526060820181905260808201529051632f2e037160e11b81526001600160a01b038c81166004830152841690635e5c06e290602401606060405180830381865afa158015610895573d5f803e3d5ffd5b505050506040513d601f19601f820116820180604052508101906108b99190615726565b604085810191909152602085019190915290835251638e8f294b60e01b81526001600160a01b0384811660048301527f00000000000000000000000000000000000000000000000000000000000000001690638e8f294b9060240160a060405180830381865afa15801561092f573d5f803e3d5ffd5b505050506040513d601f19601f820116820180604052508101906109539190615767565b6001600160a01b039081166080870152901515606086015260ff918216604080870191909152929091166020808601919091526001600160801b03909316845281516379fed8ad60e11b815291515f939187169263f3fdb15a9260048083019391928290030181865afa1580156109cc573d5f803e3d5ffd5b505050506040513d601f19601f820116820180604052508101906109f0919061541d565b9050604051806104200160405280856001600160a01b03168152602001856001600160a01b03166395d89b416040518163ffffffff1660e01b81526004015f60405180830381865afa158015610a48573d5f803e3d5ffd5b505050506040513d5f823e601f3d908101601f19168201604052610a6f91908101906157d3565b8152602001836020015160ff168152602001856001600160a01b03166338d52e0f6040518163ffffffff1660e01b8152600401602060405180830381865afa158015610abd573d5f803e3d5ffd5b505050506040513d601f19601f82011682018060405250810190610ae1919061541d565b6001600160a01b03168152602001856001600160a01b03166338d52e0f6040518163ffffffff1660e01b8152600401602060405180830381865afa158015610b2b573d5f803e3d5ffd5b505050506040513d601f19601f82011682018060405250810190610b4f919061541d565b6001600160a01b03166306fdde036040518163ffffffff1660e01b81526004015f60405180830381865afa158015610b89573d5f803e3d5ffd5b505050506040513d5f823e601f3d908101601f19168201604052610bb091908101906157d3565b8152602001856001600160a01b03166338d52e0f6040518163ffffffff1660e01b8152600401602060405180830381865afa158015610bf1573d5f803e3d5ffd5b505050506040513d601f19601f82011682018060405250810190610c15919061541d565b6001600160a01b03166395d89b416040518163ffffffff1660e01b81526004015f60405180830381865afa158015610c4f573d5f803e3d5ffd5b505050506040513d5f823e601f3d908101601f19168201604052610c7691908101906157d3565b81526020016040518060400160405280846001600160a01b03168152602001846001600160a01b031663890357306040518163ffffffff1660e01b815260040161016060405180830381865afa158015610cd2573d5f803e3d5ffd5b505050506040513d601f19601f82011682018060405250810190610cf69190615861565b8152508152602001610da6887f00000000000000000000000000000000000000000000000000000000000000006001600160a01b031663b883b05887608001516040518263ffffffff1660e01b8152600401610d6191906001600160a01b0391909116815260200190565b602060405180830381865afa158015610d7c573d5f803e3d5ffd5b505050506040513d601f19601f82011682018060405250810190610da09190615438565b906122d5565b8152602001856001600160a01b031663d6b7494f6040518163ffffffff1660e01b8152600401602060405180830381865afa158015610de7573d5f803e3d5ffd5b505050506040513d601f19601f82011682018060405250810190610e0b9190615438565b8152602001835f01516001600160801b03168152602001856001600160a01b0316630e52dbec6040518163ffffffff1660e01b8152600401602060405180830381865afa158015610e5e573d5f803e3d5ffd5b505050506040513d601f19601f82011682018060405250810190610e8291906155ef565b60ff168152602001856001600160a01b0316634322b7146040518163ffffffff1660e01b8152600401602060405180830381865afa158015610ec6573d5f803e3d5ffd5b505050506040513d601f19601f82011682018060405250810190610eea91906158f2565b6001600160801b03168152602001610f0186612304565b8152602001610f108689612b80565b81526040516342543a3360e11b81525f60048201526020909101906001600160a01b038416906384a8746690602401602060405180830381865afa158015610f5a573d5f803e3d5ffd5b505050506040513d601f19601f82011682018060405250810190610f7e9190615438565b81526020015f866001600160a01b0316632e0af0086040518163ffffffff1660e01b8152600401602060405180830381865afa158015610fc0573d5f803e3d5ffd5b505050506040513d601f19601f82011682018060405250810190610fe49190615438565b11610fef575f6110c3565b6110c36110b5876001600160a01b0316632e0af0086040518163ffffffff1660e01b8152600401602060405180830381865afa158015611031573d5f803e3d5ffd5b505050506040513d601f19601f820116820180604052508101906110559190615438565b886001600160a01b0316631a90f1866040518163ffffffff1660e01b8152600401602060405180830381865afa158015611091573d5f803e3d5ffd5b505050506040513d601f19601f820116820180604052508101906103f79190615438565b670de0b6b3a7640000613ab6565b8152602001856001600160a01b0316632e0af0086040518163ffffffff1660e01b8152600401602060405180830381865afa158015611104573d5f803e3d5ffd5b505050506040513d601f19601f820116820180604052508101906111289190615438565b8152602001856001600160a01b0316631a90f1866040518163ffffffff1660e01b8152600401602060405180830381865afa158015611169573d5f803e3d5ffd5b505050506040513d601f19601f8201168201806040525081019061118d9190615438565b8152602001856001600160a01b0316638c3cba5a6040518163ffffffff1660e01b8152600401602060405180830381865afa1580156111ce573d5f803e3d5ffd5b505050506040513d601f19601f820116820180604052508101906111f29190615438565b815260200161120086613acb565b8152602001856001600160a01b031663eee8c9e06040518163ffffffff1660e01b8152600401602060405180830381865afa158015611241573d5f803e3d5ffd5b505050506040513d601f19601f820116820180604052508101906112659190615438565b8152602001856001600160a01b03166301e1d1146040518163ffffffff1660e01b8152600401602060405180830381865afa1580156112a6573d5f803e3d5ffd5b505050506040513d601f19601f820116820180604052508101906112ca9190615438565b8152602001856001600160a01b0316638d0e5f026040518163ffffffff1660e01b8152600401602060405180830381865afa15801561130b573d5f803e3d5ffd5b505050506040513d601f19601f8201168201806040525081019061132f9190615438565b8152602001856001600160a01b03166318160ddd6040518163ffffffff1660e01b8152600401602060405180830381865afa158015611370573d5f803e3d5ffd5b505050506040513d601f19601f820116820180604052508101906113949190615438565b81526020016001871b8c165f036113ab575f6113ae565b60015b15158152602001888a10156113c3575f61148f565b61148f845f01516001600160801b03166114898660200151600a6113e79190615701565b6080880151604051631710760b60e31b81526001600160a01b0391821660048201527f00000000000000000000000000000000000000000000000000000000000000009091169063b883b05890602401602060405180830381865afa158015611452573d5f803e3d5ffd5b505050506040513d601f19601f820116820180604052508101906114769190615438565b8d8f611482919061540a565b9190613c41565b90613c6e565b8152602001846040015181526020016114a8868f613c82565b81526040516370a0823160e01b81526001600160a01b038f811660048301526020909201918716906370a0823190602401602060405180830381865afa1580156114f4573d5f803e3d5ffd5b505050506040513d601f19601f820116820180604052508101906115189190615438565b815260405163ce96cb7760e01b81526001600160a01b038f8116600483015260209092019187169063ce96cb7790602401602060405180830381865afa158015611564573d5f803e3d5ffd5b505050506040513d601f19601f820116820180604052508101906115889190615438565b81526020016115b9868f875f0151896001600160a01b031663ccfd8b11306001600160a01b0316637e789958613d5a565b81526020016115eb868f8760200151896001600160a01b031663d2681a0b306001600160a01b031663221e81f6613d5a565b81526020016115fa868f614039565b8152508b868151811061160f5761160f61590b565b602002602001018190525050505050806001019050610777565b505050505050919050565b61165560405180606001604052805f81526020015f81526020015f81525090565b61167c60405180608001604052805f81526020015f81526020015f81526020015f81525090565b604051634e7c505960e01b8152600481018690526001600160a01b03871690634e7c505990602401608060405180830381865afa1580156116bf573d5f803e3d5ffd5b505050506040513d601f19601f820116820180604052508101906116e391906153c3565b606085015260408085019190915260208085019290925291835281518083019092525f8083529082015260405163d2681a0b60e01b8152600481018790526001600160a01b03858116602483015288169063d2681a0b906044016040805180830381865afa158015611757573d5f803e3d5ffd5b505050506040513d601f19601f8201168201806040525081019061177b91906155bd565b602083015281525f61178d8287614474565b5f015190505f6117c5896102a98660600151426117aa919061540a565b60608801516117b9908d61540a565b6040890151919061203d565b9050604051806060016040528089815260200189421061186c5761185d8b6001600160a01b031663d6b7494f6040518163ffffffff1660e01b8152600401602060405180830381865afa15801561181e573d5f803e3d5ffd5b505050506040513d601f19601f820116820180604052508101906118429190615438565b61184c8c4261540a565b611856919061570f565b8a906122d5565b611867908a61544f565b611881565b6118778b8b866144c2565b611881908a61540a565b81526020015f8311611893575f6118b3565b6118b38387602001516118a6919061544f565b87516103f790879061540a565b90529450505050505b949350505050565b6118e560405180606001604052805f81526020015f81526020015f81525090565b61190c60405180608001604052805f81526020015f81526020015f81526020015f81525090565b604051634e7c505960e01b8152600481018690526001600160a01b03871690634e7c505990602401608060405180830381865afa15801561194f573d5f803e3d5ffd5b505050506040513d601f19601f8201168201806040525081019061197391906153c3565b606085015260408085019190915260208085019290925291835281518083019092525f8083529082015260405163ccfd8b1160e01b8152600481018790526001600160a01b03858116602483015288169063ccfd8b11906044016040805180830381865afa1580156119e7573d5f803e3d5ffd5b505050506040513d601f19601f82011682018060405250810190611a0b91906155bd565b602083015281525f611a1d8287614474565b5f015190505f611a3a896102a98660600151426117aa919061540a565b90506040518060600160405280898152602001894210611a5a5788611b61565b611b618b6001600160a01b031663f3fdb15a6040518163ffffffff1660e01b8152600401602060405180830381865afa158015611a99573d5f803e3d5ffd5b505050506040513d601f19601f82011682018060405250810190611abd919061541d565b8751602089015160405163df635f3d60e01b8152600481018f9052602481018e905260448101929092526064820152608481018690526001600160a01b03919091169063df635f3d9060a401602060405180830381865afa158015611b24573d5f803e3d5ffd5b505050506040513d601f19601f82011682018060405250810190611b489190615438565b611b5a90670de0b6b3a764000061544f565b8a90614616565b81526020015f8311611b73575f6118b3565b6118b384848860200151611b87919061544f565b611b91919061540a565b8751906122f0565b611bba60405180606001604052805f81526020015f81526020015f81525090565b82421115611bdb576040516305a29e1160e51b815260040160405180910390fd5b611c0260405180608001604052805f81526020015f81526020015f81526020015f81525090565b604051634e7c505960e01b8152600481018590526001600160a01b03861690634e7c505990602401608060405180830381865afa158015611c45573d5f803e3d5ffd5b505050506040513d601f19601f82011682018060405250810190611c6991906153c3565b60608501819052604085019190915260208401919091529082525f90611c999087906102a99061028e904261540a565b90506040518060600160405280868152602001611cb78888886144c2565b611cc1908761544f565b81526020015f8311611cd3575f611cf9565b611cf983878660200151611ce7919061544f565b611cf1919061544f565b8551906122f0565b90529695505050505050565b60605f836001600160a01b0316630e52dbec6040518163ffffffff1660e01b8152600401602060405180830381865afa158015611d44573d5f803e3d5ffd5b505050506040513d601f19601f82011682018060405250810190611d6891906155ef565b60ff1690505f6224ea00611d7c8142615933565b611d86904261540a565b611d90919061544f565b9050816001600160401b03811115611daa57611daa615462565b604051908082528060200260200182016040528015611dfc57816020015b611de960405180606001604052805f81526020015f81526020015f81525090565b815260200190600190039081611dc85790505b5092505f5b82811015611e4857611e14868387611b99565b848281518110611e2657611e2661590b565b6020908102919091010152611e3e6224ea008361544f565b9150600101611e01565b50505092915050565b60605f836001600160a01b0316630e52dbec6040518163ffffffff1660e01b8152600401602060405180830381865afa158015611e90573d5f803e3d5ffd5b505050506040513d601f19601f82011682018060405250810190611eb491906155ef565b60ff1690505f6224ea00611ec88142615933565b611ed2904261540a565b611edc919061544f565b9050816001600160401b03811115611ef657611ef6615462565b604051908082528060200260200182016040528015611f4857816020015b611f3560405180606001604052805f81526020015f81526020015f81525090565b815260200190600190039081611f145790505b5092505f5b82811015611e485760405163084e236760e11b81526001600160a01b03871660048201526024810183905260448101869052309063109c46ce90606401606060405180830381865afa925050508015611fc3575060408051601f3d908101601f19168201909252611fc091810190615946565b60015b6120065760405180606001604052808381526020015f1981526020015f19815250848281518110611ff657611ff661590b565b6020026020010181905250612026565b808583815181106120195761201961590b565b6020026020010181905250505b6120336224ea008361544f565b9150600101611f4d565b828202811515841585830485141716612054575f80fd5b0492915050565b5f8082846001600160a01b0316632e0af0086040518163ffffffff1660e01b8152600401602060405180830381865afa15801561209a573d5f803e3d5ffd5b505050506040513d601f19601f820116820180604052508101906120be9190615438565b6120c8919061544f565b90505f846001600160a01b031663e94b3c216040518163ffffffff1660e01b8152600401602060405180830381865afa158015612107573d5f803e3d5ffd5b505050506040513d601f19601f8201168201806040525081019061212b9190615438565b90505f61228582841061221757866001600160a01b031663fb0fc4c36040518163ffffffff1660e01b8152600401602060405180830381865afa158015612174573d5f803e3d5ffd5b505050506040513d601f19601f8201168201806040525081019061219891906159b2565b6121a89063ffffffff164261540a565b876001600160a01b0316630539fa8c6040518163ffffffff1660e01b8152600401602060405180830381865afa1580156121e4573d5f803e3d5ffd5b505050506040513d601f19601f820116820180604052508101906122089190615438565b612212919061570f565b612277565b866001600160a01b0316633aa18d6f6040518163ffffffff1660e01b8152600401602060405180830381865afa158015612253573d5f803e3d5ffd5b505050506040513d601f19601f820116820180604052508101906122779190615438565b612280906159cb565b61462a565b61229790670de0b6b3a76400006159e5565b90506122a381846122d5565b6122bf6122b883670de0b6b3a764000061540a565b84906122d5565b6122c9919061544f565b93505050505b92915050565b5f6122e98383670de0b6b3a764000061203d565b9392505050565b5f6122e983670de0b6b3a764000084613c41565b60606123586040518061016001604052805f81526020015f81526020015f81526020015f81526020015f81526020015f81526020015f81526020015f81526020015f81526020015f81526020015f81525090565b826001600160a01b031663eee8c9e06040518163ffffffff1660e01b8152600401602060405180830381865afa158015612394573d5f803e3d5ffd5b505050506040513d601f19601f820116820180604052508101906123b89190615438565b6101408201526123c78361479d565b816020018181525050826001600160a01b0316630e52dbec6040518163ffffffff1660e01b8152600401602060405180830381865afa15801561240c573d5f803e3d5ffd5b505050506040513d601f19601f8201168201806040525081019061243091906155ef565b60ff16608082018190526001600160401b0381111561245157612451615462565b6040519080825280602002602001820160405280156124c257816020015b6124af6040518061010001604052805f81526020015f81526020015f81526020015f81526020015f81526020015f81526020015f81526020015f81525090565b81526020019060019003908161246f5790505b5091505f5b8160800151811015612b79576124de81600161544f565b6124eb906224ea0061570f565b6124f86224ea0042615933565b612502904261540a565b61250c919061544f565b60c083015261253860405180608001604052805f81526020015f81526020015f81526020015f81525090565b60c0830151604051634e7c505960e01b815260048101919091526001600160a01b03861690634e7c505990602401608060405180830381865afa158015612581573d5f803e3d5ffd5b505050506040513d601f19601f820116820180604052508101906125a591906153c3565b60608501819052604085019190915260208401919091529082526125ed906125cd904261540a565b82606001518560c001516125e1919061540a565b6040840151919061203d565b606084018190526125ff90869061205b565b8352805160208201516126129190613ab6565b815161261e919061540a565b83604001818152505082606001518160400181815161263d919061540a565b91508181525050612731856001600160a01b0316634322b7146040518163ffffffff1660e01b8152600401602060405180830381865afa158015612683573d5f803e3d5ffd5b505050506040513d601f19601f820116820180604052508101906126a791906158f2565b6126b990670de0b6b3a7640000615a04565b6001600160801b03168460200151876001600160a01b0316632e0af0086040518163ffffffff1660e01b8152600401602060405180830381865afa158015612703573d5f803e3d5ffd5b505050506040513d601f19601f820116820180604052508101906127279190615438565b610da0919061544f565b60a08401528251612742575f612753565b8251610140840151612753916122f0565b60e084015282511580159061276c575060208101518151115b612776575f61278d565b82516020820151825161278d92916103f79161540a565b61010084015282515f036127a1575f612818565b612818835f0151866001600160a01b0316638c3cba5a6040518163ffffffff1660e01b8152600401602060405180830381865afa1580156127e4573d5f803e3d5ffd5b505050506040513d601f19601f820116820180604052508101906128089190615438565b8561014001516103f7919061544f565b836101200181815250506040518061010001604052808460c001518152602001825f015181526020018260200151815260200161285c8360200151845f0151613ab6565b836020015161296061294a8860a0015189602001518c6001600160a01b0316631a90f1866040518163ffffffff1660e01b8152600401602060405180830381865afa1580156128ad573d5f803e3d5ffd5b505050506040513d601f19601f820116820180604052508101906128d19190615438565b8d6001600160a01b0316638c3cba5a6040518163ffffffff1660e01b8152600401602060405180830381865afa15801561290d573d5f803e3d5ffd5b505050506040513d601f19601f820116820180604052508101906129319190615438565b61293b919061544f565b612945919061544f565b613ab6565b8860a00151612959919061540a565b8851613ab6565b61296a919061544f565b612974919061540a565b81526020018461010001518152602001612a425f866040015111612998575f612a26565b612a268660400151612a208a6001600160a01b031663a1e8f02b6040518163ffffffff1660e01b8152600401602060405180830381865afa1580156129df573d5f803e3d5ffd5b505050506040513d601f19601f82011682018060405250810190612a039190615438565b612a1590670de0b6b3a764000061540a565b6040880151906122d5565b90614616565b428760c00151612a36919061540a565b6301e13380919061203d565b8152602001866001600160a01b031663f3fdb15a6040518163ffffffff1660e01b8152600401602060405180830381865afa158015612a83573d5f803e3d5ffd5b505050506040513d601f19601f82011682018060405250810190612aa7919061541d565b60c0860151608087015161010088015160e08901516101208a015160405163d9d9048d60e01b8152600481019590955260248501939093526044840191909152606483015260848201526001600160a01b03919091169063d9d9048d9060a401602060405180830381865afa158015612b22573d5f803e3d5ffd5b505050506040513d601f19601f82011682018060405250810190612b469190615438565b81526020018460400151815250848381518110612b6557612b6561590b565b6020908102919091010152506001016124c7565b5050919050565b6060612b8a614a88565b836001600160a01b0316636bb65f536040518163ffffffff1660e01b8152600401602060405180830381865afa158015612bc6573d5f803e3d5ffd5b505050506040513d601f19601f82011682018060405250810190612bea919061541d565b6001600160a01b031680825215613aaf57604051638e8f294b60e01b81526001600160a01b0385811660048301527f00000000000000000000000000000000000000000000000000000000000000001690638e8f294b9060240160a060405180830381865afa158015612c5f573d5f803e3d5ffd5b505050506040513d601f19601f82011682018060405250810190612c839190615767565b6001600160a01b0390811661010087015260ff9093166101608601819052600a0a60c08601525050610e1061018084015282516040805163b7eec41360e01b8152905191909216925063b7eec413916004808201925f929091908290030181865afa158015612cf4573d5f803e3d5ffd5b505050506040513d5f823e601f3d908101601f19168201604052612d1b9190810190615a24565b6101408201819052516001600160401b03811115612d3b57612d3b615462565b604051908082528060200260200182016040528015612d7457816020015b612d61614bd5565b815260200190600190039081612d595790505b505f6101a083018190529092505b81610140015151826101a001511015612ec457815f01516001600160a01b0316635684aa4686846101400151856101a0015181518110612dc457612dc461590b565b60200260200101516040518363ffffffff1660e01b8152600401612dfe9291906001600160a01b0392831681529116602082015260400190565b606060405180830381865afa158015612e19573d5f803e3d5ffd5b505050506040513d601f19601f82011682018060405250810190612e3d9190615aad565b505063ffffffff166101c0830181905215612ead57816101400151826101a0015181518110612e6e57612e6e61590b565b6020026020010151838280612e8290615aed565b935081518110612e9457612e9461590b565b60209081029190910101516001600160a01b0390911690525b816101a0018051612ebd90615aed565b9052612d82565b82816001600160401b03811115612edd57612edd615462565b604051908082528060200260200182016040528015612f1657816020015b612f03614bd5565b815260200190600190039081612efb5790505b505f6101a085015293505b8351836101a001511015612f875780836101a0015181518110612f4657612f4661590b565b602002602001015184846101a0015181518110612f6557612f6561590b565b6020026020010181905250826101a0018051612f8090615aed565b9052612f21565b50505f6101a08201525b8151816101a001511015613aaf57805f01516001600160a01b031663f2426f9a8584846101a0015181518110612fc957612fc961590b565b6020908102919091010151516040516001600160e01b031960e085901b1681526001600160a01b039283166004820152911660248201526044016101c060405180830381865afa15801561301f573d5f803e3d5ffd5b505050506040513d601f19601f820116820180604052508101906130439190615b2c565b61012082018190526040908101519051631710760b60e31b81526001600160a01b0391821660048201527f00000000000000000000000000000000000000000000000000000000000000009091169063b883b05890602401602060405180830381865afa1580156130b6573d5f803e3d5ffd5b505050506040513d601f19601f820116820180604052508101906130da9190615438565b81610220018181525050805f01516001600160a01b03166344e250f88584846101a001518151811061310e5761310e61590b565b6020908102919091010151516040516001600160e01b031960e085901b1681526001600160a01b03928316600482015291166024820152604401606060405180830381865afa158015613163573d5f803e3d5ffd5b505050506040513d601f19601f820116820180604052508101906131879190615726565b506040830152606082015280516101a082015183516001600160a01b039092169163fc19606891879186919081106131c1576131c161590b565b60200260200101515f01518461012001516060015163ffffffff1642116131e8575f6131ef565b8461018001515b6040516001600160e01b031960e086901b1681526001600160a01b0393841660048201529290911660248301526044820152606401606060405180830381865afa15801561323f573d5f803e3d5ffd5b505050506040513d601f19601f820116820180604052508101906132639190615726565b50608083015260a08201526101c08101516224ea0090613284908290615933565b826101c00151613294919061540a565b61329e919061544f565b81610260018181525050836001600160a01b0316630e52dbec6040518163ffffffff1660e01b8152600401602060405180830381865afa1580156132e4573d5f803e3d5ffd5b505050506040513d601f19601f8201168201806040525081019061330891906155ef565b6133189060ff166224ea0061570f565b6133256224ea0042615933565b61332f904261540a565b613339919061544f565b61024082018190526102608201516224ea0091613356919061540a565b6133609190615c1e565b61336b90600161544f565b6001600160401b0381111561338257613382615462565b6040519080825280602002602001820160405280156133ab578160200160208202803683370190505b5060e08201525f6101c08201526102608101516101e08201525b806102400151816101e00151116134af576101e0810151604051630156d37d60e31b81525f916001600160a01b03871691630ab69be89161340c9160040190815260200190565b6040805180830381865afa158015613426573d5f803e3d5ffd5b505050506040513d601f19601f8201168201806040525081019061344a91906155bd565b509050808261020001818151613460919061544f565b9052506101e082015160e08301516101c0840151815181106134845761348461590b565b6020908102919091010152506101e0810180516224ea000190526101c08101805160010190526133c5565b6040518060e0016040528083836101a00151815181106134d1576134d161590b565b60200260200101515f01516001600160a01b0316815260200183836101a00151815181106135015761350161590b565b60200260200101515f01516001600160a01b03166306fdde036040518163ffffffff1660e01b81526004015f60405180830381865afa158015613546573d5f803e3d5ffd5b505050506040513d5f823e601f3d908101601f1916820160405261356d91908101906157d3565b815260200183836101a00151815181106135895761358961590b565b60200260200101515f01516001600160a01b03166395d89b416040518163ffffffff1660e01b81526004015f60405180830381865afa1580156135ce573d5f803e3d5ffd5b505050506040513d5f823e601f3d908101601f191682016040526135f591908101906157d3565b8152602001613612858461022001516122d590919063ffffffff16565b81526020015f836102000151876001600160a01b031663eee8c9e06040518163ffffffff1660e01b8152600401602060405180830381865afa15801561365a573d5f803e3d5ffd5b505050506040513d601f19601f8201168201806040525081019061367e9190615438565b613688919061544f565b11613693575f61388a565b61018083015160c0840151610100850151604051631710760b60e31b81526001600160a01b03918216600482015261388a936301e1338093909261388392613782917f0000000000000000000000000000000000000000000000000000000000000000169063b883b05890602401602060405180830381865afa15801561371c573d5f803e3d5ffd5b505050506040513d601f19601f820116820180604052508101906137409190615438565b8961020001518d6001600160a01b031663eee8c9e06040518163ffffffff1660e01b8152600401602060405180830381865afa158015612703573d5f803e3d5ffd5b613883896102200151610da08e6001600160a01b031663bf722ca28d61020001516040518263ffffffff1660e01b81526004016137c191815260200190565b602060405180830381865afa1580156137dc573d5f803e3d5ffd5b505050506040513d601f19601f820116820180604052508101906138009190615438565b8f6001600160a01b0316638d0e5f026040518163ffffffff1660e01b8152600401602060405180830381865afa15801561383c573d5f803e3d5ffd5b505050506040513d601f19601f820116820180604052508101906138609190615438565b61386a919061544f565b8c60c001518d606001518e60a00151613883919061540a565b919061203d565b81526020015f866001600160a01b03166301e1d1146040518163ffffffff1660e01b8152600401602060405180830381865afa1580156138cc573d5f803e3d5ffd5b505050506040513d601f19601f820116820180604052508101906138f09190615438565b116138fb575f613a69565b61018083015160c0840151610100850151604051631710760b60e31b81526001600160a01b039182166004820152613a69936301e13380939092613883926139e4917f0000000000000000000000000000000000000000000000000000000000000000169063b883b05890602401602060405180830381865afa158015613984573d5f803e3d5ffd5b505050506040513d601f19601f820116820180604052508101906139a89190615438565b8c6001600160a01b03166301e1d1146040518163ffffffff1660e01b8152600401602060405180830381865afa158015610d7c573d5f803e3d5ffd5b613883896102200151610da08e6001600160a01b03166318160ddd6040518163ffffffff1660e01b8152600401602060405180830381865afa158015613a2c573d5f803e3d5ffd5b505050506040513d601f19601f82011682018060405250810190613a509190615438565b8c60c001518d604001518e60800151613883919061540a565b81526020018260e0015181525082826101a0015181518110613a8d57613a8d61590b565b6020026020010181905250806101a0018051613aa890615aed565b9052612f91565b5092915050565b5f818310613ac457816122e9565b5090919050565b5f80613ad68361479d565b90505f613b94846001600160a01b0316634322b7146040518163ffffffff1660e01b8152600401602060405180830381865afa158015613b18573d5f803e3d5ffd5b505050506040513d601f19601f82011682018060405250810190613b3c91906158f2565b613b4e90670de0b6b3a7640000615a04565b6001600160801b031683866001600160a01b0316632e0af0086040518163ffffffff1660e01b8152600401602060405180830381865afa158015612703573d5f803e3d5ffd5b9050613c378183866001600160a01b0316631a90f1866040518163ffffffff1660e01b8152600401602060405180830381865afa158015613bd7573d5f803e3d5ffd5b505050506040513d601f19601f82011682018060405250810190613bfb9190615438565b876001600160a01b0316638c3cba5a6040518163ffffffff1660e01b8152600401602060405180830381865afa15801561290d573d5f803e3d5ffd5b6118bc908261540a565b828202811515841585830485141716613c58575f80fd5b6001826001830304018115150290509392505050565b5f6122e98383670de0b6b3a7640000613c41565b604051632f2e037160e11b81526001600160a01b0382811660048301525f918291851690635e5c06e290602401606060405180830381865afa158015613cca573d5f803e3d5ffd5b505050506040513d601f19601f82011682018060405250810190613cee9190615726565b60405163023effef60e51b8152600481018290529093506001600160a01b03871692506347dffde09150602401602060405180830381865afa158015613d36573d5f803e3d5ffd5b505050506040513d601f19601f820116820180604052508101906118bc9190615438565b6040805160e0808252611c2082019092526060915f918291816020015b613d7f614c17565b815260200190600190039081613d77575050602089901c9890915063ffffffff165b8815613f8d576001891615613f72575f805f8a8a858f6040518363ffffffff1660e01b8152600401613de69291909182526001600160a01b0316602082015260400190565b6040805180830381865afa158015613e00573d5f803e3d5ffd5b505050506040513d601f19601f82011682018060405250810190613e2491906155bd565b9092509050613e33818361544f565b9250604051806040016040528083815260200182815250858781518110613e5c57613e5c61590b565b602002602001015160400181905250505086868d84848f6040518563ffffffff1660e01b8152600401613eb894939291906001600160a01b03948516815260208101939093526040830191909152909116606082015260800190565b606060405180830381865afa925050508015613ef1575060408051601f3d908101601f19168201909252613eee91810190615946565b60015b613f1d5780838581518110613f0857613f0861590b565b60200260200101516020018181525050613f46565b8060200151848681518110613f3457613f3461590b565b60200260200101516020018181525050505b81838581518110613f5957613f5961590b565b602090810291909101015152613f6e84615aed565b9350505b60019890981c97613f866224ea008261544f565b9050613da1565b826001600160401b03811115613fa557613fa5615462565b604051908082528060200260200182016040528015613fde57816020015b613fcb614c17565b815260200190600190039081613fc35790505b5093505f5b8381101561402a57828181518110613ffd57613ffd61590b565b60200260200101518582815181106140175761401761590b565b6020908102919091010152600101613fe3565b50505050979650505050505050565b60605f836001600160a01b0316636bb65f536040518163ffffffff1660e01b8152600401602060405180830381865afa158015614078573d5f803e3d5ffd5b505050506040513d601f19601f8201168201806040525081019061409c919061541d565b90506001600160a01b03811615613aaf575f816001600160a01b031663b7eec4136040518163ffffffff1660e01b81526004015f60405180830381865afa1580156140e9573d5f803e3d5ffd5b505050506040513d5f823e601f3d908101601f191682016040526141109190810190615a24565b905080516001600160401b0381111561412b5761412b615462565b60405190808252806020026020018201604052801561418e57816020015b61417b60405180608001604052805f6001600160a01b0316815260200160608152602001606081526020015f81525090565b8152602001906001900390816141495790505b506040805160018082528183019092529194505f9190816020015b604080518082019091525f8152606060208201528152602001906001900390816141a95750506040805160028082526060820183529293505f9290916020830190803683370190505090506001815f815181106142085761420861590b565b6020026020010190151590811515815250505f8160018151811061422e5761422e61590b565b6020026020010190151590811515815250506040518060400160405280886001600160a01b0316815260200182815250825f815181106142705761427061590b565b60200260200101819052505f5b83518110156144695760405180608001604052808583815181106142a3576142a361590b565b60200260200101516001600160a01b031681526020018583815181106142cb576142cb61590b565b60200260200101516001600160a01b03166306fdde036040518163ffffffff1660e01b81526004015f60405180830381865afa15801561430d573d5f803e3d5ffd5b505050506040513d5f823e601f3d908101601f1916820160405261433491908101906157d3565b815260200185838151811061434b5761434b61590b565b60200260200101516001600160a01b03166395d89b416040518163ffffffff1660e01b81526004015f60405180830381865afa15801561438d573d5f803e3d5ffd5b505050506040513d5f823e601f3d908101601f191682016040526143b491908101906157d3565b8152602001866001600160a01b031663382e85ad868b8987815181106143dc576143dc61590b565b60200260200101516040518463ffffffff1660e01b815260040161440293929190615c31565b602060405180830381865afa15801561441d573d5f803e3d5ffd5b505050506040513d601f19601f820116820180604052508101906144419190615438565b8152508682815181106144565761445661590b565b602090810291909101015260010161427d565b505050505092915050565b604080518082019091525f8082526020820152825160208401515f916144a69161449e908261544f565b85919061203d565b80855290506144b5818461540a565b6020850152509192915050565b5f6144ea60405180608001604052805f81526020015f81526020015f81526020015f81525090565b604051634e7c505960e01b8152600481018590526001600160a01b03861690634e7c505990602401608060405180830381865afa15801561452d573d5f803e3d5ffd5b505050506040513d601f19601f8201168201806040525081019061455191906153c3565b606085018190526040850191909152602084019190915290825261458890614579904261540a565b60608301516125e1908761540a565b81604001818151614599919061540a565b9150818152505061460c83866001600160a01b031663a1e8f02b6040518163ffffffff1660e01b8152600401602060405180830381865afa1580156145e0573d5f803e3d5ffd5b505050506040513d601f19601f820116820180604052508101906146049190615438565b83919061491d565b5095945050505050565b5f6122e983670de0b6b3a76400008461203d565b5f680248ce36a70cb26b3e19821361464357505f919050565b680755bf798b4a1bf1e58212614657575f80fd5b6503782dace9d9604e83901b0591505f60606bb17217f7d1cf79abc9e3b39884821b056001605f1b01901d6bb17217f7d1cf79abc9e3b39881029093036c240c330e9fb2d9cbaf0fd5aafb1981018102606090811d6d0277594991cfc85f6e2461837cd9018202811d6d1a521255e34f6a5061b25ef1c9c319018202811d6db1bbb201f443cf962f1a1d3db4a5018202811d6e02c72388d9f74f51a9331fed693f1419018202811d6e05180bb14799ab47a8a8cb2a527d57016d02d16720577bd19bf614176fe9ea6c10fe68e7fd37d0007b713f765084018402831d9081019084016d01d3967ed30fc4f89c02bab5708119010290911d6e0587f503bb6ea29d25fcb740196450019091026d360d7aeea093263ecc6e0ecb291760621b010574029d9dc38563c32e5c2f6dc192ee70ef65f9978af30260c3939093039290921c92915050565b5f6122cf6148e1836001600160a01b0316636eb9ffeb6040518163ffffffff1660e01b8152600401602060405180830381865afa1580156147e0573d5f803e3d5ffd5b505050506040513d601f19601f8201168201806040525081019061480491906159b2565b6148149063ffffffff164261540a565b6301e13380856001600160a01b031663f3fdb15a6040518163ffffffff1660e01b8152600401602060405180830381865afa158015614855573d5f803e3d5ffd5b505050506040513d601f19601f82011682018060405250810190614879919061541d565b6040516342543a3360e11b81525f60048201526001600160a01b0391909116906384a8746690602401602060405180830381865afa1580156148bd573d5f803e3d5ffd5b505050506040513d601f19601f820116820180604052508101906138839190615438565b836001600160a01b0316631a90f1866040518163ffffffff1660e01b8152600401602060405180830381865afa158015610d7c573d5f803e3d5ffd5b5f805f6149298661496e565b905080156149655761494a61493e8683613ab6565b6040880151908361203d565b925061495683856122d5565b9150614962828461540a565b92505b50935093915050565b805160208201515f91906149828282613ab6565b6118bc908361540a565b6040518061042001604052805f6001600160a01b03168152602001606081526020015f60ff1681526020015f6001600160a01b0316815260200160608152602001606081526020016149dc614c4e565b81526020015f81526020015f81526020015f81526020015f60ff1681526020015f815260200160608152602001606081526020015f81526020015f81526020015f81526020015f81526020015f81526020015f81526020015f81526020015f81526020015f81526020015f81526020015f151581526020015f81526020015f81526020015f81526020015f81526020015f81526020016060815260200160608152602001606081525090565b6040518061028001604052805f6001600160a01b031681526020015f81526020015f81526020015f81526020015f81526020015f81526020015f8152602001606081526020015f6001600160a01b03168152602001614b92604051806101c001604052805f6001600160a01b031681526020015f6001600160a01b031681526020015f6001600160a01b031681526020015f63ffffffff1681526020015f81526020015f81526020015f81526020015f81526020015f600f0b81526020015f6001600160401b031681526020015f6001600160401b031681526020015f6001600160401b031681526020015f6001600160401b031681526020015f6001600160401b031681525090565b8152602001606081526020015f81526020015f81526020015f81526020015f81526020015f81526020015f81526020015f81526020015f81526020015f81525090565b6040518060e001604052805f6001600160a01b0316815260200160608152602001606081526020015f81526020015f81526020015f8152602001606081525090565b60405180606001604052805f81526020015f8152602001614c4960405180604001604052805f81526020015f81525090565b905290565b60405180604001604052805f6001600160a01b03168152602001614c496040518061016001604052805f81526020015f81526020015f81526020015f81526020015f81526020015f81526020015f81526020015f81526020015f81526020015f81526020015f81525090565b6001600160a01b0381168114614cce575f80fd5b50565b5f805f60608486031215614ce3575f80fd5b8335614cee81614cba565b95602085013595506040909401359392505050565b815181526020808301519082015260408083015190820152606081016122cf565b5f60208284031215614d34575f80fd5b81356122e981614cba565b5f81518084528060208401602086015e5f602082860101526020601f19601f83011685010191505092915050565b5f815180845260208085019450602084015f5b83811015614de557815180518852838101518489015260408082015190890152606080820151908901526080808201519089015260a0808201519089015260c0808201519089015260e090810151908801526101009096019590820190600101614d80565b509495945050505050565b5f82825180855260208086019550808260051b8401018186015f5b84811015614ed557858303601f19018952815180516001600160a01b031684528481015160e086860181905290614e4482870182614d3f565b91505060408083015186830382880152614e5e8382614d3f565b606085810151908901526080808601519089015260a0808601519089015260c094850151888203958901959095528451808252948901945f9450908901925090505b80831015614ec05783518252928701926001929092019190870190614ea0565b509a86019a9450505090830190600101614e0b565b5090979650505050505050565b5f8151808452602080850194508084015f5b83811015614de5578151805188528381015184890152604090810151805191890191909152830151606088015260809096019590820190600101614ef4565b5f82825180855260208086019550808260051b8401018186015f5b84811015614ed557858303601f19018952815180516001600160a01b0316845284810151608086860181905290614f8782870182614d3f565b91505060408083015186830382880152614fa18382614d3f565b6060948501519790940196909652505098840198925090830190600101614f4e565b5f602080830181845280855180835260408601915060408160051b87010192508387015f5b828110156152e457878503603f19018452815180516001600160a01b031686528681015161058088880152615021610580880182614d3f565b90506040820151615037604089018260ff169052565b50606082015161505260608901826001600160a01b03169052565b506080820151878203608089015261506a8282614d3f565b91505060a082015187820360a08901526150848282614d3f565b91505060c082015161512460c089018260018060a01b038151168252602081015180516020840152602081015160408401526040810151606084015260608101516080840152608081015160a084015260a081015160c084015260c081015160e084015260e08101516101008181860152808301519150506101208181860152808301519150506101408181860152808301516101608601525050505050565b5060e082015161024088015261010082015161026088015261012082015161028088015261014082015160ff166102a08801526101608201516102c08801526101808201518782036102e089015261517c8282614d6d565b9150506101a08201518782036103008901526151988282614df0565b9150506101c082015180610320890152506101e0820151806103408901525061020082015161036081818a0152610220840151915061038082818b015261024085015192506103a083818c015261026086015193506103c084818d015261028087015194506103e085818e01526102a0880151955061040086818f01526102c08901516104208f01526102e08901516104408f015261030089015196506152446104608f018815159052565b6103208901516104808f01526103408901516104a08f0152858901516104c08f0152848901516104e08f0152838901516105008f01528289015196508d88036105208f01526152938888614ee2565b97508189015196508d88036105408f01526152ae8888614ee2565b9750808901519850505050505050508681036105608801526152d08183614f33565b965050509285019290850190600101614fe8565b5092979650505050505050565b5f805f8060808587031215615304575f80fd5b843561530f81614cba565b93506020850135925060408501359150606085013561532d81614cba565b939692955090935050565b5f8060408385031215615349575f80fd5b823561535481614cba565b946020939093013593505050565b602080825282518282018190525f9190848201906040850190845b818110156153b7576153a48385518051825260208082015190830152604090810151910152565b928401926060929092019160010161537d565b50909695505050505050565b5f805f80608085870312156153d6575f80fd5b505082516020840151604085015160609095015191969095509092509050565b634e487b7160e01b5f52601160045260245ffd5b818103818111156122cf576122cf6153f6565b5f6020828403121561542d575f80fd5b81516122e981614cba565b5f60208284031215615448575f80fd5b5051919050565b808201808211156122cf576122cf6153f6565b634e487b7160e01b5f52604160045260245ffd5b60405161016081016001600160401b038111828210171561549957615499615462565b60405290565b6040516101c081016001600160401b038111828210171561549957615499615462565b604051601f8201601f191681016001600160401b03811182821017156154ea576154ea615462565b604052919050565b5f6001600160401b0382111561550a5761550a615462565b5060051b60200190565b805161551f81614cba565b919050565b5f6020808385031215615535575f80fd5b82516001600160401b0381111561554a575f80fd5b8301601f8101851361555a575f80fd5b805161556d615568826154f2565b6154c2565b81815260059190911b8201830190838101908783111561558b575f80fd5b928401925b828410156155b25783516155a381614cba565b82529284019290840190615590565b979650505050505050565b5f80604083850312156155ce575f80fd5b505080516020909101519092909150565b805160ff8116811461551f575f80fd5b5f602082840312156155ff575f80fd5b6122e9826155df565b60ff82811682821603908111156122cf576122cf6153f6565b600181815b8085111561565b57815f1904821115615641576156416153f6565b8085161561564e57918102915b93841c9390800290615626565b509250929050565b5f82615671575060016122cf565b8161567d57505f6122cf565b8160018114615693576002811461569d576156b9565b60019150506122cf565b60ff8411156156ae576156ae6153f6565b50506001821b6122cf565b5060208310610133831016604e8410600b84101617156156dc575081810a6122cf565b6156e68383615621565b805f19048211156156f9576156f96153f6565b029392505050565b5f6122e960ff841683615663565b80820281158282048414176122cf576122cf6153f6565b5f805f60608486031215615738575f80fd5b8351925060208401519150604084015190509250925092565b80516001600160801b038116811461551f575f80fd5b5f805f805f60a0868803121561577b575f80fd5b61578486615751565b9450615792602087016155df565b93506157a0604087016155df565b9250606086015180151581146157b4575f80fd5b60808701519092506157c581614cba565b809150509295509295909350565b5f60208083850312156157e4575f80fd5b82516001600160401b03808211156157fa575f80fd5b818501915085601f83011261580d575f80fd5b81518181111561581f5761581f615462565b615831601f8201601f191685016154c2565b91508082528684828501011115615846575f80fd5b808484018584015e5f90820190930192909252509392505050565b5f6101608284031215615872575f80fd5b61587a615476565b825181526020830151602082015260408301516040820152606083015160608201526080830151608082015260a083015160a082015260c083015160c082015260e083015160e08201526101008084015181830152506101208084015181830152506101408084015181830152508091505092915050565b5f60208284031215615902575f80fd5b6122e982615751565b634e487b7160e01b5f52603260045260245ffd5b634e487b7160e01b5f52601260045260245ffd5b5f826159415761594161591f565b500690565b5f60608284031215615956575f80fd5b604051606081018181106001600160401b038211171561597857615978615462565b80604052508251815260208301516020820152604083015160408201528091505092915050565b805163ffffffff8116811461551f575f80fd5b5f602082840312156159c2575f80fd5b6122e98261599f565b5f600160ff1b82016159df576159df6153f6565b505f0390565b8181035f831280158383131683831282161715613aaf57613aaf6153f6565b6001600160801b03828116828216039080821115613aaf57613aaf6153f6565b5f6020808385031215615a35575f80fd5b82516001600160401b03811115615a4a575f80fd5b8301601f81018513615a5a575f80fd5b8051615a68615568826154f2565b81815260059190911b82018301908381019087831115615a86575f80fd5b928401925b828410156155b2578351615a9e81614cba565b82529284019290840190615a8b565b5f805f60608486031215615abf575f80fd5b615ac88461599f565b9250615ad66020850161599f565b9150615ae46040850161599f565b90509250925092565b5f60018201615afe57615afe6153f6565b5060010190565b8051600f81900b811461551f575f80fd5b80516001600160401b038116811461551f575f80fd5b5f6101c08284031215615b3d575f80fd5b615b4561549f565b615b4e83615514565b8152615b5c60208401615514565b6020820152615b6d60408401615514565b6040820152615b7e6060840161599f565b60608201526080830151608082015260a083015160a082015260c083015160c082015260e083015160e0820152610100615bb9818501615b05565b90820152610120615bcb848201615b16565b90820152610140615bdd848201615b16565b90820152610160615bef848201615b16565b90820152610180615c01848201615b16565b908201526101a0615c13848201615b16565b908201529392505050565b5f82615c2c57615c2c61591f565b500490565b5f60608083016060845280875180835260808601915060808160051b87010192506020808a015f5b83811015615ccf57888603607f19018552815180516001600160a01b031687528301516040848801819052815190880181905290840190888801905f905b80821015615cb957835115158352928601929186019160019190910190615c97565b5090975050509382019390820190600101615c59565b5050839550615ce88188018a6001600160a01b03169052565b50505050506118bc60408301846001600160a01b0316905256fea2646970667358221220acbc9efded5c7c2212f202e517d1a0958ba6c8fa8e09086ea7d1540b3fd7b7d064736f6c63430008190033","linkReferences":{}},"methodIdentifiers":{"auditor()":"3ec045a6","basePriceFeed()":"e41e7512","exactly(address)":"157c9e0e","previewBorrowAtAllMaturities(address,uint256)":"b18ba945","previewBorrowAtMaturity(address,uint256,uint256)":"109c46ce","previewDepositAtAllMaturities(address,uint256)":"b15a3f61","previewDepositAtMaturity(address,uint256,uint256)":"8eab0a2a","previewRepayAtMaturity(address,uint256,uint256,address)":"221e81f6","previewWithdrawAtMaturity(address,uint256,uint256,address)":"7e789958"},"id":18}