{"abi":[{"type":"constructor","inputs":[{"name":"exa_","type":"address","internalType":"contract ERC20"},{"name":"weth_","type":"address","internalType":"contract WETH"},{"name":"pool_","type":"address","internalType":"contract IPool"},{"name":"socket_","type":"address","internalType":"address"},{"name":"permit2_","type":"address","internalType":"contract IPermit2"}],"stateMutability":"nonpayable"},{"type":"receive","stateMutability":"payable"},{"type":"function","name":"exa","inputs":[],"outputs":[{"name":"","type":"address","internalType":"contract ERC20"}],"stateMutability":"view"},{"type":"function","name":"permit2","inputs":[],"outputs":[{"name":"","type":"address","internalType":"contract IPermit2"}],"stateMutability":"view"},{"type":"function","name":"pool","inputs":[],"outputs":[{"name":"","type":"address","internalType":"contract IPool"}],"stateMutability":"view"},{"type":"function","name":"socket","inputs":[],"outputs":[{"name":"","type":"address","internalType":"address"}],"stateMutability":"view"},{"type":"function","name":"swap","inputs":[{"name":"asset","type":"address","internalType":"contract ERC20"},{"name":"permit","type":"tuple","internalType":"struct Permit2","components":[{"name":"amount","type":"uint256","internalType":"uint256"},{"name":"deadline","type":"uint256","internalType":"uint256"},{"name":"signature","type":"bytes","internalType":"bytes"}]},{"name":"socketData","type":"bytes","internalType":"bytes"},{"name":"minEXA","type":"uint256","internalType":"uint256"},{"name":"keepETH","type":"uint256","internalType":"uint256"}],"outputs":[],"stateMutability":"nonpayable"},{"type":"function","name":"swap","inputs":[{"name":"account","type":"address","internalType":"address payable"},{"name":"minEXA","type":"uint256","internalType":"uint256"},{"name":"keepETH","type":"uint256","internalType":"uint256"}],"outputs":[],"stateMutability":"payable"},{"type":"function","name":"swap","inputs":[{"name":"asset","type":"address","internalType":"contract ERC20"},{"name":"permit","type":"tuple","internalType":"struct Permit","components":[{"name":"value","type":"uint256","internalType":"uint256"},{"name":"deadline","type":"uint256","internalType":"uint256"},{"name":"v","type":"uint8","internalType":"uint8"},{"name":"r","type":"bytes32","internalType":"bytes32"},{"name":"s","type":"bytes32","internalType":"bytes32"}]},{"name":"socketData","type":"bytes","internalType":"bytes"},{"name":"minEXA","type":"uint256","internalType":"uint256"},{"name":"keepETH","type":"uint256","internalType":"uint256"}],"outputs":[],"stateMutability":"nonpayable"},{"type":"function","name":"swap","inputs":[{"name":"asset","type":"address","internalType":"contract ERC20"},{"name":"amount","type":"uint256","internalType":"uint256"},{"name":"socketData","type":"bytes","internalType":"bytes"},{"name":"minEXA","type":"uint256","internalType":"uint256"},{"name":"keepETH","type":"uint256","internalType":"uint256"}],"outputs":[],"stateMutability":"nonpayable"},{"type":"function","name":"weth","inputs":[],"outputs":[{"name":"","type":"address","internalType":"contract WETH"}],"stateMutability":"view"}],"bytecode":{"object":"0x610120604052348015610010575f80fd5b5060405161100e38038061100e83398101604081905261002f9161006f565b6001600160a01b0394851660805292841660a05290831660c052821660e05216610100526100e0565b6001600160a01b038116811461006c575f80fd5b50565b5f805f805f60a08688031215610083575f80fd5b855161008e81610058565b602087015190955061009f81610058565b60408701519094506100b081610058565b60608701519093506100c181610058565b60808701519092506100d281610058565b809150509295509295909350565b60805160a05160c05160e05161010051610e9f61016f5f395f818160a301526102a101525f8181610125015281816103350152818161039c015261079f01525f818160f2015281816104b5015281816105e201526106ae01525f81816101580152818161048801528181610544015281816105be015261060d01525f81816101ac01526106370152610e9f5ff3fe608060405260043610610087575f3560e01c806365bb797b1161005757806365bb797b1461017a5780637965b6361461019b5780639f1d0f59146101ce578063bd806218146101e1578063d084211a14610200575f80fd5b806312261ee71461009257806316f0115b146100e157806322c8f6cd146101145780633fc8cef314610147575f80fd5b3661008e57005b5f80fd5b34801561009d575f80fd5b506100c57f000000000000000000000000000000000000000000000000000000000000000081565b6040516001600160a01b03909116815260200160405180910390f35b3480156100ec575f80fd5b506100c57f000000000000000000000000000000000000000000000000000000000000000081565b34801561011f575f80fd5b506100c57f000000000000000000000000000000000000000000000000000000000000000081565b348015610152575f80fd5b506100c57f000000000000000000000000000000000000000000000000000000000000000081565b348015610185575f80fd5b50610199610194366004610b8e565b61021f565b005b3480156101a6575f80fd5b506100c57f000000000000000000000000000000000000000000000000000000000000000081565b6101996101dc366004610c1a565b610440565b3480156101ec575f80fd5b506101996101fb366004610c4c565b61072a565b34801561020b575f80fd5b5061019961021a366004610cc9565b61077b565b6040805160a080820183526001600160a01b0389811660608085018281528b3560808088018290529187528751336020808301829052828b0196909652938101829052848e01358184018190528951808303909401845296018852815191840191909120838701528587019490945285518087018752308152918201939093527f0000000000000000000000000000000000000000000000000000000000000000909116936330f28b7a9392906102d8908b018b610d17565b6040518663ffffffff1660e01b81526004016102f8959493929190610d5a565b5f604051808303815f87803b15801561030f575f80fd5b505af1158015610321573d5f803e3d5ffd5b5061035b925050506001600160a01b0387167f000000000000000000000000000000000000000000000000000000000000000087356107c0565b5f6103c585858080601f0160208091040260200160405190810160405280939291908181526020018383808284375f92019190915250506001600160a01b037f00000000000000000000000000000000000000000000000000000000000000001692915050610808565b8060200190518101906103d89190610ddb565b604051639f1d0f5960e01b815233600482015260248101859052604481018490529091503090639f1d0f599083906064015f604051808303818588803b158015610420575f80fd5b505af1158015610432573d5f803e3d5ffd5b505050505050505050505050565b34811061045f5761045a6001600160a01b03841634610854565b505050565b5f61046a8234610e06565b6040516378a051ad60e11b8152600481018290526001600160a01b037f0000000000000000000000000000000000000000000000000000000000000000811660248301529192505f917f0000000000000000000000000000000000000000000000000000000000000000169063f140a35a90604401602060405180830381865afa1580156104fa573d5f803e3d5ffd5b505050506040513d601f19601f8201168201806040525081019061051e9190610ddb565b9050838110156105425761053b6001600160a01b03861634610854565b5050505050565b7f00000000000000000000000000000000000000000000000000000000000000006001600160a01b031663d0e30db0836040518263ffffffff1660e01b81526004015f604051808303818588803b15801561059b575f80fd5b505af11580156105ad573d5f803e3d5ffd5b506106099350506001600160a01b037f00000000000000000000000000000000000000000000000000000000000000001691507f0000000000000000000000000000000000000000000000000000000000000000905084610868565b5f807f00000000000000000000000000000000000000000000000000000000000000006001600160a01b03167f00000000000000000000000000000000000000000000000000000000000000006001600160a01b03161061066b575f8361066e565b825f5b60405163022c0d9f60e01b815260048101839052602481018290526001600160a01b038a81166044830152608060648301525f60848301529294509092507f00000000000000000000000000000000000000000000000000000000000000009091169063022c0d9f9060a4015f604051808303815f87803b1580156106f1575f80fd5b505af1158015610703573d5f803e3d5ffd5b50505050845f14610721576107216001600160a01b03881686610854565b50505050505050565b61076433308735602089013561074660608b0160408c01610e19565b6001600160a01b038c16949392919060608c013560808d01356108aa565b6107738686358686868661077b565b505050505050565b6107906001600160a01b038716333088610a27565b61035b6001600160a01b0387167f0000000000000000000000000000000000000000000000000000000000000000875b5f60405163095ea7b360e01b5f52836004528260245260205f60445f80895af13d15601f3d1160015f511416171691505f606052806040525080610802575f80fd5b50505050565b606061084b83835f6040518060400160405280601e81526020017f416464726573733a206c6f772d6c6576656c2063616c6c206661696c65640000815250610a6d565b90505b92915050565b5f805f805f85875af190508061045a575f80fd5b5f60405163a9059cbb60e01b5f52836004528260245260205f60445f80895af13d15601f3d1160015f511416171691505f606052806040525080610802575f80fd5b604051623f675f60e91b81526001600160a01b0388811660048301525f91908a1690637ecebe0090602401602060405180830381865afa1580156108f0573d5f803e3d5ffd5b505050506040513d601f19601f820116820180604052508101906109149190610ddb565b60405163d505accf60e01b81526001600160a01b038a811660048301528981166024830152604482018990526064820188905260ff8716608483015260a4820186905260c48201859052919250908a169063d505accf9060e4015f604051808303815f87803b158015610985575f80fd5b505af1158015610997573d5f803e3d5ffd5b5050604051623f675f60e91b81526001600160a01b038b811660048301525f93508c169150637ecebe0090602401602060405180830381865afa1580156109e0573d5f803e3d5ffd5b505050506040513d601f19601f82011682018060405250810190610a049190610ddb565b9050610a11826001610e40565b8114610a1b575f80fd5b50505050505050505050565b5f6040516323b872dd60e01b5f5284600452836024528260445260205f60645f808a5af13d15601f3d1160015f511416171691505f60605280604052508061053b575f80fd5b606082471015610a7b575f80fd5b5f80866001600160a01b03168587604051610a969190610e53565b5f6040518083038185875af1925050503d805f8114610ad0576040519150601f19603f3d011682016040523d82523d5f602084013e610ad5565b606091505b5091509150610ae687838387610af3565b925050505b949350505050565b60608315610b1d5782515f03610b16576001600160a01b0385163b610b16575f80fd5b5081610aeb565b610aeb838381511561008e5781518083602001fd5b6001600160a01b0381168114610b46575f80fd5b50565b5f8083601f840112610b59575f80fd5b50813567ffffffffffffffff811115610b70575f80fd5b602083019150836020828501011115610b87575f80fd5b9250929050565b5f805f805f8060a08789031215610ba3575f80fd5b8635610bae81610b32565b9550602087013567ffffffffffffffff80821115610bca575f80fd5b908801906060828b031215610bdd575f80fd5b90955060408801359080821115610bf2575f80fd5b50610bff89828a01610b49565b979a9699509760608101359660809091013595509350505050565b5f805f60608486031215610c2c575f80fd5b8335610c3781610b32565b95602085013595506040909401359392505050565b5f805f805f80868803610120811215610c63575f80fd5b8735610c6e81610b32565b965060a0601f1982011215610c81575f80fd5b5060208701945060c087013567ffffffffffffffff811115610ca1575f80fd5b610cad89828a01610b49565b979a9699509760e0810135966101009091013595509350505050565b5f805f805f8060a08789031215610cde575f80fd5b8635610ce981610b32565b955060208701359450604087013567ffffffffffffffff811115610d0b575f80fd5b610bff89828a01610b49565b5f808335601e19843603018112610d2c575f80fd5b83018035915067ffffffffffffffff821115610d46575f80fd5b602001915036819003821315610b87575f80fd5b855180516001600160a01b039081168352602091820151828401528188015160408085019190915288015160608401528651811660808401529086015160a0830152841660c082015261010060e0820181905281018290525f6101208385828501375f838501820152601f909301601f191690910190910195945050505050565b5f60208284031215610deb575f80fd5b5051919050565b634e487b7160e01b5f52601160045260245ffd5b8181038181111561084e5761084e610df2565b5f60208284031215610e29575f80fd5b813560ff81168114610e39575f80fd5b9392505050565b8082018082111561084e5761084e610df2565b5f82518060208501845e5f92019182525091905056fea2646970667358221220df927a6a7944e43908e2baf6d53598edae44c5c871f0bae24e6df2274febe23164736f6c63430008190033","linkReferences":{}},"methodIdentifiers":{"exa()":"7965b636","permit2()":"12261ee7","pool()":"16f0115b","socket()":"22c8f6cd","swap(address,(uint256,uint256,bytes),bytes,uint256,uint256)":"65bb797b","swap(address,(uint256,uint256,uint8,bytes32,bytes32),bytes,uint256,uint256)":"bd806218","swap(address,uint256,bytes,uint256,uint256)":"d084211a","swap(address,uint256,uint256)":"9f1d0f59","weth()":"3fc8cef3"},"id":19}