{"abi":[{"type":"constructor","inputs":[],"stateMutability":"payable"},{"type":"function","name":"OneDayPassed","inputs":[],"outputs":[],"stateMutability":"nonpayable"},{"type":"function","name":"OneWeekPassed","inputs":[],"outputs":[],"stateMutability":"nonpayable"},{"type":"function","name":"OnehoursPassed","inputs":[],"outputs":[],"stateMutability":"nonpayable"},{"type":"function","name":"auditor_checkBorrow","inputs":[{"name":"market","type":"address","internalType":"address"},{"name":"borrower","type":"address","internalType":"address"}],"outputs":[],"stateMutability":"nonpayable"},{"type":"function","name":"auditor_enterMarket","inputs":[{"name":"market","type":"address","internalType":"address"}],"outputs":[],"stateMutability":"nonpayable"},{"type":"function","name":"auditor_exitMarket","inputs":[{"name":"market","type":"address","internalType":"address"}],"outputs":[],"stateMutability":"nonpayable"},{"type":"function","name":"auditor_handleBadDebt","inputs":[{"name":"account","type":"address","internalType":"address"}],"outputs":[],"stateMutability":"nonpayable"},{"type":"function","name":"market_approve","inputs":[{"name":"spender","type":"address","internalType":"address"},{"name":"amount","type":"uint256","internalType":"uint256"}],"outputs":[],"stateMutability":"nonpayable"},{"type":"function","name":"market_borrow","inputs":[{"name":"assets","type":"uint256","internalType":"uint256"},{"name":"receiver","type":"address","internalType":"address"},{"name":"borrower","type":"address","internalType":"address"}],"outputs":[],"stateMutability":"nonpayable"},{"type":"function","name":"market_borrowAtMaturity","inputs":[{"name":"maturity","type":"uint256","internalType":"uint256"},{"name":"assets","type":"uint256","internalType":"uint256"},{"name":"maxAssets","type":"uint256","internalType":"uint256"},{"name":"receiver","type":"address","internalType":"address"},{"name":"borrower","type":"address","internalType":"address"}],"outputs":[],"stateMutability":"nonpayable"},{"type":"function","name":"market_deposit","inputs":[{"name":"assets","type":"uint256","internalType":"uint256"},{"name":"receiver","type":"address","internalType":"address"}],"outputs":[],"stateMutability":"nonpayable"},{"type":"function","name":"market_depositAtMaturity","inputs":[{"name":"maturity","type":"uint256","internalType":"uint256"},{"name":"assets","type":"uint256","internalType":"uint256"},{"name":"minAssetsRequired","type":"uint256","internalType":"uint256"},{"name":"receiver","type":"address","internalType":"address"}],"outputs":[],"stateMutability":"nonpayable"},{"type":"function","name":"market_liquidate","inputs":[{"name":"borrower","type":"address","internalType":"address"},{"name":"maxAssets","type":"uint256","internalType":"uint256"},{"name":"seizeMarket","type":"address","internalType":"address"}],"outputs":[],"stateMutability":"nonpayable"},{"type":"function","name":"market_mint","inputs":[{"name":"shares","type":"uint256","internalType":"uint256"},{"name":"receiver","type":"address","internalType":"address"}],"outputs":[],"stateMutability":"nonpayable"},{"type":"function","name":"market_permit","inputs":[{"name":"owner","type":"address","internalType":"address"},{"name":"spender","type":"address","internalType":"address"},{"name":"value","type":"uint256","internalType":"uint256"},{"name":"deadline","type":"uint256","internalType":"uint256"},{"name":"v","type":"uint8","internalType":"uint8"},{"name":"r","type":"bytes32","internalType":"bytes32"},{"name":"s","type":"bytes32","internalType":"bytes32"}],"outputs":[],"stateMutability":"nonpayable"},{"type":"function","name":"market_redeem","inputs":[{"name":"shares","type":"uint256","internalType":"uint256"},{"name":"receiver","type":"address","internalType":"address"},{"name":"owner","type":"address","internalType":"address"}],"outputs":[],"stateMutability":"nonpayable"},{"type":"function","name":"market_refund","inputs":[{"name":"borrowShares","type":"uint256","internalType":"uint256"},{"name":"borrower","type":"address","internalType":"address"}],"outputs":[],"stateMutability":"nonpayable"},{"type":"function","name":"market_repay","inputs":[{"name":"assets","type":"uint256","internalType":"uint256"},{"name":"borrower","type":"address","internalType":"address"}],"outputs":[],"stateMutability":"nonpayable"},{"type":"function","name":"market_repayAtMaturity","inputs":[{"name":"maturity","type":"uint256","internalType":"uint256"},{"name":"positionAssets","type":"uint256","internalType":"uint256"},{"name":"maxAssets","type":"uint256","internalType":"uint256"},{"name":"borrower","type":"address","internalType":"address"}],"outputs":[],"stateMutability":"nonpayable"},{"type":"function","name":"market_transfer","inputs":[{"name":"to","type":"address","internalType":"address"},{"name":"shares","type":"uint256","internalType":"uint256"}],"outputs":[],"stateMutability":"nonpayable"},{"type":"function","name":"market_transferFrom","inputs":[{"name":"from","type":"address","internalType":"address"},{"name":"to","type":"address","internalType":"address"},{"name":"shares","type":"uint256","internalType":"uint256"}],"outputs":[],"stateMutability":"nonpayable"},{"type":"function","name":"market_withdraw","inputs":[{"name":"assets","type":"uint256","internalType":"uint256"},{"name":"receiver","type":"address","internalType":"address"},{"name":"owner","type":"address","internalType":"address"}],"outputs":[],"stateMutability":"nonpayable"},{"type":"function","name":"market_withdrawAtMaturity","inputs":[{"name":"maturity","type":"uint256","internalType":"uint256"},{"name":"positionAssets","type":"uint256","internalType":"uint256"},{"name":"minAssetsRequired","type":"uint256","internalType":"uint256"},{"name":"receiver","type":"address","internalType":"address"},{"name":"owner","type":"address","internalType":"address"}],"outputs":[],"stateMutability":"nonpayable"},{"type":"function","name":"mockPriceFeed_setDaiPrice","inputs":[{"name":"price_","type":"int256","internalType":"int256"}],"outputs":[],"stateMutability":"nonpayable"},{"type":"function","name":"rewardsController_claim","inputs":[{"name":"numOfOperations","type":"uint256","internalType":"uint256"}],"outputs":[],"stateMutability":"nonpayable"},{"type":"function","name":"rewardsController_claimAll","inputs":[{"name":"to","type":"address","internalType":"address"}],"outputs":[],"stateMutability":"nonpayable"},{"type":"function","name":"rewardsController_claimPermit","inputs":[{"name":"numOfOperations","type":"uint256","internalType":"uint256"},{"name":"randAccount","type":"uint256","internalType":"uint256"}],"outputs":[],"stateMutability":"nonpayable"},{"type":"function","name":"rewardsController_handleBorrow","inputs":[{"name":"account","type":"address","internalType":"address"}],"outputs":[],"stateMutability":"nonpayable"},{"type":"function","name":"rewardsController_handleDeposit","inputs":[{"name":"account","type":"address","internalType":"address"}],"outputs":[],"stateMutability":"nonpayable"},{"type":"function","name":"rewardsController_renounceRole","inputs":[{"name":"role","type":"bytes32","internalType":"bytes32"},{"name":"account","type":"address","internalType":"address"}],"outputs":[],"stateMutability":"nonpayable"},{"type":"function","name":"rewardsController_revokeRole","inputs":[{"name":"role","type":"bytes32","internalType":"bytes32"},{"name":"account","type":"address","internalType":"address"}],"outputs":[],"stateMutability":"nonpayable"},{"type":"event","name":"Log","inputs":[{"name":"","type":"string","indexed":false,"internalType":"string"}],"anonymous":false}],"bytecode":{"object":"0x608060405261000c610011565b61428d565b6040516372eb5f8160e11b81525f60048201525f805160206201a8e48339815191529063e5d6bf02906024015f604051808303815f87803b158015610054575f80fd5b505af1158015610066573d5f803e3d5ffd5b50506040516001625e79b760e01b03198152600160048201525f805160206201a8e4833981519152925063ffa1864991506024016020604051808303815f875af11580156100b6573d5f803e3d5ffd5b505050506040513d601f19601f820116820180604052508101906100da9190613d83565b5f80546001600160a01b0319166001600160a01b03929092169190911790556040516001625e79b760e01b03198152600260048201525f805160206201a8e48339815191529063ffa18649906024016020604051808303815f875af1158015610145573d5f803e3d5ffd5b505050506040513d601f19601f820116820180604052508101906101699190613d83565b600180546001600160a01b0319166001600160a01b03929092169190911790556040516001625e79b760e01b03198152600360048201525f805160206201a8e48339815191529063ffa18649906024016020604051808303815f875af11580156101d5573d5f803e3d5ffd5b505050506040513d601f19601f820116820180604052508101906101f99190613d83565b600280546001600160a01b0319166001600160a01b03929092169190911790556040516001625e79b760e01b031981526004808201525f805160206201a8e48339815191529063ffa18649906024016020604051808303815f875af1158015610264573d5f803e3d5ffd5b505050506040513d601f19601f820116820180604052508101906102889190613d83565b600380546001600160a01b0319166001600160a01b03929092169190911790556040516001625e79b760e01b03198152600560048201525f805160206201a8e48339815191529063ffa18649906024016020604051808303815f875af11580156102f4573d5f803e3d5ffd5b505050506040513d601f19601f820116820180604052508101906103189190613d83565b600480546001600160a01b039283166001600160a01b031991821681179092555f5460158054831691851691821790556001546016805484169186169190911790556002546017805484169186169190911790556003546018805484169190951617909355601980549091169091179055737e5f4552091a69125d5dfcb7b8c2659029395bdf146103ab576103ab613db9565b6001546001600160a01b0316732b5ad5c4795c026514f8317c7a215e218dccd6cf146103d9576103d9613db9565b6002546001600160a01b0316736813eb9362372eef6200f3b1dbc3f819671cba691461040757610407613db9565b6003546001600160a01b0316731eff47bc3a10a45d4b230b5d10e37751fe6aa7181461043557610435613db9565b6004546001600160a01b031673e1ab8145f7e55dc933d51a18c793f901a3a0b2761461046357610463613db9565b601260405161047190613c6c565b61047b9190613dcd565b604051809103905ff080158015610494573d5f803e3d5ffd5b50600580546001600160a01b0319166001600160a01b03929092169190911790556040516104c190613c7a565b604051809103905ff0801580156104da573d5f803e3d5ffd5b50600680546001600160a01b0319166001600160a01b039290921691909117905560405160129061050a90613c6c565b6105149190613e23565b604051809103905ff08015801561052d573d5f803e3d5ffd5b50600780546001600160a01b0319166001600160a01b039290921691909117905560405160129061055d90613c6c565b6060808252600a9082015269115e184814995dd85c9960b21b608082015260a0602082018190526003908201526245584160e81b60c082015260ff909116604082015260e001604051809103905ff0801580156105bc573d5f803e3d5ffd5b50600880546001600160a01b0319166001600160a01b039290921691909117905560408051600280825260608201835290916020830190803683375050815161060c926014925060200190613c88565b50600754601480546001600160a01b03909216915f9061062e5761062e613da5565b5f91825260209091200180546001600160a01b0319166001600160a01b0392831617905560085460148054919092169190600190811061067057610670613da5565b5f918252602082200180546001600160a01b0319166001600160a01b0393841617905560075460148054919093169291906106ad576106ad613da5565b5f918252602090912001546001600160a01b0316146106ce576106ce613db9565b600854601480546001600160a01b039092169160019081106106f2576106f2613da5565b5f918252602090912001546001600160a01b03161461071357610713613db9565b601260405161072190613ceb565b908152602001604051809103905ff080158015610740573d5f803e3d5ffd5b5060405161074d90613cf9565b6001600160a01b0390911681526040602082018190525f90820152606001604051809103905ff080158015610784573d5f803e3d5ffd5b50600b80546001600160a01b0319166001600160a01b0392909216918217905560408051808201825267013fbe85edc900008152662386f26fc100006020820190815291516301f950f560e11b815290516001600160801b039081166004830152915190911660248201526303f2a1ea906044015f604051808303815f87803b15801561080f575f80fd5b505af1158015610821573d5f803e3d5ffd5b5050600b54604080516318caf8e360e31b81526001600160a01b0390921660048301526024820152600760448201526620bab234ba37b960c91b60648201525f805160206201a8e4833981519152925063c657c71891506084015f604051808303815f87803b158015610892575f80fd5b505af11580156108a4573d5f803e3d5ffd5b505050505f80600b5f9054906101000a90046001600160a01b03166001600160a01b0316638c765e946040518163ffffffff1660e01b81526004016040805180830381865afa1580156108f9573d5f803e3d5ffd5b505050506040513d601f19601f8201168201806040525081019061091d9190613e94565b91509150816001600160801b031667013fbe85edc900001461094157610941613db9565b806001600160801b0316662386f26fc100001461096057610960613db9565b6012670de0b6b3a764000060405161097790613d07565b60ff90921682526020820152604001604051809103905ff08015801561099f573d5f803e3d5ffd5b50600f80546001600160a01b0319166001600160a01b03928316179055600554600b546040519183169216906109d490613d15565b6001600160a01b03928316815291166020820152604001604051809103905ff080158015610a04573d5f803e3d5ffd5b50604051610a1190613cf9565b6001600160a01b0390911681526040602082018190525f90820152606001604051809103905ff080158015610a48573d5f803e3d5ffd5b50600980546001600160a01b0319166001600160a01b0392831690811790915560115490916397bce8d091600391670de0b6b3a76400009116610a956201518066470de4df820000613ec5565b67016345785d8a00005f661057acf5f780006705d423c655aa00006040518963ffffffff1660e01b8152600401610ad3989796959493929190613ee4565b5f604051808303815f87803b158015610aea575f80fd5b505af1158015610afc573d5f803e3d5ffd5b505060098054604080516318caf8e360e31b81526001600160a01b03909216600483015260248201526044810191909152684d61726b657444414960b81b60648201525f805160206201a8e4833981519152925063c657c71891506084015f604051808303815f87803b158015610b71575f80fd5b505af1158015610b83573d5f803e3d5ffd5b505050506012670de0b6b3a7640000604051610b9e90613d07565b60ff90921682526020820152604001604051809103905ff080158015610bc6573d5f803e3d5ffd5b50601080546001600160a01b0319166001600160a01b03928316179055601154600954604080516379fed8ad60e11b8152905192841693919091169163f3fdb15a916004808201926020929091908290030181865afa158015610c2b573d5f803e3d5ffd5b505050506040513d601f19601f82011682018060405250810190610c4f9190613d83565b6001600160a01b031614610c6557610c65613db9565b600554600954604080516338d52e0f60e01b815290516001600160a01b0393841693909216916338d52e0f916004808201926020929091908290030181865afa158015610cb4573d5f803e3d5ffd5b505050506040513d601f19601f82011682018060405250810190610cd89190613d83565b6001600160a01b031614610cee57610cee613db9565b600654600b546040516001600160a01b039283169290911690610d1090613d15565b6001600160a01b03928316815291166020820152604001604051809103905ff080158015610d40573d5f803e3d5ffd5b50604051610d4d90613cf9565b6001600160a01b0390911681526040602082018190525f90820152606001604051809103905ff080158015610d84573d5f803e3d5ffd5b50600a80546001600160a01b0319166001600160a01b0392831690811790915560115490916397bce8d091600c91670de0b6b3a76400009116610dd16201518066470de4df820000613ec5565b6040516001600160e01b031960e087901b168152610120600480830191909152610124820152630ae8aa8960e31b61014482015260ff90941660248501526001600160801b0390921660448401526001600160a01b03166064830152608482015267016345785d8a000060a48201525f60c4820152661057acf5f7800060e48201526705d423c655aa0000610104820152610164015f604051808303815f87803b158015610e7d575f80fd5b505af1158015610e8f573d5f803e3d5ffd5b5050600a8054604080516318caf8e360e31b81526001600160a01b039092166004830152602482015260448101919091526909ac2e4d6cae8ae8aa8960b31b60648201525f805160206201a8e4833981519152925063c657c71891506084015f604051808303815f87803b158015610f05575f80fd5b505af1158015610f17573d5f803e3d5ffd5b5050601154600a54604080516379fed8ad60e11b815290516001600160a01b03938416955092909116925063f3fdb15a9160048083019260209291908290030181865afa158015610f6a573d5f803e3d5ffd5b505050506040513d601f19601f82011682018060405250810190610f8e9190613d83565b6001600160a01b031614610fa457610fa4613db9565b600654600a54604080516338d52e0f60e01b815290516001600160a01b0393841693909216916338d52e0f916004808201926020929091908290030181865afa158015610ff3573d5f803e3d5ffd5b505050506040513d601f19601f820116820180604052508101906110179190613d83565b6001600160a01b03161461102d5761102d613db9565b600b5460095460105460405163e037945b60e01b81526001600160a01b0392831660048201529082166024820152670b1a2bc2ec500000604482015291169063e037945b906064015f604051808303815f87803b15801561108c575f80fd5b505af115801561109e573d5f803e3d5ffd5b5050600b54600a54604080516351e1498b60e01b815290516001600160a01b03938416955063e037945b9450929091169184916351e1498b9160048083019260209291908290030181865afa1580156110f9573d5f803e3d5ffd5b505050506040513d601f19601f8201168201806040525081019061111d9190613d83565b6040516001600160e01b031960e085901b1681526001600160a01b03928316600482015291166024820152670c7d713b49da000060448201526064015f604051808303815f87803b158015611170575f80fd5b505af1158015611182573d5f803e3d5ffd5b5050600b54600a54604051633fe5d42560e01b81526001600160a01b03918216600482015291169250633fe5d42591506024015f604051808303815f87803b1580156111cc575f80fd5b505af11580156111de573d5f803e3d5ffd5b5050600b54600954604051633fe5d42560e01b81526001600160a01b03918216600482015291169250633fe5d42591506024015f604051808303815f87803b158015611228575f80fd5b505af115801561123a573d5f803e3d5ffd5b505050505f600b5f9054906101000a90046001600160a01b03166001600160a01b031663375a7cba6040518163ffffffff1660e01b81526004015f60405180830381865afa15801561128e573d5f803e3d5ffd5b505050506040513d5f823e601f3d908101601f191682016040526112b59190810190613faf565b905080516002146112c8576112c8613db9565b6112d0611960565b600954601280546001600160a01b039283166001600160a01b031991821617909155600a546013805491909316911617905561130a613676565b601180546001600160a01b0319166001600160a01b039290921691821790556040805162148a1360e81b8152905163148a1300916004808201926020929091908290030181865afa158015611361573d5f803e3d5ffd5b505050506040513d601f19601f820116820180604052508101906113859190614048565b670f43fc2c04ee00001461139b5761139b613db9565b60115f9054906101000a90046001600160a01b03166001600160a01b03166351b8b4916040518163ffffffff1660e01b8152600401602060405180830381865afa1580156113eb573d5f803e3d5ffd5b505050506040513d601f19601f8201168201806040525081019061140f9190614048565b6722b1c8c1227a00001461142557611425613db9565b60115f9054906101000a90046001600160a01b03166001600160a01b0316631cd16f146040518163ffffffff1660e01b8152600401602060405180830381865afa158015611475573d5f803e3d5ffd5b505050506040513d601f19601f820116820180604052508101906114999190614048565b6702c68af0bb140000146114af576114af613db9565b60115f9054906101000a90046001600160a01b03166001600160a01b031663d9641e626040518163ffffffff1660e01b8152600401602060405180830381865afa1580156114ff573d5f803e3d5ffd5b505050506040513d601f19601f820116820180604052508101906115239190614048565b6706f05b59d3b200001461153957611539613db9565b60405161154590613d23565b604051809103905ff08015801561155e573d5f803e3d5ffd5b5060405161156b90613cf9565b6001600160a01b0390911681526040602082018190525f90820152606001604051809103905ff0801580156115a2573d5f803e3d5ffd5b50600c80546001600160a01b0319166001600160a01b039290921691821790556040805163204a7f0760e21b81529051638129fc1c916004808201925f9290919082900301818387803b1580156115f7575f80fd5b505af1158015611609573d5f803e3d5ffd5b5050600c54604080516318caf8e360e31b81526001600160a01b039092166004830152602482015260116044820152702932bbb0b93239a1b7b73a3937b63632b960791b60648201525f805160206201a8e4833981519152925063c657c71891506084015f604051808303815f87803b158015611684575f80fd5b505af1158015611696573d5f803e3d5ffd5b505050506116a861375160201b60201c565b600c546040805163b7eec41360e01b815290515f926001600160a01b03169163b7eec41391600480830192869291908290030181865afa1580156116ee573d5f803e3d5ffd5b505050506040513d5f823e601f3d908101601f19168201604052611715919081019061405f565b9050805160021461172857611728613db9565b600b54600a546040516001600160a01b03928316929091169061174a90613d31565b6001600160a01b03928316815291166020820152604001604051809103905ff08015801561177a573d5f803e3d5ffd5b50600d80546001600160a01b0319166001600160a01b0392831690811790915560095460405163095ea7b360e01b815260048101929092525f1960248301529091169063095ea7b3906044016020604051808303815f875af11580156117e2573d5f803e3d5ffd5b505050506040513d601f19601f8201168201806040525081019061180691906140e8565b50600a54600d5460405163095ea7b360e01b81526001600160a01b0391821660048201525f19602482015291169063095ea7b3906044016020604051808303815f875af1158015611859573d5f803e3d5ffd5b505050506040513d601f19601f8201168201806040525081019061187d91906140e8565b5060065460405163c88a5e6d60e01b81526001600160a01b0390911660048201526a01a784379d99db4200000060248201525f805160206201a8e48339815191529063c88a5e6d906044015f604051808303815f87803b1580156118df575f80fd5b505af11580156118f1573d5f803e3d5ffd5b5050600a546040516001600160a01b0390911692506119109150613d3f565b6001600160a01b039091168152602001604051809103905ff080158015611939573d5f803e3d5ffd5b50600e80546001600160a01b0319166001600160a01b039290921691909117905550505050565b5f54604080516318caf8e360e31b81526001600160a01b039092166004830152602482015260036044820152622137b160e91b60648201525f805160206201a8e48339815191529063c657c718906084015f604051808303815f87803b1580156119c8575f80fd5b505af11580156119da573d5f803e3d5ffd5b5050600154604080516318caf8e360e31b81526001600160a01b03909216600483015260248201526005604482015264416c69636560d81b60648201525f805160206201a8e4833981519152925063c657c71891506084015f604051808303815f87803b158015611a49575f80fd5b505af1158015611a5b573d5f803e3d5ffd5b5050600254604080516318caf8e360e31b81526001600160a01b0390921660048084019190915260248301919091526044820152634a616b6560e01b60648201525f805160206201a8e4833981519152925063c657c71891506084015f604051808303815f87803b158015611ace575f80fd5b505af1158015611ae0573d5f803e3d5ffd5b5050600354604080516318caf8e360e31b81526001600160a01b0390921660048084019190915260248301919091526044820152634c69736160e01b60648201525f805160206201a8e4833981519152925063c657c71891506084015f604051808303815f87803b158015611b53575f80fd5b505af1158015611b65573d5f803e3d5ffd5b505060048054604080516318caf8e360e31b81526001600160a01b039092169282019290925260248101919091526003604482015262546f6d60e81b60648201525f805160206201a8e4833981519152925063c657c71891506084015f604051808303815f87803b158015611bd8575f80fd5b505af1158015611bea573d5f803e3d5ffd5b50506005545f546040516340c10f1960e01b81526001600160a01b039182166004820152690a968163f0a57b4000006024820152911692506340c10f1991506044015f604051808303815f87803b158015611c43575f80fd5b505af1158015611c55573d5f803e3d5ffd5b50506005546001546040516340c10f1960e01b81526001600160a01b039182166004820152690a968163f0a57b4000006024820152911692506340c10f1991506044015f604051808303815f87803b158015611caf575f80fd5b505af1158015611cc1573d5f803e3d5ffd5b50506005546002546040516340c10f1960e01b81526001600160a01b039182166004820152690a968163f0a57b4000006024820152911692506340c10f1991506044015f604051808303815f87803b158015611d1b575f80fd5b505af1158015611d2d573d5f803e3d5ffd5b50506005546003546040516340c10f1960e01b81526001600160a01b039182166004820152690a968163f0a57b4000006024820152911692506340c10f1991506044015f604051808303815f87803b158015611d87575f80fd5b505af1158015611d99573d5f803e3d5ffd5b5050600554600480546040516340c10f1960e01b81526001600160a01b0391821692810192909252690a968163f0a57b400000602483015290911692506340c10f1991506044015f604051808303815f87803b158015611df7575f80fd5b505af1158015611e09573d5f803e3d5ffd5b50506005545f546040516370a0823160e01b81526001600160a01b039182166004820152911692506370a082319150602401602060405180830381865afa158015611e56573d5f803e3d5ffd5b505050506040513d601f19601f82011682018060405250810190611e7a9190614048565b690a968163f0a57b40000014611e9257611e92613db9565b6005546001546040516370a0823160e01b81526001600160a01b0391821660048201529116906370a0823190602401602060405180830381865afa158015611edc573d5f803e3d5ffd5b505050506040513d601f19601f82011682018060405250810190611f009190614048565b690a968163f0a57b40000014611f1857611f18613db9565b6005546002546040516370a0823160e01b81526001600160a01b0391821660048201529116906370a0823190602401602060405180830381865afa158015611f62573d5f803e3d5ffd5b505050506040513d601f19601f82011682018060405250810190611f869190614048565b690a968163f0a57b40000014611f9e57611f9e613db9565b6005546003546040516370a0823160e01b81526001600160a01b0391821660048201529116906370a0823190602401602060405180830381865afa158015611fe8573d5f803e3d5ffd5b505050506040513d601f19601f8201168201806040525081019061200c9190614048565b690a968163f0a57b4000001461202457612024613db9565b600554600480546040516370a0823160e01b81526001600160a01b0391821692810192909252909116906370a0823190602401602060405180830381865afa158015612072573d5f803e3d5ffd5b505050506040513d601f19601f820116820180604052508101906120969190614048565b690a968163f0a57b400000146120ae576120ae613db9565b5f5460405163c88a5e6d60e01b81526001600160a01b039091166004820152690a968163f0a57b40000060248201525f805160206201a8e48339815191529063c88a5e6d906044015f604051808303815f87803b15801561210d575f80fd5b505af115801561211f573d5f803e3d5ffd5b505060015460405163c88a5e6d60e01b81526001600160a01b039091166004820152690a968163f0a57b40000060248201525f805160206201a8e4833981519152925063c88a5e6d91506044015f604051808303815f87803b158015612183575f80fd5b505af1158015612195573d5f803e3d5ffd5b505060025460405163c88a5e6d60e01b81526001600160a01b039091166004820152690a968163f0a57b40000060248201525f805160206201a8e4833981519152925063c88a5e6d91506044015f604051808303815f87803b1580156121f9575f80fd5b505af115801561220b573d5f803e3d5ffd5b505060035460405163c88a5e6d60e01b81526001600160a01b039091166004820152690a968163f0a57b40000060248201525f805160206201a8e4833981519152925063c88a5e6d91506044015f604051808303815f87803b15801561226f575f80fd5b505af1158015612281573d5f803e3d5ffd5b50506004805460405163c88a5e6d60e01b81526001600160a01b0390911691810191909152690a968163f0a57b40000060248201525f805160206201a8e4833981519152925063c88a5e6d91506044015f604051808303815f87803b1580156122e8575f80fd5b505af11580156122fa573d5f803e3d5ffd5b50505f5460405163ca669fa760e01b81526001600160a01b0390911660048201525f805160206201a8e4833981519152925063ca669fa791506024015f604051808303815f87803b15801561234d575f80fd5b505af115801561235f573d5f803e3d5ffd5b5050505060065f9054906101000a90046001600160a01b03166001600160a01b031663d0e30db069065a4da25d3016c000006040518263ffffffff1660e01b81526004015f604051808303818588803b1580156123ba575f80fd5b505af11580156123cc573d5f803e3d5ffd5b505060015460405163ca669fa760e01b81526001600160a01b0390911660048201525f805160206201a8e4833981519152935063ca669fa7925060240190505f604051808303815f87803b158015612422575f80fd5b505af1158015612434573d5f803e3d5ffd5b5050505060065f9054906101000a90046001600160a01b03166001600160a01b031663d0e30db069065a4da25d3016c000006040518263ffffffff1660e01b81526004015f604051808303818588803b15801561248f575f80fd5b505af11580156124a1573d5f803e3d5ffd5b505060025460405163ca669fa760e01b81526001600160a01b0390911660048201525f805160206201a8e4833981519152935063ca669fa7925060240190505f604051808303815f87803b1580156124f7575f80fd5b505af1158015612509573d5f803e3d5ffd5b5050505060065f9054906101000a90046001600160a01b03166001600160a01b031663d0e30db069065a4da25d3016c000006040518263ffffffff1660e01b81526004015f604051808303818588803b158015612564575f80fd5b505af1158015612576573d5f803e3d5ffd5b505060035460405163ca669fa760e01b81526001600160a01b0390911660048201525f805160206201a8e4833981519152935063ca669fa7925060240190505f604051808303815f87803b1580156125cc575f80fd5b505af11580156125de573d5f803e3d5ffd5b5050505060065f9054906101000a90046001600160a01b03166001600160a01b031663d0e30db069065a4da25d3016c000006040518263ffffffff1660e01b81526004015f604051808303818588803b158015612639575f80fd5b505af115801561264b573d5f803e3d5ffd5b50506004805460405163ca669fa760e01b81526001600160a01b03909116918101919091525f805160206201a8e4833981519152935063ca669fa7925060240190505f604051808303815f87803b1580156126a4575f80fd5b505af11580156126b6573d5f803e3d5ffd5b5050505060065f9054906101000a90046001600160a01b03166001600160a01b031663d0e30db069065a4da25d3016c000006040518263ffffffff1660e01b81526004015f604051808303818588803b158015612711575f80fd5b505af1158015612723573d5f803e3d5ffd5b50506006545f546040516370a0823160e01b81526001600160a01b039182166004820152911693506370a0823192506024019050602060405180830381865afa158015612772573d5f803e3d5ffd5b505050506040513d601f19601f820116820180604052508101906127969190614048565b69065a4da25d3016c00000146127ae576127ae613db9565b6006546001546040516370a0823160e01b81526001600160a01b0391821660048201529116906370a0823190602401602060405180830381865afa1580156127f8573d5f803e3d5ffd5b505050506040513d601f19601f8201168201806040525081019061281c9190614048565b69065a4da25d3016c000001461283457612834613db9565b6006546002546040516370a0823160e01b81526001600160a01b0391821660048201529116906370a0823190602401602060405180830381865afa15801561287e573d5f803e3d5ffd5b505050506040513d601f19601f820116820180604052508101906128a29190614048565b69065a4da25d3016c00000146128ba576128ba613db9565b6006546003546040516370a0823160e01b81526001600160a01b0391821660048201529116906370a0823190602401602060405180830381865afa158015612904573d5f803e3d5ffd5b505050506040513d601f19601f820116820180604052508101906129289190614048565b69065a4da25d3016c000001461294057612940613db9565b600654600480546040516370a0823160e01b81526001600160a01b0391821692810192909252909116906370a0823190602401602060405180830381865afa15801561298e573d5f803e3d5ffd5b505050506040513d601f19601f820116820180604052508101906129b29190614048565b69065a4da25d3016c00000146129ca576129ca613db9565b5f546001600160a01b03163169043c33c1937564800000146129ee576129ee613db9565b6001546001600160a01b03163169043c33c193756480000014612a1357612a13613db9565b6002546001600160a01b03163169043c33c193756480000014612a3857612a38613db9565b6003546001600160a01b03163169043c33c193756480000014612a5d57612a5d613db9565b6004546001600160a01b03163169043c33c193756480000014612a8257612a82613db9565b6005546040516340c10f1960e01b815230600482015269d3c21bcecceda100000060248201526001600160a01b03909116906340c10f19906044015f604051808303815f87803b158015612ad4575f80fd5b505af1158015612ae6573d5f803e3d5ffd5b505060405163c88a5e6d60e01b81523060048201526a01a784379d99db4200000060248201525f805160206201a8e4833981519152925063c88a5e6d91506044015f604051808303815f87803b158015612b3e575f80fd5b505af1158015612b50573d5f803e3d5ffd5b5050505060065f9054906101000a90046001600160a01b03166001600160a01b031663d0e30db069d3c21bcecceda10000006040518263ffffffff1660e01b81526004015f604051808303818588803b158015612bab575f80fd5b505af1158015612bbd573d5f803e3d5ffd5b50506006546040516370a0823160e01b81523060048201526001600160a01b0390911693506370a0823192506024019050602060405180830381865afa158015612c09573d5f803e3d5ffd5b505050506040513d601f19601f82011682018060405250810190612c2d9190614048565b69d3c21bcecceda100000014612c4557612c45613db9565b6005546040516370a0823160e01b81523060048201526001600160a01b03909116906370a0823190602401602060405180830381865afa158015612c8b573d5f803e3d5ffd5b505050506040513d601f19601f82011682018060405250810190612caf9190614048565b69d3c21bcecceda100000014612cc757612cc7613db9565b4769d3c21bcecceda100000014612ce057612ce0613db9565b60055460095460405163095ea7b360e01b81526001600160a01b0391821660048201525f19602482015291169063095ea7b3906044016020604051808303815f875af1158015612d32573d5f803e3d5ffd5b505050506040513d601f19601f82011682018060405250810190612d5691906140e8565b50600654600a5460405163095ea7b360e01b81526001600160a01b0391821660048201525f19602482015291169063095ea7b3906044016020604051808303815f875af1158015612da9573d5f803e3d5ffd5b505050506040513d601f19601f82011682018060405250810190612dcd91906140e8565b505f5460405163ca669fa760e01b81526001600160a01b0390911660048201525f805160206201a8e48339815191529063ca669fa7906024015f604051808303815f87803b158015612e1d575f80fd5b505af1158015612e2f573d5f803e3d5ffd5b505060055460095460405163095ea7b360e01b81526001600160a01b0391821660048201525f1960248201529116925063095ea7b391506044016020604051808303815f875af1158015612e85573d5f803e3d5ffd5b505050506040513d601f19601f82011682018060405250810190612ea991906140e8565b505f5460405163ca669fa760e01b81526001600160a01b0390911660048201525f805160206201a8e48339815191529063ca669fa7906024015f604051808303815f87803b158015612ef9575f80fd5b505af1158015612f0b573d5f803e3d5ffd5b5050600654600a5460405163095ea7b360e01b81526001600160a01b0391821660048201525f1960248201529116925063095ea7b391506044016020604051808303815f875af1158015612f61573d5f803e3d5ffd5b505050506040513d601f19601f82011682018060405250810190612f8591906140e8565b5060015460405163ca669fa760e01b81526001600160a01b0390911660048201525f805160206201a8e48339815191529063ca669fa7906024015f604051808303815f87803b158015612fd6575f80fd5b505af1158015612fe8573d5f803e3d5ffd5b505060055460095460405163095ea7b360e01b81526001600160a01b0391821660048201525f1960248201529116925063095ea7b391506044016020604051808303815f875af115801561303e573d5f803e3d5ffd5b505050506040513d601f19601f8201168201806040525081019061306291906140e8565b5060015460405163ca669fa760e01b81526001600160a01b0390911660048201525f805160206201a8e48339815191529063ca669fa7906024015f604051808303815f87803b1580156130b3575f80fd5b505af11580156130c5573d5f803e3d5ffd5b5050600654600a5460405163095ea7b360e01b81526001600160a01b0391821660048201525f1960248201529116925063095ea7b391506044016020604051808303815f875af115801561311b573d5f803e3d5ffd5b505050506040513d601f19601f8201168201806040525081019061313f91906140e8565b5060025460405163ca669fa760e01b81526001600160a01b0390911660048201525f805160206201a8e48339815191529063ca669fa7906024015f604051808303815f87803b158015613190575f80fd5b505af11580156131a2573d5f803e3d5ffd5b505060055460095460405163095ea7b360e01b81526001600160a01b0391821660048201525f1960248201529116925063095ea7b391506044016020604051808303815f875af11580156131f8573d5f803e3d5ffd5b505050506040513d601f19601f8201168201806040525081019061321c91906140e8565b5060025460405163ca669fa760e01b81526001600160a01b0390911660048201525f805160206201a8e48339815191529063ca669fa7906024015f604051808303815f87803b15801561326d575f80fd5b505af115801561327f573d5f803e3d5ffd5b5050600654600a5460405163095ea7b360e01b81526001600160a01b0391821660048201525f1960248201529116925063095ea7b391506044016020604051808303815f875af11580156132d5573d5f803e3d5ffd5b505050506040513d601f19601f820116820180604052508101906132f991906140e8565b5060035460405163ca669fa760e01b81526001600160a01b0390911660048201525f805160206201a8e48339815191529063ca669fa7906024015f604051808303815f87803b15801561334a575f80fd5b505af115801561335c573d5f803e3d5ffd5b505060055460095460405163095ea7b360e01b81526001600160a01b0391821660048201525f1960248201529116925063095ea7b391506044016020604051808303815f875af11580156133b2573d5f803e3d5ffd5b505050506040513d601f19601f820116820180604052508101906133d691906140e8565b5060035460405163ca669fa760e01b81526001600160a01b0390911660048201525f805160206201a8e48339815191529063ca669fa7906024015f604051808303815f87803b158015613427575f80fd5b505af1158015613439573d5f803e3d5ffd5b5050600654600a5460405163095ea7b360e01b81526001600160a01b0391821660048201525f1960248201529116925063095ea7b391506044016020604051808303815f875af115801561348f573d5f803e3d5ffd5b505050506040513d601f19601f820116820180604052508101906134b391906140e8565b506004805460405163ca669fa760e01b81526001600160a01b03909116918101919091525f805160206201a8e48339815191529063ca669fa7906024015f604051808303815f87803b158015613507575f80fd5b505af1158015613519573d5f803e3d5ffd5b505060055460095460405163095ea7b360e01b81526001600160a01b0391821660048201525f1960248201529116925063095ea7b391506044016020604051808303815f875af115801561356f573d5f803e3d5ffd5b505050506040513d601f19601f8201168201806040525081019061359391906140e8565b506004805460405163ca669fa760e01b81526001600160a01b03909116918101919091525f805160206201a8e48339815191529063ca669fa7906024015f604051808303815f87803b1580156135e7575f80fd5b505af11580156135f9573d5f803e3d5ffd5b5050600654600a5460405163095ea7b360e01b81526001600160a01b0391821660048201525f1960248201529116925063095ea7b391506044016020604051808303815f875af115801561364f573d5f803e3d5ffd5b505050506040513d601f19601f8201168201806040525081019061367391906140e8565b50565b5f604051806101600160405280667c585087238000815260200167011c37937e080000815260200167120a871cc00200008152602001670a688906bd8b00008152602001670f43fc2c04ee000081526020016722b1c8c1227a000081526020016702c68af0bb14000081526020016706f05b59d3b200008152602001662386f26fc100008152602001670853a0d2313c00008152602001680821ab0d44149800008152505f60405161372790613d4d565b613732929190614107565b604051809103905ff08015801561374b573d5f803e3d5ffd5b50905090565b604080516003808252608082019092525f91816020015b604080516101c0810182525f8082526020808301829052928201819052606082018190526080820181905260a0820181905260c0820181905260e08201819052610100820181905261012082018190526101408201819052610160820181905261018082018190526101a082015282525f19909201910181613768575050604080516101c0810182526009546001600160a01b0390811682526007541660208201525f9181018290524263ffffffff166060820152626ebe0060808201526404a817c80060a0820152686c6b935b8bbd40000060c08201526706f05b59d3b2000060e0820152671bc16d674ec80000610100820152670bcbce7f1b1500006101208201526708e1bc9bf0400000610140820152610160810182905266470de4df820000610180820152662386f26fc100006101a08201528251929350918391906138b4576138b4613da5565b602090810291909101810191909152604080516101c081018252600a546001600160a01b03908116825260075416928101929092525f90820181905263ffffffff42166060830152626ebe00608083015269043c33c193756480000060a0830152686c6b935b8bbd40000060c08301526706f05b59d3b2000060e0830152671bc16d674ec80000610100830152670bcbce7f1b150000610120830152670b3db2b55c11000061014083015261016082015266470de4df820000610180820152662386f26fc100006101a082015281518290600190811061399657613996613da5565b602090810291909101810191909152604080516101c0810182526009546001600160a01b03908116825260085416928101929092525f90820181905263ffffffff42166060830152621baf8060808301526404a817c80060a0830152686c6b935b8bbd40000060c08301526706f05b59d3b2000060e08301526729a2241af62c000061010083015267058d15e1762800006101208301526708e1bc9bf04000006101408301526101608201526658d15e17628000610180820152662386f26fc100006101a0820152815182906002908110613a7357613a73613da5565b6020908102919091010152600c54604051636f3f53e360e11b81526001600160a01b039091169063de7ea7c690613aae908490600401614193565b5f604051808303815f87803b158015613ac5575f80fd5b505af1158015613ad7573d5f803e3d5ffd5b5050600954600c5460405163bee36bb360e01b81526001600160a01b0391821660048201529116925063bee36bb391506024015f604051808303815f87803b158015613b21575f80fd5b505af1158015613b33573d5f803e3d5ffd5b5050600a54600c5460405163bee36bb360e01b81526001600160a01b0391821660048201529116925063bee36bb391506024015f604051808303815f87803b158015613b7d575f80fd5b505af1158015613b8f573d5f803e3d5ffd5b5050600754600c546040516340c10f1960e01b81526001600160a01b03918216600482015268d8d726b7177a8000006024820152911692506340c10f1991506044015f604051808303815f87803b158015613be8575f80fd5b505af1158015613bfa573d5f803e3d5ffd5b5050600854600c546040516340c10f1960e01b81526001600160a01b03918216600482015268d8d726b7177a8000006024820152911692506340c10f1991506044015f604051808303815f87803b158015613c53575f80fd5b505af1158015613c65573d5f803e3d5ffd5b5050505050565b610ee48062005fb683390190565b610f438062006e9a83390190565b828054828255905f5260205f20908101928215613cdb579160200282015b82811115613cdb57825182546001600160a01b0319166001600160a01b03909116178255602090920191600190910190613ca6565b50613ce7929150613d5b565b5090565b6128838062007ddd83390190565b6103b3806200a66083390190565b610204806200aa1383390190565b616449806200ac1783390190565b614c9c806201106083390190565b610d118062015cfc83390190565b610fc88062016a0d83390190565b612f0f80620179d583390190565b5b80821115613ce7575f8155600101613d5c565b6001600160a01b0381168114613673575f80fd5b5f60208284031215613d93575f80fd5b8151613d9e81613d6f565b9392505050565b634e487b7160e01b5f52603260045260245ffd5b634e487b7160e01b5f52600160045260245ffd5b606081525f613def60608301600381526244414960e81b602082015260400190565b8281036020840152613e1181600381526244414960e81b602082015260400190565b91505060ff8316604083015292915050565b606081525f613e4460608301600281526104f560f41b602082015260400190565b8281036020840152613e1181600281526104f560f41b602082015260400190565b634e487b7160e01b5f52604160045260245ffd5b80516001600160801b0381168114613e8f575f80fd5b919050565b5f8060408385031215613ea5575f80fd5b613eae83613e79565b9150613ebc60208401613e79565b90509250929050565b5f82613edf57634e487b7160e01b5f52601260045260245ffd5b500490565b5f610120808352613f07818401600381526244414960e81b602082015260400190565b60ff9b909b16602084015250506001600160801b0397881660408201526001600160a01b03969096166060870152608086019490945260a085019290925290931660c083015260e0820192909252610100015290565b604051601f8201601f191681016001600160401b0381118282101715613f8557613f85613e65565b604052919050565b5f6001600160401b03821115613fa557613fa5613e65565b5060051b60200190565b5f6020808385031215613fc0575f80fd5b82516001600160401b03811115613fd5575f80fd5b8301601f81018513613fe5575f80fd5b8051613ff8613ff382613f8d565b613f5d565b81815260059190911b82018301908381019087831115614016575f80fd5b928401925b8284101561403d57835161402e81613d6f565b8252928401929084019061401b565b979650505050505050565b5f60208284031215614058575f80fd5b5051919050565b5f6020808385031215614070575f80fd5b82516001600160401b03811115614085575f80fd5b8301601f81018513614095575f80fd5b80516140a3613ff382613f8d565b81815260059190911b820183019083810190878311156140c1575f80fd5b928401925b8284101561403d5783516140d981613d6f565b825292840192908401906140c6565b5f602082840312156140f8575f80fd5b81518015158114613d9e575f80fd5b5f61018082019050835182526020840151602083015260408401516040830152606084015160608301526080840151608083015260a084015160a083015260c084015160c083015260e084015160e0830152610100808501518184015250610120808501518184015250610140808501518184015250613d9e6101608301846001600160a01b03169052565b602080825282518282018190525f919060409081850190868401855b8281101561428057815180516001600160a01b0390811686528782015181168887015286820151168686015260608082015163ffffffff16908601526080808201519086015260a0808201519086015260c0808201519086015260e0808201519086015261010080820151600f0b90860152610120808201516001600160401b03908116918701919091526101408083015182169087015261016080830151821690870152610180808301518216908701526101a09182015116908501526101c090930192908501906001016141af565b5091979650505050505050565b611d1b806200429b5f395ff3fe608060405234801561000f575f80fd5b50600436106101dc575f3560e01c80636fe6cd5211610109578063ab34e8271161009e578063deed64871161006e578063deed6487146103c2578063e12dde4e146103d5578063f058e916146103e8578063fe188c05146103fb575f80fd5b8063ab34e82714610376578063b47f10ae14610389578063c41bdd551461039c578063d3915e2a146103af575f80fd5b806389d2ce48116100d957806389d2ce48146103355780638b3e807214610348578063909c1f4e1461035b578063a774d8161461036e575f80fd5b80636fe6cd52146102f45780638384c8b51461030757806387d9445a1461031a578063883b8f8614610322575f80fd5b806320dcb87d1161017f57806352ab060d1161014f57806352ab060d146102b357806366942c24146102bb57806366b241c6146102ce5780636ad0e854146102e1575f80fd5b806320dcb87d14610267578063236ffcae1461027a5780632f8048141461028d5780634fba649c146102a0575f80fd5b806311fb531c116101ba57806311fb531c1461021b578063180a19571461022e57806319ebbc0a146102415780632093fc1c14610254575f80fd5b80630662101f146101e057806306fe473c146101f55780630a455e4f14610208575b5f80fd5b6101f36101ee366004611542565b61040e565b005b6101f3610203366004611570565b61046b565b6101f36102163660046115c2565b6104fe565b6101f3610229366004611601565b610581565b6101f361023c36600461163f565b610604565b6101f361024f366004611661565b610636565b6101f3610262366004611601565b610694565b6101f361027536600461168f565b6106db565b6101f36102883660046116bb565b610715565b6101f361029b36600461163f565b610756565b6101f36102ae36600461163f565b6107ca565b6101f36107fc565b6101f36102c93660046116ef565b61086a565b6101f36102dc366004611661565b6108df565b6101f36102ef366004611570565b610954565b6101f36103023660046116ef565b6109a3565b6101f3610315366004611727565b6109dc565b6101f3610a6c565b6101f3610330366004611661565b610a93565b6101f3610343366004611661565b610b07565b6101f3610356366004611661565b610b40565b6101f361036936600461163f565b610b79565b6101f3610bab565b6101f361038436600461163f565b610bd1565b6101f36103973660046116bb565b610c03565b6101f36103aa366004611793565b610c44565b6101f36103bd3660046117d1565b610cc0565b6101f36103d03660046116bb565b611262565b6101f36103e3366004611542565b6112a3565b6101f36103f6366004611661565b6114d7565b6101f361040936600461163f565b611510565b601054604051637bd1840360e11b8152600481018390526001600160a01b039091169063f7a30806906024015b5f604051808303815f87803b158015610452575f80fd5b505af1158015610464573d5f803e3d5ffd5b5050505050565b600954604051630d2dcf3160e11b81526004810187905260248101869052604481018590526001600160a01b038481166064830152838116608483015290911690631a5b9e629060a4015b6020604051808303815f875af11580156104d2573d5f803e3d5ffd5b505050506040513d601f19601f820116820180604052508101906104f691906117f1565b505050505050565b600954604051630922980160e31b81526001600160a01b03858116600483015260248201859052838116604483015290911690634914c008906064015b6020604051808303815f875af1158015610557573d5f803e3d5ffd5b505050506040513d601f19601f8201168201806040525081019061057b91906117f1565b50505050565b600954604051631a7be8f960e11b81526004810186905260248101859052604481018490526001600160a01b038381166064830152909116906334f7d1f2906084015b6020604051808303815f875af11580156105e0573d5f803e3d5ffd5b505050506040513d601f19601f8201168201806040525081019061046491906117f1565b600c54604051630149e46f60e01b81526001600160a01b03838116600483015290911690630149e46f9060240161043b565b600c5460405163d547741f60e01b8152600481018490526001600160a01b0383811660248301529091169063d547741f906044015b5f604051808303815f87803b158015610682575f80fd5b505af11580156104f6573d5f803e3d5ffd5b600954604051633c6f317f60e01b81526004810186905260248101859052604481018490526001600160a01b03838116606483015290911690633c6f317f906084016105c4565b600b54604051637b9d893160e01b81526001600160a01b038481166004830152838116602483015290911690637b9d89319060440161066b565b600954604051632d182be560e21b8152600481018590526001600160a01b03848116602483015283811660448301529091169063b460af949060640161053b565b600c546040516377329f3560e01b81526001600160a01b038381166004830152909116906377329f35906024015f604051808303815f875af115801561079e573d5f803e3d5ffd5b505050506040513d5f823e601f3d908101601f191682016040526107c591908101906118dc565b505050565b600b54604051633fe5d42560e01b81526001600160a01b03838116600483015290911690633fe5d4259060240161043b565b737109709ecfa91a80626ff3989d68f67f5b1dd12d63e5d6bf026108234262093a806119af565b6040518263ffffffff1660e01b815260040161084191815260200190565b5f604051808303815f87803b158015610858575f80fd5b505af115801561057b573d5f803e3d5ffd5b60095460405163a9059cbb60e01b81526001600160a01b038481166004830152602482018490529091169063a9059cbb906044015b6020604051808303815f875af11580156108bb573d5f803e3d5ffd5b505050506040513d601f19601f820116820180604052508101906107c591906119c8565b600954604051636e553f6560e01b8152600481018490526001600160a01b03838116602483015290911690636e553f65906044015b6020604051808303815f875af1158015610930573d5f803e3d5ffd5b505050506040513d601f19601f820116820180604052508101906107c591906117f1565b60095460405163502d048d60e11b81526004810187905260248101869052604481018590526001600160a01b03848116606483015283811660848301529091169063a05a091a9060a4016104b6565b60095460405163095ea7b360e01b81526001600160a01b038481166004830152602482018490529091169063095ea7b39060440161089f565b60095460405163d505accf60e01b81526001600160a01b0389811660048301528881166024830152604482018890526064820187905260ff8616608483015260a4820185905260c482018490529091169063d505accf9060e4015f604051808303815f87803b158015610a4d575f80fd5b505af1158015610a5f573d5f803e3d5ffd5b5050505050505050505050565b737109709ecfa91a80626ff3989d68f67f5b1dd12d63e5d6bf0261082342620151806119af565b60095460405163acb7081560e01b8152600481018490526001600160a01b0383811660248301529091169063acb70815906044015b60408051808303815f875af1158015610ae3573d5f803e3d5ffd5b505050506040513d601f19601f8201168201806040525081019061057b91906119e7565b6009546040516394bf804d60e01b8152600481018490526001600160a01b038381166024830152909116906394bf804d90604401610914565b600954604051631eb489b760e21b8152600481018490526001600160a01b03838116602483015290911690637ad226dc90604401610ac8565b600c54604051636c912dad60e01b81526001600160a01b03838116600483015290911690636c912dad9060240161043b565b737109709ecfa91a80626ff3989d68f67f5b1dd12d63e5d6bf0261082342610e106119af565b600b54604051630ede4edd60e41b81526001600160a01b0383811660048301529091169063ede4edd09060240161043b565b600954604051635d043b2960e11b8152600481018590526001600160a01b03848116602483015283811660448301529091169063ba0876529060640161053b565b6009546040516323b872dd60e01b81526001600160a01b038581166004830152848116602483015260448201849052909116906323b872dd906064016020604051808303815f875af1158015610c9c573d5f803e3d5ffd5b505050506040513d601f19601f8201168201806040525081019061057b91906119c8565b610ccb600283611a09565b610cd69060016119af565b91505f8267ffffffffffffffff811115610cf257610cf2611808565b604051908082528060200260200182016040528015610d3757816020015b604080518082019091525f815260606020820152815260200190600190039081610d105790505b5090505f5b838160ff161015610e1d576040805160028082526060820183525f926020830190803683370190505090506001815f81518110610d7b57610d7b611a28565b6020026020010190151590811515815250505f81600181518110610da157610da1611a28565b602002602001019015159081151581525050604051806040016040528060128460ff1660028110610dd457610dd4611a28565b01546001600160a01b031681526020018290528351849060ff8516908110610dfe57610dfe611a28565b6020026020010181905250508080610e1590611a3c565b915050610d3c565b50610e29600583611a09565b91505f825f03610e3b57506001610e6f565b82600103610e4b57506002610e6f565b82600203610e5b57506003610e6f565b82600303610e6b57506004610e6f565b5060055b6040805160c0810182525f80825260606020830181905282840182905282018190526080820181905260a082015290516001625e79b760e01b0319815260048101839052737109709ecfa91a80626ff3989d68f67f5b1dd12d9063ffa18649906024016020604051808303815f875af1158015610eee573d5f803e3d5ffd5b505050506040513d601f19601f82011682018060405250810190610f129190611a5a565b6001600160a01b031681526014805460408051602080840282018101909252828152929190830182828015610f6e57602002820191905f5260205f20905b81546001600160a01b03168152600190910190602001808311610f50575b505050506020808401929092525042604080840191909152600c548151633644e51560e01b81529151737109709ecfa91a80626ff3989d68f67f5b1dd12d9363e341eaa49387936001600160a01b031692633644e515926004808401939192918290030181865afa158015610fe5573d5f803e3d5ffd5b505050506040513d601f19601f8201168201806040525081019061100991906117f1565b84516020860151600c54604051623f675f60e91b81526001600160a01b0380851660048301527f8b66e7894ecc5180298853ab3de30e198ac84d63bc1587efdff2eaa728ec269e949333939092911690637ecebe0090602401602060405180830381865afa15801561107d573d5f803e3d5ffd5b505050506040513d601f19601f820116820180604052508101906110a191906117f1565b89604001516040516020016110bb96959493929190611a75565b604051602081830303815290604052805190602001206040516020016110f892919061190160f01b81526002810192909252602282015260420190565b604051602081830303815290604052805190602001206040518363ffffffff1660e01b8152600401611134929190918252602082015260400190565b6060604051808303815f875af1158015611150573d5f803e3d5ffd5b505050506040513d601f19601f820116820180604052508101906111749190611ae9565b60a0840152608083015260ff16606082015260405163ca669fa760e01b8152336004820152737109709ecfa91a80626ff3989d68f67f5b1dd12d9063ca669fa7906024015f604051808303815f87803b1580156111cf575f80fd5b505af11580156111e1573d5f803e3d5ffd5b5050600c5460405163176b6cb760e21b81526001600160a01b039091169250635dadb2dc91506112179086908590600401611bbb565b5f604051808303815f875af1158015611232573d5f803e3d5ffd5b505050506040513d5f823e601f3d908101601f1916820160405261125991908101906118dc565b50505050505050565b600954604051633545906160e21b8152600481018590526001600160a01b03848116602483015283811660448301529091169063d51641849060640161053b565b6112ae600282611a09565b6112b99060016119af565b90505f8167ffffffffffffffff8111156112d5576112d5611808565b60405190808252806020026020018201604052801561131a57816020015b604080518082019091525f8152606060208201528152602001906001900390816112f35790505b5090505f5b828160ff161015611400576040805160028082526060820183525f926020830190803683370190505090506001815f8151811061135e5761135e611a28565b6020026020010190151590811515815250505f8160018151811061138457611384611a28565b602002602001019015159081151581525050604051806040016040528060128460ff16600281106113b7576113b7611a28565b01546001600160a01b031681526020018290528351849060ff85169081106113e1576113e1611a28565b60200260200101819052505080806113f890611a3c565b91505061131f565b5060405163ca669fa760e01b8152336004820152737109709ecfa91a80626ff3989d68f67f5b1dd12d9063ca669fa7906024015f604051808303815f87803b15801561144a575f80fd5b505af115801561145c573d5f803e3d5ffd5b5050600c5460405163d219f39560e01b81526001600160a01b03909116925063d219f39591506114959084903390601490600401611c75565b5f604051808303815f875af11580156114b0573d5f803e3d5ffd5b505050506040513d5f823e601f3d908101601f1916820160405261057b91908101906118dc565b600c54604051631b2b455f60e11b8152600481018490526001600160a01b038381166024830152909116906336568abe9060440161066b565b600b546040516311fd52e160e01b81526001600160a01b038381166004830152909116906311fd52e19060240161043b565b5f60208284031215611552575f80fd5b5035919050565b6001600160a01b038116811461156d575f80fd5b50565b5f805f805f60a08688031215611584575f80fd5b85359450602086013593506040860135925060608601356115a481611559565b915060808601356115b481611559565b809150509295509295909350565b5f805f606084860312156115d4575f80fd5b83356115df81611559565b92506020840135915060408401356115f681611559565b809150509250925092565b5f805f8060808587031215611614575f80fd5b843593506020850135925060408501359150606085013561163481611559565b939692955090935050565b5f6020828403121561164f575f80fd5b813561165a81611559565b9392505050565b5f8060408385031215611672575f80fd5b82359150602083013561168481611559565b809150509250929050565b5f80604083850312156116a0575f80fd5b82356116ab81611559565b9150602083013561168481611559565b5f805f606084860312156116cd575f80fd5b8335925060208401356116df81611559565b915060408401356115f681611559565b5f8060408385031215611700575f80fd5b823561170b81611559565b946020939093013593505050565b60ff8116811461156d575f80fd5b5f805f805f805f60e0888a03121561173d575f80fd5b873561174881611559565b9650602088013561175881611559565b95506040880135945060608801359350608088013561177681611719565b9699959850939692959460a0840135945060c09093013592915050565b5f805f606084860312156117a5575f80fd5b83356117b081611559565b925060208401356117c081611559565b929592945050506040919091013590565b5f80604083850312156117e2575f80fd5b50508035926020909101359150565b5f60208284031215611801575f80fd5b5051919050565b634e487b7160e01b5f52604160045260245ffd5b604051601f8201601f1916810167ffffffffffffffff8111828210171561184557611845611808565b604052919050565b5f67ffffffffffffffff82111561186657611866611808565b5060051b60200190565b5f82601f83011261187f575f80fd5b8151602061189461188f8361184d565b61181c565b8083825260208201915060208460051b8701019350868411156118b5575f80fd5b602086015b848110156118d157805183529183019183016118ba565b509695505050505050565b5f80604083850312156118ed575f80fd5b825167ffffffffffffffff80821115611904575f80fd5b818501915085601f830112611917575f80fd5b8151602061192761188f8361184d565b82815260059290921b84018101918181019089841115611945575f80fd5b948201945b8386101561196c57855161195d81611559565b8252948201949082019061194a565b91880151919650909350505080821115611984575f80fd5b5061199185828601611870565b9150509250929050565b634e487b7160e01b5f52601160045260245ffd5b808201808211156119c2576119c261199b565b92915050565b5f602082840312156119d8575f80fd5b8151801515811461165a575f80fd5b5f80604083850312156119f8575f80fd5b505080516020909101519092909150565b5f82611a2357634e487b7160e01b5f52601260045260245ffd5b500690565b634e487b7160e01b5f52603260045260245ffd5b5f60ff821660ff8103611a5157611a5161199b565b60010192915050565b5f60208284031215611a6a575f80fd5b815161165a81611559565b5f60c08201888352602060018060a01b03808a166020860152808916604086015260c0606086015282885180855260e08701915060208a0194505f5b81811015611acf578551841683529484019491840191600101611ab1565b505060808601979097525050505060a00152949350505050565b5f805f60608486031215611afb575f80fd5b8351611b0681611719565b602085015160409095015190969495509392505050565b5f82825180855260208086019550808260051b8401018186015f5b84811015611bae57858303601f19018952815180516001600160a01b03168452840151604085850181905281519085018190529085019060608501905f905b80821015611b9957835115158352928701929187019160019190910190611b77565b50509985019993505090830190600101611b38565b5090979650505050505050565b604081525f611bcd6040830185611b1d565b82810360208481019190915284516001600160a01b031682528481015160c08383018190528151908401819052908201905f9060e08501905b80831015611c315783516001600160a01b031682526020820191508484019350600183019250611c06565b506040880151604086015260608801519350611c52606086018560ff169052565b6080880151608086015260a088015160a086015280955050505050509392505050565b606081525f611c876060830186611b1d565b6001600160a01b03858116602085810191909152848303604086015285548084525f87815282812094929392840191905b81811015611cd6578554841683526001958601959285019201611cb8565b5090999850505050505050505056fea2646970667358221220912888f7efe6c5655166945ceca7efb5a82b73889ac2391559acef8610dbbbed64736f6c6343000819003360e060405234801561000f575f80fd5b50604051610ee4380380610ee483398101604081905261002e916101a0565b8282825f61003c848261029b565b506001610049838261029b565b5060ff81166080524660a05261005d61006c565b60c052506103cc945050505050565b5f7f8b73c3c69bb8fe3d512ecc4cf759cc79239f7b179b0ffacaa9a75d522b39400f5f60405161009c919061035a565b6040805191829003822060208301939093528101919091527fc89efdaa54c0f20c7adf612882df0950f5a951637e0307cdcb4c672f298b8bc660608201524660808201523060a082015260c00160405160208183030381529060405280519060200120905090565b634e487b7160e01b5f52604160045260245ffd5b5f82601f830112610127575f80fd5b81516001600160401b038082111561014157610141610104565b604051601f8301601f19908116603f0116810190828211818310171561016957610169610104565b81604052838152866020858801011115610181575f80fd5b8360208701602083015e5f602085830101528094505050505092915050565b5f805f606084860312156101b2575f80fd5b83516001600160401b03808211156101c8575f80fd5b6101d487838801610118565b945060208601519150808211156101e9575f80fd5b506101f686828701610118565b925050604084015160ff8116811461020c575f80fd5b809150509250925092565b600181811c9082168061022b57607f821691505b60208210810361024957634e487b7160e01b5f52602260045260245ffd5b50919050565b601f82111561029657805f5260205f20601f840160051c810160208510156102745750805b601f840160051c820191505b81811015610293575f8155600101610280565b50505b505050565b81516001600160401b038111156102b4576102b4610104565b6102c8816102c28454610217565b8461024f565b602080601f8311600181146102fb575f84156102e45750858301515b5f19600386901b1c1916600185901b178555610352565b5f85815260208120601f198616915b828110156103295788860151825594840194600190910190840161030a565b508582101561034657878501515f19600388901b60f8161c191681555b505060018460011b0185555b505050505050565b5f80835461036781610217565b6001828116801561037f5760018114610394576103c0565b60ff19841687528215158302870194506103c0565b875f526020805f205f5b858110156103b75781548a82015290840190820161039e565b50505082870194505b50929695505050505050565b60805160a05160c051610aee6103f65f395f61045c01525f61042701525f6101590152610aee5ff3fe608060405234801561000f575f80fd5b50600436106100e5575f3560e01c806370a08231116100885780639dc29fac116100635780639dc29fac146101f0578063a9059cbb14610203578063d505accf14610216578063dd62ed3e14610229575f80fd5b806370a08231146101aa5780637ecebe00146101c957806395d89b41146101e8575f80fd5b806323b872dd116100c357806323b872dd14610141578063313ce567146101545780633644e5151461018d57806340c10f1914610195575f80fd5b806306fdde03146100e9578063095ea7b31461010757806318160ddd1461012a575b5f80fd5b6100f1610253565b6040516100fe9190610819565b60405180910390f35b61011a610115366004610869565b6102de565b60405190151581526020016100fe565b61013360025481565b6040519081526020016100fe565b61011a61014f366004610891565b61034a565b61017b7f000000000000000000000000000000000000000000000000000000000000000081565b60405160ff90911681526020016100fe565b610133610424565b6101a86101a3366004610869565b61047e565b005b6101336101b83660046108ca565b60036020525f908152604090205481565b6101336101d73660046108ca565b60056020525f908152604090205481565b6100f161048c565b6101a86101fe366004610869565b610499565b61011a610211366004610869565b6104a3565b6101a86102243660046108ea565b610506565b610133610237366004610957565b600460209081525f928352604080842090915290825290205481565b5f805461025f90610988565b80601f016020809104026020016040519081016040528092919081815260200182805461028b90610988565b80156102d65780601f106102ad576101008083540402835291602001916102d6565b820191905f5260205f20905b8154815290600101906020018083116102b957829003601f168201915b505050505081565b335f8181526004602090815260408083206001600160a01b038716808552925280832085905551919290917f8c5be1e5ebec7d5bd14f71427d1e84f3dd0314c0f7b2291e5b200ac8c7c3b925906103389086815260200190565b60405180910390a35060015b92915050565b6001600160a01b0383165f9081526004602090815260408083203384529091528120545f1981146103a35761037f83826109d4565b6001600160a01b0386165f9081526004602090815260408083203384529091529020555b6001600160a01b0385165f90815260036020526040812080548592906103ca9084906109d4565b90915550506001600160a01b038085165f81815260036020526040908190208054870190555190918716905f80516020610a99833981519152906104119087815260200190565b60405180910390a3506001949350505050565b5f7f00000000000000000000000000000000000000000000000000000000000000004614610459576104546106cb565b905090565b507f000000000000000000000000000000000000000000000000000000000000000090565b6104888282610763565b5050565b6001805461025f90610988565b61048882826107ba565b335f908152600360205260408120805483919083906104c39084906109d4565b90915550506001600160a01b0383165f81815260036020526040908190208054850190555133905f80516020610a99833981519152906103389086815260200190565b42841015610512575f80fd5b5f600161051d610424565b6001600160a01b038a81165f8181526005602090815260409182902080546001810190915582517f6e71edae12b1b97f4d1f60370fef10105fa2faae0126114a169c64845d6126c98184015280840194909452938d166060840152608083018c905260a083019390935260c08083018b90528151808403909101815260e08301909152805192019190912061190160f01b6101008301526101028201929092526101228101919091526101420160408051601f1981840301815282825280516020918201205f84529083018083525260ff871690820152606081018590526080810184905260a0016020604051602081039080840390855afa158015610625573d5f803e3d5ffd5b5050604051601f1901519150506001600160a01b0381161580159061065b5750876001600160a01b0316816001600160a01b0316145b610663575f80fd5b6001600160a01b039081165f9081526004602090815260408083208a8516808552908352928190208990555188815291928a16917f8c5be1e5ebec7d5bd14f71427d1e84f3dd0314c0f7b2291e5b200ac8c7c3b925910160405180910390a350505050505050565b5f7f8b73c3c69bb8fe3d512ecc4cf759cc79239f7b179b0ffacaa9a75d522b39400f5f6040516106fb91906109e7565b6040805191829003822060208301939093528101919091527fc89efdaa54c0f20c7adf612882df0950f5a951637e0307cdcb4c672f298b8bc660608201524660808201523060a082015260c00160405160208183030381529060405280519060200120905090565b8060025f8282546107749190610a85565b90915550506001600160a01b0382165f818152600360209081526040808320805486019055518481525f80516020610a9983398151915291015b60405180910390a35050565b6001600160a01b0382165f90815260036020526040812080548392906107e19084906109d4565b90915550506002805482900390556040518181525f906001600160a01b038416905f80516020610a99833981519152906020016107ae565b602081525f82518060208401528060208501604085015e5f604082850101526040601f19601f83011684010191505092915050565b80356001600160a01b0381168114610864575f80fd5b919050565b5f806040838503121561087a575f80fd5b6108838361084e565b946020939093013593505050565b5f805f606084860312156108a3575f80fd5b6108ac8461084e565b92506108ba6020850161084e565b9150604084013590509250925092565b5f602082840312156108da575f80fd5b6108e38261084e565b9392505050565b5f805f805f805f60e0888a031215610900575f80fd5b6109098861084e565b96506109176020890161084e565b95506040880135945060608801359350608088013560ff8116811461093a575f80fd5b9699959850939692959460a0840135945060c09093013592915050565b5f8060408385031215610968575f80fd5b6109718361084e565b915061097f6020840161084e565b90509250929050565b600181811c9082168061099c57607f821691505b6020821081036109ba57634e487b7160e01b5f52602260045260245ffd5b50919050565b634e487b7160e01b5f52601160045260245ffd5b81810381811115610344576103446109c0565b5f8083545f60018260011c91506001831680610a0457607f831692505b60208084108203610a2357634e487b7160e01b5f52602260045260245ffd5b818015610a375760018114610a4c57610a77565b60ff1986168952841515850289019650610a77565b5f8a8152602090205f5b86811015610a6f5781548b820152908501908301610a56565b505084890196505b509498975050505050505050565b80820180821115610344576103446109c056feddf252ad1be2c89b69c2b068fc378daa952ba7f163c4a11628f55a4df523b3efa26469706673582212201e87f7c44d64bfc02821b58a379499fbad2fbd6f074e71a504677ef9d3429e1464736f6c6343000819003360e060405234801561000f575f80fd5b506040518060400160405280600d81526020016c2bb930b83832b21022ba3432b960991b815250604051806040016040528060048152602001630ae8aa8960e31b8152506012825f908161006391906101c0565b50600161007083826101c0565b5060ff81166080524660a052610084610090565b60c052506102f1915050565b5f7f8b73c3c69bb8fe3d512ecc4cf759cc79239f7b179b0ffacaa9a75d522b39400f5f6040516100c0919061027f565b6040805191829003822060208301939093528101919091527fc89efdaa54c0f20c7adf612882df0950f5a951637e0307cdcb4c672f298b8bc660608201524660808201523060a082015260c00160405160208183030381529060405280519060200120905090565b634e487b7160e01b5f52604160045260245ffd5b600181811c9082168061015057607f821691505b60208210810361016e57634e487b7160e01b5f52602260045260245ffd5b50919050565b601f8211156101bb57805f5260205f20601f840160051c810160208510156101995750805b601f840160051c820191505b818110156101b8575f81556001016101a5565b50505b505050565b81516001600160401b038111156101d9576101d9610128565b6101ed816101e7845461013c565b84610174565b602080601f831160018114610220575f84156102095750858301515b5f19600386901b1c1916600185901b178555610277565b5f85815260208120601f198616915b8281101561024e5788860151825594840194600190910190840161022f565b508582101561026b57878501515f19600388901b60f8161c191681555b505060018460011b0185555b505050505050565b5f80835461028c8161013c565b600182811680156102a457600181146102b9576102e5565b60ff19841687528215158302870194506102e5565b875f526020805f205f5b858110156102dc5781548a8201529084019082016102c3565b50505082870194505b50929695505050505050565b60805160a05160c051610c2861031b5f395f61057e01525f61054901525f6101ba0152610c285ff3fe6080604052600436106100dc575f3560e01c806370a082311161007c578063a9059cbb11610057578063a9059cbb1461026c578063d0e30db01461028b578063d505accf14610293578063dd62ed3e146102b2575f80fd5b806370a08231146102025780637ecebe001461022d57806395d89b4114610258575f80fd5b806323b872dd116100b757806323b872dd1461016b5780632e1a7d4d1461018a578063313ce567146101a95780633644e515146101ee575f80fd5b806306fdde03146100ef578063095ea7b31461011957806318160ddd14610148575f80fd5b366100eb576100e96102e8565b005b5f80fd5b3480156100fa575f80fd5b50610103610329565b604051610110919061093c565b60405180910390f35b348015610124575f80fd5b5061013861013336600461098c565b6103b4565b6040519015158152602001610110565b348015610153575f80fd5b5061015d60025481565b604051908152602001610110565b348015610176575f80fd5b506101386101853660046109b4565b610420565b348015610195575f80fd5b506100e96101a43660046109ed565b6104fa565b3480156101b4575f80fd5b506101dc7f000000000000000000000000000000000000000000000000000000000000000081565b60405160ff9091168152602001610110565b3480156101f9575f80fd5b5061015d610546565b34801561020d575f80fd5b5061015d61021c366004610a04565b60036020525f908152604090205481565b348015610238575f80fd5b5061015d610247366004610a04565b60056020525f908152604090205481565b348015610263575f80fd5b506101036105a0565b348015610277575f80fd5b5061013861028636600461098c565b6105ad565b6100e96102e8565b34801561029e575f80fd5b506100e96102ad366004610a24565b610610565b3480156102bd575f80fd5b5061015d6102cc366004610a91565b600460209081525f928352604080842090915290825290205481565b6102f233346107d5565b60405134815233907fe1fffcc4923d04b559f4d29a8bfc6cda04eb5b0d3c460751c2402c5c5cc9109c9060200160405180910390a2565b5f805461033590610ac2565b80601f016020809104026020016040519081016040528092919081815260200182805461036190610ac2565b80156103ac5780601f10610383576101008083540402835291602001916103ac565b820191905f5260205f20905b81548152906001019060200180831161038f57829003601f168201915b505050505081565b335f8181526004602090815260408083206001600160a01b038716808552925280832085905551919290917f8c5be1e5ebec7d5bd14f71427d1e84f3dd0314c0f7b2291e5b200ac8c7c3b9259061040e9086815260200190565b60405180910390a35060015b92915050565b6001600160a01b0383165f9081526004602090815260408083203384529091528120545f198114610479576104558382610b0e565b6001600160a01b0386165f9081526004602090815260408083203384529091529020555b6001600160a01b0385165f90815260036020526040812080548592906104a0908490610b0e565b90915550506001600160a01b038085165f81815260036020526040908190208054870190555190918716905f80516020610bd3833981519152906104e79087815260200190565b60405180910390a3506001949350505050565b610504338261082c565b60405181815233907f7fcf532c15f0a6db0bd6d0e038bea71d30d808c7d98cb3bf7268a95bf5081b659060200160405180910390a2610543338261088b565b50565b5f7f0000000000000000000000000000000000000000000000000000000000000000461461057b576105766108a4565b905090565b507f000000000000000000000000000000000000000000000000000000000000000090565b6001805461033590610ac2565b335f908152600360205260408120805483919083906105cd908490610b0e565b90915550506001600160a01b0383165f81815260036020526040908190208054850190555133905f80516020610bd38339815191529061040e9086815260200190565b4284101561061c575f80fd5b5f6001610627610546565b6001600160a01b038a81165f8181526005602090815260409182902080546001810190915582517f6e71edae12b1b97f4d1f60370fef10105fa2faae0126114a169c64845d6126c98184015280840194909452938d166060840152608083018c905260a083019390935260c08083018b90528151808403909101815260e08301909152805192019190912061190160f01b6101008301526101028201929092526101228101919091526101420160408051601f1981840301815282825280516020918201205f84529083018083525260ff871690820152606081018590526080810184905260a0016020604051602081039080840390855afa15801561072f573d5f803e3d5ffd5b5050604051601f1901519150506001600160a01b038116158015906107655750876001600160a01b0316816001600160a01b0316145b61076d575f80fd5b6001600160a01b039081165f9081526004602090815260408083208a8516808552908352928190208990555188815291928a16917f8c5be1e5ebec7d5bd14f71427d1e84f3dd0314c0f7b2291e5b200ac8c7c3b925910160405180910390a350505050505050565b8060025f8282546107e69190610b21565b90915550506001600160a01b0382165f818152600360209081526040808320805486019055518481525f80516020610bd383398151915291015b60405180910390a35050565b6001600160a01b0382165f9081526003602052604081208054839290610853908490610b0e565b90915550506002805482900390556040518181525f906001600160a01b038416905f80516020610bd383398151915290602001610820565b5f805f805f85875af190508061089f575f80fd5b505050565b5f7f8b73c3c69bb8fe3d512ecc4cf759cc79239f7b179b0ffacaa9a75d522b39400f5f6040516108d49190610b34565b6040805191829003822060208301939093528101919091527fc89efdaa54c0f20c7adf612882df0950f5a951637e0307cdcb4c672f298b8bc660608201524660808201523060a082015260c00160405160208183030381529060405280519060200120905090565b602081525f82518060208401528060208501604085015e5f604082850101526040601f19601f83011684010191505092915050565b80356001600160a01b0381168114610987575f80fd5b919050565b5f806040838503121561099d575f80fd5b6109a683610971565b946020939093013593505050565b5f805f606084860312156109c6575f80fd5b6109cf84610971565b92506109dd60208501610971565b9150604084013590509250925092565b5f602082840312156109fd575f80fd5b5035919050565b5f60208284031215610a14575f80fd5b610a1d82610971565b9392505050565b5f805f805f805f60e0888a031215610a3a575f80fd5b610a4388610971565b9650610a5160208901610971565b95506040880135945060608801359350608088013560ff81168114610a74575f80fd5b9699959850939692959460a0840135945060c09093013592915050565b5f8060408385031215610aa2575f80fd5b610aab83610971565b9150610ab960208401610971565b90509250929050565b600181811c90821680610ad657607f821691505b602082108103610af457634e487b7160e01b5f52602260045260245ffd5b50919050565b634e487b7160e01b5f52601160045260245ffd5b8181038181111561041a5761041a610afa565b8082018082111561041a5761041a610afa565b5f8083545f60018260011c91506001831680610b5157607f831692505b60208084108203610b7057634e487b7160e01b5f52602260045260245ffd5b818015610b845760018114610b9957610bc4565b60ff1986168952841515850289019650610bc4565b5f8a8152602090205f5b86811015610bbc5781548b820152908501908301610ba3565b505084890196505b50949897505050505050505056feddf252ad1be2c89b69c2b068fc378daa952ba7f163c4a11628f55a4df523b3efa2646970667358221220f374c8951c5cbfe4aff197c33667b2bbdfe55dba48d00b204af360ed015ad1fd64736f6c6343000819003360e060405234801561000f575f80fd5b5060405161288338038061288383398101604081905261002e916100cc565b608081905261003e8160126100f7565b61004990600a6101f0565b60a05261005781600a6101f0565b60c052610062610068565b50610202565b5f54610100900460ff161561007b575f80fd5b5f5460ff908116146100ca575f805460ff191660ff9081179091556040519081527f7f26b83ff96e1f2b6a682f133852f6798a09c465da95921460cefb38474024989060200160405180910390a15b565b5f602082840312156100dc575f80fd5b5051919050565b634e487b7160e01b5f52601160045260245ffd5b8181038181111561010a5761010a6100e3565b92915050565b600181815b8085111561014a57815f1904821115610130576101306100e3565b8085161561013d57918102915b93841c9390800290610115565b509250929050565b5f826101605750600161010a565b8161016c57505f61010a565b8160018114610182576002811461018c576101a8565b600191505061010a565b60ff84111561019d5761019d6100e3565b50506001821b61010a565b5060208310610133831016604e8410600b84101617156101cb575081810a61010a565b6101d58383610110565b805f19048211156101e8576101e86100e3565b029392505050565b5f6101fb8383610152565b9392505050565b60805160a05160c05161264961023a5f395f6115a301525f61164e01525f81816102220152818161104601526117a301526126495ff3fe608060405234801561000f575f80fd5b50600436106101dc575f3560e01c8063891f4b0811610109578063ae5395331161009e578063e16ee7201161006e578063e16ee720146104fc578063e7bf4b021461050f578063ede4edd014610522578063ff383ae614610535575f80fd5b8063ae539533146104b4578063b883b058146104c3578063d547741f146104d6578063e037945b146104e9575f80fd5b806391d14854116100d957806391d14854146104745780639e9d796714610487578063a217fddf1461049a578063a3883db5146104a1575f80fd5b8063891f4b081461037c5780638b9e81131461038f5780638c765e94146103975780638e8f294b146103d5575f80fd5b80632f2ff15d1161017f57806351e1498b1161014f57806351e1498b146103135780636e1b00311461032e57806376e11286146103565780637b9d893114610369575f80fd5b80632f2ff15d146102c557806336568abe146102d8578063375a7cba146102eb5780633fe5d42514610300575f80fd5b806311fd52e1116101ba57806311fd52e114610252578063216e7b5814610265578063232b956c14610278578063248a9ca3146102a3575f80fd5b806301ffc9a7146101e057806303f2a1ea1461020857806305300b281461021d575b5f80fd5b6101f36101ee3660046120d2565b610554565b60405190151581526020015b60405180910390f35b61021b610216366004612128565b61058a565b005b6102447f000000000000000000000000000000000000000000000000000000000000000081565b6040519081526020016101ff565b61021b6102603660046121a1565b61064f565b6102446102733660046121bc565b610829565b61028b61028636600461220a565b610cd0565b6040516001600160a01b0390911681526020016101ff565b6102446102b136600461220a565b5f9081526065602052604090206001015490565b61021b6102d3366004612221565b610cf8565b61021b6102e6366004612221565b610d21565b6102f3610d3f565b6040516101ff919061224f565b61021b61030e3660046121a1565b610d9f565b61028b73eeeeeeeeeeeeeeeeeeeeeeeeeeeeeeeeeeeeeeee81565b61034161033c3660046121bc565b610e55565b604080519283526020830191909152016101ff565b61021b61036436600461229b565b611012565b61021b61037736600461229b565b611143565b61021b61038a366004612128565b611267565b6102446112cd565b609a546103b5906001600160801b0380821691600160801b90041682565b604080516001600160801b039384168152929091166020830152016101ff565b6104306103e33660046121a1565b60986020525f9081526040902080546001909101546001600160801b0382169160ff600160801b8204811692600160881b8304821692600160901b9004909116906001600160a01b031685565b604080516001600160801b03909616865260ff9485166020870152939092169284019290925290151560608301526001600160a01b0316608082015260a0016101ff565b6101f3610482366004612221565b6112e3565b6103416104953660046122c7565b61130d565b6102445f81565b61021b6104af3660046122c7565b6114f9565b610244671158e460913d000081565b6102446104d13660046121a1565b61157a565b61021b6104e4366004612221565b61167a565b61021b6104f7366004612305565b61169e565b61021b61050a36600461229b565b611ae9565b61021b61051d366004612349565b611b54565b61021b6105303660046121a1565b611c12565b6102446105433660046121a1565b60976020525f908152604090205481565b5f6001600160e01b03198216637965db0b60e01b148061058457506301ffc9a760e01b6001600160e01b03198316145b92915050565b5f54610100900460ff16158080156105a857505f54600160ff909116105b806105c15750303b1580156105c157505f5460ff166001145b6105c9575f80fd5b5f805460ff1916600117905580156105ea575f805461ff0019166101001790555b6105f2611d6c565b6105fc5f33611d80565b61060582611267565b801561064b575f805461ff0019169055604051600181527f7f26b83ff96e1f2b6a682f133852f6798a09c465da95921460cefb3847402498906020015b60405180910390a15b5050565b6001600160a01b0381165f908152609760205260408120549081905b811561078c576001821615610780575f6099828154811061068e5761068e61237c565b5f918252602080832091909101546001600160a01b0390811680845260989092526040808420905163ce96cb7760e01b81529189166004830152919350909190839063ce96cb7790602401602060405180830381865afa1580156106f4573d5f803e3d5ffd5b505050506040513d601f19601f820116820180604052508101906107189190612390565b825460018401549192505f9161076d916001600160801b03169061076790610748906001600160a01b031661157a565b865461075f90600160801b900460ff16600a61249b565b869190611e05565b90611e23565b111561077c5750505050505050565b5050505b600191821c910161066b565b508190505f5b811561082357600182161561081757609981815481106107b4576107b461237c565b5f9182526020909120015460405163926bb63360e01b81526001600160a01b0386811660048301529091169063926bb633906024015f604051808303815f87803b158015610800575f80fd5b505af1158015610812573d5f803e3d5ffd5b505050505b600191821c9101610792565b50505050565b6001600160a01b0384165f90815260986020526040812054600160901b900460ff16158061087657506001600160a01b0384165f90815260986020526040902054600160901b900460ff16155b15610894576040516334b04fe360e11b815260040160405180910390fd5b6108be60405180606001604052805f81526020015f81526020015f6001600160801b031681525090565b6108eb6040518060a001604052805f81526020015f81526020015f81526020015f81526020015f81525090565b6001600160a01b0385165f90815260976020526040812054905b8115610b05576001821615610af9575f609982815481106109285761092861237c565b5f9182526020808320909101546001600160a01b0390811680845260989092526040808420815160608101909252600181015493955093929091829161096e911661157a565b8152835460209091019061098d90600160801b900460ff16600a61249b565b815283546001600160801b031660209091015290506001600160a01b03808d16908416036109b9578096505b60405163014a296f60e01b81526001600160a01b038b811660048301525f91829186169063014a296f906024016040805180830381865afa158015610a00573d5f803e3d5ffd5b505050506040513d601f19601f82011682018060405250810190610a2491906124a9565b845160208601519294509092505f91610a3e918491611e37565b905080895f01818151610a5191906124cb565b9052506040840151610a6d9082906001600160801b0316611e64565b89604001818151610a7e91906124cb565b90525083516020850151610a93918591611e05565b90508089602001818151610aa791906124cb565b9052506040840151610ac39082906001600160801b0316611e23565b89606001818151610ad491906124cb565b9052506001600160a01b03808f1690871603610af257608089018190525b5050505050505b600191821c9101610905565b508160400151826060015110610b2e5760405163095bf33360e01b815260040160405180910390fd5b604080518082018252609a546001600160801b038082168352600160801b909104166020808301919091528401519184015190915f91610b8891610b729190611e78565b85516060870151610b8291611e23565b90611e64565b90505f610bfe610bc78460200151855f0151670de0b6b3a7640000610bad91906124de565b610bb791906124de565b84906001600160801b0316611e23565b610bd990671158e460913d0000612505565b60408701516060880151610bec91611e64565b610b8290671158e460913d0000612505565b9050610cc1610c778760200151885f0151610c70610c2f610c27670de0b6b3a764000088611e8c565b8b5190611e78565b60208901518951610c6b9190610c4d90670de0b6b3a76400006124de565b610c5791906124de565b60808d0151906001600160801b0316611e64565b611e8c565b9190611e37565b610c8a670de0b6b3a76400005f19612518565b8a10610c965789611e8c565b610c6b8560200151670de0b6b3a7640000610cb191906124de565b8b906001600160801b0316611ea1565b9b9a5050505050505050505050565b60998181548110610cdf575f80fd5b5f918252602090912001546001600160a01b0316905081565b5f82815260656020526040902060010154610d1281611eb5565b610d1c8383611d80565b505050565b6001600160a01b0381163314610d35575f80fd5b61064b8282611ec2565b60606099805480602002602001604051908101604052809291908181526020018280548015610d9557602002820191905f5260205f20905b81546001600160a01b03168152600190910190602001808311610d77575b5050505050905090565b6001600160a01b0381165f9081526098602052604090208054600160901b900460ff16610ddf576040516334b04fe360e11b815260040160405180910390fd5b335f9081526097602052604090205481546001600160881b90910460ff161b80821615610e0c5750505050565b335f818152609760205260408082208585179055516001600160a01b038716917f3ab23ab0d51cccc0c3085aec51f99228625aa1a922b3a8ca89a26b0f2027a1a591a350505050565b60408051808201909152609a546001600160801b038082168352600160801b90910416602082018190525f918291610e8e908590611e23565b6001600160a01b038089165f9081526098602052604081206001015492955091610eb8911661157a565b6001600160a01b038089165f9081526098602052604081206001015492935091610ee2911661157a565b6001600160a01b038a165f9081526098602052604081205491925090610f21908490610f1990600160801b900460ff16600a61249b565b899190611e37565b9050611003610f9b8560200151865f0151670de0b6b3a7640000610f4591906124de565b610f4f91906124de565b6001600160a01b038c165f908152609860205260409020546001600160801b039190911690610f9590610f8d90600160801b900460ff16600a61249b565b859087611e37565b90611e78565b60405163ce96cb7760e01b81526001600160a01b038b811660048301528c169063ce96cb7790602401602060405180830381865afa158015610fdf573d5f803e3d5ffd5b505050506040513d601f19601f82011682018060405250810190610c6b9190612390565b94505050505094509492505050565b5f61101c81611eb5565b6001600160a01b03821673eeeeeeeeeeeeeeeeeeeeeeeeeeeeeeeeeeeeeeee148015906110cb57507f0000000000000000000000000000000000000000000000000000000000000000826001600160a01b031663313ce5676040518163ffffffff1660e01b8152600401602060405180830381865afa1580156110a1573d5f803e3d5ffd5b505050506040513d601f19601f820116820180604052508101906110c59190612537565b60ff1614155b156110e9576040516352cc3f7d60e01b815260040160405180910390fd5b6001600160a01b038381165f8181526098602052604080822060010180546001600160a01b0319169487169485179055517fd2d8394cf7549a5ddbc2ba3dd7b2de8d53c891472d1f2907008ed6a10045fdae9190a3505050565b6001600160a01b0382165f9081526098602052604090208054600160901b900460ff16611183576040516334b04fe360e11b815260040160405180910390fd5b6001600160a01b0382165f90815260976020526040812054825490916001600160881b90920460ff169190911b90818316900361122c57336001600160a01b038616146111e35760405163c4bbea6960e01b815260040160405180910390fd5b6001600160a01b038085165f8181526097602052604080822086861790555191928816917f3ab23ab0d51cccc0c3085aec51f99228625aa1a922b3a8ca89a26b0f2027a1a59190a35b5f80611239865f8061130d565b915091508082101561125e57604051630aeac0bb60e11b815260040160405180910390fd5b50505050505050565b5f61127181611eb5565b8151602080840180516001600160801b03908116600160801b02938116938417609a5560408051948552915116918301919091527f01681c947e6239f022bfc57fdcd1eecd249153804b38e0085d885e5aeed1b0549101610642565b6112e0670de0b6b3a76400005f19612518565b81565b5f9182526065602090815260408084206001600160a01b0393909316845291905290205460ff1690565b5f8061133060405180606001604052805f81526020015f81526020015f81525090565b6001600160a01b0386165f90815260976020526040812054905b81156114ee5760018216156114e2575f6099828154811061136d5761136d61237c565b5f9182526020808320909101546001600160a01b0316808352609890915260408220805491935091906113ac9060ff600160801b90910416600a61249b565b825460405163014a296f60e01b81526001600160a01b038e811660048301529293506001600160801b039091169185169063014a296f906024016040805180830381865afa158015611400573d5f803e3d5ffd5b505050506040513d601f19601f8201168201806040525081019061142491906124a9565b602089015287526001830154611442906001600160a01b031661157a565b60408801819052875161145b9183916107679186611e05565b611465908a6124cb565b985061148881610b828960400151858b60200151611e379092919063ffffffff16565b61149290896124cb565b97508a6001600160a01b0316846001600160a01b0316036114dd5789156114dd576114d0816107678960400151858e611e059092919063ffffffff16565b6114da90896124cb565b97505b505050505b600191821c910161134a565b505050935093915050565b6001600160a01b038381165f90815260986020908152604080832054938616835260979091528120546001600160881b90930460ff169290921b909116900361154157505050565b5f8061154e84868561130d565b915091508082101561157357604051630aeac0bb60e11b815260040160405180910390fd5b5050505050565b5f73eeeeeeeeeeeeeeeeeeeeeeeeeeeeeeeeeeeeeeed196001600160a01b038316016115c757507f0000000000000000000000000000000000000000000000000000000000000000919050565b5f826001600160a01b03166350d25bcd6040518163ffffffff1660e01b8152600401602060405180830381865afa158015611604573d5f803e3d5ffd5b505050506040513d601f19601f820116820180604052508101906116289190612390565b90505f81136116495760405162bfc92160e01b815260040160405180910390fd5b6116737f000000000000000000000000000000000000000000000000000000000000000082612557565b9392505050565b5f8281526065602052604090206001015461169481611eb5565b610d1c8383611ec2565b5f6116a881611eb5565b306001600160a01b0316846001600160a01b0316633ec045a66040518163ffffffff1660e01b8152600401602060405180830381865afa1580156116ee573d5f803e3d5ffd5b505050506040513d601f19601f82011682018060405250810190611712919061256e565b6001600160a01b031614611739576040516316b2972f60e01b815260040160405180910390fd5b6001600160a01b0384165f90815260986020526040902054600160901b900460ff161561177957604051634d5eeb4960e01b815260040160405180910390fd5b6001600160a01b03831673eeeeeeeeeeeeeeeeeeeeeeeeeeeeeeeeeeeeeeee1480159061182857507f0000000000000000000000000000000000000000000000000000000000000000836001600160a01b031663313ce5676040518163ffffffff1660e01b8152600401602060405180830381865afa1580156117fe573d5f803e3d5ffd5b505050506040513d601f19601f820116820180604052508101906118229190612537565b60ff1614155b15611846576040516352cc3f7d60e01b815260040160405180910390fd5b5f846001600160a01b031663313ce5676040518163ffffffff1660e01b8152600401602060405180830381865afa158015611883573d5f803e3d5ffd5b505050506040513d601f19601f820116820180604052508101906118a79190612537565b90506040518060a00160405280846001600160801b031681526020018260ff16815260200160998054905060ff168152602001600115158152602001856001600160a01b031681525060985f876001600160a01b03166001600160a01b031681526020019081526020015f205f820151815f015f6101000a8154816001600160801b0302191690836001600160801b031602179055506020820151815f0160106101000a81548160ff021916908360ff1602179055506040820151815f0160116101000a81548160ff021916908360ff1602179055506060820151815f0160126101000a81548160ff0219169083151502179055506080820151816001015f6101000a8154816001600160a01b0302191690836001600160a01b03160217905550905050609985908060018154018082558091505060019003905f5260205f20015f9091909190916101000a8154816001600160a01b0302191690836001600160a01b03160217905550846001600160a01b03167f4baa14f9cb96bf2fd4a6def4c4a6d8290bf89e48bfdd33d7586d8471674ac0e682604051611a53919060ff91909116815260200190565b60405180910390a2836001600160a01b0316856001600160a01b03167fd2d8394cf7549a5ddbc2ba3dd7b2de8d53c891472d1f2907008ed6a10045fdae60405160405180910390a36040516001600160801b03841681526001600160a01b038616907f2e6cff6894398a38e2957a38e34bbbcebbc7f1cd5ec3c6cc0172ea7b40bd5b829060200160405180910390a25050505050565b6001600160a01b0381165f90815260986020526040902054600160901b900460ff161580611b3657506001600160a01b0382165f90815260986020526040902054600160901b900460ff16155b1561064b576040516334b04fe360e11b815260040160405180910390fd5b5f611b5e81611eb5565b6001600160a01b0383165f90815260986020526040902054600160901b900460ff16611b9d576040516334b04fe360e11b815260040160405180910390fd5b6001600160a01b0383165f8181526098602090815260409182902080546fffffffffffffffffffffffffffffffff19166001600160801b03871690811790915591519182527f2e6cff6894398a38e2957a38e34bbbcebbc7f1cd5ec3c6cc0172ea7b40bd5b82910160405180910390a2505050565b6001600160a01b0381165f9081526098602052604090208054600160901b900460ff16611c52576040516334b04fe360e11b815260040160405180910390fd5b60405163014a296f60e01b81523360048201525f9081906001600160a01b0385169063014a296f906024016040805180830381865afa158015611c97573d5f803e3d5ffd5b505050506040513d601f19601f82011682018060405250810190611cbb91906124a9565b91509150805f14611cdf576040516304fdb01160e51b815260040160405180910390fd5b611cea8433846114f9565b335f90815260976020526040812054845490916001600160881b90920460ff169190911b908183169003611d2057505050505050565b335f81815260976020526040808220841986169055516001600160a01b038916917fe699a64c18b07ac5b7301aa273f36a2287239eb9501d81950672794afba29a0d91a3505050505050565b5f54610100900460ff16611d7e575f80fd5b565b611d8a82826112e3565b61064b575f8281526065602090815260408083206001600160a01b03851684529091529020805460ff19166001179055611dc13390565b6001600160a01b0316816001600160a01b0316837f2f8788117e7eff1d82e926ec794901d17c78024a50270940304540a733656f0d60405160405180910390a45050565b828202811515841585830485141716611e1c575f80fd5b0492915050565b5f6116738383670de0b6b3a7640000611e05565b828202811515841585830485141716611e4e575f80fd5b6001826001830304018115150290509392505050565b5f61167383670de0b6b3a764000084611e37565b5f6116738383670de0b6b3a7640000611e37565b5f818310611e9a5781611673565b5090919050565b5f61167383670de0b6b3a764000084611e05565b611ebf8133611f28565b50565b611ecc82826112e3565b1561064b575f8281526065602090815260408083206001600160a01b0385168085529252808320805460ff1916905551339285917ff6391f5c32d9c69d2a47ea670b442974b53935d1edc7fd64eb21e047a839171b9190a45050565b611f3282826112e3565b61064b57611f3f81611f6e565b611f4a836020611f80565b604051602001611f5b9291906125a0565b6040516020818303038152906040525f80fd5b60606105846001600160a01b03831660145b60605f611f8e836002612557565b611f999060026124cb565b67ffffffffffffffff811115611fb157611fb16120f9565b6040519080825280601f01601f191660200182016040528015611fdb576020820181803683370190505b509050600360fc1b815f81518110611ff557611ff561237c565b60200101906001600160f81b03191690815f1a905350600f60fb1b816001815181106120235761202361237c565b60200101906001600160f81b03191690815f1a9053505f612045846002612557565b6120509060016124cb565b90505b60018111156120c7576f181899199a1a9b1b9c1cb0b131b232b360811b85600f16601081106120845761208461237c565b1a60f81b82828151811061209a5761209a61237c565b60200101906001600160f81b03191690815f1a90535060049490941c936120c0816125fe565b9050612053565b508315611673575f80fd5b5f602082840312156120e2575f80fd5b81356001600160e01b031981168114611673575f80fd5b634e487b7160e01b5f52604160045260245ffd5b80356001600160801b0381168114612123575f80fd5b919050565b5f60408284031215612138575f80fd5b6040516040810181811067ffffffffffffffff8211171561216757634e487b7160e01b5f52604160045260245ffd5b6040526121738361210d565b81526121816020840161210d565b60208201529392505050565b6001600160a01b0381168114611ebf575f80fd5b5f602082840312156121b1575f80fd5b81356116738161218d565b5f805f80608085870312156121cf575f80fd5b84356121da8161218d565b935060208501356121ea8161218d565b925060408501356121fa8161218d565b9396929550929360600135925050565b5f6020828403121561221a575f80fd5b5035919050565b5f8060408385031215612232575f80fd5b8235915060208301356122448161218d565b809150509250929050565b602080825282518282018190525f9190848201906040850190845b8181101561228f5783516001600160a01b03168352928401929184019160010161226a565b50909695505050505050565b5f80604083850312156122ac575f80fd5b82356122b78161218d565b915060208301356122448161218d565b5f805f606084860312156122d9575f80fd5b83356122e48161218d565b925060208401356122f48161218d565b929592945050506040919091013590565b5f805f60608486031215612317575f80fd5b83356123228161218d565b925060208401356123328161218d565b91506123406040850161210d565b90509250925092565b5f806040838503121561235a575f80fd5b82356123658161218d565b91506123736020840161210d565b90509250929050565b634e487b7160e01b5f52603260045260245ffd5b5f602082840312156123a0575f80fd5b5051919050565b634e487b7160e01b5f52601160045260245ffd5b600181815b808511156123f557815f19048211156123db576123db6123a7565b808516156123e857918102915b93841c93908002906123c0565b509250929050565b5f8261240b57506001610584565b8161241757505f610584565b816001811461242d576002811461243757612453565b6001915050610584565b60ff841115612448576124486123a7565b50506001821b610584565b5060208310610133831016604e8410600b8410161715612476575081810a610584565b61248083836123bb565b805f1904821115612493576124936123a7565b029392505050565b5f61167360ff8416836123fd565b5f80604083850312156124ba575f80fd5b505080516020909101519092909150565b80820180821115610584576105846123a7565b6001600160801b038181168382160190808211156124fe576124fe6123a7565b5092915050565b81810381811115610584576105846123a7565b5f8261253257634e487b7160e01b5f52601260045260245ffd5b500490565b5f60208284031215612547575f80fd5b815160ff81168114611673575f80fd5b8082028115828204841417610584576105846123a7565b5f6020828403121561257e575f80fd5b81516116738161218d565b5f81518060208401855e5f93019283525090919050565b7f416363657373436f6e74726f6c3a206163636f756e742000000000000000000081525f6125d16017830185612589565b7001034b99036b4b9b9b4b733903937b6329607d1b81526125f56011820185612589565b95945050505050565b5f8161260c5761260c6123a7565b505f19019056fea26469706673582212202d56d4fdf0aab8a365829fe83e76025b1657ebcc513e13ab2adaba3fc76bc54c64736f6c6343000819003360806040526040516103b33803806103b3833981016040819052610022916101f7565b61002d82825f610034565b50506102d6565b61003d8361005f565b5f825111806100495750805b1561005a57610058838361009e565b505b505050565b610068816100ca565b6040516001600160a01b038216907fbc7cd75a20ee27fd9adebab32041f755214dbc6bffa90cc0225b39da2e5c2d3b905f90a250565b60606100c3838360405180606001604052806027815260200161038c6027913961011e565b9392505050565b6001600160a01b0381163b6100dd575f80fd5b7f360894a13ba1a3210667c828492db98dca3e2076cc3735a920a3ca505d382bbc80546001600160a01b0319166001600160a01b0392909216919091179055565b60605f80856001600160a01b03168560405161013a91906102c0565b5f60405180830381855af49150503d805f8114610172576040519150601f19603f3d011682016040523d82523d5f602084013e610177565b606091505b50909250905061018986838387610193565b9695505050505050565b606083156101bd5782515f036101b6576001600160a01b0385163b6101b6575f80fd5b50816101c7565b6101c783836101cf565b949350505050565b8151156101df5781518083602001fd5b5f80fd5b634e487b7160e01b5f52604160045260245ffd5b5f8060408385031215610208575f80fd5b82516001600160a01b038116811461021e575f80fd5b60208401519092506001600160401b038082111561023a575f80fd5b818501915085601f83011261024d575f80fd5b81518181111561025f5761025f6101e3565b604051601f8201601f19908116603f01168101908382118183101715610287576102876101e3565b8160405282815288602084870101111561029f575f80fd5b8260208601602083015e5f6020848301015280955050505050509250929050565b5f82518060208501845e5f920191825250919050565b60aa806102e25f395ff3fe608060405236601057600e6013565b005b600e5b601f601b6021565b6057565b565b5f60527f360894a13ba1a3210667c828492db98dca3e2076cc3735a920a3ca505d382bbc546001600160a01b031690565b905090565b365f80375f80365f845af43d5f803e8080156070573d5ff35b3d5ffdfea2646970667358221220bae1390fefc751f23469c6f38aeda5c56550fb07c0100724082963bf38b6fdfb64736f6c63430008190033416464726573733a206c6f772d6c6576656c2064656c65676174652063616c6c206661696c656460a0604052348015600e575f80fd5b50604051610204380380610204833981016040819052602b91607b565b60ff8216608052603981603f565b505060aa565b5f81815560405142815282907f0559884fd3a460db3073b7fc896cc77986f16e378210ded43186175bf646fc5f9060200160405180910390a350565b5f8060408385031215608b575f80fd5b825160ff81168114609a575f80fd5b6020939093015192949293505050565b6080516101436100c15f395f605301526101435ff3fe608060405234801561000f575f80fd5b506004361061004a575f3560e01c8063313ce5671461004e57806350d25bcd1461008c578063a035b1fe1461009d578063f7a30806146100a5575b5f80fd5b6100757f000000000000000000000000000000000000000000000000000000000000000081565b60405160ff90911681526020015b60405180910390f35b5f545b604051908152602001610083565b61008f5f5481565b6100b86100b33660046100f6565b6100ba565b005b5f81815560405142815282907f0559884fd3a460db3073b7fc896cc77986f16e378210ded43186175bf646fc5f9060200160405180910390a350565b5f60208284031215610106575f80fd5b503591905056fea2646970667358221220893c1b44ba7faddfd8290d72c5ec3a3f1e2a01a226aed7eddfc343a0a927564964736f6c63430008190033610120604052348015610010575f80fd5b5060405161644938038061644983398101604081905261002f9161021c565b8160405180602001604052805f81525060405180602001604052805f8152508181846001600160a01b031663313ce5676040518163ffffffff1660e01b8152600401602060405180830381865afa15801561008c573d5f803e3d5ffd5b505050506040513d601f19601f820116820180604052508101906100b09190610254565b60c96100bc8482610313565b5060ca6100c98382610313565b5060ff81166080524660a0526100dd610108565b60c0525050506001600160a01b0392831660e05250508116610100526101016101a1565b5050610444565b5f7f8b73c3c69bb8fe3d512ecc4cf759cc79239f7b179b0ffacaa9a75d522b39400f60c960405161013991906103d2565b6040805191829003822060208301939093528101919091527fc89efdaa54c0f20c7adf612882df0950f5a951637e0307cdcb4c672f298b8bc660608201524660808201523060a082015260c00160405160208183030381529060405280519060200120905090565b5f54610100900460ff16156101b4575f80fd5b5f5460ff90811614610203575f805460ff191660ff9081179091556040519081527f7f26b83ff96e1f2b6a682f133852f6798a09c465da95921460cefb38474024989060200160405180910390a15b565b6001600160a01b0381168114610219575f80fd5b50565b5f806040838503121561022d575f80fd5b825161023881610205565b602084015190925061024981610205565b809150509250929050565b5f60208284031215610264575f80fd5b815160ff81168114610274575f80fd5b9392505050565b634e487b7160e01b5f52604160045260245ffd5b600181811c908216806102a357607f821691505b6020821081036102c157634e487b7160e01b5f52602260045260245ffd5b50919050565b601f82111561030e57805f5260205f20601f840160051c810160208510156102ec5750805b601f840160051c820191505b8181101561030b575f81556001016102f8565b50505b505050565b81516001600160401b0381111561032c5761032c61027b565b6103408161033a845461028f565b846102c7565b602080601f831160018114610373575f841561035c5750858301515b5f19600386901b1c1916600185901b1785556103ca565b5f85815260208120601f198616915b828110156103a157888601518255948401946001909101908401610382565b50858210156103be57878501515f19600388901b60f8161c191681555b505060018460011b0185555b505050505050565b5f8083546103df8161028f565b600182811680156103f7576001811461040c57610438565b60ff1984168752821515830287019450610438565b875f526020805f205f5b8581101561042f5781548a820152908401908201610416565b50505082870194505b50929695505050505050565b60805160a05160c05160e05161010051615f276105225f395f81816108070152818161161c015281816117c001528181611e3e015281816120910152818161220b0152818161257101528181612ed7015281816130800152818161316f015281816136990152614b0501525f81816107ac0152818161168001528181611c2201528181611d160152818161227d01528181612337015281816123fe0152818161286501528181612e59015281816136fd01528181614c92015281816151c001526152d501525f611c8f01525f611c5a01525f6107430152615f275ff3fe608060405234801561000f575f80fd5b5060043610610539575f3560e01c80636e76fc8f116102bf578063b2a02ff111610186578063d5164184116100ef578063e63ab1e9116100a9578063ef8b30f711610084578063ef8b30f714610d5e578063f3fdb15a14610d71578063fb0fc4c314610d84578063fea45d9414610d9b575f80fd5b8063e63ab1e914610d26578063e94b3c2114610d4d578063eee8c9e014610d56575f80fd5b8063d516418414610c92578063d547741f14610ca5578063d6b7494f14610cb8578063d905777e14610cc1578063dd62ed3e14610ce9578063e00b262514610d13575f80fd5b8063c63d75b611610140578063c63d75b614610831578063c6e6f59214610bf7578063ccfd8b1114610c0a578063ce96cb7714610c3b578063d2681a0b14610c4e578063d505accf14610c7f575f80fd5b8063b2a02ff114610b85578063b3d7f6b914610b98578063b460af9414610bab578063ba08765214610bbe578063bee36bb314610bd1578063bf722ca214610be4575f80fd5b806391d1485411610228578063a16a8850116101e2578063a16a885014610b27578063a1bab44714610b3c578063a1e8f02b14610b4f578063a217fddf14610b58578063a9059cbb14610b5f578063acb7081514610b72575f80fd5b806391d1485414610ac0578063926bb63314610ad357806394bf804d14610ae657806395d89b4114610af957806397bce8d014610b01578063a05a091a14610b14575f80fd5b80637ecebe00116102795780637ecebe0014610a6b5780638456cb5914610a8a5780638a1baa4614610a925780638bcd401614610a9b5780638c3cba5a14610aae5780638d0e5f0214610ab7575f80fd5b80636e76fc8f146109c05780636eb9ffeb146109e757806370a0823114610a1357806378007e2314610a325780637ad226dc14610a455780637e932d3214610a58575f80fd5b8063313ce567116104035780634322b7141161036c5780635cc2ef83116103265780635cc2ef83146109225780635e5c06e21461093557806361d027b31461097e57806366601032146109915780636bb65f531461099a5780636e553f65146109ad575f80fd5b80634322b7141461085857806347dffde01461088a5780634914c0081461089d5780634cdad506146108b05780634e7c5059146108c35780635c975abb14610917575f80fd5b80633aa18d6f116103bd5780633aa18d6f146107e65780633c6f317f146107ef5780633ec045a6146108025780633f4ba83a14610829578063402d267d1461083157806342da42bf14610845575f80fd5b8063313ce5671461073e57806333eeb1471461076557806334f7d1f2146107795780633644e5151461078c57806336568abe1461079457806338d52e0f146107a7575f80fd5b806313700101116104a5578063248a9ca31161045f578063248a9ca3146106bb57806325fc07a9146106dd57806328acf2cf146106fc5780632c5dcc771461070f5780632e0af008146107225780632f2ff15d1461072b575f80fd5b8063137001011461065d57806318160ddd146106705780631a5b9e62146106795780631a90f1861461068c5780631d43b30b1461069557806323b872dd146106a8575f80fd5b806307a2d13a116104f657806307a2d13a146105d6578063095ea7b3146105e95780630a28a477146105fc5780630ab69be81461060f5780630e52dbec146106365780630f2b75aa14610655575f80fd5b8063014a296f1461053d57806301e1d1141461056a57806301ffc9a714610580578063022d8af5146105a35780630539fa8c146105b857806306fdde03146105c1575b5f80fd5b61055061054b36600461566a565b610dae565b604080519283526020830191909152015b60405180910390f35b610572610de3565b604051908152602001610561565b61059361058e366004615685565b610e8f565b6040519015158152602001610561565b6105b66105b13660046156c7565b610ec5565b005b61057260d85481565b6105c9610f54565b60405161056191906156e0565b6105726105e4366004615715565b610fe0565b6105936105f736600461572c565b61100c565b61057261060a366004615715565b611077565b61055061061d366004615715565b5f90815260d16020526040902080546001909101549091565b60da546106439060ff1681565b60405160ff9091168152602001610561565b610572611096565b6105b661066b366004615794565b61113b565b61057260cb5481565b6105726106873660046157d3565b6111ac565b61057260d45481565b6105726106a336600461566a565b6116b5565b6105936106b6366004615825565b6117b5565b6105726106c9366004615715565b5f9081526065602052604090206001015490565b6105726106eb366004615715565b5f90815260d1602052604090205490565b6105b661070a366004615873565b611916565b6105b661071d36600461572c565b611962565b61057260dd5481565b6105b661073936600461588c565b6119d2565b6106437f000000000000000000000000000000000000000000000000000000000000000081565b60e35461059390600160a01b900460ff1681565b6105726107873660046158ba565b6119fb565b610572611c57565b6105b66107a236600461588c565b611cb1565b6107ce7f000000000000000000000000000000000000000000000000000000000000000081565b6040516001600160a01b039091168152602001610561565b61057260d95481565b6105726107fd3660046158ba565b611cd3565b6107ce7f000000000000000000000000000000000000000000000000000000000000000081565b6105b6611d46565b61057261083f36600461566a565b505f1990565b6105b6610853366004615715565b611d7b565b60dc5461087290600160801b90046001600160801b031681565b6040516001600160801b039091168152602001610561565b610572610898366004615715565b611dba565b6105726108ab3660046158f8565b611dd8565b6105726108be366004615715565b6122af565b6108f76108d1366004615715565b60d16020525f908152604090208054600182015460028301546003909301549192909184565b604080519485526020850193909352918301526060820152608001610561565b60975460ff16610593565b6105b6610930366004615937565b6122b9565b61096361094336600461566a565b60d26020525f908152604090208054600182015460029092015490919083565b60408051938452602084019290925290820152606001610561565b60e1546107ce906001600160a01b031681565b61057260e25481565b60e3546107ce906001600160a01b031681565b6105726109bb36600461588c565b612313565b6105727f5358bcfd81d1ef3da152b1755e1c3c6739686fa7e83dbcad0071568cc4b73a6381565b60da546109fe90600160281b900463ffffffff1681565b60405163ffffffff9091168152602001610561565b610572610a2136600461566a565b60cc6020525f908152604090205481565b610572610a40366004615715565b6123b9565b610550610a5336600461588c565b6123d0565b6105b6610a66366004615957565b61242d565b610572610a7936600461566a565b60ce6020525f908152604090205481565b6105b66124aa565b61057260d55481565b6105b6610aa936600461566a565b6124bc565b61057260d35481565b61057260df5481565b610593610ace36600461588c565b61253c565b6105b6610ae136600461566a565b612566565b610572610af436600461588c565b61284c565b6105c96128e7565b6105b6610b0f366004615976565b6128f4565b610572610b223660046157d3565b612a55565b60da546109fe90610100900463ffffffff1681565b6105b6610b4a366004615715565b612e8d565b61057260d75481565b6105725f81565b610593610b6d36600461572c565b612ecc565b610550610b8036600461588c565b613021565b6105b6610b93366004615825565b61303d565b610572610ba6366004615715565b613051565b610572610bb9366004615a1f565b613067565b610572610bcc366004615a1f565b61316c565b6105b6610bdf36600461566a565b613266565b610572610bf2366004615715565b6132ba565b610572610c05366004615715565b6132d9565b610550610c1836600461588c565b60cf60209081525f92835260408084209091529082529020805460019091015482565b610572610c4936600461566a565b6132f0565b610550610c5c36600461588c565b60d060209081525f92835260408084209091529082529020805460019091015482565b6105b6610c8d366004615a53565b613311565b610572610ca0366004615a1f565b6134d6565b6105b6610cb336600461588c565b61372f565b61057260d65481565b610572610ccf36600461566a565b6001600160a01b03165f90815260cc602052604090205490565b610572610cf7366004615abc565b60cd60209081525f928352604080842090915290825290205481565b6105b6610d213660046156c7565b613753565b6105727f65d7a28e3265b37a6474929f336521b332c1681b933f6cb9f3376673440d862a81565b61057260de5481565b6105726137ab565b610572610d6c366004615715565b61388c565b60db546107ce906001600160a01b031681565b60da546109fe90600160481b900463ffffffff1681565b60dc54610872906001600160801b031681565b6001600160a01b0381165f90815260cc60205260408120548190610dd190610fe0565b610dda846116b5565b91509150915091565b60da545f9081906224ea004281810690039160ff16028101815b818111610e55575f81815260d160205260409020600381015480831115610e4957824210610e2f578160020154610e44565b6002820154610e449042839003838603613896565b860195505b50506224ea0001610dfd565b50610e7860e254670de0b6b3a76400000360d454610e716137ab565b03906138b4565b610e806138c8565b8460dd54010101935050505090565b5f6001600160e01b03198216637965db0b60e01b1480610ebf57506301ffc9a760e01b6001600160e01b03198316145b92915050565b5f610ecf8161393e565b610ed7613948565b60dd5f828254610ee79190615b10565b90915550610ef590506139c1565b60dc80546fffffffffffffffffffffffffffffffff19166001600160801b0384169081179091556040519081527f5499a947330efc8c6d458d51fd04d56d7e44dc1469558b2300e359963cef317e906020015b60405180910390a15050565b60c98054610f6190615b23565b80601f0160208091040260200160405190810160405280929190818152602001828054610f8d90615b23565b8015610fd85780601f10610faf57610100808354040283529160200191610fd8565b820191905f5260205f20905b815481529060010190602001808311610fbb57829003601f168201915b505050505081565b60cb545f90801561100357610ffe610ff6610de3565b849083613896565b611005565b825b9392505050565b335f81815260cd602090815260408083206001600160a01b038716808552925280832085905551919290917f8c5be1e5ebec7d5bd14f71427d1e84f3dd0314c0f7b2291e5b200ac8c7c3b925906110669086815260200190565b60405180910390a350600192915050565b60cb545f90801561100357610ffe8161108e610de3565b859190613a27565b60dd5460de545f9190828183106110af5760d8546110b3565b60d9545b60da549091505f906110ee906110d690600160481b900463ffffffff1642615b5b565b6110e09084615b6e565b6110e990615b85565b613a54565b61110090670de0b6b3a7640000615b9f565b905061110c81856138b4565b61112861112183670de0b6b3a7640000615b5b565b85906138b4565b6111329190615b10565b94505050505090565b5f6111458161393e565b8282604051602001611158929190615bbe565b60405160208183030381529060405260c990816111759190615c39565b508282604051602001611189929190615cf5565b60405160208183030381529060405260ca90816111a69190615c39565b50505050565b5f6111b5613bc7565b6111bd613bd6565b845f036111dd5760405163774257f760e01b815260040160405180910390fd5b60da546111f190879060ff1660035f613c01565b5f86815260d1602052604090206112088188613d9b565b60dd5f8282546112189190615b10565b909155505060e3546001600160a01b0316801561128657604051636c912dad60e01b81526001600160a01b038581166004830152821690636c912dad906024015f604051808303815f87803b15801561126f575f80fd5b505af1158015611281573d5f803e3d5ffd5b505050505b5f6112918389613e19565b90508015611324575f8160d3546112a89190615b10565b90506112ba6112b5613e55565b613f65565b60dc546112f5906112e390600160801b90046001600160801b0316670de0b6b3a7640000615d13565b60dd54906001600160801b03166138b4565b60d4546113029083615b10565b111561132057604051622d41ad60e31b815260040160405180910390fd5b60d3555b505f8061132f611096565b90505f60d45490505f60db5f9054906101000a90046001600160a01b03166001600160a01b031663d9d9048d8d60da5f9054906101000a900460ff1661137d8a600101548b5f015489613fa2565b6113878888613fcf565b611394898960d354613fe7565b6040516001600160e01b031960e088901b168152600481019590955260ff909316602485015260448401919091526064830152608482015260a401602060405180830381865afa1580156113ea573d5f803e3d5ffd5b505050506040513d601f19601f8201168201806040525081019061140e9190615d33565b905061143361142c611420428f615b5b565b83906301e13380613896565b8c906138b4565b935050505080886114449190615b10565b93508684111561146757604051632c1b6b4160e21b815260040160405180910390fd5b6114718585614003565b5f89815260d0602090815260408083206001600160a01b0389168452909152812080549091036114c8576001600160a01b0386165f90815260d26020526040902060018101546114c1908c614079565b6001909101555b5f8061150b6114d685614164565b604080516080810182528954815260018a0154602082015260028a01549181019190915260038901546060820152908d614190565b91509150815f1461152f5781866002015f8282546115299190615b10565b90915550505b611538816141dc565b60405180604001604052808c855f01546115529190615b10565b81526020018585600101546115679190615b10565b90525f8d815260d0602090815260408083206001600160a01b038d811680865291845293829020855181559483015160019095019490945580513381529182018f905281018790529194508a1692508c91507f66866b472f27d55d69496091bbd651907b2fb1041b3eeaca6e565ae5b5af40139060600160405180910390a46115ee6139c1565b6115f789614208565b604051637b9d893160e01b81523060048201526001600160a01b0386811660248301527f00000000000000000000000000000000000000000000000000000000000000001690637b9d8931906044015f604051808303815f87803b15801561165d575f80fd5b505af115801561166f573d5f803e3d5ffd5b506116a99250506001600160a01b037f0000000000000000000000000000000000000000000000000000000000000000169050878a614256565b50505095945050505050565b6001600160a01b0381165f90815260d260209081526040822060d6546001820154919290919081901c9063ffffffff165b811561178a57600182161561176f575f81815260d0602090815260408083206001600160a01b038a16845290915281206001810154815491929161172a9190615b10565b90506117368188615b10565b96508242111561176c5761175f8561174e8542615b5b565b6117589190615b6e565b82906138b4565b6117699088615b10565b96505b50505b60019190911c906117836224ea0082615b10565b90506116e6565b600284015480156117ab5761179e81611dba565b6117a89087615b10565b95505b5050505050919050565b5f6117be613bc7565b7f00000000000000000000000000000000000000000000000000000000000000006001600160a01b031663a3883db530866117f8866122af565b6040518463ffffffff1660e01b815260040161181693929190615d4a565b5f6040518083038186803b15801561182c575f80fd5b505afa15801561183e573d5f803e3d5ffd5b505060e3546001600160a01b0316915050801561190257604051630149e46f60e01b81526001600160a01b038681166004830152821690630149e46f906024015f604051808303815f87803b158015611895575f80fd5b505af11580156118a7573d5f803e3d5ffd5b5050604051630149e46f60e01b81526001600160a01b03878116600483015284169250630149e46f91506024015f604051808303815f87803b1580156118eb575f80fd5b505af11580156118fd573d5f803e3d5ffd5b505050505b61190d858585614298565b95945050505050565b5f6119208161393e565b60da805460ff191660ff84169081179091556040519081527f23c0170203096819aed8a13739fe91ce445ec92a7e2aa228081b5e45ee582c8090602001610f48565b5f61196c8161393e565b6119776112b5613e55565b60e180546001600160a01b0319166001600160a01b03851690811790915560e28390556040518381527fd471a80a3a5fd21dfce2b1b7c88bbea4684ab90254a4e47345ac344d566788729060200160405180910390a2505050565b5f828152606560205260409020600101546119ec8161393e565b6119f68383614372565b505050565b5f611a04613bc7565b611a0c613bd6565b835f03611a2c576040516356316e8760e01b815260040160405180910390fd5b60da54611a4090869060ff1660035f613c01565b5f85815260d16020526040812090611a588288613d9b565b90508060dd5f828254611a6b9190615b10565b909155505060d754604080516080810182528454815260018501546020820152600285015491810191909152600384015460608201525f918291611ab0918a906143f7565b9092509050611abf8289615b10565b945086851015611ae257604051632c1b6b4160e21b815260040160405180910390fd5b611aec8489614448565b60d35f828254611afc9190615b5b565b90915550611b0c90508183615b10565b846002015f828254611b1e9190615b5b565b925050819055508060d55f828254611b369190615b10565b90915550505f89815260cf602090815260408083206001600160a01b038a16845290915281208054909103611b8b576001600160a01b0387165f90815260d2602052604090208054611b88908c614079565b90555b88815f015f828254611b9d9190615b10565b9250508190555082816001015f828254611bb79190615b10565b9091555050604080518a8152602081018590526001600160a01b0389169133918d917fd9900507c64720c1a5e11858a42769b599616268b832495aa6afe8b9dc566e76910160405180910390a4611c0c6139c1565b611c158a614208565b611c4a6001600160a01b037f00000000000000000000000000000000000000000000000000000000000000001633308c614478565b5050505050949350505050565b5f7f00000000000000000000000000000000000000000000000000000000000000004614611c8c57611c876144be565b905090565b507f000000000000000000000000000000000000000000000000000000000000000090565b6001600160a01b0381163314611cc5575f80fd5b611ccf8282614557565b5050565b5f611cdc613bc7565b60da54611cf190869060ff1660036002613c01565b611cff8585858560016145bd565b9050611d096139c1565b611d3e6001600160a01b037f000000000000000000000000000000000000000000000000000000000000000016333084614478565b949350505050565b7f65d7a28e3265b37a6474929f336521b332c1681b933f6cb9f3376673440d862a611d708161393e565b611d78614919565b50565b5f611d858161393e565b60d78290556040518281527f08b437f29bc93f50025290193a680338033c3fccb93cf0ef95788eba3f003e2690602001610f48565b60df545f90801561100357610ffe611dd06137ab565b849083613a27565b5f611de1613bc7565b6001600160a01b0384163303611e0a576040516344511af160e01b815260040160405180910390fd5b60405163042dcf6b60e31b81523060048201526001600160a01b0383811660248301528581166044830152606482018590527f0000000000000000000000000000000000000000000000000000000000000000169063216e7b5890608401602060405180830381865afa158015611e83573d5f803e3d5ffd5b505050506040513d601f19601f82011682018060405250810190611ea79190615d33565b9250825f03611ec95760405163685e923560e01b815260040160405180910390fd5b6001600160a01b0384165f90815260d2602090815260409091206001810154909181901c9063ffffffff165b8115801590611f0357508515155b15612010576001821615611ff5575f81421015611f3a57611f278288898b5f6145bd565b9050611f338188615b5b565b9650611fe7565b5f82815260d0602090815260408083206001600160a01b038c168452909152812060018101548154611f6c9190615b10565b9150505f611f9360d6548542611f829190615b5b565b611f8c9190615b6e565b83906138b4565b611f9d9083615b10565b9050888111611fac5788611fb7565b611fb7898383613896565b9250825f03611fc8575f9850611fe4565b611fd584848b8d5f6145bd565b9250611fe1838a615b5b565b98505b50505b611ff18186615b10565b9450505b60019190911c906120096224ea0082615b10565b9050611ef5565b505083158015906120245750600281015415155b15612059575f612033856132ba565b90508015612057575f6120468288614966565b5090506120538185615b10565b9350505b505b604051636e1b003160e01b81523060048201526001600160a01b0384811660248301528681166044830152606482018490525f9182917f00000000000000000000000000000000000000000000000000000000000000001690636e1b0031906084016040805180830381865afa1580156120d5573d5f803e3d5ffd5b505050506040513d601f19601f820116820180604052508101906120f99190615d6e565b915091508160d55f82825461210e9190615b10565b9091555050306001600160a01b038616036121345761212f30338984614ac0565b612199565b60405163b2a02ff160e01b81526001600160a01b0386169063b2a02ff1906121649033908b908690600401615d4a565b5f604051808303815f87803b15801561217b575f80fd5b505af115801561218d573d5f803e3d5ffd5b505050506121996139c1565b60408051858152602081018490529081018290526001600160a01b03808716919089169033907f67bb48f97d82192848c24158abf58ec614777328e19655e0a219652b773fd1db9060600160405180910390a46040516311fd52e160e01b81526001600160a01b0388811660048301527f000000000000000000000000000000000000000000000000000000000000000016906311fd52e1906024015f604051808303815f87803b15801561224c575f80fd5b505af115801561225e573d5f803e3d5ffd5b505050506122a5333084876122739190615b10565b6001600160a01b037f000000000000000000000000000000000000000000000000000000000000000016929190614478565b5050509392505050565b5f610ebf82610fe0565b5f6122c38161393e565b6122cb614cb9565b60d883905560d982905560408051848152602081018490527fd09fee08a2915f9ac9a77197b21a3e275d34ec9542f569eb15b95ce8f7fe2808910160405180910390a1505050565b5f61231d8361388c565b9050805f0361232a575f80fd5b61235f6001600160a01b037f000000000000000000000000000000000000000000000000000000000000000016333086614478565b6123698282614ce4565b60408051848152602081018390526001600160a01b0384169133917fdcbc1c05240f31ff3ad067ef1ee35ce4997762752e3a095284754544f4c709d7910160405180910390a3610ebf8382614d57565b60df545f90801561100357610ffe8161108e6137ab565b5f806123da613bc7565b6123e48484614966565b90925090506123f16139c1565b6124266001600160a01b037f000000000000000000000000000000000000000000000000000000000000000016333085614478565b9250929050565b5f6124378161393e565b60e35460ff600160a01b90910416151582151514611ccf5760e38054831515600160a01b0260ff60a01b1990911617905560405133907f713eb400302cebac61f82eb8de5051d38458517ffac43ae45f4a9fd5d09ee6989061249e90851515815260200190565b60405180910390a25050565b6124b2614db6565b6124ba614e32565b565b5f6124c68161393e565b60db546001600160a01b0316156124e2576124e26112b5613e55565b60db80546001600160a01b0319166001600160a01b0384161790556125056139c1565b6040516001600160a01b038316907f7902cd1307c545e3f5782172612372bf997a93698917ced12b2f83d86e347d0c905f90a25050565b5f9182526065602090815260408084206001600160a01b0393909316845291905290205460ff1690565b336001600160a01b037f000000000000000000000000000000000000000000000000000000000000000016146125af576040516317568c8f60e21b815260040160405180910390fd5b6125b7613948565b60dd5f8282546125c79190615b10565b90915550506001600160a01b0381165f90815260d260209081526040822060d55460018201549193909290919081901c9063ffffffff165b81156127a3576001821615612788575f81815260d0602090815260408083206001600160a01b038a1684529091528120600181015481549192916126439190615b10565b90508086106127855760e3546001600160a01b031680156126b557604051636c912dad60e01b81526001600160a01b038a81166004830152821690636c912dad906024015f604051808303815f87803b15801561269e575f80fd5b505af11580156126b0573d5f803e3d5ffd5b505050505b6126bf8288615b5b565b96506126cb8287615b10565b83545f86815260d1602052604090209197506126e79190614e6f565b60d35f8282546126f79190615b5b565b90915550505f84815260d0602090815260408083206001600160a01b038d16845290915281208181556001908101919091558801546127369085614e92565b600189015560408051838152602081018490526001600160a01b038b1691339187917ff17fce321dd9fb005136a80c0bfb3789e455b7a70be9eb8922f1ad20a80d1a33910160405180910390a4505b50505b60019190911c9061279c6224ea0082615b10565b90506125ff565b6002850154158015906127c057506127ba846132ba565b93508315155b156127e1575f6127d08588614966565b5090506127dd8185615b10565b9350505b821561283c578260d55f8282546127f89190615b5b565b90915550506040518381526001600160a01b038716907fde0e3a281fa92ee953a13c5bd96dcaf07b10c6b9f42c65d0e3752c855caa6e7c9060200160405180910390a25b6128446139c1565b505050505050565b5f61285683613051565b905061288d6001600160a01b037f000000000000000000000000000000000000000000000000000000000000000016333084614478565b6128978284614ce4565b60408051828152602081018590526001600160a01b0384169133917fdcbc1c05240f31ff3ad067ef1ee35ce4997762752e3a095284754544f4c709d7910160405180910390a3610ebf8184614d57565b60ca8054610f6190615b23565b5f54610100900460ff161580801561291257505f54600160ff909116105b8061292b5750303b15801561292b57505f5460ff166001145b612933575f80fd5b5f805460ff191660011790558015612954575f805461ff0019166101001790555b61295c614f52565b612964614f64565b60da805468ffffffffffffffff0019166101004263ffffffff1690810268ffffffff0000000000191691909117600160281b82021763ffffffff60481b1916600160481b919091021790556129b95f33614372565b6129c38b8b61113b565b6129cc89611916565b6129d588610ec5565b6129de876124bc565b6129e786612e8d565b6129f085611d7b565b6129f984613753565b612a0383836122b9565b8015612a48575f805461ff0019169055604051600181527f7f26b83ff96e1f2b6a682f133852f6798a09c465da95921460cefb38474024989060200160405180910390a15b5050505050505050505050565b5f612a5e613bc7565b845f03612a7e5760405163b8cb621960e01b815260040160405180910390fd5b60da54612a9390879060ff1660036002613c01565b5f86815260d160205260409020612aaa8188613d9b565b60dd5f828254612aba9190615b10565b90915550505f87815260cf602090815260408083206001600160a01b038716845282529182902082518084019093528054808452600190910154918301829052612b049190615b10565b871115612b1f5760208101518151612b1c9190615b10565b96505b6040805180820190915281518152602080830151908201525f90612b4f90612b47908a614f7e565b518490614fc4565b60d354612b5c9190615b10565b905060dd5460d45482612b6f9190615b10565b1115612b8d57604051622d41ad60e31b815260040160405180910390fd5b60d35542881115612cba575f612ba1611096565b90505f60d45490505f60d35490505f60db5f9054906101000a90046001600160a01b03166001600160a01b031663d9d9048d8d60da5f9054906101000a900460ff16612bf58a600101548b5f01548a613fa2565b612bff8989613fcf565b612c0a8a8a8a613fe7565b6040516001600160e01b031960e088901b168152600481019590955260ff909316602485015260448401919091526064830152608482015260a401602060405180830381865afa158015612c60573d5f803e3d5ffd5b505050506040513d601f19601f82011682018060405250810190612c849190615d33565b9050612caf612c96611420428f615b5b565b612ca890670de0b6b3a7640000615b10565b8c90615008565b965050505050612cbe565b8692505b85831015612cdf57604051632c1b6b4160e21b815260040160405180910390fd5b612ce98484614003565b5f80612d35612d00612cfb878c615b5b565b614164565b604080516080810182528754815260018801546020820152600288015491810191909152600387015460608201529087614190565b9150915081846002015f828254612d4c9190615b10565b90915550612d5b9050816141dc565b612d65838a61501c565b5060208301518351175f03612db8575f8a815260cf602090815260408083206001600160a01b038a168452825280832083815560010183905560d290915290208054612db1908c614e92565b9055612de8565b5f8a815260cf602090815260408083206001600160a01b038a168452825290912084518155908401516001909101555b60408051338152602081018b90529081018690526001600160a01b0380881691908916908c907fe57dbac0e7c42ad5f3b0fadb9c065565377cf771054fca70d35c96e01f9ec53c9060600160405180910390a4612e436139c1565b612e4c8a614208565b612e806001600160a01b037f0000000000000000000000000000000000000000000000000000000000000000168887614256565b5050505095945050505050565b5f612e978161393e565b60d68290556040518281527fdb0ebfb2503f7c16b45577ebbf6c7d6b99b6e8aaf6652b156e36d5d6654a3a5e90602001610f48565b5f612ed5613bc7565b7f00000000000000000000000000000000000000000000000000000000000000006001600160a01b031663a3883db53033612f0f866122af565b6040518463ffffffff1660e01b8152600401612f2d93929190615d4a565b5f6040518083038186803b158015612f43575f80fd5b505afa158015612f55573d5f803e3d5ffd5b505060e3546001600160a01b0316915050801561301757604051630149e46f60e01b81523360048201526001600160a01b03821690630149e46f906024015f604051808303815f87803b158015612faa575f80fd5b505af1158015612fbc573d5f803e3d5ffd5b5050604051630149e46f60e01b81526001600160a01b03878116600483015284169250630149e46f91506024015f604051808303815f87803b158015613000575f80fd5b505af1158015613012573d5f803e3d5ffd5b505050505b611d3e848461507a565b5f8061302b613bc7565b6123e4613037856132ba565b84614966565b613045613bc7565b6119f633848484614ac0565b60cb545f90801561100357610ffe611dd0610de3565b60405163a3883db560e01b81525f906001600160a01b037f0000000000000000000000000000000000000000000000000000000000000000169063a3883db5906130b990309086908990600401615d4a565b5f6040518083038186803b1580156130cf575f80fd5b505afa1580156130e1573d5f803e3d5ffd5b505060e3546001600160a01b0316915050801561314f57604051630149e46f60e01b81526001600160a01b038481166004830152821690630149e46f906024015f604051808303815f87803b158015613138575f80fd5b505af115801561314a573d5f803e3d5ffd5b505050505b61315a8585856150dd565b91506131646139c1565b509392505050565b5f7f00000000000000000000000000000000000000000000000000000000000000006001600160a01b031663a3883db530846131a7886122af565b6040518463ffffffff1660e01b81526004016131c593929190615d4a565b5f6040518083038186803b1580156131db575f80fd5b505afa1580156131ed573d5f803e3d5ffd5b505060e3546001600160a01b0316915050801561325b57604051630149e46f60e01b81526001600160a01b038481166004830152821690630149e46f906024015f604051808303815f87803b158015613244575f80fd5b505af1158015613256573d5f803e3d5ffd5b505050505b61315a8585856151e7565b5f6132708161393e565b60e380546001600160a01b0319166001600160a01b0384169081179091556040517fbe945f1688d0c44e4727dde3ee4f1f52c5263e6213e3d6321cf7804cbe33be3c905f90a25050565b60df545f90801561100357610ffe816132d16137ab565b859190613896565b60cb545f90801561100357610ffe816132d1610de3565b6001600160a01b0381165f90815260cc6020526040812054610ebf90610fe0565b4284101561331d575f80fd5b5f6001613328611c57565b6001600160a01b038a81165f81815260ce602090815260409182902080546001810190915582517f6e71edae12b1b97f4d1f60370fef10105fa2faae0126114a169c64845d6126c98184015280840194909452938d166060840152608083018c905260a083019390935260c08083018b90528151808403909101815260e08301909152805192019190912061190160f01b6101008301526101028201929092526101228101919091526101420160408051601f1981840301815282825280516020918201205f84529083018083525260ff871690820152606081018590526080810184905260a0016020604051602081039080840390855afa158015613430573d5f803e3d5ffd5b5050604051601f1901519150506001600160a01b038116158015906134665750876001600160a01b0316816001600160a01b0316145b61346e575f80fd5b6001600160a01b039081165f90815260cd602090815260408083208a8516808552908352928190208990555188815291928a16917f8c5be1e5ebec7d5bd14f71427d1e84f3dd0314c0f7b2291e5b200ac8c7c3b925910160405180910390a350505050505050565b5f6134df613bc7565b6134e7613bd6565b6134f18285614003565b60e3546001600160a01b0316801561355a57604051636c912dad60e01b81526001600160a01b038481166004830152821690636c912dad906024015f604051808303815f87803b158015613543575f80fd5b505af1158015613555573d5f803e3d5ffd5b505050505b6135656112b5613e55565b61356e856123b9565b91505f8560d45461357f9190615b10565b60d481905560dc549091506135b0906112e390600160801b90046001600160801b0316670de0b6b3a7640000615d13565b8160d3546135be9190615b10565b11156135dc57604051622d41ad60e31b815260040160405180910390fd5b8260df5f8282546135ed9190615b10565b90915550506001600160a01b0384165f90815260d260205260408120600201805485929061361c908490615b10565b909155505060408051878152602081018590526001600160a01b03808716929088169133917f96558a334f4759f0e7c423d68c84721860bd8fbf94ddc4e55158ecb125ad04b5910160405180910390a46136746139c1565b604051637b9d893160e01b81523060048201526001600160a01b0385811660248301527f00000000000000000000000000000000000000000000000000000000000000001690637b9d8931906044015f604051808303815f87803b1580156136da575f80fd5b505af11580156136ec573d5f803e3d5ffd5b506137269250506001600160a01b037f00000000000000000000000000000000000000000000000000000000000000001690508688614256565b50509392505050565b5f828152606560205260409020600101546137498161393e565b6119f68383614557565b5f61375d8161393e565b60dc80546001600160801b03908116600160801b918516918202179091556040519081527fc197c4ec4c97f824717acfad017c2a16643adc8874798a0899da42c6b5ebf9bf90602001610f48565b60d45460dd5460da545f929190839061387890613871906137d990600160281b900463ffffffff1642615b5b565b60db546301e13380906001600160a01b0316637c21fb1d6137fa888a613fcf565b613807898b60d354613fe7565b6040516001600160e01b031960e085901b16815260048101929092526024820152604401602060405180830381865afa158015613846573d5f803e3d5ffd5b505050506040513d601f19601f8201168201806040525081019061386a9190615d33565b9190613896565b84906138b4565b90506138848184615b10565b935050505090565b5f610ebf826132d9565b8282028115158415858304851417166138ad575f80fd5b0492915050565b5f6110058383670de0b6b3a7640000613896565b60da545f9081906138e490610100900463ffffffff1642615b5b565b9050805f036138f4575f91505090565b60da5461393890829061392490613912906224ea009060ff16615b6e565b60dc546001600160801b0316906138b4565b61392e9084615b10565b60d5549190613896565b91505090565b611d7881336152fc565b5f6139516138c8565b90508060d55f8282546139649190615b5b565b909155505060da805464ffffffff0019166101004263ffffffff811691909102919091179091556040519081527fe24d78f24f27ad7740c08c83f439e4c144df201bfd8f5c4c93e3e0898248b1bb9060200160405180910390a190565b60cb5460dd5460df5460d45460d5546040805142815260208101969096528501939093526060840191909152608083015260a08201527f7a71b92e3ef471c5ad18359e076f3df1c563d92e9ea1e33aa4761dbbc9b7ae409060c0015b60405180910390a1565b828202811515841585830485141716613a3e575f80fd5b6001826001830304018115150290509392505050565b5f680248ce36a70cb26b3e198213613a6d57505f919050565b680755bf798b4a1bf1e58212613a81575f80fd5b6503782dace9d9604e83901b0591505f60606bb17217f7d1cf79abc9e3b39884821b056001605f1b01901d6bb17217f7d1cf79abc9e3b39881029093036c240c330e9fb2d9cbaf0fd5aafb1981018102606090811d6d0277594991cfc85f6e2461837cd9018202811d6d1a521255e34f6a5061b25ef1c9c319018202811d6db1bbb201f443cf962f1a1d3db4a5018202811d6e02c72388d9f74f51a9331fed693f1419018202811d6e05180bb14799ab47a8a8cb2a527d57016d02d16720577bd19bf614176fe9ea6c10fe68e7fd37d0007b713f765084018402831d9081019084016d01d3967ed30fc4f89c02bab5708119010290911d6e0587f503bb6ea29d25fcb740196450019091026d360d7aeea093263ecc6e0ecb291760621b010574029d9dc38563c32e5c2f6dc192ee70ef65f9978af30260c3939093039290921c92915050565b60975460ff16156124ba575f80fd5b60e354600160a01b900460ff16156124ba5760405163b2ce2a9360e01b815260040160405180910390fd5b5f613c0f6224ea0086615d90565b15613c1c57506001613c6f565b428511613c2b57506002613c6f565b613c3b60ff85166224ea00615b6e565b613c486224ea0042615d90565b613c529042615b5b565b613c5c9190615b10565b851115613c6b57506004613c6f565b5060035b826004811115613c8157613c81615da3565b816004811115613c9357613c93615da3565b14158015613cc35750816004811115613cae57613cae615da3565b816004811115613cc057613cc0615da3565b14155b15613d94575f826004811115613cdb57613cdb615da3565b03613d2f57806004811115613cf257613cf2615da3565b836004811115613d0457613d04615da3565b604051631a71301d60e11b815260ff9283166004820152911660248201526044015b60405180910390fd5b806004811115613d4157613d41615da3565b836004811115613d5357613d53615da3565b836004811115613d6557613d65615da3565b604051637f2cef9960e01b815260ff938416600482015291831660248301529091166044820152606401613d26565b5050505050565b60038201545f9042831115613def5760028401544260038601819055613dd890613dc6908490615b5b565b613dd08487615b5b565b839190613896565b9250613de48382615b5b565b600286015550613e12565b828103613dfe575f9150613e12565b600384018390556002840180545f90915591505b5092915050565b81545f9081613e288483615b10565b9050613e41613e3b838760010154615342565b82615357565b613e4b9082615b5b565b9455509192915050565b60d45460dd545f919082613e698284613fcf565b60da549091505f90613ebb9061112190613e9090600160281b900463ffffffff1642615b5b565b60db5460d3546301e13380916001600160a01b031690637c21fb1d908890613807908b908d90613fe7565b9050613ec78185615b10565b9350613ede60e254826138b490919063ffffffff16565b945084613eeb8285615b10565b613ef59190615b5b565b60dd5560d484905560da805468ffffffff00000000001916600160281b4263ffffffff8116919091029190911790915560408051918252602082018490527f582b129106eba35020853cdae92ceb413a0227befcce433b67b23a630219b35f910160405180910390a15050505090565b8015611d785760e154613f89906001600160a01b0316613f848361388c565b614ce4565b8060dd5f828254613f9a9190615b10565b909155505050565b5f8115801590613fb157508383115b613fbb575f611d3e565b611d3e82613fc98686615b5b565b90615365565b5f825f03613fdd575f611005565b6110058284615365565b5f835f03613ff5575f611d3e565b611d3e84613fc98486615b10565b336001600160a01b03831614611ccf576001600160a01b0382165f90815260cd602090815260408083203384529091529020545f1981146119f65761404782611077565b6140519082615b5b565b6001600160a01b0384165f90815260cd60209081526040808320338452909152902055505050565b5f825f0361408f57506401000000008117610ebf565b63ffffffff83168083101561410d575f6224ea006140ad8584615b5b565b6140b79190615db7565b90506140c581610100615b5b565b85901c156140e65760405163293cc41f60e21b815260040160405180910390fd5b6140f1816020615b10565b602086901c901b94508484176401000000001792505050610ebf565b5f6224ea0061411c8386615b5b565b6141269190615db7565b905060df81111561414a5760405163293cc41f60e21b815260040160405180910390fd5b614155816020615b10565b6001901b851792505050610ebf565b5f8061417b60e254846138b490919063ffffffff16565b905061418681613f65565b6110058184615b5b565b5f8082156141c4576141bf6141ad6141a787615379565b85615357565b6141b79085615b5b565b859085613896565b6141c6565b5f5b90506141d28185615b5b565b9150935093915050565b805f036141e65750565b60e254156141f757611d7881613f65565b8060d55f828254613f9a9190615b10565b5f81815260d160209081526040918290206002015482514281529182015282917fa2e6044136bec58e0605f40ac11a7bf87f1a8bdf3e2588b11b2cfae5acd9109f910160405180910390a250565b5f60405163a9059cbb60e01b5f52836004528260245260205f60445f80895af13d15601f3d1160015f511416171691505f6060528060405250806111a6575f80fd5b6001600160a01b0383165f90815260cd602090815260408083203384529091528120545f1981146142f1576142cd8382615b5b565b6001600160a01b0386165f90815260cd602090815260408083203384529091529020555b6001600160a01b0385165f90815260cc602052604081208054859290614318908490615b5b565b90915550506001600160a01b038085165f81815260cc6020526040908190208054870190555190918716905f80516020615ed28339815191529061435f9087815260200190565b60405180910390a3506001949350505050565b61437c828261253c565b611ccf575f8281526065602090815260408083206001600160a01b03851684529091529020805460ff191660011790556143b33390565b6001600160a01b0316816001600160a01b0316837f2f8788117e7eff1d82e926ec794901d17c78024a50270940304540a733656f0d60405160405180910390a45050565b5f805f61440386615379565b9050801561443f576144246144188683615357565b60408801519083613896565b925061443083856138b4565b915061443c8284615b5b565b92505b50935093915050565b815460018301545f919061445c8482615b10565b600186015561190d61446e8383615357565b6141a79084615b5b565b5f6040516323b872dd60e01b5f5284600452836024528260445260205f60645f808a5af13d15601f3d1160015f511416171691505f606052806040525080613d94575f80fd5b5f7f8b73c3c69bb8fe3d512ecc4cf759cc79239f7b179b0ffacaa9a75d522b39400f60c96040516144ef9190615dca565b6040805191829003822060208301939093528101919091527fc89efdaa54c0f20c7adf612882df0950f5a951637e0307cdcb4c672f298b8bc660608201524660808201523060a082015260c00160405160208183030381529060405280519060200120905090565b614561828261253c565b15611ccf575f8281526065602090815260408083206001600160a01b0385168085529252808320805460ff1916905551339285917ff6391f5c32d9c69d2a47ea670b442974b53935d1edc7fd64eb21e047a839171b9190a45050565b5f845f036145de5760405163685e923560e01b815260040160405180910390fd5b5f86815260d160205260408120906145f68289613d9b565b90508060dd5f8282546146099190615b10565b90915550505f88815260d0602090815260408083206001600160a01b038916845282528083208151808301909252805480835260019091015492820183905290929161465f918b9161465a91615b10565b615357565b6040805180820190915283518152602080850151908201529091505f906146869083614f7e565b5160e3549091506001600160a01b031680156146f357604051636c912dad60e01b81526001600160a01b038a81166004830152821690636c912dad906024015f604051808303815f87803b1580156146dc575f80fd5b505af11580156146ee573d5f803e3d5ffd5b505050505b8b42101561479b5787156147935760d754604080516080810182528854815260018901546020820152600289015491810191909152600388015460608201525f9182916147419186906143f7565b90925090506147508183615b10565b886002015f8282546147629190615b5b565b925050819055508060d55f82825461477a9190615b10565b9091555061478a90508286615b5b565b985050506147e2565b8296506147e2565b60d6546147b6906147ac8e42615b5b565b6138719190615b6e565b6147c09084615b10565b96506147cc8388615b5b565b60d55f8282546147dc9190615b10565b90915550505b8987111561480357604051632c1b6b4160e21b815260040160405180910390fd5b61480d8683614e6f565b60d35f82825461481d9190615b5b565b9091555061482d9050848461501c565b5060208401518451175f03614889575f8c815260d0602090815260408083206001600160a01b038d1684528252808320838155600190810184905560d29092529091209081015461487e908e614e92565b6001909101556148b9565b5f8c815260d0602090815260408083206001600160a01b038d168452825290912085518155908501516001909101555b60408051888152602081018590526001600160a01b038b169133918f917ff17fce321dd9fb005136a80c0bfb3789e455b7a70be9eb8922f1ad20a80d1a33910160405180910390a461490a8c614208565b50505050505095945050505050565b614921615397565b6097805460ff191690557f5db9ee0a495bf2e6ff9c91a7834c1ba4fdd244a5e8aa4e537bd38aeae4b073aa335b6040516001600160a01b039091168152602001613a1d565b60e3545f9081906001600160a01b031680156149d357604051636c912dad60e01b81526001600160a01b038581166004830152821690636c912dad906024015f604051808303815f87803b1580156149bc575f80fd5b505af11580156149ce573d5f803e3d5ffd5b505050505b6149de6112b5613e55565b6001600160a01b0384165f90815260d2602052604090206002810154614a048782615357565b9350614a0f84611dba565b9450845f03614a315760405163685e923560e01b815260040160405180910390fd5b8460d45f828254614a429190615b5b565b90915550614a5290508482615b5b565b82600201819055508360df5f828254614a6b9190615b5b565b909155505060408051868152602081018690526001600160a01b0388169133917fe4a1ae657f49cb1fb1c7d3a94ae6093565c4c8c0e03de488f79c377c3c3a24e0910160405180910390a35050509250929050565b805f03614ae05760405163b8cb621960e01b815260040160405180910390fd5b60405163070b773960e51b81526001600160a01b0385811660048301523060248301527f0000000000000000000000000000000000000000000000000000000000000000169063e16ee720906044015f6040518083038186803b158015614b45575f80fd5b505afa158015614b57573d5f803e3d5ffd5b505060e3546001600160a01b03169150508015614bc557604051630149e46f60e01b81526001600160a01b038481166004830152821690630149e46f906024015f604051808303815f87803b158015614bae575f80fd5b505af1158015614bc0573d5f803e3d5ffd5b505050505b5f614bcf83611077565b9050614bdb83826153a5565b614be5848261541e565b60408051848152602081018390526001600160a01b03808716929088169133917ffbde797d201c681b91056529119e0b02407c7bb96a4a2c75c01fc9667232c8db910160405180910390a4836001600160a01b0316856001600160a01b03167f9e2db63c5a9dc5d08222447d76570029e4f2f3074c8aa4f1c511fa658506c71085604051614c7591815260200190565b60405180910390a3614c856139c1565b6128446001600160a01b037f0000000000000000000000000000000000000000000000000000000000000000168685614256565b614cc1611096565b60de5560da805463ffffffff60481b1916600160481b4263ffffffff1602179055565b60e3546001600160a01b03168015614d4d57604051630149e46f60e01b81526001600160a01b038481166004830152821690630149e46f906024015f604051808303815f87803b158015614d36575f80fd5b505af1158015614d48573d5f803e3d5ffd5b505050505b6119f68383615485565b614d5f613bc7565b614d67613bd6565b614d6f614cb9565b5f614d78613e55565b90505f614d83613948565b9050614d8f8482615b10565b60dd5f828254614d9f9190615b10565b90915550614dae905082613f65565b6111a66139c1565b614de07f5358bcfd81d1ef3da152b1755e1c3c6739686fa7e83dbcad0071568cc4b73a633361253c565b158015614e145750614e127f65d7a28e3265b37a6474929f336521b332c1681b933f6cb9f3376673440d862a3361253c565b155b156124ba57604051631d006fdb60e31b815260040160405180910390fd5b614e3a613bc7565b6097805460ff191660011790557f62e78cea01bee320cd4e420270b5ea74000d11b0c9f74754ebdbfc544b05a25861494e3390565b815460018301545f9190614e838483615b5b565b855561190d61446e8383615357565b5f821580614ea65750816401000000001783145b15614eb257505f610ebf565b63ffffffff8316808303614f2057602184901c60015b60018216158015614ed857508115155b15614ee957600191821c9101614ec8565b6020614ef58282615b10565b9690961c90951b9485614f0b6224ea0083615b6e565b614f159087615b10565b179350505050610ebf565b6224ea00614f2e8285615b5b565b614f389190615db7565b614f43906020615b10565b6001901b198416915050610ebf565b5f54610100900460ff166124ba575f80fd5b5f54610100900460ff16614f76575f80fd5b6124ba6154d4565b604080518082019091525f8082526020820152825160208401515f91614fa8916132d19082615b10565b8085529050614fb78184615b5b565b6020850152509192915050565b815460018301545f919082614fd98583615b5b565b9050614fe58184615357565b614fef8385615357565b614ff99190615b5b565b60019096015550929392505050565b5f61100583670de0b6b3a764000084613896565b604080518082019091525f8082526020820152602083015183515f9161504191615b10565b90505f61504e8483615b5b565b855190915061505f90829084613896565b80865261506c9082615b5b565b602086015250929392505050565b335f90815260cc602052604081208054839190839061509a908490615b5b565b90915550506001600160a01b0383165f81815260cc6020526040908190208054850190555133905f80516020615ed2833981519152906110669086815260200190565b5f6150e784611077565b9050336001600160a01b03831614615154576001600160a01b0382165f90815260cd602090815260408083203384529091529020545f1981146151525761512e8282615b5b565b6001600160a01b0384165f90815260cd602090815260408083203384529091529020555b505b61515e84826153a5565b615168828261541e565b60408051858152602081018390526001600160a01b03808516929086169133917ffbde797d201c681b91056529119e0b02407c7bb96a4a2c75c01fc9667232c8db910160405180910390a46110056001600160a01b037f0000000000000000000000000000000000000000000000000000000000000000168486614256565b5f336001600160a01b03831614615253576001600160a01b0382165f90815260cd602090815260408083203384529091529020545f1981146152515761522d8582615b5b565b6001600160a01b0384165f90815260cd602090815260408083203384529091529020555b505b61525c846122af565b9050805f03615269575f80fd5b61527381856153a5565b61527d828561541e565b60408051828152602081018690526001600160a01b03808516929086169133917ffbde797d201c681b91056529119e0b02407c7bb96a4a2c75c01fc9667232c8db910160405180910390a46110056001600160a01b037f0000000000000000000000000000000000000000000000000000000000000000168483614256565b615306828261253c565b611ccf57615313816154f2565b61531e836020615504565b60405160200161532f929190615e53565b6040516020818303038152906040525f80fd5b5f8183116153505781611005565b5090919050565b5f8183106153505781611005565b5f61100583670de0b6b3a764000084613a27565b805160208201515f919061538d8282615357565b611d3e9083615b5b565b60975460ff166124ba575f80fd5b6153ad613bc7565b6153b5614cb9565b6153c06112b5613e55565b5f6153c9613948565b90505f838260dd546153db9190615b10565b6153e59190615b5b565b90508060d45460d3546153f89190615b10565b111561541657604051622d41ad60e31b815260040160405180910390fd5b60dd55505050565b6001600160a01b0382165f90815260cc602052604081208054839290615445908490615b5b565b909155505060cb805482900390556040518181525f906001600160a01b038416905f80516020615ed2833981519152906020015b60405180910390a35050565b8060cb5f8282546154969190615b10565b90915550506001600160a01b0382165f81815260cc60209081526040808320805486019055518481525f80516020615ed28339815191529101615479565b5f54610100900460ff166154e6575f80fd5b6097805460ff19169055565b6060610ebf6001600160a01b03831660145b60605f615512836002615b6e565b61551d906002615b10565b67ffffffffffffffff81111561553557615535615be1565b6040519080825280601f01601f19166020018201604052801561555f576020820181803683370190505b509050600360fc1b815f8151811061557957615579615ea8565b60200101906001600160f81b03191690815f1a905350600f60fb1b816001815181106155a7576155a7615ea8565b60200101906001600160f81b03191690815f1a9053505f6155c9846002615b6e565b6155d4906001615b10565b90505b600181111561564b576f181899199a1a9b1b9c1cb0b131b232b360811b85600f166010811061560857615608615ea8565b1a60f81b82828151811061561e5761561e615ea8565b60200101906001600160f81b03191690815f1a90535060049490941c9361564481615ebc565b90506155d7565b508315611005575f80fd5b6001600160a01b0381168114611d78575f80fd5b5f6020828403121561567a575f80fd5b813561100581615656565b5f60208284031215615695575f80fd5b81356001600160e01b031981168114611005575f80fd5b80356001600160801b03811681146156c2575f80fd5b919050565b5f602082840312156156d7575f80fd5b611005826156ac565b602081525f82518060208401528060208501604085015e5f604082850101526040601f19601f83011684010191505092915050565b5f60208284031215615725575f80fd5b5035919050565b5f806040838503121561573d575f80fd5b823561574881615656565b946020939093013593505050565b5f8083601f840112615766575f80fd5b50813567ffffffffffffffff81111561577d575f80fd5b602083019150836020828501011115612426575f80fd5b5f80602083850312156157a5575f80fd5b823567ffffffffffffffff8111156157bb575f80fd5b6157c785828601615756565b90969095509350505050565b5f805f805f60a086880312156157e7575f80fd5b853594506020860135935060408601359250606086013561580781615656565b9150608086013561581781615656565b809150509295509295909350565b5f805f60608486031215615837575f80fd5b833561584281615656565b9250602084013561585281615656565b929592945050506040919091013590565b803560ff811681146156c2575f80fd5b5f60208284031215615883575f80fd5b61100582615863565b5f806040838503121561589d575f80fd5b8235915060208301356158af81615656565b809150509250929050565b5f805f80608085870312156158cd575f80fd5b84359350602085013592506040850135915060608501356158ed81615656565b939692955090935050565b5f805f6060848603121561590a575f80fd5b833561591581615656565b925060208401359150604084013561592c81615656565b809150509250925092565b5f8060408385031215615948575f80fd5b50508035926020909101359150565b5f60208284031215615967575f80fd5b81358015158114611005575f80fd5b5f805f805f805f805f806101208b8d031215615990575f80fd5b8a3567ffffffffffffffff8111156159a6575f80fd5b6159b28d828e01615756565b909b5099506159c5905060208c01615863565b97506159d360408c016156ac565b965060608b01356159e381615656565b955060808b0135945060a08b013593506159ff60c08c016156ac565b925060e08b013591506101008b013590509295989b9194979a5092959850565b5f805f60608486031215615a31575f80fd5b833592506020840135615a4381615656565b9150604084013561592c81615656565b5f805f805f805f60e0888a031215615a69575f80fd5b8735615a7481615656565b96506020880135615a8481615656565b95506040880135945060608801359350615aa060808901615863565b925060a0880135915060c0880135905092959891949750929550565b5f8060408385031215615acd575f80fd5b8235615ad881615656565b915060208301356158af81615656565b634e487b7160e01b5f52601260045260245ffd5b634e487b7160e01b5f52601160045260245ffd5b80820180821115610ebf57610ebf615afc565b600181811c90821680615b3757607f821691505b602082108103615b5557634e487b7160e01b5f52602260045260245ffd5b50919050565b81810381811115610ebf57610ebf615afc565b8082028115828204841417610ebf57610ebf615afc565b5f600160ff1b8201615b9957615b99615afc565b505f0390565b8181035f831280158383131683831282161715613e1257613e12615afc565b67032bc30b1ba363c960c51b8152818360088301375f9101600801908152919050565b634e487b7160e01b5f52604160045260245ffd5b601f8211156119f657805f5260205f20601f840160051c81016020851015615c1a5750805b601f840160051c820191505b81811015613d94575f8155600101615c26565b815167ffffffffffffffff811115615c5357615c53615be1565b615c6781615c618454615b23565b84615bf5565b602080601f831160018114615c9a575f8415615c835750858301515b5f19600386901b1c1916600185901b178555612844565b5f85815260208120601f198616915b82811015615cc857888601518255948401946001909101908401615ca9565b5085821015615ce557878501515f19600388901b60f8161c191681555b5050505050600190811b01905550565b6265786160e81b8152818360038301375f9101600301908152919050565b6001600160801b03828116828216039080821115613e1257613e12615afc565b5f60208284031215615d43575f80fd5b5051919050565b6001600160a01b039384168152919092166020820152604081019190915260600190565b5f8060408385031215615d7f575f80fd5b505080516020909101519092909150565b5f82615d9e57615d9e615ae8565b500690565b634e487b7160e01b5f52602160045260245ffd5b5f82615dc557615dc5615ae8565b500490565b5f808354615dd781615b23565b60018281168015615def5760018114615e0457615e30565b60ff1984168752821515830287019450615e30565b875f526020805f205f5b85811015615e275781548a820152908401908201615e0e565b50505082870194505b50929695505050505050565b5f81518060208401855e5f93019283525090919050565b7f416363657373436f6e74726f6c3a206163636f756e742000000000000000000081525f615e846017830185615e3c565b7001034b99036b4b9b9b4b733903937b6329607d1b815261190d6011820185615e3c565b634e487b7160e01b5f52603260045260245ffd5b5f81615eca57615eca615afc565b505f19019056feddf252ad1be2c89b69c2b068fc378daa952ba7f163c4a11628f55a4df523b3efa26469706673582212201b514e6e57b107f0db86f25e89c5851bdd80d4ee3635f67494bcaf35d184539f64736f6c634300081900336080604052348015600e575f80fd5b5060156019565b607b565b5f54610100900460ff1615602b575f80fd5b5f5460ff908116146079575f805460ff191660ff9081179091556040519081527f7f26b83ff96e1f2b6a682f133852f6798a09c465da95921460cefb38474024989060200160405180910390a15b565b614c14806100885f395ff3fe608060405234801561000f575f80fd5b50600436106101e7575f3560e01c80638129fc1c11610109578063d219f3951161009e578063e9c50ff71161006e578063e9c50ff7146105c6578063f2426f9a146105e8578063f940e38514610608578063fc1960681461061b575f80fd5b8063d219f3951461057e578063d547741f14610591578063d681afb5146105a4578063de7ea7c6146105b3575f80fd5b8063a361654a116100d9578063a361654a146104de578063b658e673146104f3578063b7eec41314610521578063c2db09c114610536575f80fd5b80638129fc1c146104a95780638acbf3de146104b157806391d14854146104c4578063a217fddf146104d7575f80fd5b806336568abe1161017f5780635dadb2dc1161014f5780635dadb2dc146104435780636c912dad1461046457806377329f35146104775780637ecebe001461048a575f80fd5b806336568abe1461032b578063382e85ad1461033e57806344e250f8146103515780635684aa46146103c3575f80fd5b8063248a9ca3116101ba578063248a9ca314610266578063249e6d9c146102965780632f2ff15d146103105780633644e51514610323575f80fd5b80630149e46f146101eb57806301ffc9a71461020057806310d6667714610228578063232b956c14610253575b5f80fd5b6101fe6101f9366004613e7c565b61062e565b005b61021361020e366004613e97565b610786565b60405190151581526020015b60405180910390f35b61023b610236366004613ebe565b6107bc565b6040516001600160a01b03909116815260200161021f565b61023b610261366004613ebe565b6107e4565b610288610274366004613ebe565b5f9081526065602052604090206001015490565b60405190815260200161021f565b6102fb6102a4366004613ef4565b6001600160a01b039283165f9081526097602090815260408083209386168352928152828220959094168152600b9094018352808420911515845291529020546001600160801b03600160801b8204811692911690565b6040805192835260208301919091520161021f565b6101fe61031e366004613f4b565b6107f3565b61028861081c565b6101fe610339366004613f4b565b6108c0565b61028861034c366004614155565b6108e2565b6103a861035f3660046141b4565b6001600160a01b039182165f908152609760209081526040808320939094168252919091522060078101546004909101546001600160801b0380831693600160801b9093041691565b6040805193845260208401929092529082015260600161021f565b61041c6103d13660046141b4565b6001600160a01b039182165f90815260976020908152604080832093909416825291909152206008015463ffffffff808216926401000000008304821692600160401b900490911690565b6040805163ffffffff9485168152928416602084015292169181019190915260600161021f565b6104566104513660046141e0565b610a78565b60405161021f92919061427d565b6101fe610472366004613e7c565b610ce0565b610456610485366004613e7c565b610e62565b610288610498366004613e7c565b609b6020525f908152604090205481565b6101fe610ed8565b6102886104bf3660046141b4565b610f92565b6102136104d2366004613f4b565b610fac565b6102885f81565b6104e6610fd6565b60405161021f91906142c5565b610288610501366004613e7c565b6001600160a01b03165f9081526097602052604090206002015460ff1690565b61052961116e565b60405161021f919061436e565b610565610544366004613e7c565b60976020525f90815260409020600281015460039091015460ff9091169082565b6040805160ff909316835260208301919091520161021f565b61045661058c366004614380565b6111ce565b6101fe61059f366004613f4b565b61158e565b610288670de0b6b3a763ffff81565b6101fe6105c1366004614488565b6115b2565b6102136105d4366004613e7c565b60986020525f908152604090205460ff1681565b6105fb6105f63660046141b4565b6120c5565b60405161021f91906145f9565b6101fe6106163660046141b4565b612233565b6103a86106293660046146eb565b6122ba565b60408051600180825281830190925233915f9190816020015b604080518082019091525f8082526020820152815260200190600190039081610647579050506040805180820182525f815290516370a0823160e01b81526001600160a01b03868116600483015292935090916020830191908516906370a0823190602401602060405180830381865afa1580156106c7573d5f803e3d5ffd5b505050506040513d601f19601f820116820180604052508101906106eb9190614729565b815250815f8151811061070057610700614740565b6020908102919091018101919091526001600160a01b0383165f9081526097909152604081206002810154909160ff909116905b81816001600160801b0316101561077e576001600160801b0381165f90815260018401602052604090205461077690879087906001600160a01b0316876122ff565b600101610734565b505050505050565b5f6001600160e01b03198216637965db0b60e01b14806107b657506301ffc9a760e01b6001600160e01b03198316145b92915050565b609981815481106107cb575f80fd5b5f918252602090912001546001600160a01b0316905081565b609a81815481106107cb575f80fd5b5f8281526065602052604090206001015461080d816125fe565b6108178383612608565b505050565b604080517f8b73c3c69bb8fe3d512ecc4cf759cc79239f7b179b0ffacaa9a75d522b39400f60208201527f2c55a9465497be0b743b67bd2d3ee61e8212e4c4aa51feb7beee992dcf383117918101919091527fc89efdaa54c0f20c7adf612882df0950f5a951637e0307cdcb4c672f298b8bc660608201524660808201523060a08201525f9060c00160405160208183030381529060405280519060200120905090565b6001600160a01b03811633146108d4575f80fd5b6108de828261268d565b5050565b5f805b8451811015610a70575f85828151811061090157610901614740565b60209081029190910181015180516001600160a01b039081165f90815260978452604080822092891682529382905292832060028201549294509092909160ff169003610956578360010193505050506108e5565b8251602084015160088301545f926109779290918b9063ffffffff166126f3565b90505f805b8251811015610a21576001600160a01b038a165f908152600b85016020526040812084519091908590849081106109b5576109b5614740565b60209081029190910181015151151582528101919091526040015f20546109ec90600160801b90046001600160801b031689614768565b9750828181518110610a0057610a00614740565b60200260200101516020015182610a179190614768565b915060010161097c565b508015610a6057610a5389896040518060400160405280895f01516001600160a01b03168152602001868152506128e8565b610a5d9088614768565b96505b85600101955050505050506108e5565b509392505050565b609c54606090819083906001600160a01b031615610a9857610a9861477b565b4281604001351015610aac57610aac61477b565b5f6001610ab761081c565b7f8b66e7894ecc5180298853ab3de30e198ac84d63bc1587efdff2eaa728ec269e610ae56020860186613e7c565b33610af3602088018861478f565b609b5f610b0360208c018c613e7c565b6001600160a01b0316815260208082019290925260409081015f208054600181019091558151610b3e98979695949391928d013591016147db565b60405160208183030381529060405280519060200120604051602001610b7b92919061190160f01b81526002810192909252602282015260420190565b60408051601f198184030181529190528051602090910120610ba36080850160608601614862565b604080515f8152602081018083529390935260ff90911690820152608080850135606083015260a08086013591830191909152016020604051602081039080840390855afa158015610bf7573d5f803e3d5ffd5b5050604051601f1901519150506001600160a01b03811615801590610c395750610c246020830183613e7c565b6001600160a01b0316816001600160a01b0316145b610c4557610c4561477b565b610c526020830183613e7c565b609c80546001600160a01b0319166001600160a01b039290921691909117905550610cbb8533610c85602088018861478f565b808060200260200160405190810160405280939291908181526020018383602002808284375f920191909152506111ce92505050565b92509250609c546001600160a01b031615610cd857610cd861477b565b509250929050565b60408051600180825281830190925233915f9190816020015b604080518082019091525f8082526020820152815260200190600190039081610cf957905050604051632f2e037160e11b81526001600160a01b0385811660048301529192505f91841690635e5c06e290602401606060405180830381865afa158015610d68573d5f803e3d5ffd5b505050506040513d601f19601f82011682018060405250810190610d8c919061487d565b6001600160a01b0386165f9081526097602052604081206002810154929550935060ff90911691505b81816001600160801b03161015610e59576001600160801b0381165f90815260018085016020908152604080842054815180830183529384526001600160a01b031680855287835293206008015490820190610e1a908a908c9063ffffffff16612a45565b610e249088614768565b815250865f81518110610e3957610e39614740565b6020026020010181905250610e50883383896122ff565b50600101610db5565b50505050505050565b606080610ecf610e70610fd6565b846099805480602002602001604051908101604052809291908181526020018280548015610ec557602002820191905f5260205f20905b81546001600160a01b03168152600190910190602001808311610ea7575b50505050506111ce565b91509150915091565b5f54610100900460ff1615808015610ef657505f54600160ff909116105b80610f0f5750303b158015610f0f57505f5460ff166001145b610f17575f80fd5b5f805460ff191660011790558015610f38575f805461ff0019166101001790555b610f40612c11565b610f4a5f33612608565b8015610f8f575f805461ff0019169055604051600181527f7f26b83ff96e1f2b6a682f133852f6798a09c465da95921460cefb38474024989060200160405180910390a15b50565b5f610fa5610f9e610fd6565b84846108e2565b9392505050565b5f9182526065602090815260408084206001600160a01b0393909316845291905290205460ff1690565b60605f609a80548060200260200160405190810160405280929190818152602001828054801561102d57602002820191905f5260205f20905b81546001600160a01b0316815260019091019060200180831161100f575b5050505050905080516001600160401b0381111561104d5761104d613f79565b60405190808252806020026020018201604052801561109257816020015b604080518082019091525f81526060602082015281526020019060019003908161106b5790505b5091505f5b8151811015611169576040805160028082526060820183525f926020830190803683370190505090506001815f815181106110d4576110d4614740565b6020026020010190151590811515815250505f816001815181106110fa576110fa614740565b602002602001019015159081151581525050604051806040016040528084848151811061112957611129614740565b60200260200101516001600160a01b031681526020018281525084838151811061115557611155614740565b602090810291909101015250600101611097565b505090565b606060998054806020026020016040519081016040528092919081815260200182805480156111c457602002820191905f5260205f20905b81546001600160a01b031681526001909101906020018083116111a6575b5050505050905090565b609c5460609081906001600160a01b03166111f657609c80546001600160a01b031916331790555b8251806001600160401b0381111561121057611210613f79565b604051908082528060200260200182016040528015611239578160200160208202803683370190505b50609c549092506001600160a01b03165f5b875181101561148e575f88828151811061126757611267614740565b60209081029190910181015180516001600160a01b03165f90815260979092526040822060028101549193509160ff909116905b81816001600160801b031610156113155783516001600160801b0382165f9081526001850160209081526040808320548851838a01516001600160a01b0390921680865293899052919093206008015461130d948b9490939261130892909190869063ffffffff166126f3565b6122ff565b60010161129b565b505f5b8681101561147f575f835f015f8c848151811061133757611337614740565b60200260200101516001600160a01b03166001600160a01b031681526020019081526020015f2090505f5b856020015151811015611475576001600160a01b0388165f908152600b8301602090815260408220908801518051839190859081106113a3576113a3614740565b602090810291909101810151151582528101919091526040015f2054600160801b90046001600160801b03169050801561146c57808b85815181106113ea576113ea614740565b602002602001018181516113fe9190614768565b9052506001600160a01b0389165f908152600b84016020908152604082209089015180518391908690811061143557611435614740565b602090810291909101810151151582528101919091526040015f2080546001600160801b03928316600160801b0292169190911790555b50600101611362565b5050600101611318565b5083600101935050505061124b565b505f5b8551811015611570575f8482815181106114ad576114ad614740565b602002602001015190505f811115611567576114f688828985815181106114d6576114d6614740565b60200260200101516001600160a01b0316612c259092919063ffffffff16565b876001600160a01b031687838151811061151257611512614740565b60200260200101516001600160a01b0316846001600160a01b03167fc1405953cccdad6b442e266c84d66ad671e2534c6584f8e6ef92802f7ad294d58460405161155e91815260200190565b60405180910390a45b50600101611491565b5050609c80546001600160a01b031916905550919491935090915050565b5f828152606560205260409020600101546115a8816125fe565b610817838361268d565b5f6115bc816125fe565b5f5b825181101561081757670de0b6b3a76400008382815181106115e2576115e2614740565b602002602001015161014001516001600160401b031610611616576040516306b7c75960e31b815260040160405180910390fd5b82818151811061162857611628614740565b60200260200101516101a001516001600160401b03165f0361165d576040516306b7c75960e31b815260040160405180910390fd5b5f60975f85848151811061167357611673614740565b60200260200101515f01516001600160a01b03166001600160a01b031681526020019081526020015f2090505f815f015f8685815181106116b6576116b6614740565b6020026020010151602001516001600160a01b03166001600160a01b031681526020019081526020015f20905081600301545f0361173e57609a85848151811061170257611702614740565b6020908102919091018101515182546001810184555f938452919092200180546001600160a01b0319166001600160a01b039092169190911790555b60985f86858151811061175357611753614740565b6020908102919091018101518101516001600160a01b031682528101919091526040015f205460ff1661182a57600160985f87868151811061179757611797614740565b6020026020010151602001516001600160a01b03166001600160a01b031681526020019081526020015f205f6101000a81548160ff02191690831515021790555060998584815181106117ec576117ec614740565b60209081029190910181015181015182546001810184555f938452919092200180546001600160a01b0319166001600160a01b039092169190911790555b6008810154600160401b900463ffffffff165f03611a2e5784838151811061185457611854614740565b602090810291909101810151015160028301805460018501915f9160ff16908261187d836148a8565b91906101000a81548160ff021916908360ff16021790555060ff166001600160801b031681526020019081526020015f205f6101000a8154816001600160a01b0302191690836001600160a01b031602179055508483815181106118e3576118e3614740565b60200260200101515f01516001600160a01b031663313ce5676040518163ffffffff1660e01b8152600401602060405180830381865afa158015611929573d5f803e3d5ffd5b505050506040513d601f19601f8201168201806040525081019061194d91906148c6565b61195890600a6149b9565b6003830155845185908490811061197157611971614740565b602002602001015160600151816008015f6101000a81548163ffffffff021916908363ffffffff1602179055508483815181106119b0576119b0614740565b6020026020010151606001518160080160086101000a81548163ffffffff021916908363ffffffff1602179055508483815181106119f0576119f0614740565b602002602001015160800151858481518110611a0e57611a0e614740565b602002602001015160c00151611a2491906149db565b6001820155611d43565b600881015460408051600180825281830190925263ffffffff80841693640100000000900416915f9190602080830190803683370190505090506001815f81518110611a7c57611a7c614740565b602002602001019015159081151581525050611af55f898881518110611aa457611aa4614740565b60200260200101515f01518a8981518110611ac157611ac1614740565b6020026020010151602001516113088c8b81518110611ae257611ae2614740565b60200260200101515f0151865f8a6126f3565b8163ffffffff16421015611c39575f808463ffffffff16421115611bd0576008860154611b2f90600160601b900463ffffffff16426149ee565b8660010154611b3e9190614a01565b8660090154611b4d9190614768565b9150611b5f63ffffffff8616426149ee565b9050818a8981518110611b7457611b74614740565b602002602001015160c00151111580611baa5750808a8981518110611b9b57611b9b614740565b60200260200101516080015111155b15611bc8576040516306b7c75960e31b815260040160405180910390fd5b600986018290555b808a8981518110611be357611be3614740565b602002602001015160800151611bf991906149ee565b828b8a81518110611c0c57611c0c614740565b602002602001015160c00151611c2291906149ee565b611c2c91906149db565b600187015550611d3f9050565b878681518110611c4b57611c4b614740565b602090810291909101015160600151600885015463ffffffff908116911614611d3f57878681518110611c8057611c80614740565b602002602001015160600151846008015f6101000a81548163ffffffff021916908363ffffffff160217905550878681518110611cbf57611cbf614740565b6020026020010151606001518460080160086101000a81548163ffffffff021916908363ffffffff160217905550878681518110611cff57611cff614740565b602002602001015160800151888781518110611d1d57611d1d614740565b602002602001015160c00151611d3391906149db565b60018501555f60098501555b5050505b60088101805463ffffffff60601b1916600160601b4263ffffffff16021790558451859084908110611d7757611d77614740565b6020908102919091010151608001516008820154611d9b919063ffffffff16614a18565b8160080160046101000a81548163ffffffff021916908363ffffffff160217905550848381518110611dcf57611dcf614740565b60200260200101516040015181600a015f6101000a8154816001600160a01b0302191690836001600160a01b03160217905550848381518110611e1457611e14614740565b602002602001015160c001518160020181905550848381518110611e3a57611e3a614740565b602002602001015160a00151815f0181905550848381518110611e5f57611e5f614740565b602002602001015160e001518160030181905550848381518110611e8557611e85614740565b60200260200101516101000151816005015f6101000a8154816001600160801b030219169083600f0b6001600160801b03160217905550848381518110611ece57611ece614740565b602002602001015161012001518160050160106101000a8154816001600160401b0302191690836001600160401b03160217905550848381518110611f1557611f15614740565b60200260200101516101600151816006015f6101000a8154816001600160401b0302191690836001600160401b03160217905550848381518110611f5b57611f5b614740565b602002602001015161018001518160060160086101000a8154816001600160401b0302191690836001600160401b03160217905550848381518110611fa257611fa2614740565b602002602001015161014001518160050160186101000a8154816001600160401b0302191690836001600160401b03160217905550848381518110611fe957611fe9614740565b60200260200101516101a001518160060160106101000a8154816001600160401b0302191690836001600160401b0316021790555084838151811061203057612030614740565b6020026020010151602001516001600160a01b031685848151811061205757612057614740565b60200260200101515f01516001600160a01b03167fbb1f0f9f2e246d18022362060458bdfde9ab9b4e4eb514b800b155df7ea8ecac87868151811061209e5761209e614740565b60200260200101516040516120b391906145f9565b60405180910390a350506001016115be565b604080516101c0810182525f80825260208201819052918101829052606081018290526080810182905260a0810182905260c0810182905260e08101829052610100810182905261012081018290526101408101829052610160810182905261018081018290526101a08101919091526001600160a01b038084165f8181526097602090815260408083208786168085529083529281902081516101c08101835294855291840192909252600a81015490931690820152600882015463ffffffff8082166060840181905260808401926121a89264010000000090910416614a3c565b63ffffffff1681528254602082015260028301546040820152600383015460608201526005830154600f81900b60808301526001600160401b03600160801b808304821660a0850152600160c01b909204811660c084015260069094015480851660e0840152600160401b810485166101008401520490921661012090920191909152905092915050565b5f61223d816125fe565b6040516370a0823160e01b81523060048201526108179083906001600160a01b038616906370a0823190602401602060405180830381865afa158015612285573d5f803e3d5ffd5b505050506040513d601f19601f820116820180604052508101906122a99190614729565b6001600160a01b0386169190612c25565b6001600160a01b038084165f9081526097602090815260408083209386168352929052908120819081906122ef908786612c6d565b9250925092505b93509350939050565b6001600160a01b038381165f9081526097602090815260408083206003810154948716845290915290206008810154600160401b900463ffffffff1642811015612445575f808061235a858a61235587426149ee565b612c6d565b919450925090506001600160801b0383118061237c57506001600160801b0382115b1561239a57604051637decd25760e01b815260040160405180910390fd5b6001600160801b03828116600160801b0290841617600786015560088501805463ffffffff42908116600160401b026bffffffff0000000000000000199092169190911790915560048601829055604080518581526020810185905290810183905260608101919091526001600160a01b0389811691908b16907f1be815035b13056fba0f0dcbaec5d30add5d95e5f1b6990581607fbccdc930509060800160405180910390a35050505b506001600160a01b0386165f908152600b820160205260408120905b84518110156125f4575f85828151811061247d5761247d614740565b602090810291909101810151805115155f90815291859052604082208054825192945090926001600160801b0390911691156124c7575060078601546001600160801b03166124de565b506007860154600160801b90046001600160801b03165b8082146125e55782546fffffffffffffffffffffffffffffffff19166001600160801b0382161783556020840151156125e5575f612522856020015183858c61387f565b845490915081908590601090612549908490600160801b90046001600160801b0316614a59565b92506101000a8154816001600160801b0302191690836001600160801b031602179055508c6001600160a01b03168b6001600160a01b03168d6001600160a01b03167fc4278cd1497fedb2697092108a0141a0cbecdd1472913b6e803010998aa63537885f01518787876040516125db9493929190931515845260208401929092526040830152606082015260800190565b60405180910390a4505b84600101945050505050612461565b5050505050505050565b610f8f813361389e565b6126128282610fac565b6108de575f8281526065602090815260408083206001600160a01b03851684529091529020805460ff191660011790556126493390565b6001600160a01b0316816001600160a01b0316837f2f8788117e7eff1d82e926ec794901d17c78024a50270940304540a733656f0d60405160405180910390a45050565b6126978282610fac565b156108de575f8281526065602090815260408083206001600160a01b0385168085529252808320805460ff1916905551339285917ff6391f5c32d9c69d2a47ea670b442974b53935d1edc7fd64eb21e047a839171b9190a45050565b606083516001600160401b0381111561270e5761270e613f79565b60405190808252806020026020018201604052801561275257816020015b604080518082019091525f808252602082015281526020019060019003908161272c5790505b5090505f5b84518110156128df5784818151811061277257612772614740565b60200260200101511561283d57604051632f2e037160e11b81526001600160a01b0385811660048301525f9190881690635e5c06e290602401606060405180830381865afa1580156127c6573d5f803e3d5ffd5b505050506040513d601f19601f820116820180604052508101906127ea919061487d565b92505050604051806040016040528060011515815260200161280d898888612a45565b6128179084614768565b81525083838151811061282c5761282c614740565b6020026020010181905250506128d7565b6040805180820182525f815290516370a0823160e01b81526001600160a01b0386811660048301526020830191908916906370a0823190602401602060405180830381865afa158015612892573d5f803e3d5ffd5b505050506040513d601f19601f820116820180604052508101906128b69190614729565b8152508282815181106128cb576128cb614740565b60200260200101819052505b600101612757565b50949350505050565b80516001600160a01b039081165f908152609760208181526040808420878616855282528084208651909516845291905281206003015460088301548451929392600160401b90910463ffffffff16908490819061295990869042861061294f575f612c6d565b61235586426149ee565b506001600160a01b038b165f908152600b8801602052604081209294509092505b886020015151811015612a37575f8960200151828151811061299e5761299e614740565b60200260200101515f0151156129b55750836129b8565b50825b612a228a6020015183815181106129d1576129d1614740565b60200260200101516020015182855f8e6020015187815181106129f6576129f6614740565b60209081029190910181015151151582528101919091526040015f20546001600160801b03168a61387f565b612a2c908a614768565b98505060010161297a565b505050505050509392505050565b5f806224ea00612a5b8163ffffffff8616614a79565b612a6b9063ffffffff86166149ee565b612a759190614768565b90505f856001600160a01b0316630e52dbec6040518163ffffffff1660e01b8152600401602060405180830381865afa158015612ab4573d5f803e3d5ffd5b505050506040513d601f19601f82011682018060405250810190612ad891906148c6565b612ae89060ff166224ea00614a01565b612af56224ea0042614a79565b612aff90426149ee565b612b099190614768565b9050815b818111612b9f5760405163d2681a0b60e01b8152600481018290526001600160a01b0387811660248301525f919089169063d2681a0b906044016040805180830381865afa158015612b61573d5f803e3d5ffd5b505050506040513d601f19601f82011682018060405250810190612b859190614a8c565b509050612b928186614768565b9450506224ea0001612b0d565b50604051635fb9165160e11b8152600481018490526001600160a01b0387169063bf722ca290602401602060405180830381865afa158015612be3573d5f803e3d5ffd5b505050506040513d601f19601f82011682018060405250810190612c079190614729565b9695505050505050565b5f54610100900460ff16612c23575f80fd5b565b5f60405163a9059cbb60e01b5f52836004528260245260205f60445f80895af13d15601f3d1160015f511416171691505f606052806040525080612c67575f80fd5b50505050565b5f805f612c9760405180608001604052805f81526020015f81526020015f81526020015f81525090565b856001600160a01b0316631a90f1866040518163ffffffff1660e01b8152600401602060405180830381865afa158015612cd3573d5f803e3d5ffd5b505050506040513d601f19601f82011682018060405250810190612cf79190614729565b816040018181525050856001600160a01b0316632e0af0086040518163ffffffff1660e01b8152600401602060405180830381865afa158015612d3c573d5f803e3d5ffd5b505050506040513d601f19601f82011682018060405250810190612d609190614729565b6060828101919091526040805191820181525f908201819052600889015463ffffffff8082168085526401000000009092041660208401526224ea0090612da8908290614a79565b8351612db491906149ee565b612dbe9190614768565b90505f886001600160a01b0316630e52dbec6040518163ffffffff1660e01b8152600401602060405180830381865afa158015612dfd573d5f803e3d5ffd5b505050506040513d601f19601f82011682018060405250810190612e2191906148c6565b612e319060ff166224ea00614a01565b612e3e6224ea0042614a79565b612e4890426149ee565b612e529190614768565b90505f825b828111612ee057604051630156d37d60e31b8152600481018290525f906001600160a01b038d1690630ab69be8906024016040805180830381865afa158015612ea2573d5f803e3d5ffd5b505050506040513d601f19601f82011682018060405250810190612ec69190614a8c565b509050612ed38184614768565b9250506224ea0001612e57565b50808560400151612ef19190614768565b8552604051635fb9165160e11b8152600481018290526001600160a01b038b169063bf722ca290602401602060405180830381865afa158015612f36573d5f803e3d5ffd5b505050506040513d601f19601f82011682018060405250810190612f5a9190614729565b60208601525050885483515f92508111612f7c57670de0b6b3a7640000612f88565b8351612f8890826138e4565b60018b015460048c0154855160208701519395505f945091929091612fac916149ee565b604086018190525f90612fbf575f612fef565b612fef858760400151670de0b6b3a7640000612fdb9190614a01565b8f600301546138f49092919063ffffffff16565b9050856020015142116130cd578015613074575f61301e6130108d84614a01565b61301990614aae565b613912565b905061305861303582670de0b6b3a76400006149ee565b61305261304a89670de0b6b3a76400006149ee565b8790866138f4565b90613a85565b6130628483613a99565b61306c9190614768565b9850506130a8565b8a61309161308a87670de0b6b3a76400006149ee565b8590613a99565b61309b9190614a01565b6130a59083614768565b97505b6130b28289614ac8565b6130bc8c85614a01565b6130c69190614ac8565b935061323a565b602086015160088e0154600160401b900463ffffffff161115613132576131136130fa6130108d84614a01565b61310c90670de0b6b3a76400006149ee565b8390613a85565b61311d90836149ee565b97506131298289614ac8565b6130c690614aae565b60088d015460208701515f9161315691600160401b90910463ffffffff16906149ee565b9b50811561319d5761316b6130108d84614a01565b905061318261303582670de0b6b3a76400006149ee565b61318c8483613a99565b6131969190614768565b98506131d1565b8b6131ba6131b388670de0b6b3a76400006149ee565b8690613a99565b6131c49190614a01565b6131ce9084614768565b98505b6131ee8760200151426131e491906149ee565b6130109084614a01565b905061320c61320582670de0b6b3a76400006149ee565b8a90613a85565b613216908a6149ee565b9850613222838a614ac8565b61322c8d86614a01565b6132369190614ac8565b9450505b835f0361326b5750505060078a01546001600160801b038082169850600160801b9091041695506122f69350505050565b5050506132b46040518061012001604052805f81526020015f81526020015f81526020015f81526020015f81526020015f81526020015f81526020015f81526020015f81525090565b61337485606001515f036132c8575f613366565b61335486606001518c6001600160a01b0316638c3cba5a6040518163ffffffff1660e01b8152600401602060405180830381865afa15801561330c573d5f803e3d5ffd5b505050506040513d601f19601f820116820180604052508101906133309190614729565b8860400151896060015161334491906149ee565b61334e91906149ee565b906138e4565b61336690670de0b6b3a76400006149ee565b670de0b6b3a763ffff613aad565b80825260058c01546001600160401b03600160c01b8204811660c0850152600f9190910b60e084015260068d0154166101008301526133b3575f613461565b613461613440670de0b6b3a76400006133f06133eb8560c00151670de0b6b3a76400006133e091906149ee565b60c0870151906138e4565b613ac2565b8451613414906133eb9061340c90670de0b6b3a76400006149ee565b8751906138e4565b61341e9190614ac8565b8460e0015161342d9190614ae7565b61343690614aae565b6130199190614b16565b61345290670de0b6b3a7640000614768565b670de0b6b3a7640000906138e4565b6020820181905261363b9061347e90670de0b6b3a76400006149ee565b6136108361010001516136166135078f6001600160a01b031663666010326040518163ffffffff1660e01b8152600401602060405180830381865afa1580156134c9573d5f803e3d5ffd5b505050506040513d601f19601f820116820180604052508101906134ed9190614729565b6134ff90670de0b6b3a76400006149ee565b875190613a85565b61351990670de0b6b3a76400006149ee565b8f6001600160a01b031663f3fdb15a6040518163ffffffff1660e01b8152600401602060405180830381865afa158015613555573d5f803e3d5ffd5b505050506040513d601f19601f820116820180604052508101906135799190614b42565b6001600160a01b0316637c21fb1d8c606001515f03613598575f6135ab565b60608d015160408e01516135ab916138e4565b895160405160e084901b6001600160e01b031916815260048101929092526024820152604401602060405180830381865afa1580156135ec573d5f803e3d5ffd5b505050506040513d601f19601f820116820180604052508101906136109190614729565b90613a99565b6136209190614768565b60058f0154600160801b90046001600160401b031690613a99565b6040820152602081015160068c015461366591600160801b9091046001600160401b031690613a99565b61369b8260200151670de0b6b3a764000061368091906149ee565b60068e0154600160401b90046001600160401b031690613a99565b6136a59190614768565b6060820181905260408201516136c9916136be91614768565b6040830151906138e4565b608082018190526136e290670de0b6b3a76400006149ee565b8160a00181815250505f8a6001600160a01b03166318160ddd6040518163ffffffff1660e01b8152600401602060405180830381865afa158015613728573d5f803e3d5ffd5b505050506040513d601f19601f8201168201806040525081019061374c9190614729565b90505f86602001518c6001600160a01b0316638d0e5f026040518163ffffffff1660e01b8152600401602060405180830381865afa158015613790573d5f803e3d5ffd5b505050506040513d601f19601f820116820180604052508101906137b49190614729565b6137be9190614768565b6001600160a01b038d165f90815260976020526040902060030154909150816137e7575f61380a565b61380a8183613803876080015189613a9990919063ffffffff16565b91906138f4565b60078f015461382291906001600160801b0316614768565b9a505f8311613831575f61384d565b61384d81846138038760a0015189613a9990919063ffffffff16565b60078f015461386c9190600160801b90046001600160801b0316614768565b9950505050505050505093509350939050565b5f61389561388d84866149ee565b8690846138f4565b95945050505050565b6138a88282610fac565b6108de576138b581613c6b565b6138c0836020613c7d565b6040516020016138d1929190614b74565b6040516020818303038152906040525f80fd5b5f610fa583670de0b6b3a7640000845b82820281151584158583048514171661390b575f80fd5b0492915050565b5f680248ce36a70cb26b3e19821361392b57505f919050565b680755bf798b4a1bf1e5821261393f575f80fd5b6503782dace9d9604e83901b0591505f60606bb17217f7d1cf79abc9e3b39884821b056001605f1b01901d6bb17217f7d1cf79abc9e3b39881029093036c240c330e9fb2d9cbaf0fd5aafb1981018102606090811d6d0277594991cfc85f6e2461837cd9018202811d6d1a521255e34f6a5061b25ef1c9c319018202811d6db1bbb201f443cf962f1a1d3db4a5018202811d6e02c72388d9f74f51a9331fed693f1419018202811d6e05180bb14799ab47a8a8cb2a527d57016d02d16720577bd19bf614176fe9ea6c10fe68e7fd37d0007b713f765084018402831d9081019084016d01d3967ed30fc4f89c02bab5708119010290911d6e0587f503bb6ea29d25fcb740196450019091026d360d7aeea093263ecc6e0ecb291760621b010574029d9dc38563c32e5c2f6dc192ee70ef65f9978af30260c3939093039290921c92915050565b5f610fa58383670de0b6b3a7640000613dce565b5f610fa58383670de0b6b3a76400006138f4565b5f818310613abb5781610fa5565b5090919050565b5f808213613ace575f80fd5b5f6060613ada84613dfb565b03609f8181039490941b90931c6c465772b2bbbb5f824b15207a3081018102606090811d6d0388eaa27412d5aca026815d636e018202811d6d0df99ac502031bf953eff472fdcc018202811d6d13cdffb29d51d99322bdff5f2211018202811d6d0a0f742023def783a307a986912e018202811d6d01920d8043ca89b5239253284e42018202811d6c0b7a86d7375468fac667a0a527016c29508e458543d8aa4df2abee7883018302821d6d0139601a2efabe717e604cbb4894018302821d6d02247f7a7b6594320649aa03aba1018302821d6c8c3f38e95a6b1ff2ab1c3b343619018302821d6d02384773bdf1ac5676facced60901901830290911d6cb9a025d814b29c212b8b1a07cd1901909102780a09507084cc699bb0e71ea869ffffffffffffffffffffffff190105711340daa0d5f769dba1915cef59f0815a5506027d0267a36c0c95b3975ab3ee5b203a7614a3f75373f047d803ae7b6687f2b393909302929092017d57115e47018c7177eebf7cd370a3356a1b7863008a5ae8028c72b88642840160ae1d92915050565b60606107b66001600160a01b03831660145b60605f613c8b836002614a01565b613c96906002614768565b6001600160401b03811115613cad57613cad613f79565b6040519080825280601f01601f191660200182016040528015613cd7576020820181803683370190505b509050600360fc1b815f81518110613cf157613cf1614740565b60200101906001600160f81b03191690815f1a905350600f60fb1b81600181518110613d1f57613d1f614740565b60200101906001600160f81b03191690815f1a9053505f613d41846002614a01565b613d4c906001614768565b90505b6001811115613dc3576f181899199a1a9b1b9c1cb0b131b232b360811b85600f1660108110613d8057613d80614740565b1a60f81b828281518110613d9657613d96614740565b60200101906001600160f81b03191690815f1a90535060049490941c93613dbc81614bc9565b9050613d4f565b508315610fa5575f80fd5b828202811515841585830485141716613de5575f80fd5b6001826001830304018115150290509392505050565b5f808211613e07575f80fd5b5060016001600160801b03821160071b82811c6001600160401b031060061b1782811c63ffffffff1060051b1782811c61ffff1060041b1782811c60ff10600390811b90911783811c600f1060021b1783811c909110821b1791821c111790565b6001600160a01b0381168114610f8f575f80fd5b5f60208284031215613e8c575f80fd5b8135610fa581613e68565b5f60208284031215613ea7575f80fd5b81356001600160e01b031981168114610fa5575f80fd5b5f60208284031215613ece575f80fd5b5035919050565b8035613ee081613e68565b919050565b80358015158114613ee0575f80fd5b5f805f8060808587031215613f07575f80fd5b8435613f1281613e68565b93506020850135613f2281613e68565b9250613f3060408601613ee5565b91506060850135613f4081613e68565b939692955090935050565b5f8060408385031215613f5c575f80fd5b823591506020830135613f6e81613e68565b809150509250929050565b634e487b7160e01b5f52604160045260245ffd5b604080519081016001600160401b0381118282101715613faf57613faf613f79565b60405290565b6040516101c081016001600160401b0381118282101715613faf57613faf613f79565b604051601f8201601f191681016001600160401b038111828210171561400057614000613f79565b604052919050565b5f6001600160401b0382111561402057614020613f79565b5060051b60200190565b5f82601f830112614039575f80fd5b8135602061404e61404983614008565b613fd8565b828152600592831b850182019282820191908785111561406c575f80fd5b8387015b858110156141485780356001600160401b038082111561408e575f80fd5b908901906040828c03601f19018113156140a6575f80fd5b6140ae613f8d565b888401356140bb81613e68565b815283820135838111156140cd575f80fd5b8085019450508c603f8501126140e1575f80fd5b8884013592506140f361404984614008565b83815292861b8401820192898101908e85111561410e575f80fd5b948301945b848610156141335761412486613ee5565b8252948a0194908a0190614113565b828b0152508752505050928401928401614070565b5090979650505050505050565b5f805f60608486031215614167575f80fd5b83356001600160401b0381111561417c575f80fd5b6141888682870161402a565b935050602084013561419981613e68565b915060408401356141a981613e68565b809150509250925092565b5f80604083850312156141c5575f80fd5b82356141d081613e68565b91506020830135613f6e81613e68565b5f80604083850312156141f1575f80fd5b82356001600160401b0380821115614207575f80fd5b6142138683870161402a565b93506020850135915080821115614228575f80fd5b50830160c08186031215613f6e575f80fd5b5f815180845260208085019450602084015f5b838110156142725781516001600160a01b03168752958201959082019060010161424d565b509495945050505050565b604081525f61428f604083018561423a565b8281036020848101919091528451808352858201928201905f5b81811015614148578451835293830193918301916001016142a9565b5f60208083018184528085518083526040925060408601915060408160051b8701018488015f5b8381101561436057888303603f19018552815180516001600160a01b031684528701518784018790528051878501819052908801905f9060608601905b8083101561434b57835115158252928a019260019290920191908a0190614329565b509689019694505050908601906001016142ec565b509098975050505050505050565b602081525f610fa5602083018461423a565b5f805f60608486031215614392575f80fd5b83356001600160401b03808211156143a8575f80fd5b6143b48783880161402a565b945060209150818601356143c781613e68565b93506040860135818111156143da575f80fd5b86019050601f810187136143ec575f80fd5b80356143fa61404982614008565b81815260059190911b82018301908381019089831115614418575f80fd5b928401925b8284101561443f57833561443081613e68565b8252928401929084019061441d565b80955050505050509250925092565b803563ffffffff81168114613ee0575f80fd5b8035600f81900b8114613ee0575f80fd5b80356001600160401b0381168114613ee0575f80fd5b5f6020808385031215614499575f80fd5b82356001600160401b038111156144ae575f80fd5b8301601f810185136144be575f80fd5b80356144cc61404982614008565b8181526101c091820283018401918482019190888411156144eb575f80fd5b938501935b838510156145ed5780858a031215614506575f80fd5b61450e613fb5565b61451786613ed5565b8152614524878701613ed5565b878201526040614535818801613ed5565b90820152606061454687820161444e565b908201526080868101359082015260a0808701359082015260c0808701359082015260e08087013590820152610100614580818801614461565b90820152610120614592878201614472565b908201526101406145a4878201614472565b908201526101606145b6878201614472565b908201526101806145c8878201614472565b908201526101a06145da878201614472565b90820152835293840193918501916144f0565b50979650505050505050565b81516001600160a01b031681526101c08101602083015161462560208401826001600160a01b03169052565b50604083015161464060408401826001600160a01b03169052565b506060830151614658606084018263ffffffff169052565b506080830151608083015260a083015160a083015260c083015160c083015260e083015160e08301526101008084015161469682850182600f0b9052565b5050610120838101516001600160401b03908116918401919091526101408085015182169084015261016080850151821690840152610180808501518216908401526101a09384015116929091019190915290565b5f805f606084860312156146fd575f80fd5b833561470881613e68565b9250602084013561471881613e68565b929592945050506040919091013590565b5f60208284031215614739575f80fd5b5051919050565b634e487b7160e01b5f52603260045260245ffd5b634e487b7160e01b5f52601160045260245ffd5b808201808211156107b6576107b6614754565b634e487b7160e01b5f52600160045260245ffd5b5f808335601e198436030181126147a4575f80fd5b8301803591506001600160401b038211156147bd575f80fd5b6020019150600581901b36038213156147d4575f80fd5b9250929050565b8781526001600160a01b03878116602080840191909152878216604084015260c06060840181905283018690525f9187919060e08501845b8981101561483a57843561482681613e68565b831682529383019390830190600101614813565b5060808601979097525050505060a0015295945050505050565b60ff81168114610f8f575f80fd5b5f60208284031215614872575f80fd5b8135610fa581614854565b5f805f6060848603121561488f575f80fd5b8351925060208401519150604084015190509250925092565b5f60ff821660ff81036148bd576148bd614754565b60010192915050565b5f602082840312156148d6575f80fd5b8151610fa581614854565b600181815b80851115610cd857815f190482111561490157614901614754565b8085161561490e57918102915b93841c93908002906148e6565b5f82614929575060016107b6565b8161493557505f6107b6565b816001811461494b576002811461495557614971565b60019150506107b6565b60ff84111561496657614966614754565b50506001821b6107b6565b5060208310610133831016604e8410600b8410161715614994575081810a6107b6565b61499e83836148e1565b805f19048211156149b1576149b1614754565b029392505050565b5f610fa560ff84168361491b565b634e487b7160e01b5f52601260045260245ffd5b5f826149e9576149e96149c7565b500490565b818103818111156107b6576107b6614754565b80820281158282048414176107b6576107b6614754565b63ffffffff818116838216019080821115614a3557614a35614754565b5092915050565b63ffffffff828116828216039080821115614a3557614a35614754565b6001600160801b03818116838216019080821115614a3557614a35614754565b5f82614a8757614a876149c7565b500690565b5f8060408385031215614a9d575f80fd5b505080516020909101519092909150565b5f600160ff1b8201614ac257614ac2614754565b505f0390565b8181035f831280158383131683831282161715614a3557614a35614754565b8082025f8212600160ff1b84141615614b0257614b02614754565b81810583148215176107b6576107b6614754565b5f82614b2457614b246149c7565b600160ff1b82145f1984141615614b3d57614b3d614754565b500590565b5f60208284031215614b52575f80fd5b8151610fa581613e68565b5f81518060208401855e5f93019283525090919050565b7f416363657373436f6e74726f6c3a206163636f756e742000000000000000000081525f614ba56017830185614b5d565b7001034b99036b4b9b9b4b733903937b6329607d1b81526138956011820185614b5d565b5f81614bd757614bd7614754565b505f19019056fea26469706673582212202cad15f015ae63ecd6461f7def943668b5dacc3098df347e0f520b61e7fd110c64736f6c6343000819003360e060405234801561000f575f80fd5b50604051610d11380380610d1183398101604081905261002e916100d8565b6001600160a01b03808316608052811660a081905261004d575f6100ad565b806001600160a01b03166338d52e0f6040518163ffffffff1660e01b8152600401602060405180830381865afa158015610089573d5f803e3d5ffd5b505050506040513d601f19601f820116820180604052508101906100ad9190610110565b6001600160a01b031660c052506101329050565b6001600160a01b03811681146100d5575f80fd5b50565b5f80604083850312156100e9575f80fd5b82516100f4816100c1565b6020840151909250610105816100c1565b809150509250929050565b5f60208284031215610120575f80fd5b815161012b816100c1565b9392505050565b60805160a05160c051610b8661018b5f395f81816081015281816101590152818161033b01526104d001525f818160d6015281816102c0015281816103b4015261045501525f8181610126015261070c0152610b865ff3fe608060405260043610610071575f3560e01c8063541de5ce1161004c578063541de5ce1461017b57806373cd27c6146101a757806390143050146101c6578063fcab4e7a146101e5575f80fd5b806307d6b410146100c55780633ec045a6146101155780633fc8cef314610148575f80fd5b366100c157336001600160a01b037f000000000000000000000000000000000000000000000000000000000000000016146100bf576040516361e790f960e01b815260040160405180910390fd5b005b5f80fd5b3480156100d0575f80fd5b506100f87f000000000000000000000000000000000000000000000000000000000000000081565b6040516001600160a01b0390911681526020015b60405180910390f35b348015610120575f80fd5b506100f87f000000000000000000000000000000000000000000000000000000000000000081565b348015610153575f80fd5b506100f87f000000000000000000000000000000000000000000000000000000000000000081565b348015610186575f80fd5b5061019a6101953660046107fe565b610204565b60405161010c919061085d565b3480156101b2575f80fd5b5061019a6101c13660046108b6565b61021e565b3480156101d1575f80fd5b5061019a6101e036600461092b565b6102b9565b3480156101f0575f80fd5b5061019a6101ff36600461097a565b6103b0565b6060610214868686868633610548565b9695505050505050565b606086826001600160a01b03821663d505accf333084356020860135610249878a01604089016109ec565b876060013588608001356040518863ffffffff1660e01b81526004016102759796959493929190610a0e565b5f604051808303815f87803b15801561028c575f80fd5b505af192505050801561029d575060015b506102ac898989898933610548565b9998505050505050505050565b60606102e97f00000000000000000000000000000000000000000000000000000000000000008686868630610548565b90505f805b848110156103245785858281811061030857610308610a4f565b905060200201358261031a9190610a63565b91506001016102ee565b50604051632e1a7d4d60e01b8152600481018290527f00000000000000000000000000000000000000000000000000000000000000006001600160a01b031690632e1a7d4d906024015f604051808303815f87803b158015610384575f80fd5b505af1158015610396573d5f803e3d5ffd5b506103a792503391508390506106d2565b50949350505050565b60607f0000000000000000000000000000000000000000000000000000000000000000826001600160a01b03821663d505accf3330843560208601356103fb878a01604089016109ec565b876060013588608001356040518863ffffffff1660e01b81526004016104279796959493929190610a0e565b5f604051808303815f87803b15801561043e575f80fd5b505af192505050801561044f575060015b5061047e7f00000000000000000000000000000000000000000000000000000000000000008989898930610548565b92505f805b878110156104b95788888281811061049d5761049d610a4f565b90506020020135826104af9190610a63565b9150600101610483565b50604051632e1a7d4d60e01b8152600481018290527f00000000000000000000000000000000000000000000000000000000000000006001600160a01b031690632e1a7d4d906024015f604051808303815f87803b158015610519575f80fd5b505af115801561052b573d5f803e3d5ffd5b5061053c92503391508390506106d2565b50505095945050505050565b60606001841161055a5761055a610a88565b610563876106eb565b8367ffffffffffffffff81111561057c5761057c610a9c565b6040519080825280602002602001820160405280156105a5578160200160208202803683370190505b5090505f86815b868110156106c5575f8a6001600160a01b0316631a5b9e62848b8b868181106105d7576105d7610a4f565b6040516001600160e01b031960e087901b168152600481019490945260200291909101356024830152505f1960448201526001600160a01b038916606482015233608482015260a4016020604051808303815f875af115801561063c573d5f803e3d5ffd5b505050506040513d601f19601f820116820180604052508101906106609190610ab0565b905061066f6224ea0084610a63565b92508085838151811061068457610684610a4f565b60209081029190910101526106998185610a63565b9350868411156106bc57604051632c1b6b4160e21b815260040160405180910390fd5b506001016105ac565b5050509695505050505050565b5f805f805f85875af19050806106e6575f80fd5b505050565b604051638e8f294b60e01b81526001600160a01b0382811660048301525f917f000000000000000000000000000000000000000000000000000000000000000090911690638e8f294b9060240160a060405180830381865afa158015610753573d5f803e3d5ffd5b505050506040513d601f19601f820116820180604052508101906107779190610ac7565b5093505050508061079b576040516334b04fe360e11b815260040160405180910390fd5b5050565b6001600160a01b03811681146107b3575f80fd5b50565b5f8083601f8401126107c6575f80fd5b50813567ffffffffffffffff8111156107dd575f80fd5b6020830191508360208260051b85010111156107f7575f80fd5b9250929050565b5f805f805f60808688031215610812575f80fd5b853561081d8161079f565b945060208601359350604086013567ffffffffffffffff81111561083f575f80fd5b61084b888289016107b6565b96999598509660600135949350505050565b602080825282518282018190525f9190848201906040850190845b8181101561089457835183529284019291840191600101610878565b50909695505050505050565b5f60a082840312156108b0575f80fd5b50919050565b5f805f805f8061012087890312156108cc575f80fd5b86356108d78161079f565b955060208701359450604087013567ffffffffffffffff8111156108f9575f80fd5b61090589828a016107b6565b9095509350506060870135915061091f88608089016108a0565b90509295509295509295565b5f805f806060858703121561093e575f80fd5b84359350602085013567ffffffffffffffff81111561095b575f80fd5b610967878288016107b6565b9598909750949560400135949350505050565b5f805f805f610100868803121561098f575f80fd5b85359450602086013567ffffffffffffffff8111156109ac575f80fd5b6109b8888289016107b6565b909550935050604086013591506109d287606088016108a0565b90509295509295909350565b60ff811681146107b3575f80fd5b5f602082840312156109fc575f80fd5b8135610a07816109de565b9392505050565b6001600160a01b0397881681529590961660208601526040850193909352606084019190915260ff16608083015260a082015260c081019190915260e00190565b634e487b7160e01b5f52603260045260245ffd5b80820180821115610a8257634e487b7160e01b5f52601160045260245ffd5b92915050565b634e487b7160e01b5f52600160045260245ffd5b634e487b7160e01b5f52604160045260245ffd5b5f60208284031215610ac0575f80fd5b5051919050565b5f805f805f60a08688031215610adb575f80fd5b85516fffffffffffffffffffffffffffffffff81168114610afa575f80fd5b6020870151909550610b0b816109de565b6040870151909450610b1c816109de565b60608701519093508015158114610b31575f80fd5b6080870151909250610b428161079f565b80915050929550929590935056fea2646970667358221220907e973245268deebc146c49cbd74899c12483d849f66a637250b3bf43e71c1764736f6c6343000819003360c060405234801561000f575f80fd5b50604051610fc8380380610fc883398101604081905261002e9161012f565b6001600160a01b0381166080819052604080516338d52e0f60e01b815290516338d52e0f916004808201926020929091908290030181865afa158015610076573d5f803e3d5ffd5b505050506040513d601f19601f8201168201806040525081019061009a919061012f565b6001600160a01b031660a0526100ae6100b4565b50610151565b5f54610100900460ff16156100c7575f80fd5b5f5460ff90811614610116575f805460ff191660ff9081179091556040519081527f7f26b83ff96e1f2b6a682f133852f6798a09c465da95921460cefb38474024989060200160405180910390a15b565b6001600160a01b038116811461012c575f80fd5b50565b5f6020828403121561013f575f80fd5b815161014a81610118565b9392505050565b60805160a051610dd26101f65f395f818160d2015281816101a7015281816102c301528181610491015281816105a8015281816106d70152818161087d015281816109a10152610c1701525f81816101f20152818161034a01528181610412015281816105250152818161062f015281816106f9015281816107990152818161084b0152818161091101528181610a2701528181610ac60152610b840152610dd25ff3fe6080604052600436106100c2575f3560e01c80638129fc1c1161007c578063c7dca12f11610057578063c7dca12f14610266578063d0e30db014610279578063db006a7514610281578063f7a283d5146102a0575f80fd5b80638129fc1c14610214578063990595f514610228578063c5ebeaec14610247575f80fd5b8063278ecde1146101165780632e1a7d4d1461014357806335958d4a14610170578063371fd8e6146101835780633fc8cef31461019657806380f55605146101e1575f80fd5b3661011257336001600160a01b037f00000000000000000000000000000000000000000000000000000000000000001614610110576040516361e790f960e01b815260040160405180910390fd5b005b5f80fd5b610129610124366004610ce4565b6102bf565b604080519283526020830191909152015b60405180910390f35b34801561014e575f80fd5b5061016261015d366004610ce4565b6103e4565b60405190815260200161013a565b61016261017e366004610cfb565b61048e565b610129610191366004610ce4565b6105a4565b3480156101a1575f80fd5b506101c97f000000000000000000000000000000000000000000000000000000000000000081565b6040516001600160a01b03909116815260200161013a565b3480156101ec575f80fd5b506101c97f000000000000000000000000000000000000000000000000000000000000000081565b34801561021f575f80fd5b5061011061066a565b348015610233575f80fd5b50610162610242366004610d1b565b610767565b348015610252575f80fd5b50610162610261366004610ce4565b61081d565b610162610274366004610cfb565b61087a565b61016261099e565b34801561028c575f80fd5b5061016261029b366004610ce4565b610aa2565b3480156102ab575f80fd5b506101626102ba366004610d1b565b610b48565b5f807f00000000000000000000000000000000000000000000000000000000000000006001600160a01b031663d0e30db0346040518263ffffffff1660e01b81526004015f604051808303818588803b15801561031a575f80fd5b505af115801561032c573d5f803e3d5ffd5b5050604051631eb489b760e21b8152600481018790523360248201527f00000000000000000000000000000000000000000000000000000000000000006001600160a01b03169350637ad226dc925060440190505b60408051808303815f875af115801561039c573d5f803e3d5ffd5b505050506040513d601f19601f820116820180604052508101906103c09190610d44565b9092509050348210156103df576103df6103da8334610d66565b610c01565b915091565b604051632d182be560e21b8152600481018290523060248201523360448201525f9082906001600160a01b037f0000000000000000000000000000000000000000000000000000000000000000169063b460af94906064015b6020604051808303815f875af1158015610459573d5f803e3d5ffd5b505050506040513d601f19601f8201168201806040525081019061047d9190610d85565b915061048881610c01565b50919050565b5f7f00000000000000000000000000000000000000000000000000000000000000006001600160a01b031663d0e30db0346040518263ffffffff1660e01b81526004015f604051808303818588803b1580156104e8575f80fd5b505af11580156104fa573d5f803e3d5ffd5b5050604051631a7be8f960e11b815260048101879052346024820152604481018690523360648201527f00000000000000000000000000000000000000000000000000000000000000006001600160a01b031693506334f7d1f2925060840190506020604051808303815f875af1158015610577573d5f803e3d5ffd5b505050506040513d601f19601f8201168201806040525081019061059b9190610d85565b90505b92915050565b5f807f00000000000000000000000000000000000000000000000000000000000000006001600160a01b031663d0e30db0346040518263ffffffff1660e01b81526004015f604051808303818588803b1580156105ff575f80fd5b505af1158015610611573d5f803e3d5ffd5b505060405163acb7081560e01b8152600481018790523360248201527f00000000000000000000000000000000000000000000000000000000000000006001600160a01b0316935063acb7081592506044019050610381565b5f54610100900460ff161580801561068857505f54600160ff909116105b806106a15750303b1580156106a157505f5460ff166001145b6106a9575f80fd5b5f805460ff1916600117905580156106ca575f805461ff0019166101001790555b61071f6001600160a01b037f0000000000000000000000000000000000000000000000000000000000000000167f00000000000000000000000000000000000000000000000000000000000000005f19610c83565b8015610764575f805461ff0019169055604051600181527f7f26b83ff96e1f2b6a682f133852f6798a09c465da95921460cefb38474024989060200160405180910390a15b50565b60405163502d048d60e11b81526004810184905260248101839052604481018290523060648201523360848201525f907f00000000000000000000000000000000000000000000000000000000000000006001600160a01b03169063a05a091a9060a4016020604051808303815f875af11580156107e7573d5f803e3d5ffd5b505050506040513d601f19601f8201168201806040525081019061080b9190610d85565b905061081681610c01565b9392505050565b604051633545906160e21b8152600481018290523060248201523360448201525f9082906001600160a01b037f0000000000000000000000000000000000000000000000000000000000000000169063d51641849060640161043d565b5f7f00000000000000000000000000000000000000000000000000000000000000006001600160a01b031663d0e30db0346040518263ffffffff1660e01b81526004015f604051808303818588803b1580156108d4575f80fd5b505af11580156108e6573d5f803e3d5ffd5b5050604051633c6f317f60e01b815260048101879052602481018690523460448201523360648201527f00000000000000000000000000000000000000000000000000000000000000006001600160a01b03169350633c6f317f925060840190506020604051808303815f875af1158015610963573d5f803e3d5ffd5b505050506040513d601f19601f820116820180604052508101906109879190610d85565b90508034111561059e5761059e6103da8234610d66565b5f7f00000000000000000000000000000000000000000000000000000000000000006001600160a01b031663d0e30db0346040518263ffffffff1660e01b81526004015f604051808303818588803b1580156109f8575f80fd5b505af1158015610a0a573d5f803e3d5ffd5b5050604051636e553f6560e01b81523460048201523360248201527f00000000000000000000000000000000000000000000000000000000000000006001600160a01b03169350636e553f65925060440190506020604051808303815f875af1158015610a79573d5f803e3d5ffd5b505050506040513d601f19601f82011682018060405250810190610a9d9190610d85565b905090565b604051635d043b2960e11b8152600481018290523060248201523360448201525f907f00000000000000000000000000000000000000000000000000000000000000006001600160a01b03169063ba087652906064016020604051808303815f875af1158015610b14573d5f803e3d5ffd5b505050506040513d601f19601f82011682018060405250810190610b389190610d85565b9050610b4381610c01565b919050565b604051630d2dcf3160e11b81526004810184905260248101839052604481018290523060648201523360848201525f9083906001600160a01b037f00000000000000000000000000000000000000000000000000000000000000001690631a5b9e629060a4016020604051808303815f875af1158015610bca573d5f803e3d5ffd5b505050506040513d601f19601f82011682018060405250810190610bee9190610d85565b9150610bf981610c01565b509392505050565b604051632e1a7d4d60e01b8152600481018290527f00000000000000000000000000000000000000000000000000000000000000006001600160a01b031690632e1a7d4d906024015f604051808303815f87803b158015610c60575f80fd5b505af1158015610c72573d5f803e3d5ffd5b506107649250339150839050610ccb565b5f60405163095ea7b360e01b5f52836004528260245260205f60445f80895af13d15601f3d1160015f511416171691505f606052806040525080610cc5575f80fd5b50505050565b5f805f805f85875af1905080610cdf575f80fd5b505050565b5f60208284031215610cf4575f80fd5b5035919050565b5f8060408385031215610d0c575f80fd5b50508035926020909101359150565b5f805f60608486031215610d2d575f80fd5b505081359360208301359350604090920135919050565b5f8060408385031215610d55575f80fd5b505080516020909101519092909150565b8181038181111561059e57634e487b7160e01b5f52601160045260245ffd5b5f60208284031215610d95575f80fd5b505191905056fea264697066735822122090960d926519a239be490ffcb6e21d1ea89fc7bcf8352289634d7d65941cd48a64736f6c63430008190033610280604052348015610010575f80fd5b50604051612f0f380380612f0f83398101604081905261002f91610db6565b81815f825f015111801561004657505f8260200151115b801561005d5750670de0b6b3a76400008260400151115b801561006c57505f8260600151115b80156100835750670de0b6b3a76400008260600151105b801561009257505f8260800151115b80156100a157505f8260a00151115b80156100b057505f8260c00151115b80156100bf57505f8260e00151115b80156100cf57505f826101400151115b80156100e95750680821ab0d441498000082610140015111155b6100f5576100f5610e69565b81515f556020820151600155604082015160025560608201516003556080820151600481905560a083015160055560c083015160065560e0830151600755610100830151600855610120830151600955610140830151600a556101579061036d565b6101005260a08201516101699061036d565b6101205260c082015161017b9061036d565b6101405260e082015161018d9061036d565b61016052604082015160c05260608201805160e052516101b590670de0b6b3a7640000610e91565b604083015160608401516101c99082610ea8565b845f015161022f610224670de0b6b3a764000061020760028a606001516101f09190610ecf565b61020290670de0b6b3a7640000610ee2565b610385565b610100516102159190610f08565b61021f9190610f37565b610528565b6020880151906106ac565b6102399190610ea8565b6102439190610e91565b61024d9190610e91565b6102579190610ecf565b6080819052604083015161026b91906106c9565b82516102779190610ee2565b60a0526001600160a01b038116610200819052610294575f610298565b6080515b610220526001600160a01b0381166102b0575f6102b4565b60a0515b610240526001600160a01b0381166102cc575f6102d2565b81604001515b61026052610100820151610180526101208201516101a0526101408201516101c05260e05161031a906102029061031190670de0b6b3a7640000610ea8565b60e051906106c9565b6101e05261035061032e6224ea0042610f63565b61033b6224ea0042610f76565b6103459190610ea8565b6002600180826106dd565b50610363670de0b6b3a763ffff80610a1c565b5050505050610fca565b5f6001600160ff1b03821115610381575f80fd5b5090565b5f808213610391575f80fd5b5f606061039d84610be9565b03609f8181039490941b90931c6c465772b2bbbb5f824b15207a3081018102606090811d6d0388eaa27412d5aca026815d636e018202811d6d0df99ac502031bf953eff472fdcc018202811d6d13cdffb29d51d99322bdff5f2211018202811d6d0a0f742023def783a307a986912e018202811d6d01920d8043ca89b5239253284e42018202811d6c0b7a86d7375468fac667a0a527016c29508e458543d8aa4df2abee7883018302821d6d0139601a2efabe717e604cbb4894018302821d6d02247f7a7b6594320649aa03aba1018302821d6c8c3f38e95a6b1ff2ab1c3b343619018302821d6d02384773bdf1ac5676facced60901901830290911d6cb9a025d814b29c212b8b1a07cd190190910260016c0504a838426634cdd8738f543560611b03190105711340daa0d5f769dba1915cef59f0815a5506027d0267a36c0c95b3975ab3ee5b203a7614a3f75373f047d803ae7b6687f2b393909302929092017d57115e47018c7177eebf7cd370a3356a1b7863008a5ae8028c72b88642840160ae1d92915050565b5f680248ce36a70cb26b3e19821361054157505f919050565b680755bf798b4a1bf1e58212610555575f80fd5b6503782dace9d9604e83901b0591505f60606bb17217f7d1cf79abc9e3b39884821b056b80000000000000000000000001901d6bb17217f7d1cf79abc9e3b39881029093036c240c330e9fb2d9cbaf0fd5aafb1981018102606090811d6d0277594991cfc85f6e2461837cd9018202811d6d1a521255e34f6a5061b25ef1c9c319018202811d6db1bbb201f443cf962f1a1d3db4a5018202811d6e02c72388d9f74f51a9331fed693f1419018202811d6e05180bb14799ab47a8a8cb2a527d57016d02d16720577bd19bf614176fe9ea6c10fe68e7fd37d0007b713f765084018402831d9081019084016d01d3967ed30fc4f89c02bab5708119010290911d6e0587f503bb6ea29d25fcb7401964500190910279d835ebba824c98fb31b83b2ca45c000000000000000000000000010574029d9dc38563c32e5c2f6dc192ee70ef65f9978af30260c3939093039290921c92915050565b5f6106c08383670de0b6b3a7640000610c56565b90505b92915050565b5f6106c083670de0b6b3a764000084610c83565b5f8542106106fe576040516305a29e1160e51b815260040160405180910390fd5b8184111561071f576040516386a8c2bd60e01b815260040160405180910390fd5b815f0361073757610730835f610a1c565b9050610a13565b6107646040518060a001604052805f81526020015f81526020015f81526020015f81526020015f81525090565b6101a0516107849061077e88670de0b6b3a7640000610e91565b906106c9565b8082526107a29061079d90670de0b6b3a7640000610e91565b610ca1565b60208201526101a0516107db906ec097ce7bc90715b34b9f1000000000906107ca9086610e91565b6107d4888a610e91565b9190610c83565b604082015260208101516107ee9061036d565b61080090670de0b6b3a7640000610ee2565b602082015161080e9061036d565b6108189190610f08565b81516108239061036d565b61083590671bc16d674ec80000610ee2565b61084e906ec097ce7bc90715b34b9f1000000000610f08565b6108589190610f37565b606082015261089861086d6224ea0042610f63565b61087a6224ea0089610e91565b6108849042610f76565b61088e9190610ea8565b61077e428a610ea8565b8160800181815250505f6109d1670de0b6b3a764000080670de0b6b3a7640000806108cc876040015161036d60201b60201c565b60608801516108e390670de0b6b3a7640000610ee2565b6108ed9190610f08565b6108f79190610f37565b670de0b6b3a764000061092361091e8960400151670de0b6b3a764000061079d9190610e91565b61036d565b88606001516109329190610f08565b61093c9190610f37565b6109469190610f89565b6109509190610ee2565b6101405161095e9190610f08565b6109689190610f37565b610180516109769190610f89565b6109a6670de0b6b3a7640000610998610202886080015161036d60201b60201c565b610160516102159190610f08565b6109b09190610f08565b6109ba9190610f37565b6109cc90670de0b6b3a7640000610f89565b610d45565b90505f6109de8686610a1c565b6101c0519091506109ef90836106c9565b8110610a03576101c0519350505050610a13565b610a0d81836106ac565b93505050505b95945050505050565b5f81831115610a3e576040516386a8c2bd60e01b815260040160405180910390fd5b670de0b6b3a76400008210610a5557505f196106c3565b5f610a8360a051610a7961091e8760c051610a709190610ea8565b608051906106c9565b6109cc9190610f89565b9050825f03610a935790506106c3565b5f670de0b6b3a76400006101e051610ac261020287670de0b6b3a7640000610abb9190610ea8565b88906106c9565b610acc9190610ee2565b61012051610ada9190610f08565b610ae49190610f37565b610aed90610fb0565b90505f680755bf798b4a1bf1e48213610b3557610b30610b0f6109cc84610528565b610b2190670de0b6b3a7640000610f76565b670de0b6b3a7640000906106c9565b610b37565b5f5b9050670de0b6b3a7640000610b64610202610b528489610d52565b61091e90670de0b6b3a7640000610ea8565b61010051610b7190610fb0565b610b7b9190610f08565b610b859190610f37565b91505f610bb36109cc680755bf798b4a1bf1e48513610ba45784610528565b680755bf798b4a1bf1e4610528565b9050610bc0845f19610ecf565b811115610bd4575f199450505050506106c3565b610bde84826106ac565b979650505050505050565b5f808211610bf5575f80fd5b5060016001600160801b03821160071b82811c6001600160401b031060061b1782811c63ffffffff1060051b1782811c61ffff1060041b1782811c60ff10600390811b90911783811c600f1060021b1783811c909110821b1791821c111790565b828202811515841585830485141716610c6d575f80fd5b6001826001830304018115150290509392505050565b828202811515841585830485141716610c9a575f80fd5b0492915050565b60b581600160881b8110610cba5760409190911b9060801c5b69010000000000000000008110610cd65760209190911b9060401c5b650100000000008110610cee5760109190911b9060201c5b63010000008110610d045760089190911b9060101c5b62010000010260121c80820401600190811c80830401811c80830401811c80830401811c80830401811c80830401811c80830401901c908190048111900390565b5f80821215610381575f80fd5b5f6106c08383670de0b6b3a7640000610c83565b60405161016081016001600160401b0381118282101715610d9557634e487b7160e01b5f52604160045260245ffd5b60405290565b80516001600160a01b0381168114610db1575f80fd5b919050565b5f80828403610180811215610dc9575f80fd5b61016080821215610dd8575f80fd5b610de0610d66565b9150845182526020850151602083015260408501516040830152606085015160608301526080850151608083015260a085015160a083015260c085015160c083015260e085015160e0830152610100808601518184015250610120808601518184015250610140808601518184015250819350610e5e818601610d9b565b925050509250929050565b634e487b7160e01b5f52600160045260245ffd5b634e487b7160e01b5f52601160045260245ffd5b80820281158282048414176106c3576106c3610e7d565b818103818111156106c3576106c3610e7d565b634e487b7160e01b5f52601260045260245ffd5b5f82610edd57610edd610ebb565b500490565b8181035f831280158383131683831282161715610f0157610f01610e7d565b5092915050565b8082025f8212600160ff1b84141615610f2357610f23610e7d565b81810583148215176106c3576106c3610e7d565b5f82610f4557610f45610ebb565b600160ff1b82145f1984141615610f5e57610f5e610e7d565b500590565b5f82610f7157610f71610ebb565b500690565b808201808211156106c3576106c3610e7d565b8082018281125f831280158216821582161715610fa857610fa8610e7d565b505092915050565b5f600160ff1b8201610fc457610fc4610e7d565b505f0390565b60805160a05160c05160e05161010051610120516101405161016051610180516101a0516101c0516101e05161020051610220516102405161026051611dd66111395f395f61014601525f61044501525f6101f501525f818161027e015281816104cd01528181610550015281816105d7015281816106c90152818161074c015281816107ed01528181610d4101528181610e0601528181610eb1015281816116720152818161172a015281816117b701528181611847015281816118d7015261196601525f61105f01525f818161047f0152818161069801528181610ca20152610ccf01525f81816103aa015281816109950152610a0701525f81816104a60152610be501525f81816103f80152610c3001525f81816101a70152610bb101525f818161021c01526110a501525f8181610180015261115801525f61035c01525f81816103d10152610fee01525f81816101ce0152610fc301525f818161038301526110140152611dd65ff3fe608060405234801561000f575f80fd5b506004361061013d575f3560e01c80638958401f116100b4578063d9d9048d11610079578063d9d9048d1461041a578063df635f3d1461042d578063dfb08e1014610440578063e1a0772414610467578063ece1d6e51461047a578063ef633e30146104a1575f80fd5b80638958401f14610357578063b99699341461037e578063be820337146103a5578063d8372685146103cc578063d9641e62146103f3575f80fd5b806351b8b4911161010557806351b8b4911461021757806362caa0491461023e5780637c21fb1d1461026657806380f556051461027957806384a87466146102b857806389035730146102cb575f80fd5b80630481520b14610141578063148a13001461017b5780631cd16f14146101a257806326980121146101c95780634d6fc522146101f0575b5f80fd5b6101687f000000000000000000000000000000000000000000000000000000000000000081565b6040519081526020015b60405180910390f35b6101687f000000000000000000000000000000000000000000000000000000000000000081565b6101687f000000000000000000000000000000000000000000000000000000000000000081565b6101687f000000000000000000000000000000000000000000000000000000000000000081565b6101687f000000000000000000000000000000000000000000000000000000000000000081565b6101687f000000000000000000000000000000000000000000000000000000000000000081565b61025161024c366004611b28565b6104c8565b60408051928352602083019190915201610172565b610168610274366004611b51565b610688565b6102a07f000000000000000000000000000000000000000000000000000000000000000081565b6040516001600160a01b039091168152602001610172565b6101686102c6366004611b71565b6106c5565b6102d361084f565b60405161017291905f61016082019050825182526020830151602083015260408301516040830152606083015160608301526080830151608083015260a083015160a083015260c083015160c083015260e083015160e083015261010080840151818401525061012080840151818401525061014080840151818401525092915050565b6101687f000000000000000000000000000000000000000000000000000000000000000081565b6101687f000000000000000000000000000000000000000000000000000000000000000081565b6101687f000000000000000000000000000000000000000000000000000000000000000081565b6101687f000000000000000000000000000000000000000000000000000000000000000081565b6101687f000000000000000000000000000000000000000000000000000000000000000081565b610168610428366004611b88565b610909565b61016861043b366004611b88565b610d11565b6101687f000000000000000000000000000000000000000000000000000000000000000081565b610168610475366004611b51565b610f47565b6101687f000000000000000000000000000000000000000000000000000000000000000081565b6101687f000000000000000000000000000000000000000000000000000000000000000081565b5f805f7f00000000000000000000000000000000000000000000000000000000000000006001600160a01b031663e94b3c216040518163ffffffff1660e01b8152600401602060405180830381865afa158015610527573d5f803e3d5ffd5b505050506040513d601f19601f8201168201806040525081019061054b9190611bbf565b90505f7f00000000000000000000000000000000000000000000000000000000000000006001600160a01b031663eee8c9e06040518163ffffffff1660e01b8152600401602060405180830381865afa1580156105aa573d5f803e3d5ffd5b505050506040513d601f19601f820116820180604052508101906105ce9190611bbf565b905061065a82827f00000000000000000000000000000000000000000000000000000000000000006001600160a01b0316638c3cba5a6040518163ffffffff1660e01b8152600401602060405180830381865afa158015610631573d5f803e3d5ffd5b505050506040513d601f19601f820116820180604052508101906106559190611bbf565b610f52565b925061067c825f0361066c575f610676565b6106768284610f70565b84610f84565b93505050935093915050565b5f6106bc6106968484610f84565b7f00000000000000000000000000000000000000000000000000000000000000006111f4565b90505b92915050565b5f807f00000000000000000000000000000000000000000000000000000000000000006001600160a01b0316632e0af0086040518163ffffffff1660e01b8152600401602060405180830381865afa158015610723573d5f803e3d5ffd5b505050506040513d601f19601f820116820180604052508101906107479190611bbf565b90505f7f00000000000000000000000000000000000000000000000000000000000000006001600160a01b0316631a90f1866040518163ffffffff1660e01b8152600401602060405180830381865afa1580156107a6573d5f803e3d5ffd5b505050506040513d601f19601f820116820180604052508101906107ca9190611bbf565b9050610847825f036107dc575f6107e6565b6107e68284610f70565b61027484847f00000000000000000000000000000000000000000000000000000000000000006001600160a01b0316638c3cba5a6040518163ffffffff1660e01b8152600401602060405180830381865afa158015610631573d5f803e3d5ffd5b949350505050565b6108a16040518061016001604052805f81526020015f81526020015f81526020015f81526020015f81526020015f81526020015f81526020015f81526020015f81526020015f81526020015f81525090565b5060408051610160810182525f5481526001546020820152600254918101919091526003546060820152600454608082015260055460a082015260065460c082015260075460e0820152600854610100820152600954610120820152600a5461014082015290565b5f85421061092a576040516305a29e1160e51b815260040160405180910390fd5b8184111561094b576040516386a8c2bd60e01b815260040160405180910390fd5b815f036109635761095c835f610f84565b9050610d08565b6109906040518060a001604052805f81526020015f81526020015f81526020015f81526020015f81525090565b6109cc7f00000000000000000000000000000000000000000000000000000000000000006109c688670de0b6b3a7640000611bea565b90611209565b8082526109ea906109e590670de0b6b3a7640000611bea565b61121d565b6020820152610a3d6ec097ce7bc90715b34b9f1000000000610a2c7f000000000000000000000000000000000000000000000000000000000000000086611bea565b610a36888a611bea565b91906112c1565b60408201526020810151610a50906112df565b610a6290670de0b6b3a7640000611c01565b610a6f82602001516112df565b610a799190611c27565b8151610a84906112df565b610a9690671bc16d674ec80000611c01565b610aaf906ec097ce7bc90715b34b9f1000000000611c27565b610ab99190611c6a565b6060820152610af9610ace6224ea0042611c96565b610adb6224ea0089611bea565b610ae59042611ca9565b610aef9190611cbc565b6109c6428a611cbc565b8160800181815250505f610c8e670de0b6b3a764000080670de0b6b3a764000080610b2787604001516112df565b6060880151610b3e90670de0b6b3a7640000611c01565b610b489190611c27565b610b529190611c6a565b670de0b6b3a7640000610b7e610b798960400151670de0b6b3a76400006109e59190611bea565b6112df565b8860600151610b8d9190611c27565b610b979190611c6a565b610ba19190611ccf565b610bab9190611c01565b610bd5907f0000000000000000000000000000000000000000000000000000000000000000611c27565b610bdf9190611c6a565b610c09907f0000000000000000000000000000000000000000000000000000000000000000611ccf565b610c63670de0b6b3a7640000610c2a610c2588608001516112df565b6112f7565b610c54907f0000000000000000000000000000000000000000000000000000000000000000611c27565b610c5e9190611c6a565b6114a0565b610c6d9190611c27565b610c779190611c6a565b610c8990670de0b6b3a7640000611ccf565b611613565b90505f610c9b8686610f84565b9050610cc77f000000000000000000000000000000000000000000000000000000000000000083611209565b8110610cf8577f00000000000000000000000000000000000000000000000000000000000000009350505050610d08565b610d028183611620565b93505050505b95945050505050565b5f854210610d32576040516305a29e1160e51b815260040160405180910390fd5b5f610d3c87611634565b90505f7f00000000000000000000000000000000000000000000000000000000000000006001600160a01b031663eee8c9e06040518163ffffffff1660e01b8152600401602060405180830381865afa158015610d9b573d5f803e3d5ffd5b505050506040513d601f19601f82011682018060405250810190610dbf9190611bbf565b90505f610dcc8888611ca9565b90505f610de2610ddc8989611a3b565b836111f4565b610dec9083611cbc565b9050610f39610dfb428c611cbc565b6301e13380610a368d7f00000000000000000000000000000000000000000000000000000000000000006001600160a01b0316630e52dbec6040518163ffffffff1660e01b8152600401602060405180830381865afa158015610e60573d5f803e3d5ffd5b505050506040513d601f19601f82011682018060405250810190610e849190611cf6565b60ff16610e928d898c611a49565b8a5f03610e9f575f610ea9565b610ea98a8c610f70565b6104288c8c8b7f00000000000000000000000000000000000000000000000000000000000000006001600160a01b0316638c3cba5a6040518163ffffffff1660e01b8152600401602060405180830381865afa158015610f0b573d5f803e3d5ffd5b505050506040513d601f19601f82011682018060405250810190610f2f9190611bbf565b6106559190611ca9565b9a9950505050505050505050565b5f6106bc8383610f84565b5f835f03610f60575f610847565b61084784610f6e8486611ca9565b905b5f6106bc83670de0b6b3a764000084611a70565b5f81831115610fa6576040516386a8c2bd60e01b815260040160405180910390fd5b670de0b6b3a76400008210610fbd57505f196106bf565b5f6110437f0000000000000000000000000000000000000000000000000000000000000000611039610b79611012887f0000000000000000000000000000000000000000000000000000000000000000611cbc565b7f000000000000000000000000000000000000000000000000000000000000000090611209565b610c899190611ccf565b9050825f036110535790506106bf565b5f670de0b6b3a76400007f0000000000000000000000000000000000000000000000000000000000000000611095610c2561108e8885611cbc565b8890611209565b61109f9190611c01565b6110c9907f0000000000000000000000000000000000000000000000000000000000000000611c27565b6110d39190611c6a565b6110dc90611d1d565b90505f680755bf798b4a1bf1e482136111245761111f6110fe610c89846114a0565b61111090670de0b6b3a7640000611ca9565b670de0b6b3a764000090611209565b611126565b5f5b9050670de0b6b3a7640000611153610c256111418489611a9d565b610b7990670de0b6b3a7640000611cbc565b61117c7f0000000000000000000000000000000000000000000000000000000000000000611d1d565b6111869190611c27565b6111909190611c6a565b91505f6111be610c89680755bf798b4a1bf1e485136111af57846114a0565b680755bf798b4a1bf1e46114a0565b90506111cb845f19611d37565b8111156111df575f199450505050506106bf565b6111e98482611620565b979650505050505050565b5f81831061120257816106bc565b5090919050565b5f6106bc83670de0b6b3a7640000846112c1565b60b581600160881b81106112365760409190911b9060801c5b690100000000000000000081106112525760209190911b9060401c5b65010000000000811061126a5760109190911b9060201c5b630100000081106112805760089190911b9060101c5b62010000010260121c80820401600190811c80830401811c80830401811c80830401811c80830401811c80830401811c80830401901c908190048111900390565b8282028115158415858304851417166112d8575f80fd5b0492915050565b5f6001600160ff1b038211156112f3575f80fd5b5090565b5f808213611303575f80fd5b5f606061130f84611ab1565b03609f8181039490941b90931c6c465772b2bbbb5f824b15207a3081018102606090811d6d0388eaa27412d5aca026815d636e018202811d6d0df99ac502031bf953eff472fdcc018202811d6d13cdffb29d51d99322bdff5f2211018202811d6d0a0f742023def783a307a986912e018202811d6d01920d8043ca89b5239253284e42018202811d6c0b7a86d7375468fac667a0a527016c29508e458543d8aa4df2abee7883018302821d6d0139601a2efabe717e604cbb4894018302821d6d02247f7a7b6594320649aa03aba1018302821d6c8c3f38e95a6b1ff2ab1c3b343619018302821d6d02384773bdf1ac5676facced60901901830290911d6cb9a025d814b29c212b8b1a07cd1901909102780a09507084cc699bb0e71ea869ffffffffffffffffffffffff190105711340daa0d5f769dba1915cef59f0815a5506027d0267a36c0c95b3975ab3ee5b203a7614a3f75373f047d803ae7b6687f2b393909302929092017d57115e47018c7177eebf7cd370a3356a1b7863008a5ae8028c72b88642840160ae1d92915050565b5f680248ce36a70cb26b3e1982136114b957505f919050565b680755bf798b4a1bf1e582126114cd575f80fd5b6503782dace9d9604e83901b0591505f60606bb17217f7d1cf79abc9e3b39884821b056001605f1b01901d6bb17217f7d1cf79abc9e3b39881029093036c240c330e9fb2d9cbaf0fd5aafb1981018102606090811d6d0277594991cfc85f6e2461837cd9018202811d6d1a521255e34f6a5061b25ef1c9c319018202811d6db1bbb201f443cf962f1a1d3db4a5018202811d6e02c72388d9f74f51a9331fed693f1419018202811d6e05180bb14799ab47a8a8cb2a527d57016d02d16720577bd19bf614176fe9ea6c10fe68e7fd37d0007b713f765084018402831d9081019084016d01d3967ed30fc4f89c02bab5708119010290911d6e0587f503bb6ea29d25fcb740196450019091026d360d7aeea093263ecc6e0ecb291760621b010574029d9dc38563c32e5c2f6dc192ee70ef65f9978af30260c3939093039290921c92915050565b5f808212156112f3575f80fd5b5f6106bc8383670de0b6b3a7640000611a70565b5f61165c60405180608001604052805f81526020015f81526020015f81526020015f81525090565b604051634e7c505960e01b8152600481018490527f00000000000000000000000000000000000000000000000000000000000000006001600160a01b031690634e7c505990602401608060405180830381865afa1580156116bf573d5f803e3d5ffd5b505050506040513d601f19601f820116820180604052508101906116e39190611d4a565b60608501819052604085019190915260208401919091529082525f906117289061170d9042611cbc565b606084015161171c9087611cbc565b604085015191906112c1565b7f00000000000000000000000000000000000000000000000000000000000000006001600160a01b0316632e0af0086040518163ffffffff1660e01b8152600401602060405180830381865afa158015611784573d5f803e3d5ffd5b505050506040513d601f19601f820116820180604052508101906117a89190611bbf565b6117b29190611ca9565b90505f7f00000000000000000000000000000000000000000000000000000000000000006001600160a01b031663e94b3c216040518163ffffffff1660e01b8152600401602060405180830381865afa158015611811573d5f803e3d5ffd5b505050506040513d601f19601f820116820180604052508101906118359190611bbf565b90505f6119ff6119ed838510611964577f00000000000000000000000000000000000000000000000000000000000000006001600160a01b031663fb0fc4c36040518163ffffffff1660e01b8152600401602060405180830381865afa1580156118a1573d5f803e3d5ffd5b505050506040513d601f19601f820116820180604052508101906118c59190611d7d565b6118d59063ffffffff1642611cbc565b7f00000000000000000000000000000000000000000000000000000000000000006001600160a01b0316630539fa8c6040518163ffffffff1660e01b8152600401602060405180830381865afa158015611931573d5f803e3d5ffd5b505050506040513d601f19601f820116820180604052508101906119559190611bbf565b61195f9190611bea565b6119e4565b7f00000000000000000000000000000000000000000000000000000000000000006001600160a01b0316633aa18d6f6040518163ffffffff1660e01b8152600401602060405180830381865afa1580156119c0573d5f803e3d5ffd5b505050506040513d601f19601f820116820180604052508101906119e49190611bbf565b610c5e90611d1d565b610c8990670de0b6b3a7640000611c01565b9050611a0b8184611a9d565b611a27611a2083670de0b6b3a7640000611cbc565b8490611a9d565b611a319190611ca9565b9695505050505050565b5f81831161120257816106bc565b5f8115801590611a5857508383115b611a62575f610847565b61084782610f6e8686611cbc565b828202811515841585830485141716611a87575f80fd5b6001826001830304018115150290509392505050565b5f6106bc8383670de0b6b3a76400006112c1565b5f808211611abd575f80fd5b5060016fffffffffffffffffffffffffffffffff821160071b82811c67ffffffffffffffff1060061b1782811c63ffffffff1060051b1782811c61ffff1060041b1782811c60ff10600390811b90911783811c600f1060021b1783811c909110821b1791821c111790565b5f805f60608486031215611b3a575f80fd5b505081359360208301359350604090920135919050565b5f8060408385031215611b62575f80fd5b50508035926020909101359150565b5f60208284031215611b81575f80fd5b5035919050565b5f805f805f60a08688031215611b9c575f80fd5b505083359560208501359550604085013594606081013594506080013592509050565b5f60208284031215611bcf575f80fd5b5051919050565b634e487b7160e01b5f52601160045260245ffd5b80820281158282048414176106bf576106bf611bd6565b8181035f831280158383131683831282161715611c2057611c20611bd6565b5092915050565b8082025f8212600160ff1b84141615611c4257611c42611bd6565b81810583148215176106bf576106bf611bd6565b634e487b7160e01b5f52601260045260245ffd5b5f82611c7857611c78611c56565b600160ff1b82145f1984141615611c9157611c91611bd6565b500590565b5f82611ca457611ca4611c56565b500690565b808201808211156106bf576106bf611bd6565b818103818111156106bf576106bf611bd6565b8082018281125f831280158216821582161715611cee57611cee611bd6565b505092915050565b5f60208284031215611d06575f80fd5b815160ff81168114611d16575f80fd5b9392505050565b5f600160ff1b8201611d3157611d31611bd6565b505f0390565b5f82611d4557611d45611c56565b500490565b5f805f8060808587031215611d5d575f80fd5b505082516020840151604085015160609095015191969095509092509050565b5f60208284031215611d8d575f80fd5b815163ffffffff81168114611d16575f80fdfea26469706673582212207065fdc1b3989c0c426bad481a08b7960674f3d3d2d544989b1a1c324479a4de64736f6c634300081900330000000000000000000000007109709ecfa91a80626ff3989d68f67f5b1dd12d","linkReferences":{}},"methodIdentifiers":{"OneDayPassed()":"87d9445a","OneWeekPassed()":"52ab060d","OnehoursPassed()":"a774d816","auditor_checkBorrow(address,address)":"20dcb87d","auditor_enterMarket(address)":"4fba649c","auditor_exitMarket(address)":"ab34e827","auditor_handleBadDebt(address)":"fe188c05","market_approve(address,uint256)":"6fe6cd52","market_borrow(uint256,address,address)":"deed6487","market_borrowAtMaturity(uint256,uint256,uint256,address,address)":"06fe473c","market_deposit(uint256,address)":"66b241c6","market_depositAtMaturity(uint256,uint256,uint256,address)":"11fb531c","market_liquidate(address,uint256,address)":"0a455e4f","market_mint(uint256,address)":"89d2ce48","market_permit(address,address,uint256,uint256,uint8,bytes32,bytes32)":"8384c8b5","market_redeem(uint256,address,address)":"b47f10ae","market_refund(uint256,address)":"8b3e8072","market_repay(uint256,address)":"883b8f86","market_repayAtMaturity(uint256,uint256,uint256,address)":"2093fc1c","market_transfer(address,uint256)":"66942c24","market_transferFrom(address,address,uint256)":"c41bdd55","market_withdraw(uint256,address,address)":"236ffcae","market_withdrawAtMaturity(uint256,uint256,uint256,address,address)":"6ad0e854","mockPriceFeed_setDaiPrice(int256)":"0662101f","rewardsController_claim(uint256)":"e12dde4e","rewardsController_claimAll(address)":"2f804814","rewardsController_claimPermit(uint256,uint256)":"d3915e2a","rewardsController_handleBorrow(address)":"909c1f4e","rewardsController_handleDeposit(address)":"180a1957","rewardsController_renounceRole(bytes32,address)":"f058e916","rewardsController_revokeRole(bytes32,address)":"19ebbc0a"},"id":74}