{
  "_format": "hh-sol-artifact-1",
  "contractName": "DebtPreviewer",
  "sourceName": "contracts/periphery/DebtPreviewer.sol",
  "abi": [
    {
      "inputs": [
        {
          "internalType": "contract DebtManager",
          "name": "debtManager_",
          "type": "address"
        }
      ],
      "stateMutability": "nonpayable",
      "type": "constructor"
    },
    {
      "inputs": [],
      "name": "InvalidPreview",
      "type": "error"
    },
    {
      "inputs": [],
      "name": "debtManager",
      "outputs": [
        {
          "internalType": "contract DebtManager",
          "name": "",
          "type": "address"
        }
      ],
      "stateMutability": "view",
      "type": "function"
    },
    {
      "inputs": [
        {
          "internalType": "contract Market",
          "name": "marketDeposit",
          "type": "address"
        },
        {
          "internalType": "contract Market",
          "name": "marketBorrow",
          "type": "address"
        },
        {
          "internalType": "address",
          "name": "account",
          "type": "address"
        },
        {
          "internalType": "uint256",
          "name": "minHealthFactor",
          "type": "uint256"
        }
      ],
      "name": "leverage",
      "outputs": [
        {
          "components": [
            {
              "internalType": "uint256",
              "name": "ratio",
              "type": "uint256"
            },
            {
              "internalType": "uint256",
              "name": "borrow",
              "type": "uint256"
            },
            {
              "internalType": "uint256",
              "name": "deposit",
              "type": "uint256"
            },
            {
              "internalType": "int256",
              "name": "principal",
              "type": "int256"
            },
            {
              "internalType": "uint256",
              "name": "maxRatio",
              "type": "uint256"
            },
            {
              "internalType": "uint256",
              "name": "minDeposit",
              "type": "uint256"
            },
            {
              "internalType": "uint256",
              "name": "maxWithdraw",
              "type": "uint256"
            },
            {
              "components": [
                {
                  "internalType": "contract ERC20",
                  "name": "asset",
                  "type": "address"
                },
                {
                  "internalType": "uint256",
                  "name": "liquidity",
                  "type": "uint256"
                }
              ],
              "internalType": "struct AvailableAsset[]",
              "name": "availableAssets",
              "type": "tuple[]"
            }
          ],
          "internalType": "struct Leverage",
          "name": "",
          "type": "tuple"
        }
      ],
      "stateMutability": "view",
      "type": "function"
    },
    {
      "inputs": [
        {
          "internalType": "contract Market",
          "name": "marketDeposit",
          "type": "address"
        },
        {
          "internalType": "contract Market",
          "name": "marketBorrow",
          "type": "address"
        },
        {
          "internalType": "address",
          "name": "account",
          "type": "address"
        },
        {
          "internalType": "int256",
          "name": "assets",
          "type": "int256"
        },
        {
          "internalType": "uint256",
          "name": "targetRatio",
          "type": "uint256"
        },
        {
          "internalType": "uint256",
          "name": "depositRate",
          "type": "uint256"
        },
        {
          "internalType": "uint256",
          "name": "nativeRate",
          "type": "uint256"
        },
        {
          "internalType": "uint256",
          "name": "nativeRateBorrow",
          "type": "uint256"
        }
      ],
      "name": "leverageRates",
      "outputs": [
        {
          "components": [
            {
              "internalType": "int256",
              "name": "native",
              "type": "int256"
            },
            {
              "internalType": "uint256",
              "name": "borrow",
              "type": "uint256"
            },
            {
              "internalType": "uint256",
              "name": "deposit",
              "type": "uint256"
            },
            {
              "components": [
                {
                  "internalType": "contract ERC20",
                  "name": "asset",
                  "type": "address"
                },
                {
                  "internalType": "string",
                  "name": "assetName",
                  "type": "string"
                },
                {
                  "internalType": "string",
                  "name": "assetSymbol",
                  "type": "string"
                },
                {
                  "internalType": "uint256",
                  "name": "borrow",
                  "type": "uint256"
                },
                {
                  "internalType": "uint256",
                  "name": "deposit",
                  "type": "uint256"
                }
              ],
              "internalType": "struct RewardRate[]",
              "name": "rewards",
              "type": "tuple[]"
            }
          ],
          "internalType": "struct Rates",
          "name": "rates",
          "type": "tuple"
        }
      ],
      "stateMutability": "view",
      "type": "function"
    },
    {
      "inputs": [
        {
          "internalType": "contract Market",
          "name": "marketDeposit",
          "type": "address"
        },
        {
          "internalType": "contract Market",
          "name": "marketBorrow",
          "type": "address"
        },
        {
          "internalType": "address",
          "name": "account",
          "type": "address"
        },
        {
          "internalType": "uint256",
          "name": "withdraw",
          "type": "uint256"
        },
        {
          "internalType": "uint256",
          "name": "ratio",
          "type": "uint256"
        },
        {
          "internalType": "uint256",
          "name": "minHealthFactor",
          "type": "uint256"
        }
      ],
      "name": "previewDeleverage",
      "outputs": [
        {
          "components": [
            {
              "internalType": "uint256",
              "name": "ratio",
              "type": "uint256"
            },
            {
              "internalType": "uint256",
              "name": "borrow",
              "type": "uint256"
            },
            {
              "internalType": "uint256",
              "name": "deposit",
              "type": "uint256"
            },
            {
              "internalType": "int256",
              "name": "principal",
              "type": "int256"
            },
            {
              "internalType": "uint256",
              "name": "maxRatio",
              "type": "uint256"
            },
            {
              "internalType": "uint256",
              "name": "maxWithdraw",
              "type": "uint256"
            }
          ],
          "internalType": "struct Limit",
          "name": "limit",
          "type": "tuple"
        }
      ],
      "stateMutability": "view",
      "type": "function"
    },
    {
      "inputs": [
        {
          "internalType": "contract Market",
          "name": "marketDeposit",
          "type": "address"
        },
        {
          "internalType": "contract Market",
          "name": "marketBorrow",
          "type": "address"
        },
        {
          "internalType": "address",
          "name": "account",
          "type": "address"
        },
        {
          "internalType": "uint256",
          "name": "deposit",
          "type": "uint256"
        },
        {
          "internalType": "uint256",
          "name": "ratio",
          "type": "uint256"
        },
        {
          "internalType": "uint256",
          "name": "minHealthFactor",
          "type": "uint256"
        }
      ],
      "name": "previewLeverage",
      "outputs": [
        {
          "components": [
            {
              "internalType": "uint256",
              "name": "ratio",
              "type": "uint256"
            },
            {
              "internalType": "uint256",
              "name": "borrow",
              "type": "uint256"
            },
            {
              "internalType": "uint256",
              "name": "deposit",
              "type": "uint256"
            },
            {
              "internalType": "int256",
              "name": "principal",
              "type": "int256"
            },
            {
              "internalType": "uint256",
              "name": "maxRatio",
              "type": "uint256"
            },
            {
              "internalType": "uint256",
              "name": "maxWithdraw",
              "type": "uint256"
            }
          ],
          "internalType": "struct Limit",
          "name": "limit",
          "type": "tuple"
        }
      ],
      "stateMutability": "view",
      "type": "function"
    }
  ],
  "bytecode": "0x60a0604052348015600e575f80fd5b50604051614bf8380380614bf8833981016040819052602b91603b565b6001600160a01b03166080526066565b5f60208284031215604a575f80fd5b81516001600160a01b0381168114605f575f80fd5b9392505050565b608051614b436100b55f395f818160e501528181610da7015281816110b00152818161232c015281816126d501528181613067015281816138fa01528181613bf50152613cde0152614b435ff3fe608060405234801561000f575f80fd5b5060043610610055575f3560e01c80630b76ed4f1461005957806337ad93f11461008257806360b3a033146100e0578063926da1b41461011f578063ecd0cca01461013f575b5f80fd5b61006c610067366004614145565b610152565b60405161007991906141e5565b60405180910390f35b6100956100903660046142c2565b610692565b60405161007991905f60c082019050825182526020830151602083015260408301516040830152606083015160608301526080830151608083015260a083015160a083015292915050565b6101077f000000000000000000000000000000000000000000000000000000000000000081565b6040516001600160a01b039091168152602001610079565b61013261012d366004614323565b6108d1565b6040516100799190614371565b61009561014d3660046142c2565b610b31565b61017a60405180608001604052805f81526020015f81526020015f8152602001606081525090565b6101a96040518060a001604052805f81526020015f81526020015f151581526020015f81526020015f81525090565b6101be8a8a8a8a670de0b6b3a7640000610cb7565b506020830152606082018190526001600160a01b038b8116908b161460408301525f126102b8576102ae896001600160a01b03166301e1d1146040518163ffffffff1660e01b8152600401602060405180830381865afa158015610224573d5f803e3d5ffd5b505050506040513d601f19601f820116820180604052508101906102489190614424565b8a6001600160a01b031663eee8c9e06040518163ffffffff1660e01b8152600401602060405180830381865afa158015610284573d5f803e3d5ffd5b505050506040513d601f19601f820116820180604052508101906102a89190614424565b90610d72565b60808201526104ef565b80602001518610156103dc576102e28682602001516102d7919061444f565b606083015190610d8f565b815260408101516102ae906102f7575f6102fa565b81515b8a6001600160a01b03166301e1d1146040518163ffffffff1660e01b8152600401602060405180830381865afa158015610336573d5f803e3d5ffd5b505050506040513d601f19601f8201168201806040525081019061035a9190614424565b610364919061444f565b6103728c8c855f0151610da3565b8b6001600160a01b031663eee8c9e06040518163ffffffff1660e01b8152600401602060405180830381865afa1580156103ae573d5f803e3d5ffd5b505050506040513d601f19601f820116820180604052508101906103d29190614424565b6102a8919061444f565b6103ef8160200151876102d7919061444f565b815260408101516104e990610404575f610407565b81515b8a6001600160a01b03166301e1d1146040518163ffffffff1660e01b8152600401602060405180830381865afa158015610443573d5f803e3d5ffd5b505050506040513d601f19601f820116820180604052508101906104679190614424565b6104719190614462565b61047f8c8c855f0151610da3565b8b6001600160a01b031663eee8c9e06040518163ffffffff1660e01b8152600401602060405180830381865afa1580156104bb573d5f803e3d5ffd5b505050506040513d601f19601f820116820180604052508101906104df9190614424565b6102a89190614462565b60808201525b6105da610504670de0b6b3a76400008861444f565b8a6001600160a01b031663f3fdb15a6040518163ffffffff1660e01b8152600401602060405180830381865afa158015610540573d5f803e3d5ffd5b505050506040513d601f19601f820116820180604052508101906105649190614475565b6001600160a01b03166384a8746684608001516040518263ffffffff1660e01b815260040161059591815260200190565b602060405180830381865afa1580156105b0573d5f803e3d5ffd5b505050506040513d601f19601f820116820180604052508101906105d49190614424565b90610d8f565b60208301526105e98587610d8f565b604083015261060a610603670de0b6b3a76400008861444f565b8490610d8f565b6106148588610d8f565b61061e9190614497565b825261068061062c8b611025565b82604001516106435761063e8b611025565b610675565b604080515f8082526020820190925290610673565b610660613fac565b8152602001906001900390816106585790505b505b836040015189611fc9565b60608301525098975050505050505050565b6106c56040518060c001604052805f81526020015f81526020015f81526020015f81526020015f81526020015f81525090565b856001600160a01b0316876001600160a01b0316146106e6576106e66144d1565b5f6106f2888888612324565b606083018190521215610718576040516342a7200160e11b815260040160405180910390fd5b5f610726888888878761260e565b9050816060015185116107675784826060018181516107459190614497565b9150818152505061075d888888856060015187613063565b60808301526107bd565b8085116107a457610778858261444f565b606083018190525f1261079357670de0b6b3a764000061075d565b61075d888888856060015187613063565b6040516342a7200160e11b815260040160405180910390fd5b816080015184116107ce57836107d4565b81608001515b80835260a083018290525f9061080f908a908a9061080a906107ff90670de0b6b3a76400009061444f565b606088015190610d8f565b610da3565b61081989896137e7565b610823919061444f565b90508061083089896137e7565b61083a919061444f565b602084015260405163ce96cb7760e01b81526001600160a01b038881166004830152829188918c169063ce96cb7790602401602060405180830381865afa158015610887573d5f803e3d5ffd5b505050506040513d601f19601f820116820180604052508101906108ab9190614424565b6108b5919061444f565b6108bf919061444f565b60408401525090979650505050505050565b6109126040518061010001604052805f81526020015f81526020015f81526020015f81526020015f81526020015f81526020015f8152602001606081525090565b836001600160a01b0316856001600160a01b031614610933576109336144d1565b604051632f2e037160e11b81526001600160a01b0384811660048301525f9190861690635e5c06e290602401606060405180830381865afa15801561097a573d5f803e3d5ffd5b505050506040513d601f19601f8201168201806040525081019061099e91906144e5565b60405163ce96cb7760e01b81526001600160a01b0388811660048301529194505f9350908916915063ce96cb7790602401602060405180830381865afa1580156109ea573d5f803e3d5ffd5b505050506040513d601f19601f82011682018060405250810190610a0e9190614424565b90505f610a1d888888886138c7565b90505f610a2b898989612324565b90505f808213610a3b575f610a45565b610a458483613bdc565b90506040518061010001604052808281526020018a6001600160a01b03166347dffde0886040518263ffffffff1660e01b8152600401610a8791815260200190565b602060405180830381865afa158015610aa2573d5f803e3d5ffd5b505050506040513d601f19601f82011682018060405250810190610ac69190614424565b8152602001858152602001838152602001610ae48c8c8c878d613063565b815260200184861015610b0057610afb868661444f565b610b02565b5f5b8152602001610b148c8c8c868d61260e565b8152602001610b21613bf0565b90529a9950505050505050505050565b610b646040518060c001604052805f81526020015f81526020015f81526020015f81526020015f81526020015f81525090565b856001600160a01b0316876001600160a01b031614610b8557610b856144d1565b5f610b938888888887610cb7565b60808501526060840191909152905080841080610bb35750816080015184115b610bbd5783610bbf565b805b825260608201515f12610c5b57610bd687876137e7565b602083015260405163ce96cb7760e01b81526001600160a01b0387811660048301528691908a169063ce96cb7790602401602060405180830381865afa158015610c22573d5f803e3d5ffd5b505050506040513d601f19601f82011682018060405250810190610c469190614424565b610c509190614462565b604083015250610cad565b81516060830151610c6b91613f3c565b6040830152610c7d888888878761260e565b60a08301528151610ca690610c9b90670de0b6b3a76400009061444f565b606084015190610d8f565b6020830152505b9695505050505050565b5f805f84610cc6898989612324565b610cd09190614510565b9250610cdf8888888688613063565b90505f831315610d675760405163ce96cb7760e01b81526001600160a01b038781166004830152610d649185918891908c169063ce96cb7790602401602060405180830381865afa158015610d36573d5f803e3d5ffd5b505050506040513d601f19601f82011682018060405250810190610d5a9190614424565b6102a89190614510565b91505b955095509592505050565b5f610d8683670de0b6b3a764000084613f4c565b90505b92915050565b5f610d868383670de0b6b3a7640000613f79565b5f807f00000000000000000000000000000000000000000000000000000000000000006001600160a01b0316633ec045a66040518163ffffffff1660e01b8152600401602060405180830381865afa158015610e01573d5f803e3d5ffd5b505050506040513d601f19601f82011682018060405250810190610e259190614475565b604051638e8f294b60e01b81526001600160a01b0386811660048301529192505f91829190841690638e8f294b9060240160a060405180830381865afa158015610e71573d5f803e3d5ffd5b505050506040513d601f19601f82011682018060405250810190610e959190614557565b604051638e8f294b60e01b81526001600160a01b038d8116600483015260ff9590951697509095505f9450849388169250638e8f294b915060240160a060405180830381865afa158015610eeb573d5f803e3d5ffd5b505050506040513d601f19601f82011682018060405250810190610f0f9190614557565b9450505060ff1692505061101884600a610f2991906146b0565b604051631710760b60e31b81526001600160a01b03868116600483015288169063b883b05890602401602060405180830381865afa158015610f6d573d5f803e3d5ffd5b505050506040513d601f19601f82011682018060405250810190610f919190614424565b604051631710760b60e31b81526001600160a01b03858116600483015261101191908a169063b883b05890602401602060405180830381865afa158015610fda573d5f803e3d5ffd5b505050506040513d601f19601f82011682018060405250810190610ffe9190614424565b61100987600a6146b0565b8c9190613f79565b9190613f79565b9998505050505050505050565b606061102f613fe1565b826001600160a01b0316636bb65f536040518163ffffffff1660e01b8152600401602060405180830381865afa15801561106b573d5f803e3d5ffd5b505050506040513d601f19601f8201168201806040525081019061108f9190614475565b6001600160a01b03908116825260408051631f6022d360e11b815290515f927f00000000000000000000000000000000000000000000000000000000000000001691633ec045a69160048083019260209291908290030181865afa1580156110f9573d5f803e3d5ffd5b505050506040513d601f19601f8201168201806040525081019061111d9190614475565b82519091506001600160a01b031615611fc257604051638e8f294b60e01b81526001600160a01b038581166004830152821690638e8f294b9060240160a060405180830381865afa158015611174573d5f803e3d5ffd5b505050506040513d601f19601f820116820180604052508101906111989190614557565b6001600160a01b0390811661010088015260ff9093166101608701819052600a0a60c08701525050610e1061018085015283516040805163b7eec41360e01b8152905191909216925063b7eec413916004808201925f929091908290030181865afa158015611209573d5f803e3d5ffd5b505050506040513d5f823e601f3d908101601f191682016040526112309190810190614736565b6101408301819052516001600160401b03811115611250576112506144bd565b60405190808252806020026020018201604052801561128957816020015b611276613fac565b81526020019060019003908161126e5790505b505f6101a084018190529093505b82610140015151836101a0015110156113d957825f01516001600160a01b0316635684aa4686856101400151866101a00151815181106112d9576112d96147c4565b60200260200101516040518363ffffffff1660e01b81526004016113139291906001600160a01b0392831681529116602082015260400190565b606060405180830381865afa15801561132e573d5f803e3d5ffd5b505050506040513d601f19601f8201168201806040525081019061135291906147eb565b505063ffffffff166101c08401819052156113c257826101400151836101a0015181518110611383576113836147c4565b60200260200101518482806113979061482b565b9350815181106113a9576113a96147c4565b60209081029190910101516001600160a01b0390911690525b826101a00180516113d29061482b565b9052611297565b83816001600160401b038111156113f2576113f26144bd565b60405190808252806020026020018201604052801561142b57816020015b611418613fac565b8152602001906001900390816114105790505b505f6101a086015294505b8451846101a00151101561149c5780846101a001518151811061145b5761145b6147c4565b602002602001015185856101a001518151811061147a5761147a6147c4565b6020026020010181905250836101a00180516114959061482b565b9052611436565b50505f6101a08301525b8251826101a001511015611fc257815f01516001600160a01b031663f2426f9a8585856101a00151815181106114de576114de6147c4565b6020908102919091010151516040516001600160e01b031960e085901b1681526001600160a01b039283166004820152911660248201526044016101c060405180830381865afa158015611534573d5f803e3d5ffd5b505050506040513d601f19601f82011682018060405250810190611558919061486a565b826101200181905250815f01516001600160a01b03166344e250f88585856101a001518151811061158b5761158b6147c4565b6020908102919091010151516040516001600160e01b031960e085901b1681526001600160a01b03928316600482015291166024820152604401606060405180830381865afa1580156115e0573d5f803e3d5ffd5b505050506040513d601f19601f8201168201806040525081019061160491906144e5565b506040840152606083015281516101a083015184516001600160a01b039092169163fc196068918791879190811061163e5761163e6147c4565b60200260200101515f01518561012001516060015163ffffffff164211611665575f61166c565b8561018001515b6040516001600160e01b031960e086901b1681526001600160a01b0393841660048201529290911660248301526044820152606401606060405180830381865afa1580156116bc573d5f803e3d5ffd5b505050506040513d601f19601f820116820180604052508101906116e091906144e5565b50608084015260a08301526101c08201516224ea0090611701908290614970565b836101c00151611711919061444f565b61171b9190614462565b82610260018181525050836001600160a01b0316630e52dbec6040518163ffffffff1660e01b8152600401602060405180830381865afa158015611761573d5f803e3d5ffd5b505050506040513d601f19601f820116820180604052508101906117859190614983565b6117959060ff166224ea0061499c565b6117a26224ea0042614970565b6117ac904261444f565b6117b69190614462565b61024083018190526102608301516224ea00916117d3919061444f565b6117dd91906149b3565b6117e8906001614462565b6001600160401b038111156117ff576117ff6144bd565b604051908082528060200260200182016040528015611828578160200160208202803683370190505b5060e08301525f6101c08301526102608201516101e08301525b816102400151826101e001511161192c576101e0820151604051630156d37d60e31b81525f916001600160a01b03871691630ab69be8916118899160040190815260200190565b6040805180830381865afa1580156118a3573d5f803e3d5ffd5b505050506040513d601f19601f820116820180604052508101906118c791906149c6565b5090508083610200018181516118dd9190614462565b9052506101e083015160e08401516101c085015181518110611901576119016147c4565b6020908102919091010152506101e0820180516224ea000190526101c0820180516001019052611842565b6040518060a0016040528084846101a001518151811061194e5761194e6147c4565b60200260200101515f01516001600160a01b0316815260200184846101a001518151811061197e5761197e6147c4565b60200260200101515f01516001600160a01b03166306fdde036040518163ffffffff1660e01b81526004015f60405180830381865afa1580156119c3573d5f803e3d5ffd5b505050506040513d5f823e601f3d908101601f191682016040526119ea91908101906149e8565b815260200184846101a0015181518110611a0657611a066147c4565b60200260200101515f01516001600160a01b03166395d89b416040518163ffffffff1660e01b81526004015f60405180830381865afa158015611a4b573d5f803e3d5ffd5b505050506040513d5f823e601f3d908101601f19168201604052611a7291908101906149e8565b81526020015f846102000151876001600160a01b031663eee8c9e06040518163ffffffff1660e01b8152600401602060405180830381865afa158015611aba573d5f803e3d5ffd5b505050506040513d601f19601f82011682018060405250810190611ade9190614424565b611ae89190614462565b11611af3575f611d5f565b61018084015160c0850151610100860151604051631710760b60e31b81526001600160a01b039182166004820152611d5f936301e1338093909261101192611bf0918a169063b883b05890602401602060405180830381865afa158015611b5c573d5f803e3d5ffd5b505050506040513d601f19601f82011682018060405250810190611b809190614424565b8a61020001518d6001600160a01b031663eee8c9e06040518163ffffffff1660e01b8152600401602060405180830381865afa158015611bc2573d5f803e3d5ffd5b505050506040513d601f19601f82011682018060405250810190611be69190614424565b6105d49190614462565b6101208a01516040908101519051631710760b60e31b81526001600160a01b039182166004820152611011918b169063b883b05890602401602060405180830381865afa158015611c43573d5f803e3d5ffd5b505050506040513d601f19601f82011682018060405250810190611c679190614424565b6105d48e6001600160a01b031663bf722ca28e61020001516040518263ffffffff1660e01b8152600401611c9d91815260200190565b602060405180830381865afa158015611cb8573d5f803e3d5ffd5b505050506040513d601f19601f82011682018060405250810190611cdc9190614424565b8f6001600160a01b0316638d0e5f026040518163ffffffff1660e01b8152600401602060405180830381865afa158015611d18573d5f803e3d5ffd5b505050506040513d601f19601f82011682018060405250810190611d3c9190614424565b611d469190614462565b8d60c001518e606001518f60a00151611011919061444f565b81526020015f866001600160a01b03166301e1d1146040518163ffffffff1660e01b8152600401602060405180830381865afa158015611da1573d5f803e3d5ffd5b505050506040513d601f19601f82011682018060405250810190611dc59190614424565b11611dd0575f611f8c565b61018084015160c0850151610100860151604051631710760b60e31b81526001600160a01b039182166004820152611f8c936301e1338093909261101192611e99918a169063b883b05890602401602060405180830381865afa158015611e39573d5f803e3d5ffd5b505050506040513d601f19601f82011682018060405250810190611e5d9190614424565b8c6001600160a01b03166301e1d1146040518163ffffffff1660e01b8152600401602060405180830381865afa1580156105b0573d5f803e3d5ffd5b6101208a01516040908101519051631710760b60e31b81526001600160a01b039182166004820152611011918b169063b883b05890602401602060405180830381865afa158015611eec573d5f803e3d5ffd5b505050506040513d601f19601f82011682018060405250810190611f109190614424565b6105d48e6001600160a01b03166318160ddd6040518163ffffffff1660e01b8152600401602060405180830381865afa158015611f4f573d5f803e3d5ffd5b505050506040513d601f19601f82011682018060405250810190611f739190614424565b8d60c001518e604001518f60800151611011919061444f565b81525083836101a0015181518110611fa657611fa66147c4565b60209081029190910101526101a08201805160010190526114a6565b5050919050565b606083518551611fd99190614462565b6001600160401b03811115611ff057611ff06144bd565b60405190808252806020026020018201604052801561202957816020015b612016613fac565b81526020019060019003908161200e5790505b5090505f5b85518110156121c2576120678387838151811061204d5761204d6147c4565b602002602001015160800151610d8f90919063ffffffff16565b828281518110612079576120796147c4565b6020026020010151608001818152505083156120f3576120d06120a4670de0b6b3a76400008561444f565b8783815181106120b6576120b66147c4565b602002602001015160600151610d8f90919063ffffffff16565b8282815181106120e2576120e26147c4565b602002602001015160600181815250505b858181518110612105576121056147c4565b60200260200101515f0151828281518110612122576121226147c4565b60209081029190910101516001600160a01b039091169052855186908290811061214e5761214e6147c4565b60200260200101516020015182828151811061216c5761216c6147c4565b60200260200101516020018190525085818151811061218d5761218d6147c4565b6020026020010151604001518282815181106121ab576121ab6147c4565b60209081029190910101516040015260010161202e565b8361231b57505f5b845181101561231b576121fa6121e8670de0b6b3a76400008561444f565b8683815181106120b6576120b66147c4565b828751836122089190614462565b81518110612218576122186147c4565b6020026020010151606001818152505084818151811061223a5761223a6147c4565b60200260200101515f0151828751836122539190614462565b81518110612263576122636147c4565b60209081029190910101516001600160a01b039091169052845185908290811061228f5761228f6147c4565b602002602001015160200151828751836122a99190614462565b815181106122b9576122b96147c4565b6020026020010151602001819052508481815181106122da576122da6147c4565b602002602001015160400151828751836122f49190614462565b81518110612304576123046147c4565b6020908102919091010151604001526001016121ca565b50949350505050565b5f805f805f807f00000000000000000000000000000000000000000000000000000000000000006001600160a01b0316633ec045a66040518163ffffffff1660e01b8152600401602060405180830381865afa158015612386573d5f803e3d5ffd5b505050506040513d601f19601f820116820180604052508101906123aa9190614475565b604051638e8f294b60e01b81526001600160a01b038b8116600483015291925090821690638e8f294b9060240160a060405180830381865afa1580156123f2573d5f803e3d5ffd5b505050506040513d601f19601f820116820180604052508101906124169190614557565b604051638e8f294b60e01b81526001600160a01b038e8116600483015260ff959095169a509097509285169350638e8f294b9260240191506124559050565b60a060405180830381865afa158015612470573d5f803e3d5ffd5b505050506040513d601f19601f820116820180604052508101906124949190614557565b60ff909316975091945061259c92506124b29150879050600a6146b0565b604051631710760b60e31b81526001600160a01b03868116600483015284169063b883b05890602401602060405180830381865afa1580156124f6573d5f803e3d5ffd5b505050506040513d601f19601f8201168201806040525081019061251a9190614424565b604051631710760b60e31b81526001600160a01b038681166004830152611011919086169063b883b05890602401602060405180830381865afa158015612563573d5f803e3d5ffd5b505050506040513d601f19601f820116820180604052508101906125879190614424565b61259289600a6146b0565b6110118e8e6137e7565b60405163ce96cb7760e01b81526001600160a01b0389811660048301528b169063ce96cb7790602401602060405180830381865afa1580156125e0573d5f803e3d5ffd5b505050506040513d601f19601f820116820180604052508101906126049190614424565b6110189190614497565b5f6126b26040518061028001604052805f81526020015f81526020015f81526020015f81526020015f81526020015f81526020015f81526020015f81526020015f81526020015f81526020015f81526020015f81526020015f81526020015f81526020015f81526020015f81526020015f81526020015f6001600160a01b031681526020015f6001600160a01b031681526020015f6001600160a01b031681525090565b6126bd878787612324565b602082018190525f126126d3575f91505061305a565b7f00000000000000000000000000000000000000000000000000000000000000006001600160a01b0316633ec045a66040518163ffffffff1660e01b8152600401602060405180830381865afa15801561272f573d5f803e3d5ffd5b505050506040513d601f19601f820116820180604052508101906127539190614475565b6001600160a01b03166102408201526040805160a0810182525f808252602080830182905282840182905260608084018390526080840183905284519081018552828152908101829052928301529061024083015160405160016263e28d60e11b031981526001600160a01b0389811660048301529091169063ff383ae690602401602060405180830381865afa1580156127f0573d5f803e3d5ffd5b505050506040513d601f19601f820116820180604052508101906128149190614424565b604084015261282388886137e7565b6101008401525f83525b604083015115612c7657604083015160011615612c5d5761024083015183516040516308cae55b60e21b81526001600160a01b039092169163232b956c9161287b9160040190815260200190565b602060405180830381865afa158015612896573d5f803e3d5ffd5b505050506040513d601f19601f820116820180604052508101906128ba9190614475565b6001600160a01b039081166102608501819052610240850151604051638e8f294b60e01b8152600481019290925290911690638e8f294b9060240160a060405180830381865afa158015612910573d5f803e3d5ffd5b505050506040513d601f19601f820116820180604052508101906129349190614557565b6001600160a01b03166080870152505060ff16602084018190526001600160801b0390911683525f9061296890600a614a76565b61026085015160405163014a296f60e01b81526001600160a01b038b8116600483015292935091169063014a296f906024016040805180830381865afa1580156129b4573d5f803e3d5ffd5b505050506040513d601f19601f820116820180604052508101906129d891906149c6565b602084015282526102408401516080840151604051631710760b60e31b81526001600160a01b03918216600482015291169063b883b05890602401602060405180830381865afa158015612a2e573d5f803e3d5ffd5b505050506040513d601f19601f82011682018060405250810190612a529190614424565b6040830181905283518351612a78926001600160801b03909216916105d4919085613f79565b60a0850152825160408301516020840151612aa8926001600160801b031691612aa2919085613f79565b90613bdc565b608085015260a08401516101e085018051612ac4908390614462565b905250608084015160e085018051612add908390614462565b9052506080840151606085018051612af6908390614462565b9052506102608401516001600160a01b03808b16911603612b545782516040830151610100860151612b37926001600160801b031691612aa2919085613f79565b6101208501819052606085018051612b5090839061444f565b9052505b8361026001516001600160a01b03168a6001600160a01b031614612b91578360a001518461018001818151612b899190614462565b905250612c5b565b82516040830151610100860151612bb7926001600160801b0316916105d4919085613f79565b61020085018190528351604080850151610260880151915163ce96cb7760e01b81526001600160a01b038d81166004830152612c4a946001600160801b0316936105d4939288929091169063ce96cb7790602401602060405180830381865afa158015612c26573d5f803e3d5ffd5b505050506040513d601f19601f820116820180604052508101906110119190614424565b612c54919061444f565b6101a08501525b505b82516001908101845260408401805190911c905261282d565b610240830151604051638e8f294b60e01b81526001600160a01b038b8116600483015290911690638e8f294b9060240160a060405180830381865afa158015612cc1573d5f803e3d5ffd5b505050506040513d601f19601f82011682018060405250810190612ce59190614557565b6001600160a01b039081166102208901526001600160801b0394909416610140880152505050610240840151604051638e8f294b60e01b81528a83166004820152911690638e8f294b9060240160a060405180830381865afa158015612d4d573d5f803e3d5ffd5b505050506040513d601f19601f82011682018060405250810190612d719190614557565b505050506001600160801b031661016084018190526060840151612d9a9187916105d491610d8f565b60c0840152610160830151610180840151612db491610d8f565b6101c0840181905260c084015111612f0b57612f01612ef7846101400151612aa28c6001600160a01b031663313ce5676040518163ffffffff1660e01b8152600401602060405180830381865afa158015612e11573d5f803e3d5ffd5b505050506040513d601f19601f82011682018060405250810190612e359190614983565b612e4090600a614a76565b610240880151610220890151604051631710760b60e31b81526001600160a01b03918216600482015291169063b883b05890602401602060405180830381865afa158015612e90573d5f803e3d5ffd5b505050506040513d601f19601f82011682018060405250810190612eb49190614424565b6110118961020001518a60e001518b61012001518c6101e00151612ed89190614462565b612ee2919061444f565b612eec919061444f565b8a6101a00151613f97565b8460200151613f97565b935050505061305a565b613045896001600160a01b031663313ce5676040518163ffffffff1660e01b8152600401602060405180830381865afa158015612f4a573d5f803e3d5ffd5b505050506040513d601f19601f82011682018060405250810190612f6e9190614983565b612f7990600a614a76565b610240850151610220860151604051631710760b60e31b81526001600160a01b03918216600482015291169063b883b05890602401602060405180830381865afa158015612fc9573d5f803e3d5ffd5b505050506040513d601f19601f82011682018060405250810190612fed9190614424565b611011612ffa8a8a610d8f565b8961301c8961016001516105d48e8c6101400151610d8f90919063ffffffff16565b6130269190614462565b613030919061444f565b876101c001518860c00151612aa2919061444f565b8360200151613054919061444f565b93505050505b95945050505050565b5f807f00000000000000000000000000000000000000000000000000000000000000006001600160a01b0316633ec045a66040518163ffffffff1660e01b8152600401602060405180830381865afa1580156130c1573d5f803e3d5ffd5b505050506040513d601f19601f820116820180604052508101906130e59190614475565b90506131456040518061014001604052805f81526020015f81526020015f81526020015f81526020015f81526020015f81526020015f81526020015f81526020015f6001600160a01b031681526020015f6001600160a01b031681525090565b604051638e8f294b60e01b81526001600160a01b038981166004830152831690638e8f294b9060240160a060405180830381865afa158015613189573d5f803e3d5ffd5b505050506040513d601f19601f820116820180604052508101906131ad9190614557565b6001600160a01b039081166101008701526001600160801b039490941660a08601525050604051638e8f294b60e01b8152898316600482015291841691638e8f294b915060240160a060405180830381865afa15801561320f573d5f803e3d5ffd5b505050506040513d601f19601f820116820180604052508101906132339190614557565b505050506001600160801b031660c0820181905260a08201515f9161326c9161325b91610d8f565b613265908761444f565b8690613bdc565b90505f861361327f57925061305a915050565b60405160016263e28d60e11b031981526001600160a01b03888116600483015284169063ff383ae690602401602060405180830381865afa1580156132c6573d5f803e3d5ffd5b505050506040513d601f19601f820116820180604052508101906132ea9190614424565b6040838101919091526101008301519051631710760b60e31b81526001600160a01b0391821660048201526133d79185169063b883b05890602401602060405180830381865afa158015613340573d5f803e3d5ffd5b505050506040513d601f19601f820116820180604052508101906133649190614424565b8a6001600160a01b031663313ce5676040518163ffffffff1660e01b8152600401602060405180830381865afa1580156133a0573d5f803e3d5ffd5b505050506040513d601f19601f820116820180604052508101906133c49190614983565b6133cf90600a614a76565b889190613f79565b60608301525f82525b60408201511561374c57604082015160011615613733576040805160a0810182525f808252602080830182905282840182905260608084018390526080840183905284519081018552828152908101829052928301529083516040516308cae55b60e21b815260048101919091526001600160a01b0386169063232b956c90602401602060405180830381865afa15801561347d573d5f803e3d5ffd5b505050506040513d601f19601f820116820180604052508101906134a19190614475565b6001600160a01b039081166101208601819052604051638e8f294b60e01b8152600481019190915290861690638e8f294b9060240160a060405180830381865afa1580156134f1573d5f803e3d5ffd5b505050506040513d601f19601f820116820180604052508101906135159190614557565b6001600160a01b03908116608088015260ff93909316602087015250506001600160801b0391909116835261012085015160405163014a296f60e01b81528b8316600482015291169063014a296f906024016040805180830381865afa158015613581573d5f803e3d5ffd5b505050506040513d601f19601f820116820180604052508101906135a591906149c6565b602083015281526080820151604051631710760b60e31b81526001600160a01b0391821660048201529086169063b883b05890602401602060405180830381865afa1580156135f6573d5f803e3d5ffd5b505050506040513d601f19601f8201168201806040525081019061361a9190614424565b6040820152602082015161362f90600a614a76565b60208501526101208401516001600160a01b03808c1691160361369b57613682825f01516001600160801b03166102a8836040015187602001516136738f8f6137e7565b8660200151611011919061444f565b846080018181516136939190614462565b9052506136d8565b81516040820151602080870151908401516136c3936001600160801b0316926102a892613f4c565b846080018181516136d49190614462565b9052505b8a6001600160a01b03168461012001516001600160a01b03161461373057815160408201516020860151835161371b936001600160801b0316926105d492613f79565b8460e00181815161372c9190614462565b9052505b50505b81516001908101835260408301805190911c90526133e0565b6130546137e16137856137708560c001518660a00151610d8f90919063ffffffff16565b61377a908961444f565b606086015190610d8f565b6137aa6137a38660c001518760800151610d8f90919063ffffffff16565b8990610d8f565b60608601516137ba908a90610d8f565b60c087015160e08801516137cd91610d8f565b6137d79190614462565b612aa2919061444f565b82613f97565b604051632f2e037160e11b81526001600160a01b0382811660048301525f918291851690635e5c06e290602401606060405180830381865afa15801561382f573d5f803e3d5ffd5b505050506040513d601f19601f8201168201806040525081019061385391906144e5565b60405163023effef60e51b8152600481018290529093506001600160a01b03871692506347dffde09150602401602060405180830381865afa15801561389b573d5f803e3d5ffd5b505050506040513d601f19601f820116820180604052508101906138bf9190614424565b949350505050565b6040805160c0810182525f80825260208201819052918101829052606081018290526080810182905260a081018290525f7f00000000000000000000000000000000000000000000000000000000000000006001600160a01b0316633ec045a66040518163ffffffff1660e01b8152600401602060405180830381865afa158015613954573d5f803e3d5ffd5b505050506040513d601f19601f820116820180604052508101906139789190614475565b604051638e8f294b60e01b81526001600160a01b03898116600483015291925090821690638e8f294b9060240160a060405180830381865afa1580156139c0573d5f803e3d5ffd5b505050506040513d601f19601f820116820180604052508101906139e49190614557565b6001600160a01b03908116606088015260ff93909316865250506001600160801b039190911660408085019190915251638e8f294b60e01b8152878216600482015290821690638e8f294b9060240160a060405180830381865afa158015613a4e573d5f803e3d5ffd5b505050506040513d601f19601f82011682018060405250810190613a729190614557565b6001600160a01b031660a0870152505060ff1660208401526001600160801b031660808301528151613bd190613aa990600a6146b0565b6060840151604051631710760b60e31b81526001600160a01b0391821660048201529084169063b883b05890602401602060405180830381865afa158015613af3573d5f803e3d5ffd5b505050506040513d601f19601f82011682018060405250810190613b179190614424565b613bca613b3586604001518760800151610d8f90919063ffffffff16565b60a0870151604051631710760b60e31b81526001600160a01b039182166004820152612aa29188169063b883b05890602401602060405180830381865afa158015613b82573d5f803e3d5ffd5b505050506040513d601f19601f82011682018060405250810190613ba69190614424565b6020890151613bb690600a6146b0565b611011613bc38f8f6137e7565b8d90610d8f565b9190613f4c565b979650505050505050565b5f610d8683670de0b6b3a764000084613f79565b60605f7f00000000000000000000000000000000000000000000000000000000000000006001600160a01b0316633ec045a66040518163ffffffff1660e01b8152600401602060405180830381865afa158015613c4f573d5f803e3d5ffd5b505050506040513d601f19601f82011682018060405250810190613c739190614475565b90505f816001600160a01b031663375a7cba6040518163ffffffff1660e01b81526004015f60405180830381865afa158015613cb1573d5f803e3d5ffd5b505050506040513d5f823e601f3d908101601f19168201604052613cd89190810190614a84565b5190505f7f00000000000000000000000000000000000000000000000000000000000000006001600160a01b031663158274a56040518163ffffffff1660e01b8152600401602060405180830381865afa158015613d38573d5f803e3d5ffd5b505050506040513d601f19601f82011682018060405250810190613d5c9190614475565b9050816001600160401b03811115613d7657613d766144bd565b604051908082528060200260200182016040528015613dba57816020015b604080518082019091525f8082526020820152815260200190600190039081613d945790505b5093505f5b82811015613f35576040516308cae55b60e21b8152600481018290525f906001600160a01b0386169063232b956c90602401602060405180830381865afa158015613e0c573d5f803e3d5ffd5b505050506040513d601f19601f82011682018060405250810190613e309190614475565b6001600160a01b03166338d52e0f6040518163ffffffff1660e01b8152600401602060405180830381865afa158015613e6b573d5f803e3d5ffd5b505050506040513d601f19601f82011682018060405250810190613e8f9190614475565b6040805180820182526001600160a01b0380841680835292516370a0823160e01b81529087166004820152929350916020830191906370a0823190602401602060405180830381865afa158015613ee8573d5f803e3d5ffd5b505050506040513d601f19601f82011682018060405250810190613f0c9190614424565b815250868381518110613f2157613f216147c4565b602090810291909101015250600101613dbf565b5050505090565b5f610d868383670de0b6b3a76400005b828202811515841585830485141716613f63575f80fd5b6001826001830304018115150290509392505050565b828202811515841585830485141716613f90575f80fd5b0492915050565b5f818310613fa55781610d86565b5090919050565b6040518060a001604052805f6001600160a01b0316815260200160608152602001606081526020015f81526020015f81525090565b6040518061028001604052805f6001600160a01b031681526020015f81526020015f81526020015f81526020015f81526020015f81526020015f8152602001606081526020015f6001600160a01b031681526020016140eb604051806101c001604052805f6001600160a01b031681526020015f6001600160a01b031681526020015f6001600160a01b031681526020015f63ffffffff1681526020015f81526020015f81526020015f81526020015f81526020015f600f0b81526020015f6001600160401b031681526020015f6001600160401b031681526020015f6001600160401b031681526020015f6001600160401b031681526020015f6001600160401b031681525090565b8152602001606081526020015f81526020015f81526020015f81526020015f81526020015f81526020015f81526020015f81526020015f81526020015f81525090565b6001600160a01b0381168114614142575f80fd5b50565b5f805f805f805f80610100898b03121561415d575f80fd5b88356141688161412e565b975060208901356141788161412e565b965060408901356141888161412e565b979a96995096976060810135975060808101359660a0820135965060c0820135955060e0909101359350915050565b5f81518084528060208401602086015e5f602082860101526020601f19601f83011685010191505092915050565b5f602080835260a08084018551838601528286015160408160408801526040880151915060608260608901526060890151925060808060808a015284845180875260c08b01915060c08160051b8c0101965088860195505f5b818110156142b1578b880360bf19018352865180516001600160a01b031689528a8101518b8a018b90526142748b8b01826141b7565b9050878201518a8203898c015261428b82826141b7565b838901518c8a0152928701519a87019a909a52509750958901959189019160010161423e565b50959b9a5050505050505050505050565b5f805f805f8060c087890312156142d7575f80fd5b86356142e28161412e565b955060208701356142f28161412e565b945060408701356143028161412e565b959894975094956060810135955060808101359460a0909101359350915050565b5f805f8060808587031215614336575f80fd5b84356143418161412e565b935060208501356143518161412e565b925060408501356143618161412e565b9396929550929360600135925050565b5f602080835261012083018451828501528185015160408160408701526040870151606087015260608701516080870152608087015160a087015260a087015160c087015260c087015160e087015260e087015191506101008081880152508282518085526101408801915085840194505f93505b8084101561441857845180516001600160a01b03168352860151868301529385019360019390930192908201906143e6565b50979650505050505050565b5f60208284031215614434575f80fd5b5051919050565b634e487b7160e01b5f52601160045260245ffd5b81810381811115610d8957610d8961443b565b80820180821115610d8957610d8961443b565b5f60208284031215614485575f80fd5b81516144908161412e565b9392505050565b8181035f8312801583831316838312821617156144b6576144b661443b565b5092915050565b634e487b7160e01b5f52604160045260245ffd5b634e487b7160e01b5f52600160045260245ffd5b5f805f606084860312156144f7575f80fd5b8351925060208401519150604084015190509250925092565b8082018281125f83128015821682158216171561452f5761452f61443b565b505092915050565b805160ff81168114614547575f80fd5b919050565b80516145478161412e565b5f805f805f60a0868803121561456b575f80fd5b85516001600160801b0381168114614581575f80fd5b945061458f60208701614537565b935061459d60408701614537565b9250606086015180151581146145b1575f80fd5b60808701519092506145c28161412e565b809150509295509295909350565b600181815b8085111561460a57815f19048211156145f0576145f061443b565b808516156145fd57918102915b93841c93908002906145d5565b509250929050565b5f8261462057506001610d89565b8161462c57505f610d89565b8160018114614642576002811461464c57614668565b6001915050610d89565b60ff84111561465d5761465d61443b565b50506001821b610d89565b5060208310610133831016604e8410600b841016171561468b575081810a610d89565b61469583836145d0565b805f19048211156146a8576146a861443b565b029392505050565b5f610d868383614612565b6040516101c081016001600160401b03811182821017156146de576146de6144bd565b60405290565b604051601f8201601f191681016001600160401b038111828210171561470c5761470c6144bd565b604052919050565b5f6001600160401b0382111561472c5761472c6144bd565b5060051b60200190565b5f6020808385031215614747575f80fd5b82516001600160401b0381111561475c575f80fd5b8301601f8101851361476c575f80fd5b805161477f61477a82614714565b6146e4565b81815260059190911b8201830190838101908783111561479d575f80fd5b928401925b82841015613bd15783516147b58161412e565b825292840192908401906147a2565b634e487b7160e01b5f52603260045260245ffd5b805163ffffffff81168114614547575f80fd5b5f805f606084860312156147fd575f80fd5b614806846147d8565b9250614814602085016147d8565b9150614822604085016147d8565b90509250925092565b5f6001820161483c5761483c61443b565b5060010190565b8051600f81900b8114614547575f80fd5b80516001600160401b0381168114614547575f80fd5b5f6101c0828403121561487b575f80fd5b6148836146bb565b61488c8361454c565b815261489a6020840161454c565b60208201526148ab6040840161454c565b60408201526148bc606084016147d8565b60608201526080830151608082015260a083015160a082015260c083015160c082015260e083015160e08201526101006148f7818501614843565b90820152610120614909848201614854565b9082015261014061491b848201614854565b9082015261016061492d848201614854565b9082015261018061493f848201614854565b908201526101a0614951848201614854565b908201529392505050565b634e487b7160e01b5f52601260045260245ffd5b5f8261497e5761497e61495c565b500690565b5f60208284031215614993575f80fd5b610d8682614537565b8082028115828204841417610d8957610d8961443b565b5f826149c1576149c161495c565b500490565b5f80604083850312156149d7575f80fd5b505080516020909101519092909150565b5f60208083850312156149f9575f80fd5b82516001600160401b0380821115614a0f575f80fd5b818501915085601f830112614a22575f80fd5b815181811115614a3457614a346144bd565b614a46601f8201601f191685016146e4565b91508082528684828501011115614a5b575f80fd5b808484018584015e5f90820190930192909252509392505050565b5f610d8660ff841683614612565b5f6020808385031215614a95575f80fd5b82516001600160401b03811115614aaa575f80fd5b8301601f81018513614aba575f80fd5b8051614ac861477a82614714565b81815260059190911b82018301908381019087831115614ae6575f80fd5b928401925b82841015613bd1578351614afe8161412e565b82529284019290840190614aeb56fea2646970667358221220eff1bf1be59ea02adf659c25e84bb0a7a1c85177fd5c5607408bd929239122ac64736f6c63430008190033",
  "linkReferences": {},
  "deployedLinkReferences": {}
}