{"abi":[{"type":"constructor","inputs":[{"name":"exa_","type":"address","internalType":"address"},{"name":"pool_","type":"address","internalType":"contract IPool"},{"name":"gauge_","type":"address","internalType":"contract IERC20"},{"name":"beefyVault_","type":"address","internalType":"contract IBeefyVault"},{"name":"beefyBoost_","type":"address","internalType":"contract IERC20"},{"name":"extraLending_","type":"address","internalType":"contract IExtraLending"},{"name":"extraReserveId_","type":"uint256","internalType":"uint256"}],"stateMutability":"nonpayable"},{"type":"function","name":"beefyBoost","inputs":[],"outputs":[{"name":"","type":"address","internalType":"contract IERC20"}],"stateMutability":"view"},{"type":"function","name":"beefyVault","inputs":[],"outputs":[{"name":"","type":"address","internalType":"contract IBeefyVault"}],"stateMutability":"view"},{"type":"function","name":"exa","inputs":[],"outputs":[{"name":"","type":"address","internalType":"address"}],"stateMutability":"view"},{"type":"function","name":"externalVotes","inputs":[{"name":"account","type":"address","internalType":"address"}],"outputs":[{"name":"votes","type":"uint256","internalType":"uint256"}],"stateMutability":"view"},{"type":"function","name":"extraLending","inputs":[],"outputs":[{"name":"","type":"address","internalType":"contract IExtraLending"}],"stateMutability":"view"},{"type":"function","name":"extraReserveId","inputs":[],"outputs":[{"name":"","type":"uint256","internalType":"uint256"}],"stateMutability":"view"},{"type":"function","name":"gauge","inputs":[],"outputs":[{"name":"","type":"address","internalType":"contract IERC20"}],"stateMutability":"view"},{"type":"function","name":"pool","inputs":[],"outputs":[{"name":"","type":"address","internalType":"contract IPool"}],"stateMutability":"view"}],"bytecode":{"object":"0x610160604052348015610010575f80fd5b50604051610d48380380610d4883398101604081905261002f9161007c565b6001600160a01b0396871660805294861660a05292851660c05290841660e0528316610100529091166101205261014052610109565b6001600160a01b0381168114610079575f80fd5b50565b5f805f805f805f60e0888a031215610092575f80fd5b875161009d81610065565b60208901519097506100ae81610065565b60408901519096506100bf81610065565b60608901519095506100d081610065565b60808901519094506100e181610065565b60a08901519093506100f281610065565b8092505060c0880151905092959891949750929550565b60805160a05160c05160e051610100516101205161014051610b8f6101b95f395f818160f901528181610722015261084901525f81816101b601528181610777015261086f01525f818161018f015261057001525f8181608e015281816105f8015261066d01525f818161016801526101fb01525f818160d201528181610283015281816102fd015281816103b50152818161043a01526104ba01525f818161012e01526103860152610b8f5ff3fe608060405234801561000f575f80fd5b5060043610610085575f3560e01c80639715b12c116100585780639715b12c14610150578063a6f19c8414610163578063c47799a71461018a578063db82445c146101b1575f80fd5b80630f0d65691461008957806316f0115b146100cd57806340cb3376146100f45780637965b63614610129575b5f80fd5b6100b07f000000000000000000000000000000000000000000000000000000000000000081565b6040516001600160a01b0390911681526020015b60405180910390f35b6100b07f000000000000000000000000000000000000000000000000000000000000000081565b61011b7f000000000000000000000000000000000000000000000000000000000000000081565b6040519081526020016100c4565b6100b07f000000000000000000000000000000000000000000000000000000000000000081565b61011b61015e366004610921565b6101d8565b6100b07f000000000000000000000000000000000000000000000000000000000000000081565b6100b07f000000000000000000000000000000000000000000000000000000000000000081565b6100b07f000000000000000000000000000000000000000000000000000000000000000081565b6040516370a0823160e01b81526001600160a01b0382811660048301525f9182917f000000000000000000000000000000000000000000000000000000000000000016906370a0823190602401602060405180830381865afa158015610240573d5f803e3d5ffd5b505050506040513d601f19601f820116820180604052508101906102649190610943565b6040516370a0823160e01b81526001600160a01b0385811660048301527f000000000000000000000000000000000000000000000000000000000000000016906370a0823190602401602060405180830381865afa1580156102c8573d5f803e3d5ffd5b505050506040513d601f19601f820116820180604052508101906102ec9190610943565b6102f6919061095a565b90506105407f00000000000000000000000000000000000000000000000000000000000000006001600160a01b0316630dfe16816040518163ffffffff1660e01b8152600401602060405180830381865afa158015610357573d5f803e3d5ffd5b505050506040513d601f19601f8201168201806040525081019061037b9190610979565b6001600160a01b03167f00000000000000000000000000000000000000000000000000000000000000006001600160a01b031614610438577f00000000000000000000000000000000000000000000000000000000000000006001600160a01b0316635a76f25e6040518163ffffffff1660e01b8152600401602060405180830381865afa15801561040f573d5f803e3d5ffd5b505050506040513d601f19601f820116820180604052508101906104339190610943565b6104b8565b7f00000000000000000000000000000000000000000000000000000000000000006001600160a01b031663443cb4bc6040518163ffffffff1660e01b8152600401602060405180830381865afa158015610494573d5f803e3d5ffd5b505050506040513d601f19601f820116820180604052508101906104b89190610943565b7f00000000000000000000000000000000000000000000000000000000000000006001600160a01b03166318160ddd6040518163ffffffff1660e01b8152600401602060405180830381865afa158015610514573d5f803e3d5ffd5b505050506040513d601f19601f820116820180604052508101906105389190610943565b8391906108cf565b61054a908361095a565b6040516370a0823160e01b81526001600160a01b0385811660048301529193506106f1917f000000000000000000000000000000000000000000000000000000000000000016906370a0823190602401602060405180830381865afa1580156105b5573d5f803e3d5ffd5b505050506040513d601f19601f820116820180604052508101906105d99190610943565b6040516370a0823160e01b81526001600160a01b0386811660048301527f000000000000000000000000000000000000000000000000000000000000000016906370a0823190602401602060405180830381865afa15801561063d573d5f803e3d5ffd5b505050506040513d601f19601f820116820180604052508101906106619190610943565b61066b919061095a565b7f00000000000000000000000000000000000000000000000000000000000000006001600160a01b03166377c7b8fc6040518163ffffffff1660e01b8152600401602060405180830381865afa1580156106c7573d5f803e3d5ffd5b505050506040513d601f19601f820116820180604052508101906106eb9190610943565b906108ed565b6106fb908361095a565b6040805160018082528183019092529193505f9190602080830190803683370190505090507f0000000000000000000000000000000000000000000000000000000000000000815f81518110610753576107536109a8565b602090810291909101015260405163b069e06560e01b81525f906001600160a01b037f0000000000000000000000000000000000000000000000000000000000000000169063b069e065906107ae90859089906004016109bc565b5f60405180830381865afa1580156107c8573d5f803e3d5ffd5b505050506040513d5f823e601f3d908101601f191682016040526107ef9190810190610a6f565b90506108bc815f81518110610806576108066109a8565b602002602001015160600151825f81518110610824576108246109a8565b60200260200101516040015161083a919061095a565b6040516337e2beb760e21b81527f000000000000000000000000000000000000000000000000000000000000000060048201527f00000000000000000000000000000000000000000000000000000000000000006001600160a01b03169063df8afadc90602401602060405180830381865afa1580156106c7573d5f803e3d5ffd5b6108c6908561095a565b95945050505050565b8282028115158415858304851417166108e6575f80fd5b0492915050565b5f6109018383670de0b6b3a76400006108cf565b90505b92915050565b6001600160a01b038116811461091e575f80fd5b50565b5f60208284031215610931575f80fd5b813561093c8161090a565b9392505050565b5f60208284031215610953575f80fd5b5051919050565b8082018082111561090457634e487b7160e01b5f52601160045260245ffd5b5f60208284031215610989575f80fd5b815161093c8161090a565b634e487b7160e01b5f52604160045260245ffd5b634e487b7160e01b5f52603260045260245ffd5b604080825283519082018190525f906020906060840190828701845b828110156109f4578151845292840192908401906001016109d8565b5050506001600160a01b039490941660209390930192909252509092915050565b60405160a0810167ffffffffffffffff81118282101715610a3857610a38610994565b60405290565b604051601f8201601f1916810167ffffffffffffffff81118282101715610a6757610a67610994565b604052919050565b5f6020808385031215610a80575f80fd5b825167ffffffffffffffff80821115610a97575f80fd5b818501915085601f830112610aaa575f80fd5b815181811115610abc57610abc610994565b610aca848260051b01610a3e565b818152848101925060a0918202840185019188831115610ae8575f80fd5b938501935b82851015610b4d5780858a031215610b03575f80fd5b610b0b610a15565b8551815286860151610b1c8161090a565b8188015260408681015190820152606080870151908201526080808701519082015284529384019392850192610aed565b5097965050505050505056fea26469706673582212203d277eeb0a3305b23896762c049561a6a6cbcffc4a420a0e8dd1bee726994a1d64736f6c63430008190033","linkReferences":{}},"methodIdentifiers":{"beefyBoost()":"c47799a7","beefyVault()":"0f0d6569","exa()":"7965b636","externalVotes(address)":"9715b12c","extraLending()":"db82445c","extraReserveId()":"40cb3376","gauge()":"a6f19c84","pool()":"16f0115b"},"id":20}