{
  "_format": "hh-sol-artifact-1",
  "contractName": "PriceFeedDouble",
  "sourceName": "contracts/PriceFeedDouble.sol",
  "abi": [
    {
      "inputs": [
        {
          "internalType": "contract IPriceFeed",
          "name": "priceFeedOne_",
          "type": "address"
        },
        {
          "internalType": "contract IPriceFeed",
          "name": "priceFeedTwo_",
          "type": "address"
        }
      ],
      "stateMutability": "nonpayable",
      "type": "constructor"
    },
    {
      "inputs": [],
      "name": "baseUnit",
      "outputs": [
        {
          "internalType": "uint256",
          "name": "",
          "type": "uint256"
        }
      ],
      "stateMutability": "view",
      "type": "function"
    },
    {
      "inputs": [],
      "name": "decimals",
      "outputs": [
        {
          "internalType": "uint8",
          "name": "",
          "type": "uint8"
        }
      ],
      "stateMutability": "view",
      "type": "function"
    },
    {
      "inputs": [],
      "name": "latestAnswer",
      "outputs": [
        {
          "internalType": "int256",
          "name": "",
          "type": "int256"
        }
      ],
      "stateMutability": "view",
      "type": "function"
    },
    {
      "inputs": [],
      "name": "priceFeedOne",
      "outputs": [
        {
          "internalType": "contract IPriceFeed",
          "name": "",
          "type": "address"
        }
      ],
      "stateMutability": "view",
      "type": "function"
    },
    {
      "inputs": [],
      "name": "priceFeedTwo",
      "outputs": [
        {
          "internalType": "contract IPriceFeed",
          "name": "",
          "type": "address"
        }
      ],
      "stateMutability": "view",
      "type": "function"
    }
  ],
  "bytecode": "0x610100604052348015610010575f80fd5b506040516105ba3803806105ba83398101604081905261002f91610143565b6001600160a01b03821660808190526040805163313ce56760e01b8152905163313ce567916004808201926020929091908290030181865afa158015610077573d5f803e3d5ffd5b505050506040513d601f19601f8201168201806040525081019061009b9190610174565b60ff1660a08160ff1681525050806001600160a01b031663313ce5676040518163ffffffff1660e01b8152600401602060405180830381865afa1580156100e4573d5f803e3d5ffd5b505050506040513d601f19601f820116820180604052508101906101089190610174565b61011390600a610291565b60e0526001600160a01b031660c0525061029f565b80516001600160a01b038116811461013e575f80fd5b919050565b5f8060408385031215610154575f80fd5b61015d83610128565b915061016b60208401610128565b90509250929050565b5f60208284031215610184575f80fd5b815160ff81168114610194575f80fd5b9392505050565b634e487b7160e01b5f52601160045260245ffd5b600181815b808511156101e957815f19048211156101cf576101cf61019b565b808516156101dc57918102915b93841c93908002906101b4565b509250929050565b5f826101ff5750600161028b565b8161020b57505f61028b565b8160018114610221576002811461022b57610247565b600191505061028b565b60ff84111561023c5761023c61019b565b50506001821b61028b565b5060208310610133831016604e8410600b841016171561026a575081810a61028b565b61027483836101af565b805f19048211156102875761028761019b565b0290505b92915050565b5f61019460ff8416836101f1565b60805160a05160c05160e0516102d66102e45f395f818161011801526101c001525f818160b2015261014001525f605e01525f818160f101526101e101526102d65ff3fe608060405234801561000f575f80fd5b5060043610610055575f3560e01c8063313ce5671461005957806350d25bcd1461009757806380684e25146100ad5780638fa537a4146100ec578063c2930f9114610113575b5f80fd5b6100807f000000000000000000000000000000000000000000000000000000000000000081565b60405160ff90911681526020015b60405180910390f35b61009f61013a565b60405190815260200161008e565b6100d47f000000000000000000000000000000000000000000000000000000000000000081565b6040516001600160a01b03909116815260200161008e565b6100d47f000000000000000000000000000000000000000000000000000000000000000081565b61009f7f000000000000000000000000000000000000000000000000000000000000000081565b5f6102667f00000000000000000000000000000000000000000000000000000000000000006001600160a01b03166350d25bcd6040518163ffffffff1660e01b8152600401602060405180830381865afa15801561019a573d5f803e3d5ffd5b505050506040513d601f19601f820116820180604052508101906101be9190610289565b7f00000000000000000000000000000000000000000000000000000000000000007f00000000000000000000000000000000000000000000000000000000000000006001600160a01b03166350d25bcd6040518163ffffffff1660e01b8152600401602060405180830381865afa15801561023b573d5f803e3d5ffd5b505050506040513d601f19601f8201168201806040525081019061025f9190610289565b919061026b565b905090565b828202811515841585830485141716610282575f80fd5b0492915050565b5f60208284031215610299575f80fd5b505191905056fea2646970667358221220206508e9bd5a6b511b550b817e6c90a5a1800c0077b62860c1af64f2fa09cfec64736f6c63430008190033",
  "linkReferences": {},
  "deployedLinkReferences": {}
}